:100000000C9499030C94C1030C94C1030C94C10388
:100010000C94C1030C94C1030C94C1030C94C10350
:100020000C94C1030C94C1030C94C1030C94C10340
:100030000C94C1030C94C1030C94C1030C94C10330
:100040000C948B220C94C1030C943E190C94181937
:100050000C94C1030C94C1030C94C1030C94C10310
:100060000C9439040C94C10359165F1665166B166F
:10007000711677167D16AE17B517BC17C317CA17BA
:10008000E117D117E117D81700407A10F35A00A0F2
:10009000724E18090010A5D4E80000E87648170051
:1000A00000E40B54020000CA9A3B000000E1F50591
:1000B000000080969800000040420F000000A086DB
:1000C00001000000102700000000E803000000000D
:1000D0006400000000000A000000000001000000B1
:1000E00000002C76D888DC674F0823DFC1DFAE59CB
:1000F000E1B1B796E5E3E453C63AE651997696E85E
:10010000E6C28426EB898C9B62ED407C6FFCEFBCE1
:100110009C9F40F2BAA56FA5F490055A2AF75C930C
:100120006B6CF9676DC11BFCE0E40D47FEF520E642
:10013000B500D0ED902E0300943577050080841E25
:10014000080000204E0A000000C80C333333330F80
:10015000986E12831141EF8D2114893BE65516CF1D
:10016000FEE6DB18D1844B381BF77C1D901DA4BB29
:10017000E424203284725E228100C9F124ECA1E5DE
:100180003D2752315B73745D3A004C315B73745D93
:100190003A0052305B73745D3A004C305B73745DAF
:1001A0003A00525B6465675D3A004C5B6465675D6D
:1001B0003A00523A004C3A004D4F56494E472046BD
:1001C000494E495348004D4F56494E472052554ECF
:1001D0004E494E47004D4F56494E472050415553CA
:1001E0004544004D4F56494E472053544F505045BB
:1001F0004400454D2053544F502052455345540020
:10020000454D455247454E43592053544F50004F9A
:100210004B005E324C355F203C3452363E2020305D
:100220002D53005A5B435D20535B415D20465B428A
:100230005D20234553430020202020202020200043
:1002400000000000250028002B0000000000230013
:100250002600290004040404040404040202020227
:100260000202030303030303010204081020408079
:1002700001020408102001020408102000000008F8
:10028000000201000003040700000000000000005D
:10029000024F4E210000000000000000000000009E
:1002A000014F464621000000000000000000000051
:1002B000004155544F2100000000000000000000E4
:1002C000B002A00290022B0303C002030000000052
:1002D000000000002C03500003000000000000009C
:1002E0000030034C00030000000000000000340355
:1002F0004800030000000000000000380344000331
:1003000000000000000000003C034000030000006B
:10031000000000000040033C000900000000000055
:100320000000C602040000010000000000000044BC
:1003300003340000010000000000000045036100DC
:100340000001000000000000004603300000010032
:1003500000000000000047036000000100000000F2
:1003600000000048032C0002000000000000000014
:10037000490328000200000000000000004B032495
:10038000000200000000000000004D0320000200F9
:10039000000000000000004F030C000200000000FD
:1003A00000000000510308000300000000000000EE
:1003B0000053035C0003000000000000000057032E
:1003C00058000300000000000000005B035400041C
:1003D00000000000000000005F0338000300000080
:1003E000000000000063031C000300000000000088
:1003F0000000670318000300000000000000006B0D
:100400000314000300000000000000006F03100050
:1004100052455345542044454641554C54532100C0
:100420000200740C52205343414C455B73742F649B
:1004300065675D000100CB024C205343414C455B96
:1004400073742F6465675D000100D80252204D412E
:10045000585B73746570735D000000000100E50275
:100460004C204D41585B73746570735D0000000053
:100470000100F20252204D494E5B73746570735D4A
:10048000000000000100FF024C204D494E5B7374D8
:100490006570735D0000000001000C0353484F5469
:1004A000204F55545055540000000000010019031E
:1004B00053484F5420494E56455253494F4E000021
:1004C000010026035220454E4120494E56000000AF
:1004D0000000000001003303522044495220494EDD
:1004E0005600000000000000010040034C20454E73
:1004F0004120494E560000000000000001004D035D
:100500004C2044495220494E560000000000000093
:1005100001005A03504F53542053484F5420545B0A
:100520006D735D000100670353484F542054494DDB
:10053000455B6D735D00000001007403505245205F
:1005400053484F5420545B6D735D000001008103DC
:10055000414343454C5B73742F73325D00000000D0
:1005600001008E034D41582053504545445B737440
:100570002F735D0001009B0352204E4558545B735E
:10058000746570735D0000000100A8034C204E45A7
:1005900058545B73746570735D0000000100B5030F
:1005A00053544F505320325B2D5D0000000000007B
:1005B0000100C20353544F50535B2D5D00000000F7
:1005C000000000000100CF0352315B73746570734B
:1005D0005D000000000000000100DC034C315B7393
:1005E000746570735D000000000000000100E90305
:1005F00052305B73746570735D0000000000000092
:100600000100F6034C305B73746570735D0000008D
:100610000000000001000304B405A0058C05780566
:10062000640550053C05280514050005EC04D804B4
:10063000C404B0049C048804740460044C043804AA
:10064000240410040406F005DC05C8055345545481
:10065000494E47532D3E00000000000000161806CA
:10066000474F544F2046494E414C20504F53210094
:1006700002004408474F544F2053544152542050D5
:100680004F5321000200580852414E47452D3E006D
:1006900000000000000000000004440643414C49F3
:1006A00042524154494F4E00000000000200E10355
:1006B000474F544F205A45524F20504F532100006E
:1006C00002003A084D4F56452053544F5021000028
:1006D00000000000020007084D4F564520535441CA
:1006E00052542100000000000200C0054D4F564545
:1006F00020504155534521000000000002001E0813
:10070000EC06D806C406B0069C0688067406600689
:100710004C06524F4F540000000000000000000043
:1007200000000009000700000000240027002A0044
:10073000522C11241FBECFEFD8E0DEBFCDBF25E085
:10074000A2E3B2E001C01D92AC39B207E1F712E0BA
:10075000A0E0B1E0E2EFF9E602C005900D92A2330D
:10076000B107D9F713E0C9E9D3E004C02197FE012E
:100770000E94E534C839D107C9F70E94D5220C94EC
:10078000F7340C94000085ED8093BC008091BC0090
:1007900084FDFCCF1092E802089582EF94E00E945D
:1007A000861D64E971E082EF94E00E94161961E011
:1007B00080E00E945C2061EA71E082EF94E00C949A
:1007C000161982EF94E00E947E1D1092260485E0A7
:1007D00090E0909354028093530281E090E09093D4
:1007E00052028093510210923302109234021092FE
:1007F0003502109236021092320282EF94E00E948B
:10080000861D60E080E00E945C2083E292E00E940E
:10081000730D61E080E00E945C2082E192E00C9424
:10082000730DEF92FF920F931F93CF93DF938C0181
:10083000842F79010E945C20E801CE01801B910B7E
:100840008E159F057CF469918FED860F8E3508F02B
:1008500060E282EF94E00E94DD1A0E94D41C0E94A4
:100860008B1CEBCFDF91CF911F910F91FF90EF90F9
:1008700008951F920F920FB60F9211242F933F935A
:100880004F935F936F937F938F939F93AF93BF9398
:10089000EF93FF938091B900887F803609F49CC064
:1008A00068F5883209F45BC090F4803109F454C0D3
:1008B00038F4882309F4F6C0883009F44DC0F6C036
:1008C000883109F44CC0803209F45DC0EFC0803437
:1008D00009F468C048F4803309F455C0883309F03E
:1008E000E5C08093E602D8C0803509F44FC0883552
:1008F00009F45DC0883409F0D9C0D6C0883909F43C
:10090000C7C0A8F4883709F467C038F4883609F4FA
:1009100063C0803709F460C0C9C0883809F4B8C022
:10092000803909F45FC0803809F0C0C05BC0803BEB
:1009300009F486C038F4803A09F466C0883A09F4AC
:100940007FC0B4C0803C09F4A7C0883C09F4A4C0AF
:10095000883B09F48AC0AAC08091C30210C090915C
:10096000E5028091E402981770F5E091E50281E0DC
:100970008E0F8093E502F0E0EC53FD4F8081809371
:10098000BB0085EC86C08093E6028EC0E091E50254
:1009900081E08E0F8093E5028091BB00F0E0EC5384
:1009A000FD4F80839091E5028091E4026EC0E0915A
:1009B000E50281E08E0F8093E5028091BB00F0E0BC
:1009C000EC53FD4F80838091E70281116DC081E07F
:1009D0008093C20284EA61C083E08093E8021092AF
:1009E000BD02CFCF8091BD02803208F051C0E091AE
:1009F000BD0281E08E0F8093BD028091BB00F0E0CC
:100A0000E356FD4F8083BDCF85EC8093BC001092F0
:100A1000E8028091BD02803230F4E091BD02F0E046
:100A2000E356FD4F10826091BD0270E0E091C0027C
:100A3000F091C1028DE992E009951092BD0236C095
:100A400084E08093E80210929C0210929B02E09155
:100A5000BE02F091BF02099580919B02811105C0F1
:100A600081E080939B0210927B02E0919C0281E0E6
:100A70008E0F80939C02F0E0E558FD4F80818093BB
:100A8000BB0090919C0280919B02981708F479CF4B
:100A900085E88093BC000AC085EC8093BC0010926E
:100AA000E80204C01092E6020E94C303FF91EF9196
:100AB000BF91AF919F918F917F916F915F914F9176
:100AC0003F912F910F900FBE0F901F90189540915E
:100AD0009B02262F30E0240F311D21323105DCF43A
:100AE0002091E8022430C9F4FC0180E090E08617F0
:100AF00058F430919B022191DC01A558BD4FA30F02
:100B0000B11D2C930196F3CF80919B02680F6093E7
:100B10009B0280E0089581E0089582E0089544E01A
:100B20000C941D1D87E392E00E94730D0E94D41C5B
:100B30000C948B1CCF93C62F482F50E060E070E0E0
:100B400082EF94E00E941210C11102C061E405C05E
:100B5000C33010F46DE401C068E582EF94E0CF91FA
:100B60000C94FA1882EF94E00E94861D60E080E009
:100B70000E945C208FE092E00E94730D0C94810F24
:100B80004F925F926F927F928F929F92AF92BF929D
:100B9000CF92DF92EF92FF92CF93DF93CDB7DEB784
:100BA0002C970FB6F894DEBF0FBECDBF0E94B205E2
:100BB00080905F0390906003A0906103B090620307
:100BC000C0906703D0906803E0906903F0906A03D7
:100BD00080916F0390917003A0917103B0917203A3
:100BE0002091630330916403409165035091660343
:100BF00029833A834B835C8320916B0330916C0390
:100C000040916D0350916E032D833E834F8358872F
:100C100081149104A104B10409F037C180905703F5
:100C200090905803A0905903B0905A0380924002CC
:100C300090924102A0924202B0924302209153034B
:100C400030915403409155035091560329873A87B8
:100C50004B875C8720933C0230933D0240933E02D9
:100C600050933F02C81AD90AEA0AFB0AC701B60123
:100C7000A50194010E94C63429013A01209344023F
:100C800030934502409346025093470269817A812E
:100C90008B819C812D813E814F815885621B730B16
:100CA000840B950B29853A854B855C850E94C6345B
:100CB000209338023093390240933A0250933B021A
:100CC000A5019401C301B2010E948034C61AD70A5B
:100CD000E80AF90A09F454C069E072E087E793E092
:100CE0000E9416192091440230914502409146021B
:100CF00050914702C701B6010E94C634CA01B9012A
:100D00000E948E106091570370915803809159038F
:100D100090915A0322E030E040E050E00E94C63457
:100D2000DA01C90120914402309145024091460206
:100D3000509147028090400290904102A090420260
:100D4000B0904302C816D906EA06FB064CF0C7016C
:100D5000B6010E94C634820E931EA41EB51E08C0A2
:100D6000C701B6010E94C634821A930AA40AB50AC2
:100D70008092400290924102A0924202B0924302BD
:100D8000C0906303D0906403E0906503F090660325
:100D900080916B0390916C03A0916D03B0916E03F1
:100DA000C81AD90AEA0AFB0A20913C0230913D0296
:100DB00040913E0250913F02609138027091390299
:100DC00080913A0290913B020E948034C61AD70A61
:100DD000E80AF90A09F4E7C069E172E087E793E0FD
:100DE0000E941619209138023091390240913A023E
:100DF00050913B02C701B6010E94C634CA01B90135
:100E00000E948E106091530370915403809155039A
:100E10009091560322E030E040E050E00E94C6345A
:100E2000DA01C90180903C0290903D02A0903E0200
:100E3000B0903F02209138023091390240913A023D
:100E400050913B02C816D906EA06FB065CF0C701C2
:100E5000B6010E94C634D501C401820F931FA41F9E
:100E6000B51F0AC0C701B6010E94C634D501C4012E
:100E7000821B930BA40BB50B80933C0290933D0215
:100E8000A0933E02B0933F028EC040905B0350900F
:100E90005C0360905D0370905E03A7019601281BC0
:100EA000390B4A0B5B0BCA01B90114141504160463
:100EB0001704ECF5A50194012150310941095109AC
:100EC0000E94C63420934002309341024093420274
:100ED000509343028092440290924502A0924602AF
:100EE000B092470269817A818B819C812D813E81FC
:100EF0004F815885621B730B840B950BA3019201E4
:100F000021503109410951090E94C63420933C0205
:100F100030933D0240933E0250933F02409238028C
:100F20005092390260923A0270923B023CC0A30197
:100F3000920120953095409550950E94C63420939B
:100F40004002309341024093420250934302409248
:100F500044025092450260924602709247026981B3
:100F60007A818B819C812D813E814F815885621BC6
:100F7000730B840B950BA501940121503109410994
:100F800051090E94C63420933C0230933D024093A5
:100F90003E0250933F028092380290923902A09212
:100FA0003A02B0923B024091440250914502609156
:100FB00046027091470287E793E00E94121064EDA9
:100FC00071E087E793E00E941619609138027091F2
:100FD000390280913A0290913B020E948E1081E08A
:100FE000809350022C960FB6F894DEBF0FBECDBF93
:100FF000DF91CF91FF90EF90DF90CF90BF90AF90B7
:101000009F908F907F906F905F904F9008950E9477
:10101000B2051092370210924C0210924D021092BB
:101020004E0210924F021092480210924902109202
:101030004A0210924B021092500208950E94B2058B
:1010400082E0809350020895CF92DF92EF92FF9258
:1010500069017A01AB01BC018FE495E00E94440F65
:10106000B701A6018BE095E0FF90EF90DF90CF9065
:101070000C94440F0E94B20520E030E0A90160E02A
:1010800070E0CB010C9424080E94B2052091630308
:10109000309164034091650350916603609167034A
:1010A000709168038091690390916A030C942408FD
:1010B0000E94B20520916B0330916C0340916D0347
:1010C00050916E0360916F03709170038091710372
:1010D000909172030C942408CF92DF92EF92FF92CA
:1010E00080914803109257058093580510927D0512
:1010F00080914603109213058093140510923905D0
:10110000609151037091520380E090E00E9485311C
:10111000AB01BC018FE495E00E94A00F60914F03EA
:101120007091500380E090E00E9485316B017C015A
:1011300020E030E0A9010E948031882331F0B7011E
:10114000A6018FE495E00E9470196091510370919F
:10115000520380E090E00E948531AB01BC018BE03E
:1011600095E00E94A00F60914F037091500380E0C2
:1011700090E00E9485316B017C0120E030E0A90104
:101180000E948031882351F0B701A6018BE095E0E1
:10119000FF90EF90DF90CF900C947019FF90EF903C
:1011A000DF90CF900895CF93DF93EC010E94821ED1
:1011B0008E859F858130910589F18230910581F17D
:1011C0008430910579F1089779F18C859D8581307E
:1011D000910561F18230910559F18430910551F109
:1011E000089751F18A859B858130910539F18230CC
:1011F000910531F18430910529F1089729F188850D
:1012000099858130910511F18230910509F1843081
:10121000910501F1089701F180E01FC08AE21DC02D
:1012200087E31BC084E319C081E317C080E315C0C6
:1012300088E313C085E311C082E30FC083E20DC0D1
:1012400089E30BC086E309C083E307C084E405C0DB
:1012500083E403C082E401C081E4DF91CF9108956B
:10126000CF92DF92EF92FF920F931F93CF93DF9372
:10127000EC010E94821E888580FF1CC08A8580FF49
:101280000EC082EF94E00E94861D80E092E00E94F2
:10129000730D10925402109253020E94810F8E859A
:1012A00083FF08C082EF94E00E94861D82EF91E0E8
:1012B0000E94730DCE010E94821E8E859F85049729
:1012C00031F58C859D85089711F40E941E088A854A
:1012D0009B85089711F40E94C00588859985089719
:1012E00011F40E9407088C859D85049719F481E00C
:1012F00080932B038A859B85049719F482E0809361
:101300002B0388859985049711F410922B038E8501
:101310009F858B7F029739F0809153029091540200
:10132000059709F004C18C859D858430910511F5E0
:1013300080915B0590915C05A0915D05B0915E0583
:10134000409138035091390360913A0370913B0307
:101350008C019D0109511C4F2F4F3F4F041715075A
:101360002607370754F5AC01BD0148515C4F6F4F5C
:101370007F4F23C0089731F580915B0590915C0504
:10138000A0915D05B0915E054091400350914103ED
:1013900060914203709143038C019D01075E1340ED
:1013A00021093109401751076207730734F4AC0172
:1013B000BD01485E5340610971098FE495E00E94C8
:1013C000440F2DC08FE495E00E945B0F882339F114
:1013D00040E25CEB6EEB7CE48FE495E00E947019D8
:1013E0008FE495E00E94A2100E94D41C8111FCCFD2
:1013F00060914F037091500380E090E00E9485312E
:101400006B017C0120E030E0A9010E94803188233B
:1014100031F0B701A6018FE495E00E9470198E8526
:101420009F858D7F049711F5809117059091180580
:10143000A0911905B0911A054091340350913503DC
:1014400060913603709137038C019D0109511C4F47
:101450002F4F3F4F041715072607370764F5AC01D8
:10146000BD0148515C4F6F4F7F4F25C08A859B85DA
:10147000049731F58091170590911805A0911905F1
:10148000B0911A0540913C0350913D0360913E0399
:1014900070913F038C019D01075E134021093109C2
:1014A000401751076207730734F4AC01BD01485E71
:1014B0005340610971098BE095E00E94440F2DC0F3
:1014C0008BE095E00E945B0F882339F140E25CEBF2
:1014D0006EEB7CE48BE095E00E9470198BE095E068
:1014E0000E94A2100E948B1C8111FCCF60914F03BF
:1014F0007091500380E090E00E9485316B017C0187
:1015000020E030E0A9010E948031882331F0B7014A
:10151000A6018BE095E00E9470198C859D8501974E
:1015200021F482E080932B0302C010922B03888564
:1015300099858E0101581F4F892B61F48A859B85FF
:10154000892B41F48C859D85892B21F48E859F857F
:10155000892BA1F1F80180819181A281B381892B2E
:101560008A2B8B2B39F40E947F22F80160837183D0
:1015700082839383F801C080D180E280F380F4EF0E
:10158000CF0EF1E0DF1EE11CF11C0E947F226C15E2
:101590007D058E059F05B8F4F801C080D180E280FA
:1015A000F380F8ECCF0ED11CE11CF11C0E947F22CD
:1015B000C616D706E806F90630F410C0F801108206
:1015C000118212821382CE01DF91CF911F910F9170
:1015D000FF90EF90DF90CF900C94D30880E0DF91E4
:1015E000CF911F910F91FF90EF90DF90CF900895D2
:1015F000835B9F4FFC01808191810E94300981347F
:1016000061F0823469F0843471F0833279F08A3287
:1016100081F0082E000C990B089583E090E0089566
:1016200084E090E0089581E090E0089582E090E009
:10163000089585E090E0089510922B0380EA9FE0E2
:10164000909352038093510384E690E0909350036B
:1016500080934F0382E090E0A0E0B0E080935F03CE
:1016600090936003A0936103B093620388EB9BE0C7
:1016700090934E0380934D0384EF91E090934C033D
:1016800080934B038CED95E090934A03809349033C
:1016900088EE93E0A0E0B0E080936F039093700336
:1016A000A0937103B093720380936B0390936C03C8
:1016B000A0936D03B0936E0388E19CEFAFEFBFEF93
:1016C0008093670390936803A0936903B0936A03C0
:1016D0008093630390936403A0936503B0936603C0
:1016E000109248031092460381E080934703809351
:1016F00045031092440380EF98EDAFEFBFEF809366
:10170000400390934103A0934203B093430380931B
:101710003C0390933D03A0933E03B0933F0380E1CD
:1017200097E2A0E0B0E08093380390933903A09350
:101730003A03B0933B038093340390933503A09313
:101740003603B09337038AE090E0A0E0B0E08093E6
:10175000300390933103A0933203B093330380930B
:101760002C0390932D03A0932E03B0932F0310927C
:101770005B0310925C0310925D0310925E0384E69B
:1017800090E0A0E0B0E08093570390935803A093BB
:101790005903B0935A038093530390935403A09337
:1017A0005503B093560341E06BE273E084E090E0B0
:1017B0000E943B1D42E061E573E088E090E00E94FA
:1017C0003B1D42E06FE473E08CE090E00E943B1D23
:1017D0006FE573E088E390E00E94731D42E06DE4E2
:1017E00073E080E290E00E943B1D42E06BE473E016
:1017F00084E290E00E943B1D42E069E473E088E2ED
:1018000090E00E943B1D6FE673E080E190E00E9453
:10181000731D6BE673E084E190E00E94731D67E640
:1018200073E088E190E00E94731D63E673E08CE151
:1018300090E00E94731D41E068E473E08CE290E068
:101840000E943B1D41E066E473E080E390E00E946B
:101850003B1D41E064E473E084E390E00E943B1DA3
:1018600060E473E08CE390E00E94731D6CE373E02E
:1018700080E490E00E94731D68E373E084E490E0EC
:101880000E94731D64E373E088E490E00E94731D7E
:1018900060E373E08CE490E00E94731D6CE273E0FF
:1018A00080E590E00E94731D41E067E473E080E60C
:1018B00090E00E943B1D41E065E473E081E690E02A
:1018C0000E943B1D6BE573E084E590E00E94731D70
:1018D00067E573E088E590E00E94731D63E573E0BF
:1018E0008CE590E00C94731D0E941C0B0C94B205C7
:1018F0000F931F93CF93DF93EC01FC01709614912B
:10190000113009F098C01093270440E150E0BC0169
:101910008FE494E00E94DF2E20E130E040E050E0D0
:1019200060E070E08FE494E00E94D420FE017296A3
:1019300085919491FC0164913996A591B4916111BE
:1019400004C08C91809361046FC08FEF860F82304A
:1019500040F48D919C911197909367048093660455
:1019600063C08DEF860F823070F40D911D912D9123
:101970003C911397009362041093630420936404D2
:101980003093650451C0693031F5FD013396C5913E
:10199000D491FD0185919491FC018081FD013296E5
:1019A000A4919E0160E090E0A91761F0F9014591D2
:1019B0005491FA014491841301C0692F9F5F2E5FF7
:1019C0003F4FF2CF60936104CE01DF91CF911F9121
:1019D0000F910C94A4216A30D1F4FD013196C59188
:1019E000D491FD01A491888190E002C095958795DE
:1019F000AA95E2F780FF03C01093610402C0109221
:101A00006104DF91CF911F910F910C94CF210D9123
:101A10001D912D913C9113970093680410936904D4
:101A200020936A0430936B04CD01DF91CF911F9115
:101A30000F910C943D21111134C061112EC02091E1
:101A40002C0430912D048217930739F180913004D2
:101A500090913104892B79F0809132049091330474
:101A6000892B61F08091340490913504892B79F4AD
:101A700082E090E005C080E090E002C081E090E06C
:101A8000880F991FFC01E05DFB4F31832083D093C9
:101A90002D04C0932C0410924A0460914A04CE0194
:101AA00014C01230D9F4FC0172968591949100977C
:101AB00011F0FC01099580912604882361F0609162
:101AC0004A0480912C0490912D04DF91CF911F91B5
:101AD0000F910C94DC2081E080932904DF91CF9159
:101AE0001F910F9108950F931F93CF93DF938C0154
:101AF000C0E0D0E0F801EC0FFD1F6491662341F0D7
:101B000082EF94E00E94DD1A892B11F02196F2CF2A
:101B1000CE01DF91CF911F910F9108954F925F9267
:101B20006F927F928F929F92AF92BF92CF92DF92ED
:101B3000EF92FF920F931F93CF93DF93EC01C8882E
:101B4000D988EA88FB888C859D85AE85BF85C81AB3
:101B5000D90AEA0AFB0A6C897D898E899F899B01D3
:101B6000AC010E94E6314B015C016C8D7D8D8E8D48
:101B70009F8D9B01AC010E940C339B01AC01C50100
:101B8000B4010E9478330E94EA33C114D104E10405
:101B9000F10499F462307105810591050CF076C06D
:101BA0001CA21DA21EA21FA21C8A1D8A1E8A1F8A99
:101BB0001CAA1DAA1EAA1FAAEDC00CA91DA92EA908
:101BC0003FA91C141D041E041F04FCF4101611066A
:101BD000120613064CF46C157D058E059F054CF519
:101BE0002A81211153C025C0011511052105310598
:101BF00009F44CC06C157D058E059F050CF046C0A0
:101C00008A81882309F442C036C0101611061206D4
:101C10001306ECF40027112798010C191D092E0951
:101C20003F0960177107820793071CF42A8122235A
:101C300069F19B01AC0188279927DC01821B930B7A
:101C4000A40BB50B8CAB9DABAEABBFAB1FC00115EE
:101C5000110521053105D1F08824992454018C18EF
:101C60009D08AE08BF08681579058A059B0574F4C0
:101C70008A8181110BC030952095109501951F4FD9
:101C80002F4F3F4F0CAB1DAB2EAB3FAB8CA89DA88D
:101C9000AEA8BFA881149104A104B10489F488AD51
:101CA00099ADAAADBBAD8CAF9DAFAEAFBFAF81E07C
:101CB0001C141D041E041F040CF080E08A833FC026
:101CC000CCACDDACEEACFFACA7019601C701B60110
:101CD0000E940C332B013C01C501B4010E948731E5
:101CE00020E030E040E850E40E94E63120E030E0BF
:101CF00040E85FE30E940C339B01AC01C301B201D9
:101D00000E9478339B01AC01C701B6010E940B33DE
:101D10003B016C01FE01E05CFF4FE080F18002813D
:101D200013819701A8010E942034181614F473013E
:101D30008601C701D8018CAF9DAFAEAFBFAF3FEFFB
:101D4000831A930AA30AB30A8CAA9DAAAEAABFAAB1
:101D5000CCACDDACEEACFFACC701B6010E94F133F8
:101D60006CA37DA38EA39FA3A701960160E074E2FC
:101D700084E799E40E9478336C8B7D8B8E8B9F8BEC
:101D80002A81211107C0DC01CB01B0588C8B9D8BBF
:101D9000AE8BBF8BDF91CF911F910F91FF90EF9092
:101DA000DF90CF90BF90AF909F908F907F906F907B
:101DB0005F904F900895CF92DF92EF92FF92CF9372
:101DC000DF93EC018CA19DA1AEA1BFA1892B8A2B31
:101DD0008B2BB9F10E945A226B017C0188A599A531
:101DE000AAA5BBA5B701A601481B590B6A0B7B0B23
:101DF0008CA19DA1AEA1BFA1481759076A077B0717
:101E000000F12A818C859D85AE85BF85222321F036
:101E10000196A11DB11D03C00197A109B1098C87CD
:101E20009D87AE87BF874C855D856E857F85CE019A
:101E30000E949F17C8A6D9A6EAA6FBA6CE010E94BB
:101E40008E0D20E030E0A9016C897D898E899F8903
:101E50000E948031811110C081E0C888D988EA8849
:101E6000FB884C855D856E857F85C416D506E606A4
:101E7000F70619F480E001C081E0DF91CF91FF9077
:101E8000EF90DF90CF9008950F931F93FC0100898E
:101E9000118922893389041715072607370741F06E
:101EA000408B518B628B738B1F910F910C948E0D15
:101EB0001F910F9108950F931F93CF93DF93EC0120
:101EC00020E030E0A9016C897D898E899F890E947C
:101ED0008031811110C081E0088919892A893B89E4
:101EE0004C855D856E857F850417150726073707A6
:101EF00019F480E001C081E0DF91CF911F910F9133
:101F00000895CF92DF92EF92FF920E947F226B01A1
:101F10007C010E947F22DC01CB018C199D09AE0956
:101F2000BF09843F9140A105B10528F40E94D41C4B
:101F30000E948B1CEECFFF90EF90DF90CF90089522
:101F4000CF92DF92EF92FF920F931F93CF93DF9385
:101F5000EC016A017B0120E030E0A901C701B60174
:101F60000E94803187FF04C0F7FAF094F7F8F094EC
:101F7000A7019601688D798D8A8D9B8D0E94803195
:101F8000882309F446C0C88ED98EEA8EFB8E8E0156
:101F9000005C1F4FA701960160E074E284E799E4BA
:101FA0000E947833F80160837183828393838CA9C4
:101FB0009DA9AEA9BFA9181619061A061B064CF54D
:101FC0006C897D898E899F899B01AC010E94E631D5
:101FD0006B017C016C8D7D8D8E8D9F8D9B01AC0185
:101FE0000E940C339B01AC01C701B6010E947833FB
:101FF0000E94EA336CAB7DAB8EAB9FABCE01DF9121
:10200000CF911F910F91FF90EF90DF90CF900C94A4
:102010008E0DDF91CF911F910F91FF90EF90DF9088
:10202000CF9008954F925F926F927F928F929F927E
:10203000AF92BF92CF92DF92EF92FF920F931F93D6
:10204000CF93DF93CDB7DEB7A1970FB6F894DEBF7D
:102050000FBECDBF8C016A017B0177FF2AC06DE204
:102060000E94FA185C0122273327A9012C193D0987
:102070004E095F0919A2CE0181967C019AE0492E92
:10208000512C612C712CCA01B901A30192010E944B
:10209000A434605DF70162937F012115310541058C
:1020A000510589F7BF01C8010E9401198A0D9B1DC6
:1020B0001EC09A01AB0119A2CE0181967C018AE073
:1020C000882E912CA12CB12CCA01B901A501940133
:1020D0000E94A434605DF70162937F0121153105F0
:1020E0004105510589F7BF01C8010E940119A19658
:1020F0000FB6F894DEBF0FBECDBFDF91CF911F9119
:102100000F91FF90EF90DF90CF90BF90AF909F9096
:102110008F907F906F905F904F900895CF93DF9353
:10212000AB01BC0187E793E00E941210EC0169E269
:1021300072E087E793E00E9401198C0F9D1FDF91E9
:10214000CF9108958F929F92AF92BF92CF92DF92DC
:10215000EF92FF92CF93DF93EC018C889D88AE883D
:10216000BF8820E030E0A901C501B4010E948031A0
:10217000882309F442C0A5019401C501B4010E945D
:10218000E6316B017C016C8D7D8D8E8D9F8D9B0169
:10219000AC010E940C339B01AC01C701B6010E9447
:1021A00078330E94EA336B017C012FEFC21AD20A06
:1021B000E20AF20A20E030E0A901C501B4010E9460
:1021C00020344C855D856E857F8518162CF44C0D6A
:1021D0005D1D6E1D7F1D04C04C195D096E097F09D0
:1021E000CE01DF91CF91FF90EF90DF90CF90BF9025
:1021F000AF909F908F900C94440FDF91CF91FF9000
:10220000EF90DF90CF90BF90AF909F908F90089508
:10221000CF93DF93BC0187E793E00E940119EC01A3
:1022200069E272E087E793E00E9401198C0F9D1F1D
:10223000DF91CF910895CF93DF93282F30E0F901FC
:10224000E458FD4F8491F901E859FD4FD491F9010B
:10225000EC5AFD4FC491CC2391F081110E94F521DD
:10226000EC2FF0E0EE0FFF1FE65BFD4FA591B49160
:10227000EC91ED2381E090E021F480E002C080E069
:1022800090E0DF91CF9108951F93CF93DF93282F94
:1022900030E0F901E458FD4F8491F901E859FD4F10
:1022A000D491F901EC5AFD4FC491CC23C1F0162F03
:1022B00081110E94F521EC2FF0E0EE0FFF1FE05C92
:1022C000FD4FA591B4919FB7F894111104C08C9162
:1022D000D095D82302C0EC91DE2BDC939FBFDF9119
:1022E000CF911F9108952F923F924F925F926F92DC
:1022F0007F928F929F92AF92BF92CF92DF92EF9296
:10230000FF920F931F93CF93DF93CDB7DEB7649700
:102310000FB6F894DEBF0FBECDBF042F4296FC016E
:1023200085919491FC0114913596C590D590E590D6
:10233000F490FC0131962591359145915491298B6A
:102340003A8B4B8B5C8B643009F46DC3633008F0BF
:1023500097C2193029F5FC01399625913491F9017C
:1023600032969491319625913491EFEFE90F909147
:102370006104613039F0911103C0E09361040AC037
:10238000915006C0E91303C01092610403C09F5F1F
:102390009093610460916104C9010E94A4214CC31F
:1023A0001A3059F481E090916104913009F480E091
:1023B000809361040E94CF213FC3613019F08FEFF9
:1023C0009FEF02C081E090E020915F0430916004B3
:1023D000829F5001839FB00C929FB00C1124B501D5
:1023E0000B2C000C880B990B0E948731163029F4B6
:1023F00020E030E040E251E40DC0173029F420E045
:1024000030E048EC52E406C0183031F420E030E00F
:102410004AE754E40E94783349885A886B887C885C
:102420002DEF200F2230B8F410926C049B01AC0108
:10243000609168047091690480916A0490916B04C2
:102440000E940C33609368047093690480936A045B
:1024500090936B0458C00334B9F41092680410923E
:10246000690410926A0410926B0410926204109234
:102470006304109264041092650410926704109231
:102480006604109261043AC00130D9F5809161046C
:102490008195809361048091660490916704919581
:1024A00081959109909367048093660480916204FA
:1024B00090916304A0916404B0916504B095A095D7
:1024C000909581959F4FAF4FBF4F8093620490933B
:1024D0006304A0936404B0936504809168049091B0
:1024E0006904A0916A04B0916B04B05880936804A9
:1024F00090936904A0936A04B0936B04A12CB12C4F
:10250000C8C0A12CB12C00530A3008F0C2C0809181
:102510006C04823008F442C080916104880F982FC7
:10252000990F990F890F809361042091660430916F
:1025300067044AE0429FC001439F900D112490938D
:102540006704809366042091620430916304409193
:10255000640450916504AAE0B0E00E94BA3260932E
:10256000620470936304809364049093650420E094
:1025700030E040E251E46091680470916904809118
:102580006A0490916B040E94E63160936804709332
:10259000690480936A0490936B0418C08130B1F48D
:1025A0001092620410926304109264041092650405
:1025B00010926704109266041092610410926804ED
:1025C0001092690410926A0410926B048091610465
:1025D000800F809361048091660490916704800F5E
:1025E000911D90936704809366048091620490919A
:1025F0006304A0916404B0916504800F911DA11D36
:10260000B11D8093620490936304A0936404B0931B
:102610006504163061F4602F000F770B880B990B5F
:102620000E94873120E030E040E251E40DC01730D5
:1026300011F5602F000F770B880B990B0E948731E3
:1026400020E030E048EC52E40E9478339B01AC017A
:10265000609168047091690480916A0490916B04A0
:102660000E940C33609368047093690480936A0439
:1026700090936B04B9C0183061F4602F000F770B92
:10268000880B990B0E94873120E030E04AE754E440
:10269000DBCF111126C0809161048A0DC114D104D1
:1026A000E104F10441F4411451046104710419F48A
:1026B0008093610413C090E0A0E0B0E04816590692
:1026C0006A067B0644F0C816D906EA06FB0624F41F
:1026D0006C017D0101C0C988C092610481E694E06B
:1026E000CBC0113011F0123089F5809166049091C1
:1026F00067048A0D9B1DC114D104E104F10451F457
:10270000411451046104710429F490936704809387
:1027100066040FC0092E000CAA0BBB0B4816590605
:102720006A067B064CF499898A89909366048093A3
:10273000670486E694E0A0C0C816D906EA06FB0640
:1027400014F46C017D019C2D8D2DEFCF133069F4B5
:10275000A501BB0C660B770B80916204909163041A
:10276000A0916404B09165040EC01430E9F5C50170
:10277000BB0CAA0BBB0B40916204509163046091A7
:10278000640470916504840F951FA61FB71FC114C0
:10279000D104E104F10471F44114510461047104A1
:1027A00049F48093620490936304A0936404B0930B
:1027B00065040FC0481659066A067B066CF473015F
:1027C0006201C0926204D0926304E0926404F092C9
:1027D000650482E694E050C0C816D906EA06FB06F6
:1027E00084F76C017D01EDCFC114D104E104F10443
:1027F00029F44114510461047104E1F1209068044A
:102800003090690480906A0490906B04C301B20117
:102810000E948731762EA72EB82E092F262F372F0C
:10282000482F592FB101C4010E9420341816B4F06A
:10283000C701B6010E948731762EA72EB82E092F28
:10284000262F372F482F592FB101C4010E94803104
:1028500087FD04C0722CA32CB82C092D872D9A2D2E
:10286000AB2DB02F8093680490936904A0936A0401
:10287000B0936B0488E694E0612F0E943D21DCC098
:10288000633009F0D9C0FC013996A591B491193093
:1028900099F4FD0133962591349140916104F90139
:1028A000E40FF11DE40FF11D65917491FB0164913A
:1028B000FD01A591B4912AC01A3021F5FD01319690
:1028C00065917491FD01A49120916104FB01B08197
:1028D000222349F041E050E001C0440FAA95EAF7F5
:1028E0004B2B40830AC021E030E001C0220FAA95A3
:1028F000EAF720952B23FB012083FB0160810E94D6
:102900005D1D91C0111104C0609161046C93F7CFFB
:102910001230A1F420916604309167042D933C930A
:10292000388B2F87FC013B9685919491009709F491
:102930007AC042E0BE01615F7F4F15C01130B1F433
:1029400020916604309167042D933C933E872D8738
:10295000FC013B9685919491009709F464C042E094
:10296000BE01635F7F4F0E943B1D5DC01430F1F4D8
:102970004091620450916304609164047091650415
:102980004D935D936D937C93139749875A876B871B
:102990007C87FC013B9685919491009709F443C094
:1029A000BE01675F7F4F0E94731D3DC01330E9F485
:1029B00040916204509163046091640470916504D5
:1029C0004D935D936D937C9313974D835E836F83DB
:1029D0007887FC013B9685919491009721F1BE0187
:1029E0006B5F7F4F0E94731D1EC01530E0F0409159
:1029F00068045091690460916A0470916B044D936E
:102A00005D936D937C93139749835A836B837C8387
:102A1000FC013B9685919491009729F0BE016F5F70
:102A20007F4F0E94731D1092270461E080912C0457
:102A300090912D040E94780C64960FB6F894DEBF36
:102A40000FBECDBFDF91CF911F910F91FF90EF90FF
:102A5000DF90CF90BF90AF909F908F907F906F90BE
:102A60005F904F903F902F900895CF92DF92EF921A
:102A7000FF920F931F93CF93DF936C017A018B0129
:102A8000C0E0D0E0CE15DF0581F0D8016D918D0159
:102A9000D601ED91FC910190F081E02DC6010995E0
:102AA000892B11F02196EECF7E01C701DF91CF91E6
:102AB0001F910F91FF90EF90DF90CF900895FC0150
:102AC000538D448D252F30E0842F90E0821B930B93
:102AD000541710F0CF96089501970895FC01918D39
:102AE000828D981761F0828DDF01A80FB11D5D9670
:102AF0008C91928D9F5F9F73928F90E008958FEFDE
:102B00009FEF0895FC01918D828D981731F0828D91
:102B1000E80FF11D858D90E008958FEF9FEF0895E8
:102B2000FC01918D228D892F90E0805C9F4F821B4C
:102B300091098F739927089587E793E00E94901574
:102B400021E0892B09F420E0822F0895FC01848D77
:102B5000DF01A80FB11DA35ABF4F2C91848D90E0C7
:102B600001968F739927848FA689B7892C93A089A2
:102B7000B1898C91837080648C93938D848D98132C
:102B800006C00288F389E02D80818F7D80830895BF
:102B9000EF92FF920F931F93CF93DF93EC0181E0AD
:102BA000888F9B8D8C8D981305C0E889F989808169
:102BB00085FD26C0F62E0B8D10E00F5F1F4F0F73A3
:102BC0001127E02E8C8DE8120CC00FB607FCFACF4F
:102BD000E889F989808185FFF5CFCE010E94A6158D
:102BE000F1CF8B8DFE01E80FF11DE35AFF4FF0820C
:102BF0009FB7F8940B8FEA89FB89808180620AC0B5
:102C00009FB7F894EE89FF896083E889F98980810C
:102C10008370806480839FBF81E090E0DF91CF91DB
:102C20001F910F91FF90EF900895CF93DF93EC01E8
:102C3000888D8823C9F0EA89FB89808185FD05C0DC
:102C4000A889B9898C9186FD0FC00FB607FCF5CF16
:102C5000808185FFF2CFA889B9898C9185FFEDCF5E
:102C6000CE010E94A615E7CFDF91CF91089580E0B5
:102C700090E0892B29F00E949C1581110C94000092
:102C80000895CF93DF934770552766277727FA017A
:102C90003197EC01A881B981E730F10520F4EC5CB3
:102CA000FF4F0C94E5341496ED91FC91159761E07B
:102CB00029C01496ED91FC91159765E023C01496F8
:102CC000ED91FC91159764E01DC01496ED91FC9177
:102CD000159766E017C01496ED91FC91159762E088
:102CE00011C01496ED91FC9115976AE00BC01496F3
:102CF000ED91FC91159768E005C01496ED91FC915B
:102D0000159769E0DF91CF910994CF93DF93EC01A0
:102D1000CB01BA0126E030E040E050E00E94C6342A
:102D2000623071058105910559F18CF461157105C9
:102D300081059105F1F06130710581059105C1F5BD
:102D4000E881F9810480F581E02D65E02DC06430D3
:102D500071058105910511F1D4F06530710581058A
:102D6000910531F5E881F9810480F581E02D66E077
:102D70001BC0E881F9810480F581E02D64E014C076
:102D8000E881F9810480F581E02D61E00DC0E881E2
:102D9000F9810480F581E02D63E006C0E881F981C6
:102DA0000480F581E02D62E0CE01DF91CF9109949E
:102DB000DF91CF9108954370552766277727DC016F
:102DC000ED91FC910480F581E02D423051056105C3
:102DD000710571F0433051056105710559F04130BD
:102DE00051056105710511F065E005C066E003C09D
:102DF0006AE001C069E00994CF93DF93EC01CB0155
:102E0000BA0123E030E040E050E00E94C634613077
:102E100071058105910581F062307105810591058B
:102E200091F0672B682B692BC1F4E881F98104804C
:102E3000F581E02D64E00DC0E881F9810480F58121
:102E4000E02D61E006C0E881F9810480F581E02D84
:102E500062E0CE01DF91CF910994DF91CF91089587
:102E60004370552766277727DC01ED91FC9104809C
:102E7000F581E02D423051056105710571F0433057
:102E800051056105710559F0413051056105710524
:102E900011F062E005C063E003C061E001C060E0E2
:102EA0000994CF93DF93EC01E881F9810480F581E7
:102EB000E02D8A81811102C060E001C062E0CE0194
:102EC0000995E881F9810480F581E02D8A818111DD
:102ED00002C061E001C063E0CE0109958CA59DA50B
:102EE0008230910538F0880F991F880F991F059738
:102EF0000197F1F7E881F9810480F581E02D8A815D
:102F0000811102C060E001C062E0CE01DF91CF918B
:102F10000994CF93DF93EC0120E030E0A9016C89A4
:102F20007D898E899F890E94203418161CF4E8A997
:102F3000F9A902C0EAA9FBA9DF91CF9109940F93E7
:102F40001F93DC011396EC910E2F10E00930110550
:102F5000C0F5F801E55CFF4F0C94E534DC01ED9120
:102F6000FC910084F185E02D29C0DC01ED91FC91FC
:102F70000284F385E02D22C0DC01ED91FC910484F4
:102F8000F585E02D1BC0DC01ED91FC910684F785F1
:102F9000E02D14C0DC01ED91FC910088F189E02D59
:102FA0000DC0DC01ED91FC910288F389E02D06C093
:102FB000DC01ED91FC910488F589E02D1F910F91C2
:102FC00009941F910F910895089508950895E0912F
:102FD0002A0380912903E81730F4F0E0E75FFC4F03
:102FE000808190E008958FEF9FEF089590912A03DC
:102FF00080912903981750F4E92FF0E0E75FFC4F28
:10300000208130E09F5F90932A0302C02FEF3FEFB3
:10301000C90108958091290390E020912A03821B21
:10302000910908950E94EB34CF92DF92EF92FF92C4
:103030000F931F93CF93DF93EC019B81943041F06A
:10304000983031F0933031F0963021F012E003C027
:1030500014E001C013E02496E12CF12CC62ED12CF3
:1030600001E0C6010E2C02C0959587950A94E2F7FF
:103070006C8180FD602789910E9444118FEFE81ACE
:10308000F80AE11670F3DF91CF911F910F91FF9035
:10309000EF90DF90CF900895CF93DF93FC012381D1
:1030A000222359F1EC0161E084810E941E2261E03B
:1030B0008D810E941E228B81843011F0883039F47A
:1030C00061E08E810E941E2261E08F8106C0833004
:1030D00011F0863021F461E08E810E941E228FA5BE
:1030E0008F3F59F061E00E941E226EA581E06827A3
:1030F0008FA5DF91CF910C944411DF91CF9108956A
:10310000CF93DF93FC0123812223A9F0EC010190EE
:10311000F081E02D0480F581E02D60E009958FA518
:103120008F3F49F061E00E941E226EA58FA5DF91BE
:10313000CF910C944411DF91CF910895CF92DF92FB
:10314000EF92FF920F931F93CF93DF937C01CB01FC
:103150008A0120917603222389F0EB016B01C40ED2
:10316000D51ECC15DD0569F06991D701ED91FC9173
:103170000190F081E02DC7010995F3CF642F0E94E3
:103180006705C801DF91CF911F910F91FF90EF90DC
:10319000DF90CF900895CF93DF931F92CDB7DEB726
:1031A0006983209176032223D1F02091730320328A
:1031B00040F021E030E0FC013383228380E090E0A6
:1031C00015C080917403E82FF0E0E751FD4F99811D
:1031D00090838F5F809374038093730305C061E0D5
:1031E000CE0101960E94670581E090E00F90DF918B
:1031F000CF910895DC01ED91FC910190F081E02DDB
:1032000009946115710579F0FB0101900020E9F73F
:103210003197AF01461B570BDC01ED91FC91028009
:10322000F381E02D099480E090E008950C94011959
:103230001F920F920FB60F9211242F933F934F932B
:103240005F936F937F938F939F93AF93BF93EF930E
:10325000FF9387E793E00E94A615FF91EF91BF913E
:10326000AF919F918F917F916F915F914F913F911E
:103270002F910F900FBE0F901F9018951F920F92D5
:103280000FB60F9211242F938F939F93EF93FF9379
:10329000E0918703F09188038081E0918D03F091A4
:1032A0008E0382FD12C09081809190038F5F8F7397
:1032B00020919103821751F0E0919003F0E0E958DA
:1032C000FC4F958F8093900301C08081FF91EF9117
:1032D0009F918F912F910F900FBE0F901F90189577
:1032E0004F925F926F927F928F929F92AF92BF9216
:1032F000CF92DF92EF92FF92CF93DF93EC016A01BE
:103300007B0120E030E0A901C701B6010E948031B5
:1033100087FF04C0F7FAF094F7F8F0948C8C9D8C3A
:10332000AE8CBF8CA7019601C501B4010E9480310B
:10333000882309F449C06CA97DA98EA99FA90E9480
:1033400087312B013C01A7019601C501B4010E9400
:1033500078339B01AC01C301B2010E94E6310E94A7
:10336000EA336CAB7DAB8EAB9FABA701960160E0FF
:1033700070E080E090E40E9478330E942B3426E5D0
:103380003EE04DE25FE30E94E63120E034E244E7B4
:1033900059E40E94E63168AF79AF8AAF9BAFCC8E1B
:1033A000DD8EEE8EFF8ECE01DF91CF91FF90EF90FC
:1033B000DF90CF90BF90AF909F908F907F906F9055
:1033C0005F904F900C948E0DDF91CF91FF90EF9016
:1033D000DF90CF90BF90AF909F908F907F906F9035
:1033E0005F904F90089530917303313208F04AC0D6
:1033F0008091E8028111FCCF9091750322E0209327
:10340000E8026093E7022FEF2093E6021092E502B4
:103410003093E402E9EEF2E0A4ECB2E020E03217EF
:1034200021F041914D932F5FFACF1092C30220916A
:10343000C302990F922B9093C3029091C2029130D4
:1034400061F41092C2029091C3029093BB009091DC
:10345000BC0093FDF8CF95EC01C095EE9093BC00B5
:103460009091E8029230E1F39091E6029F3F79F06B
:103470008091E602803241F08091E602803331F0A3
:1034800084E005C081E003C082E001C083E01092C7
:103490007403109273031092760308958091E802EA
:1034A0008111FCCF413208F040E281E08093E802D4
:1034B0008093E7029FEF9093E6021092E502940F4B
:1034C0009093E4028093C3028091C302660F682B3D
:1034D0006093C3028091C202813061F41092C202F3
:1034E0008091C3028093BB008091BC0083FDF8CF24
:1034F00085EC01C085EE8093BC008091E8028130AC
:10350000E1F38091E502841710F44091E502A4EC08
:10351000B2E0E9E0F3E080E0841721F09D9191931F
:103520008F5FFACF10922A03809329030895109297
:103530002A031092290310927403109273031092BD
:10354000E80281E08093E7021092C20261E082E12A
:103550000E94441161E083E10E944411E9EBF0E034
:1035600080818E7F808380818D7F808388E48093BB
:10357000B80085E48093BC0084EE97E19093BF028D
:103580008093BE0285EE97E19093C1028093C002C2
:10359000089521E001C0220F6A95EAF7DC011C962C
:1035A0002C931C971A965C934E931997ED91FC916E
:1035B0000484F585E02D60E00994DC01ED91FC9137
:1035C0000684F785E02D41E0099581E090E00895BB
:1035D000089508950895089580E090E00895DC012D
:1035E00026E0629FA00DB11D112490965C934E932E
:1035F0005F9721E091962C939197FC01E459FF4F3E
:10360000208131960190F081E02D222331F0309716
:1036100049F0611107C0DC0102C0309719F05C96D7
:103620008C9109940895862F642F0C944411EF9285
:10363000FF920F931F93CF93DF937C018C01C0E027
:10364000D0E0F80186890E941B11892B51F426963F
:10365000CC0FDD1FCC0FDD1FCE0DDF1D88819981C2
:1036600008C021960C5F1F4FC530D10551F780E08F
:1036700090E0DF91CF911F910F91FF90EF9008950F
:10368000862F0C941B110F931F93CF93DF93062F5C
:103690000F70423019F440E0602F0EC0142FEC017F
:1036A00070E084E0759567958A95E1F7CE010E94F8
:1036B000A420412F602FCE01DF91CF911F910F9158
:1036C0000C94A420FC0184858823A9F021853285EF
:1036D0002115310519F4611106C007C021303105EB
:1036E00021F4611102C0858701C015866585CF016F
:1036F0000E960C9434200895CF92DF92EF92FF92B1
:103700000F931F93CF93DF93EC0181E090E002C011
:10371000880F991F6A95E2F78E0103581F4F4423C3
:1037200049F0D8012D913C911197822B932B8D93C9
:103730009C9309C080959095F80120813181822366
:10374000932391838083D801CC901196DC90FE0165
:10375000E558FF4F80817E01BFE6EB0EF11C91E042
:103760009093760380937503109274031092730301
:10377000D701ED91FC910190F081E02D6C2DC701F6
:103780000995C458DF4F8881823048F0D701ED9108
:10379000FC910190F081E02D6D2DC701099561E04C
:1037A000C7010E94F319F801C082D182DF91CF9145
:1037B0001F910F91FF90EF90DF90CF900895CF92DF
:1037C000DF92EF92FF920F931F93CF93DF9301E06D
:1037D00010E002C0000F111F6A95E2F77C012FE68E
:1037E000E20EF11C6C01ECE7CE0ED11CF60140811B
:1037F00050E03197608170E0C7010E944E1AC70106
:103800000E94F617EC01F6018081823040F0C7017A
:103810000E94F61720E030E0382FC22BD32BC023B4
:10382000D12381E090E0C017D10711F080E090E053
:10383000DF91CF911F910F91FF90EF90DF90CF908C
:103840000895CF92DF92EF92FF920F931F93CF9341
:10385000DF93EC01162F042FFC0186E0689FE00D3A
:10386000F11D112411A2878D90A181309105D1F015
:1038700048F08230910591F1039709F03FC040E094
:1038800050E030C04423D1F141E050E0CE010E942D
:10389000EF1A0E947F22C85ADF4F688379838A8398
:1038A0009B832CC00E947F22FE01E85AFF4FC080FC
:1038B000D180E280F380AB01BC014C195D096E0937
:1038C0007F09729680819181A0E0B0E0841795070E
:1038D000A607B70718F442E050E004C001110EC07B
:1038E00043E050E0612FCE01DF91CF911F910F9106
:1038F000FF90EF90DF90CF900C94EF1ADF91CF9173
:103900001F910F91FF90EF90DF90CF900895862F39
:10391000642F0C941E2280914503882339F08BE09C
:1039200095E00E945B0F61E0682705C08BE095E0A1
:103930000E945B0F682F8AE00E944411409134037B
:1039400050913503609136037091370380911B05C8
:1039500090911C05A0911D05B0911E0548175907AF
:103960006A077B0724F48BE095E00E94440F4091A6
:103970003C0350913D0360913E0370913F03809161
:103980001B0590911C05A0911D05B0911E05841783
:103990009507A607B70724F48BE095E00E94440F33
:1039A0008BE095E00C94DB0E80914703882339F07F
:1039B0008FE495E00E945B0F61E0682705C08FE40B
:1039C00095E00E945B0F682F86E00E9444114091B1
:1039D00038035091390360913A0370913B03809111
:1039E0005F0590916005A0916105B091620548174F
:1039F00059076A077B0724F48FE495E00E94440F7F
:103A00004091400350914103609142037091430300
:103A100080915F0590916005A0916105B09162056C
:103A200084179507A607B70724F48FE495E00E9452
:103A3000440F8FE495E00C94DB0EEF92FF920F930E
:103A40001F93CF93DF938C010D5F1F4FEB017B0121
:103A5000E40EF11CEC16FD0639F0C8010E94A432F8
:103A600089930F5F1F4FF6CFDF91CF911F910F9179
:103A7000FF90EF900895EF92FF920F931F93CF93D3
:103A8000DF938C010D5F1F4FEB017B01E40EF11CF6
:103A9000CE15DF0539F06991C8010E94AC320F5F85
:103AA0001F4FF6CF60E080E090E0DF91CF911F9153
:103AB0000F91FF90EF900C94AC32CF93DF931F9255
:103AC000CDB7DEB769830B96FC0185919491009781
:103AD00031F041E0BE016F5F7F4F0E943B1D0F90B0
:103AE000DF91CF91089544E00C943B1DDC01ED91F2
:103AF000FC910684F785E02D40E00994DC01ED910E
:103B0000FC910484F585E02D6FEF099461E00E943B
:103B1000761D8BE39FE10197F1F708958F929F92B5
:103B2000AF92BF92CF92DF92EF92FF920F931F93CB
:103B3000CF93DF93EC01423018F08C8188608C8346
:103B40004F836887222329F0413019F48C818460E7
:103B50008C830E945A226B017C0184E6882E912C72
:103B6000A12CB12C0E945A22DC01CB018C199D0999
:103B7000AE09BF09883E9340A105B10598F321E045
:103B8000821A9108A108B10888EEC80E83E0D81EF9
:103B9000E11CF11C81149104A104B10419F76C819A
:103BA00064FD31C0E881F9810684F785E02D42E0AB
:103BB00063E0CE0109958BE496E40197F1F7E88183
:103BC000F9810684F785E02D42E063E0CE01099596
:103BD00003E512E0C8010197F1F7E881F981068455
:103BE000F785E02D42E063E0CE010995C801019719
:103BF000F1F7E881F9810684F785E02D42E062E083
:103C0000CE01099517C06062CE010E94761D8BE43B
:103C100096E40197F1F76C816062CE010E94761DF7
:103C200003E512E0C8010197F1F76C816062CE01F3
:103C30000E94761DC8010197F1F76C816062CE0188
:103C40000E94761D8BEE90E00197F1F784E08D8362
:103C50006CE0CE010E94761DCE010E94861D82E09E
:103C60008E8366E0CE010E94761DCE01DF91CF915A
:103C70001F910F91FF90EF90DF90CF90BF90AF908A
:103C80009F908F900C947E1DFF920F931F93CF9364
:103C9000DF93EC01162F042FF22E8B85888B84E1A5
:103CA00094E00E94971A888991E09093760380931C
:103CB0007503109274031092730361E084E194E041
:103CC0000E94F31991E0811190E0998B811105C058
:103CD00084E194E00E94F6178E878989882339F061
:103CE0001F861C8260E0CE010E960E9434202F2D8C
:103CF000402F612FCE01DF91CF911F910F91FF9047
:103D00000C948E1D2F923F924F925F926F927F92F2
:103D10008F929F92AF92BF92CF92DF92EF92FF92DB
:103D20000F931F93CF93DF93CDB7DEB72A970FB6CC
:103D3000F894DEBF0FBECDBF9A8789870E947F228D
:103D400029853A85245A3F4F3A832983D9010D9119
:103D50001D912D913C91AB01BC01401B510B620B9D
:103D6000730BE985FA85E859FF4F80819181A0E0C6
:103D7000B0E084179507A607B70708F02FC110E039
:103D800049845A84B6E64B0E511CE984FA84E2E673
:103D9000EE0EF11CD2018C911817B0F010E02984BE
:103DA0003A84B7E62B0E311CC984DA84E4E6CE0EE1
:103DB000D11C812C912C5401839429853A852E594C
:103DC0003F4F38872F8361C0F701A081B181A10FD8
:103DD000B11DE985FA8580819181FC0120813181C5
:103DE00042E06C9189859A85F90109951F5FD2CFD0
:103DF000802F90E0AF81B8852D913C913C01D90195
:103E0000A60DB71D0480F581E02D6C9189859A85FA
:103E10000995660C771CE985FA85E60DF71D892B57
:103E200009F071C0808591852B813C81822B932B79
:103E3000918780870F5FD2018C91A985BA85ED911A
:103E4000FC910817A8F2D6018D919C91DC01AE0D72
:103E5000BF1D0280F381E02D41E06C9189859A8538
:103E60000995F60180819181DC01AE0DBF1DE985C8
:103E7000FA8580819181FC012081318140E06C9143
:103E800089859A85F90109951F5FD1018C911817D1
:103E900008F040C0E12EF12CF601A081B181AE0DF9
:103EA000BF1DE985FA8580819181FC0120813181E6
:103EB00041E06C9189859A85F9010995F601A08107
:103EC000B181AE0DBF1DE985FA8580819181FC012C
:103ED0002281338140E06C9189859A85F9010995A9
:103EE000D501C401012E04C0880F991FAA1FBB1F52
:103EF0000A94D2F79C838B839C01209530953E8356
:103F00002D8300E098CF80859185AD81BE818A2385
:103F10009B238ECFE984FA846701FCE3CF0ED11C8A
:103F2000F7018FEF9FEF278D30A1232B21F4148E03
:103F3000968F858F11A23696EC15FD05A1F7912C71
:103F4000A984BA8420E6A20EB11C86E0782ED201A4
:103F50008C91981660F5812C09851A85090D111D23
:103F6000090D111D085F1F4FF10180818816E8F4CB
:103F7000D8012D913C91082C02C0369527950A94C2
:103F8000E2F7422F4170989EC0011124880D911DC7
:103F9000E985FA8560E0A58DB68D8A179B07E9F162
:103FA0006F5F36966A30B9F71BC09394D0CF1B82EF
:103FB000F70181A1882311F0F1E0FB8326E0E20EF6
:103FC000F11CCE14DF04A1F70E947F22A981BA81DF
:103FD0006D937D938D939C9313972CC01B822AC065
:103FE00020FF1FC0E985FA8560E070E0248D211173
:103FF0001AC0D501ED91FC91E80FF91F5081769E12
:104000009001779E300D1124E985FA85E20FF31FA8
:10401000548F968F858F10A2178E89859A850E945E
:10402000211C8394A1CF6F5F7F4F36966A30710554
:10403000E9F6F7CF8B812A960FB6F894DEBF0FBE54
:10404000CDBFDF91CF911F910F91FF90EF90DF9047
:10405000CF90BF90AF909F908F907F906F905F9028
:104060004F903F902F900895FC0183818823D9F0D1
:10407000962F6181609569236083828191E090939E
:10408000760380937503109274031092730384E196
:1040900094E00E94CB1861E084E194E00E94F3195F
:1040A000282F30E002C020E030E081E090E0232BB8
:1040B00011F080E090E008950F931F93CF93DF936A
:1040C000CDB7DEB728970FB6F894DEBF0FBECDBFD1
:1040D000009118011091190120911A0130911B01D2
:1040E0000D831E832F83388700911C0110911D01C1
:1040F00020911E0130911F0109831A832B833C8379
:104100009091F904691710F06FEF690F4091FA046C
:10411000262F30E0FE01E20FF31F403121F49430EE
:1041200011F4618101C06581680F606882EF94E0DD
:1041300028960FB6F894DEBF0FBECDBFDF91CF91AA
:104140001F910F910C94761DEF92FF920F931F9386
:10415000CF938C01FC0184E0C0E060FF02C0958930
:10416000C92B6695815031968111F7CF413011F4FA
:10417000F8014489F8018585C82BC42B7801FEE03D
:10418000EF0EF11CF80162896C2BC7010E943420EC
:10419000F801628960956C23C701CF911F910F913F
:1041A000FF90EF900C943420E0914B04F0914C047C
:1041B000309709F009940895CF92DF92EF92FF9221
:1041C0000F931F93CF93DF93FC017196C491C1505D
:1041D0003196C590D490E62EF12CF701EE0FFF1F1B
:1041E000EC0DFD1D8591949190932B0480932A04EE
:1041F00000E010E0D0E040E150E060E270E08FE4E9
:1042000094E00E94F03421E030E040E050E0011101
:1042100005C060E070E08CE292E004C061E070E014
:104220008FEB91E00E94D420F701E00FF11FCE1731
:10423000DF0764F0EE0FFF1FEC0DFD1D659174911B
:1042400040E150E08FE494E00E94DF2E20E130E076
:1042500041E050E0B8018FE494E00E94D4200F5F69
:104260001F4F0230110539F6DF91CF911F910F9149
:10427000FF90EF90DF90CF9008950F931F93CF930F
:104280008C01C62F40E150E060E270E08FE494E0E2
:104290000E94F034C730D9F1C830D9F1C11107C03C
:1042A000F80180814AE06FE474E090E013C0C1300F
:1042B00049F44AE06FE474E0F801808191810E9442
:1042C000E82E35C0C23049F44AE06FE474E0F801EA
:1042D000808191810E94242F2AC0C33059F4F801B3
:1042E00060817181828193812AE04FE454E00E94D1
:1042F000F32E1DC0C43079F4F80160817181828190
:1043000093812AE04FE454E00E94022F10C022E083
:1043100003C023E001C021E042E0420FF8016081C8
:104320007181828193810FE414E00E94BF2E20E10D
:1043300030E040E050E061E070E08FE494E0CF9145
:104340001F910F910C94D4201F93CF93DF93182FBC
:10435000D92FC62F40E150E060E270E08FE494E096
:104360000E94F034E12FFD2FEC0FF11DEC0FF11D39
:10437000659174916F5F7F4F4FE050E08FE494E060
:104380000E94DF2E20E130E040E050E061E070E08C
:104390008FE494E0DF91CF911F910C94D42040E101
:1043A00050E060E270E08FE494E00E94F03480918D
:1043B0006104813039F48FE49EE690935004809339
:1043C0004F0409C083E0EEE2F2E0AFE4B4E0019014
:1043D0000D928A95E1F720E130E040E050E061E0A5
:1043E00070E08FE494E00C94D420833081F028F4C2
:1043F000813099F08230A1F008958730A9F088309B
:10440000B9F08430D1F4809180008F7D03C0809119
:1044100080008F7780938000089584B58F7702C0E5
:1044200084B58F7D84BD08958091B0008F7703C0DF
:104430008091B0008F7D8093B0000895CF93DF937B
:1044400090E0FC01E859FD4F2491FC01EC5AFD4F2E
:104450008491882361F190E0880F991FFC01EA5D47
:10446000F84FC591D491FC01E05CFD4FA591B4914A
:10447000611109C09FB7F8948881209582238883B1
:10448000EC912E230BC0623061F49FB7F8948881C1
:10449000322F309583238883EC912E2B2C939FBF52
:1044A00006C08FB7F894E8812E2B28838FBFDF9149
:1044B000CF9108953FB7F894809198059091990510
:1044C000A0919A05B0919B0526B5A89B05C02F3FEA
:1044D00019F00196A11DB11D3FBFBA2FA92F982F2A
:1044E0008827820F911DA11DB11DBC01CD0142E0A5
:1044F000660F771F881F991F4A95D1F708952FB728
:10450000F89460919405709195058091960590912D
:1045100097052FBF08951F920F920FB60F92112487
:104520002F933F938F939F93AF93BF938091940565
:1045300090919505A0919605B091970530919305BE
:1045400023E0230F2D3720F40196A11DB11D05C0D6
:1045500026E8230F0296A11DB11D20939305809399
:10456000940590939505A0939605B0939705809137
:10457000980590919905A0919A05B0919B05019697
:10458000A11DB11D8093980590939905A0939A055C
:10459000B0939B05BF91AF919F918F913F912F91C8
:1045A0000F900FBE0F901F901895789484B582607D
:1045B00084BD84B5816084BD85B5826085BD85B5C7
:1045C000816085BD80916E00816080936E00109245
:1045D00081008091810082608093810080918100C0
:1045E0008160809381008091800081608093800051
:1045F0008091B10084608093B1008091B0008160AF
:104600008093B00080917A00846080937A008091DA
:104610007A00826080937A0080917A008160809332
:104620007A0080917A00806880937A001092C100AD
:1046300061E08DE00E941E2261E086E00E941E2261
:1046400061E08AE00E941E2280E090E00E94A43295
:104650008111A2C041E06BE273E084E090E00E942F
:104660001D1D42E061E573E088E090E00E941D1DA1
:1046700042E06FE473E08CE090E00E941D1D6FE566
:1046800073E088E390E00E948F0542E06DE473E000
:1046900080E290E00E941D1D42E06BE473E084E242
:1046A00090E00E941D1D42E069E473E088E290E022
:1046B0000E941D1D6FE673E080E190E00E948F056F
:1046C0006BE673E084E190E00E948F0567E673E09B
:1046D00088E190E00E948F0563E673E08CE190E052
:1046E0000E948F0541E068E473E08CE290E00E9454
:1046F0001D1D41E066E473E080E390E00E941D1D13
:1047000041E064E473E084E390E00E941D1D60E4F6
:1047100073E08CE390E00E948F056CE373E080E42B
:1047200090E00E948F0568E373E084E490E00E94CB
:104730008F0564E373E088E490E00E948F0560E3F6
:1047400073E08CE490E00E948F056CE273E080E5FA
:1047500090E00E948F0541E067E473E080E690E01E
:104760000E941D1D41E065E473E081E690E00E9437
:104770001D1D6BE573E084E590E00E948F0567E501
:1047800073E088E590E00E948F0563E573E08CE5B7
:1047900090E00E948F0502C00E941C0B60914403B0
:1047A00081E0682784E00E94441161E083E00E9478
:1047B000441161E084E00E941E2261E083E00E94D7
:1047C0001E22E0918703F091880382E08083E091CC
:1047D0008703F09188031082E0918303F0918403B2
:1047E0001082E0918503F091860380E1808310922E
:1047F0008F03E0918B03F0918C0386E08083E0913E
:104800008903F0918A03808180618083E09189032C
:10481000F0918A03808188608083E0918903F09120
:104820008A03808180688083E0918903F0918A0304
:1048300080818F7D808384E190E0A0E0B0E0809370
:104840007B0390937C03A0937D03B0937E0384E964
:1048500091E00E94081181EA91E00E94081184E130
:1048600094E00E94971A88E091E09093D00480939E
:10487000CF048EED94E00E94971A4091EB0450E033
:104880006091EA0470E08EED94E00E944E1A8EED85
:1048900094E00E94F6179093ED048093EC048091CD
:1048A000EB04823088F08EED94E00E94F61720E051
:1048B00030E0382F8091EC049091ED04282B392BB7
:1048C0003093ED042093EC0420E042E060E182EFBD
:1048D00094E00E94441E64E971E082EF94E00E943B
:1048E000161961E080E00E945C2061EA71E082EFCD
:1048F00094E00E94161981E194E090934C04809317
:104900004B048DEC93E090934E0480934D0481E032
:10491000809326040E946C08C1E001E010E06AE088
:10492000262E312C0E94D41C0E948B1C0E947F22B8
:10493000C0907702D0907802E0907902F0907A02ED
:10494000DC01CB018C199D09AE09BF09893E93405A
:10495000A105B105D0F00E947F2260937702709389
:1049600078028093790290937A02809176028F5F29
:104970008093760280917502882319F01092750257
:1049800002C0C09375020E946C088FE694E00E94FA
:10499000300990912804833279F4109254021092D5
:1049A00053021092520210925102C09326049111A8
:1049B0000EC00E94CD030BC0992321F090912604D4
:1049C000911105C0883309F0F2C10E94E103809182
:1049D0005F0281110CC00E947F2260935B02709382
:1049E0005C0280935D0290935E02C0935F028091AF
:1049F0002904882371F080912604882351F01092B5
:104A0000290460914A0480912C0490912D040E9405
:104A1000DC2080912204811150C0809123048E30CB
:104A200008F08E508770806480937C0080917A00BB
:104A3000806480937A0080917A0086FDFCCF20917B
:104A400078008091790030E0382B609124047091D7
:104A500025048091550290915602821B930B97FF7B
:104A600003C0919581959109681779072CF43093CB
:104A700056022093550227C0E0E2F4E080E090E087
:104A800046895789DA01A61BB70BA217B3077CF436
:104A9000460F571F2417350754F4880F991F880FA6
:104AA000991FFC01E85CFB4FC080D1800EC00196CD
:104AB00034968530910521F706C080E294E00E948B
:104AC000F80A6C0102C0C12CD12CD0915A02ED2EF3
:104AD000F12CEC14FD04B9F0C0925A021092590264
:104AE0000E947F2260935B0270935C0280935D0260
:104AF00090935E0210925802109257021093600435
:104B000000935F04F2C00E947F2240905B025090AD
:104B10005C0260905D0270905E02DC01CB01841942
:104B20009509A609B70989379105A105B10508F4CA
:104B3000DCC00E947F2260935B0270935C028093D2
:104B40005D0290935E02C114D10421F0809126048D
:104B500081110BC0109258021092570210936004FA
:104B600000935F0410925902C0C085E0C816D104BA
:104B700011F4C093280480912804882309F4B5C057
:104B80008091590290E0E816F906C1F4809157022D
:104B90009091580201969093580280935702B10168
:104BA0000E949034892B81F080915F049091600481
:104BB00002969093600480935F0406C0D0935902DC
:104BC0001093600400935F0420912704D530B9F45A
:104BD00080912A0490912B04222329F045E063E080
:104BE0000E94731109C060E0009721F480912E04A7
:104BF00090912F040E94780C10926C0476C0D330F0
:104C000031F0D43031F0D23031F464E005C061E0ED
:104C100003C062E001C060E0222369F080916C046F
:104C20008F5F80936C044D2F80912A0490912B0408
:104C30000E9473115AC08FEF860F823018F06430D3
:104C400009F053C020912C0430912D04F901719684
:104C5000E491E150643081F510922B0410922A0403
:104C60008091340490913504009781F4809132044E
:104C700090913304009769F480913004909131044D
:104C8000009709F4A4C320E030E005C022E030E042
:104C900002C021E030E0220F331FF901E05DFB4F3D
:104CA0001182108290932D0480932C0410924A0458
:104CB00061E00E94780C19C080914A04613011F0C3
:104CC00091E001C09FEF682F690FE61730F481E093
:104CD0006F3F09F080E0682F61956F3F09F46E2FF8
:104CE00060934A04C9010E94DC2080915002813007
:104CF000B9F580914C0290914D02A0914E02B09175
:104D00004F02892B8A2B8B2BF1F4809148029091D2
:104D10004902A0914A02B0914B02892B8A2B8B2B1E
:104D200091F420916B0330916C0340916D0350918D
:104D30006E0360916F037091700380917103909185
:104D400072030E9424088FE495E00E945B0F81119A
:104D500009C08BE095E00E945B0F811103C04CC33A
:104D60001092740280917402D1E0823009F0D0E098
:104D7000D093370261E0813009F460E083E00E9463
:104D8000441180912B03837021F0D1E0823009F02F
:104D9000D0E0D0936702809144036D2F811101C050
:104DA0006C2784E00E9444110E943716BBCD8933E2
:104DB000F9F482EF94E00E947E1D1092260483E0B5
:104DC00090E09093540280935302109252021092FA
:104DD0005102109233021092340210923502109256
:104DE00036021092320282EF94E00E94861DEFCDCF
:104DF0008FE694E00E94D308D82F882309F442C09C
:104E00008091330290913402A0913502B091360224
:104E1000892B8A2B8B2B51F40E947F2260933302C3
:104E2000709334028093350290933602809033025F
:104E300090903402A0903502B09036020E947F22FA
:104E40002401350128E7420E511C611C711C6415B8
:104E500075058605970538F080913202811103C0EF
:104E6000D093320201C0D0E00E947F2228E5820E5A
:104E700022E0921EA11CB11C86169706A806B90650
:104E800058F408C010923302109234021092350286
:104E90001092360210923202809153029091540285
:104EA000059709F0BCC0D33409F053C00E94B20585
:104EB00010925B0510925C0510925D0510925E05E4
:104EC00010925F05109260051092610510926205C4
:104ED0001092830510928405109285051092860524
:104EE0001092730510927405109275051092760554
:104EF0001092630510926405109265051092660584
:104F000010921705109218051092190510921A05A3
:104F100010921B0510921C0510921D0510921E0583
:104F200010923F05109240051092410510924205E3
:104F300010922F0510923005109231051092320513
:104F400010921F0510922005109221051092220543
:104F500060C0D13469F50E94B20580915B059091E3
:104F60005C05A0915D05B0915E0580936F03909301
:104F70007003A0937103B093720380911705909111
:104F80001805A0911905B0911A0580936B039093B1
:104F90006C03A0936D03B0936E036FE673E080E142
:104FA00090E00E94731D6BE673E084E190E02FC0F7
:104FB000D23409F00CCD0E94B20580915B0590912E
:104FC0005C05A0915D05B0915E05809367039093A9
:104FD0006803A0936903B0936A03809117059091C9
:104FE0001805A0911905B0911A0580936303909359
:104FF0006403A0936503B093660367E673E088E1FA
:1050000090E00E94731D63E673E08CE190E00E94E3
:10501000731D1092540210925302C0932604809183
:10502000530290915402039709F0D1CC8091510220
:1050300090915202D13411F4019703C0D23429F473
:105040000196909352028093510280915102909167
:10505000520297FF02C080E090E08630910514F084
:1050600085E090E09093520280935102892B09F0E1
:1050700070C060E080E00E945C208091500281114D
:1050800003C083EE91E059C09FEF980F923008F073
:1050900050C0823019F485ED91E002C086EC91E0B9
:1050A0000E94730D0E94920561E080E00E945C20E6
:1050B00040914C0250914D0260914E0270914F020E
:1050C00082EF94E00E9412106FE282EF94E00E945F
:1050D000FA18409144025091450260914602709145
:1050E000470282EF94E00E9412100E94920561E054
:1050F00088E00E945C2040914802509149026091F2
:105100004A0270914B0282EF94E00E9412106FE20B
:1051100082EF94E00E94FA184091380250913902CF
:1051200060913A0270913B0282EF94E00E9412106B
:105130000EC0833071F488EB91E00E94730D0E94E1
:10514000920561E080E00E945C200E9492050E942E
:1051500092058091510290915202019781F560E091
:1051600080E00E945C2085EB91E00E94730D4091ED
:105170005B0550915C0560915D0570915E0582EF65
:1051800094E00E9412100E9492050E94920561E034
:1051900080E00E945C2082EB91E00E94730D4091C0
:1051A0001705509118056091190570911A0582EF45
:1051B00094E00E9412100E9492050E949205809134
:1051C000510290915202029709F048C060E080E0DD
:1051D0000E945C208AEA91E00E94730D60915B0559
:1051E00070915C0580915D0590915E052091300382
:1051F0003091310340913203509133030E94C63401
:10520000BA01A90182EF94E00E9412100E94920557
:105210000E94920561E080E00E945C2082EA91E0B9
:105220000E94730D60911705709118058091190502
:1052300090911A0520912C0330912D0340912E035B
:1052400050912F030E94C634BA01A90182EF94E065
:105250000E9412100E9492050E94920580915102B4
:1052600090915202039709F044C082EF94E00E94AB
:105270007E1D60E080E00E945C206CEA71E082EFBD
:1052800094E00E94161960912B03809167020E949E
:105290009A050E9492050E94920561E080E00E94BA
:1052A0005C2061EB71E082EF94E00E94161960E0EF
:1052B00080E00E949A0564EB71E082EF94E00E9426
:1052C000161960E080E00E949A0567EB71E082EFBA
:1052D00094E00E94161960E080E00E949A056AEB53
:1052E00071E082EF94E00E94161960E080E00E9475
:1052F0009A058091510290915202049781F560E0E5
:1053000080E00E945C208AE991E00E94730D409148
:105310006F0350917003609171037091720382EF7B
:1053200094E00E9412100E9492050E94920561E092
:1053300080E00E945C2082E991E00E94730D409120
:105340006B0350916C0360916D0370916E0382EF5B
:1053500094E00E9412100E9492050E949205809192
:10536000510290915202059709F031CB60E080E044
:105370000E945C208AE891E00E94730D40916703CF
:10538000509168036091690370916A0382EF94E021
:105390000E9412100E9492050E94920561E080E036
:1053A0000E945C2082E891E00E94730D40916303AB
:1053B00050916403609165037091660382EF94E0FD
:1053C0000E9412100E9492050E94920500CB8091CB
:1053D0002E0490912F0490932D0480932C0410920E
:1053E0004A0410922804E0914D04F0914E04309745
:1053F00009F47BCC099579CC80917402811130C07D
:105400000E947F22609370027093710280937202F7
:1054100090937302C09374026DEB71E087E793E0A1
:105420000E94161960915B0570915C0580915D0585
:1054300090915E050E948E1061EC71E087E793E029
:105440000E94161960911705709118058091190531
:1054500090911A050E948E1085EC91E00E9408112F
:105460000E947F22C0907002D0907102E090720280
:10547000F0907302AB01BC014C195D096E097F0904
:1054800080914D0390914E03A0E0B0E0481759077A
:105490006A077B0708F466CC80917402813079F545
:1054A0000E947F2260936C0270936D0280936E0263
:1054B00090936F0292E0909374026DEC71E087E735
:1054C00093E00E94161940914C0250914D02609158
:1054D0004E0270914F0287E793E00E94121064ED34
:1054E00071E087E793E00E9416196091480270917D
:1054F000490280914A0290914B020E948E100E94B4
:105500007F22C0906C02D0906D02E0906E02F0900D
:105510006F02AB01BC014C195D096E097F098091D6
:105520004B0390914C03A0E0B0E0481759076A077D
:105530007B0708F417CC80917402823089F40E94B2
:105540007F22609368027093690280936A0290934D
:105550006B0283E08093740288ED91E00E94081151
:105560000E947F22C0906802D0906902E0906A0297
:10557000F0906B02AB01BC014C195D096E097F090B
:105580008091490390914A03A0E0B0E04817590781
:105590006A077B0708F4E6CB1092740281EE91E073
:1055A0000E94081180915B0390915C03A0915D03C0
:1055B000B0915E0340914C0250914D0260914E02B9
:1055C00070914F0240904402509045026090460214
:1055D00070904702C0904802D0904902E0904A0281
:1055E000F0904B020097A105B10509F069C09A013E
:1055F000AB012F5F3F4F4F4F5F4F20934C023093D3
:105600004D0240934E0250934F028FEFC81AD80AB2
:10561000E80AF80AC0924802D0924902E0924A028F
:10562000F0924B022415350546055705D4F083E06A
:105630008093500210924C0210924D0210924E0232
:1056400010924F02109248021092490210924A02A0
:1056500010924B02C12CD12C7601812C912C54013B
:105660009AC06091400270914102809142029091F3
:1056700043020E94803480906F0390907003A0904A
:105680007103B0907203860E971EA81EB91E60911A
:105690003C0270913D0280913E0290913F02A70131
:1056A00096010E948034C0906B03D0906C03E09010
:1056B0006D03F0906E03C60ED71EE81EF91EA6C03D
:1056C000181619061A061B060CF0BBC0DB01CA012E
:1056D0000196A11DB11D80934C0290934D02A093A1
:1056E0004E02B0934F0284159505A605B705ACF0A0
:1056F00010924C0210924D0210924E0210924F02E4
:105700009FEFC91AD90AE90AF90AC0924802D09251
:105710004902E0924A02F0924B02209140023091FD
:105720004102409142025091430260914C027091BB
:105730004D0280914E0290914F020E948034C090A1
:105740006F03D0907003E0907103F09072034B01EF
:105750005C018C0C9D1CAE1CBF1C20913C02309146
:105760003D0240913E0250913F026091480270918B
:10577000490280914A0290914B020E948034C0906D
:105780006B03D0906C03E0906D03F0906E03C60E37
:10579000D71EE81EF91E80914C0290914D02A091F7
:1057A0004E02B0914F0284159505A605B70574F118
:1057B000409148025091490260914A0270914B0217
:1057C0008091380290913902A0913A02B0913B0247
:1057D000481759076A077B07CCF083E08093500293
:1057E00010924C0210924D0210924E0210924F02F3
:1057F000109248021092490210924A0210924B02F3
:10580000C12CD12C7601812C912C5401A701960139
:10581000C501B4010E9424086AEE71E087E793E0B5
:105820000E941619C501B4010E948E1069EF71E043
:1058300087E793E00E941619C701B6010E948E10F7
:1058400091CA2FEFC21AD20AE20AF20AC0924802A3
:10585000D0924902E0924A02F0924B0280913802C3
:1058600090913902A0913A02B0913B02C816D90634
:10587000EA06FB060CF451CF10924802109249023E
:1058800010924A0210924B02DB01CA010196A11D3F
:10589000B11D80934C0290934D02A0934E02B093A1
:1058A0004F023BCF8F929F92AF92BF92CF92DF92E7
:1058B000EF92FF920F931F93CF93DF9310927A038F
:1058C0001092790388EE93E0A0E0B0E080937B0330
:1058D00090937C03A0937D03B0937E0324E231E098
:1058E000309378032093770325EC30E030938403E2
:1058F0002093830324EC30E03093860320938503C8
:1059000020EC30E0309388032093870321EC30E0D3
:1059100030938A032093890322EC30E030938C0388
:1059200020938B0326EC30E030938E0320938D037D
:10593000109290031092910310929203109293038D
:10594000109217041092160480931804909319046F
:10595000A0931A04B0931B0486E391E0909315047E
:105960008093140488E7A82E81E0B82EB0925005E9
:10597000A0924F05C1E0C093520510925B051092B2
:105980005C0510925D0510925E0510925F05109205
:1059900060051092610510926205109263051092E5
:1059A00064051092650510926605C12CD12C90E813
:1059B000E92E9FE3F92EC0926705D0926805E09228
:1059C0006905F0926A0510926B0510926C051092B1
:1059D0006D0510926E05C0926F05D0927005E09231
:1059E0007105F09272051092730510927405109271
:1059F00075051092760501E010E010937C05009388
:105A00007B0599249A9490927E05109277051092C6
:105A100078051092790510927A0587E080935305F6
:105A200088E080935405D4E0D093550525E0822E7C
:105A30008092560510927D05109283051092840580
:105A400010928505109286051092870510928805A0
:105A50001092890510928A0510928B0510928C0580
:105A600010928D0510928E05C0928F05D0929005F0
:105A7000E0929105F092920510925105109257050F
:105A8000109258051092590510925A058FE495E02E
:105A90000E944C18B701A6018FE495E00E9470198E
:105AA000B0920C05A0920B05C0930E05109217053D
:105AB000109218051092190510921A0510921B05E4
:105AC00010921C0510921D0510921E0510921F05C4
:105AD000109220051092210510922205C0922305F4
