:100000000C9488030C94B0030C94B0030C94B003CC
:100010000C94B0030C94B0030C94B0030C94B00394
:100020000C94B0030C94B0030C94B0030C94B00384
:100030000C94B0030C94B0030C94B0030C94B00374
:100040000C94D6210C94B0030C947B080C945508A6
:100050000C94B0030C94B0030C94B0030C94B00354
:100060000C94A7130C94B003D604DC04E204E80457
:10007000EE04F404FA042B0632063906400647065D
:100080005E064E065E0655064E414E494E4954598F
:10009000494E46CDCCCC3D0AD7233C17B7D1387753
:1000A000CC2B329595E6241FB14F0A000020410069
:1000B00000C84200401C4620BCBE4CCA1B0E5AAEB3
:1000C000C59D7400407A10F35A00A0724E180900C2
:1000D00010A5D4E80000E87648170000E40B5402AD
:1000E0000000CA9A3B000000E1F5050000809698E8
:1000F00000000040420F000000A086010000001038
:100100002700000000E80300000000640000000079
:10011000000A00000000000100000000002C76D85A
:1001200088DC674F0823DFC1DFAE59E1B1B796E540
:10013000E3E453C63AE651997696E8E6C28426EBA4
:10014000898C9B62ED407C6FFCEFBC9C9F40F2BAB7
:10015000A56FA5F490055A2AF75C936B6CF9676D4F
:10016000C11BFCE0E40D47FEF520E6B500D0ED90A4
:100170002E0300943577050080841E080000204E71
:100180000A000000C80C333333330F986E1283110A
:1001900041EF8D2114893BE65516CFFEE6DB18D1E1
:1001A000844B381BF77C1D901DA4BBE424203284B3
:1001B000725E228100C9F124ECA1E53D2752315B3A
:1001C00073745D3A004C315B73745D3A0052305B7E
:1001D00073745D3A004C305B73745D3A00525B643B
:1001E00065675D3A004C5B6465675D3A00523A00B2
:1001F0004C3A004D4F56494E4720444F4E45004D16
:100200004F56494E472052554E4E494E47004D4F8E
:1002100056494E4720504155534544004D4F56498D
:100220004E472053544F50504544000000000025D5
:100230000028002B000000000023002600290004F5
:10024000040404040404040202020202020303037D
:100250000303030102040810204080010204081077
:100260002001020408102000000008000201000024
:100270000304070000000000000000454D20535417
:100280004F5020524553455400454D455247454E29
:1002900043592053544F50004F4B005E322D355F71
:1002A000203C342D363E2020302D53005A5B435DD8
:1002B00020535B415D20465B425D20234553430054
:1002C000202020202020202000024F4E210000006E
:1002D000000000000000000000014F464621000021
:1002E000000000000000000000004155544F2100B4
:1002F000000000000000000000E902D902C9023637
:100300000303F9020300000000000000003703505F
:10031000000300000000000000003B034C0003004D
:10032000000000000000003F034800030000000040
:100330000000000043034400030000000000000030
:1003400000470340000300000000000000004B03D2
:100350003C00090000000000000000FF0204000053
:1003600001000000000000004F0334000001000005
:1003700000000000005003600000010000000000C9
:100380000000510330000001000000000000005296
:10039000035C0000010000000000000053032C007B
:1003A00002000000000000000054032800020000CA
:1003B00000000000000056032400020000000000BE
:1003C00000000058032000030000000000000000AF
:1003D0005A031C000300000000000000005E031828
:1003E000000300000000000000006203140003008E
:1003F0000000000000000066031000020000000082
:10040000000000006A030C00020000000000000071
:10041000006C0308000300000000000000006E03F1
:100420005400040000000000000000720338005275
:10043000455345542044454641554C5453210002F0
:10044000000D1A525343414C455B73742F6465672A
:100450005D0000010004034C5343414C455B737441
:100460002F6465675D000001001103524D41585B28
:1004700073746570735D000000000001001E034C82
:100480004D41585B73746570735D0000000000019E
:10049000002B03524D494E5B73746570735D000011
:1004A000000000010038034C4D494E5B73746570C9
:1004B000735D00000000000100450353484F5420C5
:1004C0004F55545055540000000000010052035392
:1004D000484F5420494E56455253494F4E00000153
:1004E000005F03524947485420454E4120494E562B
:1004F00000000001006C035249474854204449520F
:1005000020494E56000000010079034C4546542016
:10051000454E4120494E5600000000010086034C24
:100520004546542044495220494E560000000001DF
:10053000009303504F53542053484F5420545B6D45
:10054000735D000100A00353484F542054494D45AA
:100550005B6D735D0000000100AD035052452053F8
:10056000484F5420545B6D735D00000100BA035284
:10057000315B73746570735D000000000000000162
:1005800000C7034C315B73746570735D000000003D
:100590000000000100D40352305B73746570735D1A
:1005A000000000000000000100E1034C305B7374A8
:1005B0006570735D000000000000000100EE034163
:1005C0004343454C5B73742F73325D0000000001A0
:1005D00000FB034D41582053504545445B73742F35
:1005E000735D000100080453544F505320325B2DBB
:1005F0005D0000000000000100150453544F5053EB
:100600005B2D5D000000000000000001002204FBE3
:1006100005E705D305BF05AB05970583056F055BAA
:1006200005470533051F050B05F704E304CF04BB9D
:1006300004A70493047F046B04570443042F044766
:100640004F544F2046494E414C20504F53210002F9
:10065000007115474F544F20535441525420504F6E
:100660005321000200851553455454494E47532DDC
:100670003E00000000000000180F0643414C4942B4
:10068000524154494F4E000000000002001A134727
:100690004F544F205A45524F20504F5321000002D3
:1006A0000067154D4F56452053544F502100000010
:1006B000000000020034154D4F564520535441525E
:1006C0005421000000000002002E154D4F56452019
:1006D000504155534521000000000002004B15CB4E
:1006E00006B706A3068F067B06670653063F06522B
:1006F0004F4F540000000000000000000000000008
:1007000008DF0600000000240027002A0000C12E98
:1007100011241FBECFEFD8E0DEBFCDBF25E0A0E49F
:10072000B2E001C01D92A53AB207E1F712E0A0E0E5
:10073000B1E0E0E6F6E702C005900D92A034B10703
:10074000D9F713E0C8E8D3E004C02197FE010E9466
:100750000B39C738D107C9F70E9420220C942E3BD1
:100760000C940000CF92DF92EF92FF920F931F93B1
:10077000CF93DF936C017A018B01C0E0D0E0CE15FE
:10078000DF0581F0D8016D918D01D601ED91FC91CD
:100790000190F081E02DC6010995892B11F0219679
:1007A000EECF7E01C701DF91CF911F910F91FF9096
:1007B000EF90DF90CF900895FC01538D448D252F4D
:1007C00030E0842F90E0821B930B541710F0CF96EB
:1007D000089501970895FC01918D828D981761F01D
:1007E000828DDF01A80FB11D5D968C91928D9F5F68
:1007F0009F73928F90E008958FEF9FEF0895FC0113
:10080000918D828D981731F0828DE80FF11D858DC5
:1008100090E008958FEF9FEF0895FC01918D228D58
:10082000892F90E0805C9F4F821B91098F739927DD
:1008300008958AE793E00E940D0421E0892B09F4D2
:1008400020E0822F0895FC01848DDF01A80FB11DE7
:10085000A35ABF4F2C91848D90E001968F739927F6
:10086000848FA689B7892C93A089B1898C918370D4
:1008700080648C93938D848D981306C00288F389CD
:10088000E02D80818F7D80830895EF92FF920F93FA
:100890001F93CF93DF93EC0181E0888F9B8D8C8D2C
:1008A000981305C0E889F989808185FD26C0F62E58
:1008B0000B8D10E00F5F1F4F0F731127E02E8C8DF3
:1008C000E8120CC00FB607FCFACFE889F9898081DD
:1008D00085FFF5CFCE010E942304F1CF8B8DFE0161
:1008E000E80FF11DE35AFF4FF0829FB7F8940B8F8A
:1008F000EA89FB89808180620AC09FB7F894EE89FB
:10090000FF896083E889F9898081837080648083AE
:100910009FBF81E090E0DF91CF911F910F91FF90F9
:10092000EF900895CF93DF93EC01888D8823C9F071
:10093000EA89FB89808185FD05C0A889B9898C91E8
:1009400086FD0FC00FB607FCF5CF808185FFF2CF83
:10095000A889B9898C9185FFEDCFCE010E9423042F
:10096000E7CFDF91CF91089580E090E0892B29F0C7
:100970000E94190481110C9400000895CF93DF9315
:100980004770552766277727FA013197EC01A88130
:10099000B981E730F10520F4EC5CFF4F0C940B3982
:1009A0001496ED91FC91159761E029C01496ED9194
:1009B000FC91159765E023C01496ED91FC91159775
:1009C00064E01DC01496ED91FC91159766E017C088
:1009D0001496ED91FC91159762E011C01496ED917B
:1009E000FC9115976AE00BC01496ED91FC91159758
:1009F00068E005C01496ED91FC91159769E0DF91D0
:100A0000CF910994CF93DF93EC01CB01BA0126E09B
:100A100030E040E050E00E94EC3862307105810522
:100A2000910559F18CF46115710581059105F1F07D
:100A30006130710581059105C1F5E881F981048076
:100A4000F581E02D65E02DC06430710581059105CB
:100A500011F1D4F0653071058105910531F5E8811A
:100A6000F9810480F581E02D66E01BC0E881F98101
:100A70000480F581E02D64E014C0E881F9810480F0
:100A8000F581E02D61E00DC0E881F9810480F581F8
:100A9000E02D63E006C0E881F9810480F581E02D56
:100AA00062E0CE01DF91CF910994DF91CF9108955B
:100AB0004370552766277727DC01ED91FC91048070
:100AC000F581E02D423051056105710571F043302B
:100AD00051056105710559F04130510561057105F8
:100AE00011F065E005C066E003C06AE001C069E09E
:100AF0000994CF93DF93EC01CB01BA0123E030E0FE
:100B000040E050E00E94EC386130710581059105AC
:100B100081F0623071058105910591F0672B682B9A
:100B2000692BC1F4E881F9810480F581E02D64E04E
:100B30000DC0E881F9810480F581E02D61E006C0F7
:100B4000E881F9810480F581E02D62E0CE01DF913A
:100B5000CF910994DF91CF9108954370552766276F
:100B60007727DC01ED91FC910480F581E02D423086
:100B700051056105710571F043305105610571053D
:100B800059F0413051056105710511F062E005C071
:100B900063E003C061E001C060E00994CF93DF939C
:100BA000EC01E881F9810480F581E02D8A818111D1
:100BB00002C060E001C062E0CE010995E881F981E0
:100BC0000480F581E02D8A81811102C061E001C0BD
:100BD00063E0CE0109958CA59DA58230910538F082
:100BE000880F991F880F991F05970197F1F7E881E2
:100BF000F9810480F581E02D8A81811102C060E0D5
:100C000001C062E0CE01DF91CF910994CF93DF93D1
:100C1000EC0120E030E0A9016C897D898E899F89F3
:100C20000E94413818161CF4E8A9F9A902C0EAA9E3
:100C3000FBA9DF91CF9109940F931F93DC011396C9
:100C4000EC910E2F10E009301105C0F5F801E55CBC
:100C5000FF4F0C940B39DC01ED91FC910084F18580
:100C6000E02D29C0DC01ED91FC910284F385E02D9B
:100C700022C0DC01ED91FC910484F585E02D1BC0C0
:100C8000DC01ED91FC910684F785E02D14C0DC01B8
:100C9000ED91FC910088F189E02D0DC0DC01ED9112
:100CA000FC910288F389E02D06C0DC01ED91FC91F6
:100CB0000488F589E02D1F910F9109941F910F91E0
:100CC0000895089508950895E091AE028091AD02CF
:100CD000E81730F4F0E0E153FD4F808190E0089593
:100CE0008FEF9FEF08959091AE028091AD0298171B
:100CF00050F4E92FF0E0E153FD4F208130E09F5F99
:100D00009093AE0202C02FEF3FEFC901089580918A
:100D1000AD0290E02091AE02821B910908950E94DD
:100D2000F83ACF92DF92EF92FF920F931F93CF93F7
:100D3000DF93EC019B81943041F0983031F0933097
:100D400031F0963021F012E003C014E001C013E04E
:100D50002496E12CF12CC62ED12C01E0C6010E2CDC
:100D600002C0959587950A94E2F76C8180FD602713
:100D700089910E94A20E8FEFE81AF80AE11670F32B
:100D8000DF91CF911F910F91FF90EF90DF90CF9067
:100D90000895CF93DF93FC012381222359F1EC01C5
:100DA00061E084810E94692161E08D810E94692156
:100DB0008B81843011F0883039F461E08E810E949B
:100DC000692161E08F8106C0833011F0863021F403
:100DD00061E08E810E9469218FA58F3F59F061E00B
:100DE0000E9469216EA581E068278FA5DF91CF91D0
:100DF0000C94A20EDF91CF910895CF93DF93FC0165
:100E000023812223A9F0EC010190F081E02D0480E0
:100E1000F581E02D60E009958FA58F3F49F061E0F5
:100E20000E9469216EA58FA5DF91CF910C94A20E2F
:100E3000DF91CF910895CF92DF92EF92FF920F93BF
:100E40001F93CF93DF937C01CB018A01209179031B
:100E5000222389F0EB016B01C40ED51ECC15DD05F4
:100E600069F06991D701ED91FC910190F081E02D3D
:100E7000C7010995F3CF642F0E94D514C801DF91F3
:100E8000CF911F910F91FF90EF90DF90CF90089539
:100E9000CF93DF931F92CDB7DEB76983209179039B
:100EA0002223D1F020917603203240F021E030E07F
:100EB000FC013383228380E090E015C080917703AA
:100EC000E82FF0E0E155FD4F998190838F5F80938B
:100ED00077038093760305C061E0CE0101960E94FE
:100EE000D51481E090E00F90DF91CF910895FC013F
:100EF00080819181009711F00C94523160E070E094
:100F0000CB0108950F931F93CF93DF93EC0188815A
:100F10009981009729F02A813B812617370788F4A9
:100F20008B016F5F7F4F0E94323A009761F0998387
:100F300088831B830A832C813D81232B11F4FC01C0
:100F4000108281E001C080E0DF91CF911F910F916D
:100F50000895EF92FF920F931F93CF93DF93EC01CD
:100F60007B018A01BA010E9482072881398181119F
:100F70000DC02115310519F0C9010E94A939198246
:100F800018821D821C821B821A8206C01D830C835C
:100F9000B701C9010E940D3BCE01DF91CF911F9196
:100FA0000F91FF90EF900895FC01808191810C9446
:100FB000A939FC01118210821382128215821482D7
:100FC0006115710551F0FB0101900020E9F731979F
:100FD000AF01461B570B0C94A9070895DC01ED9156
:100FE000FC910190F081E02D09946115710579F073
:100FF000FB0101900020E9F73197AF01461B570B29
:10100000DC01ED91FC910280F381E02D099480E0F8
:1010100090E008958F929F92AF92BF92EF92FF92CD
:101020000F931F93CF93DF93CDB7DEB7A1970FB682
:10103000F894DEBF0FBECDBF7C01FA01CB0119A22F
:10104000223008F42AE08E010F5D1F4F822E912C72
:10105000A12CB12CBF01A50194010E94CA38F9014D
:10106000CA01015011096A3014F4605D01C0695C65
:10107000D8016C93232B242B252B61F7B801C701D2
:101080000E94F507A1960FB6F894DEBF0FBECDBF44
:10109000DF91CF911F910F91FF90EF90BF90AF9094
:1010A0009F908F9008950C94F5071F920F920FB6A2
:1010B0000F9211242F933F934F935F936F937F93DE
:1010C0008F939F93AF93BF93EF93FF938AE793E040
:1010D0000E942304FF91EF91BF91AF919F918F9157
:1010E0007F916F915F914F913F912F910F900FBE24
:1010F0000F901F9018951F920F920FB60F92112408
:101100002F938F939F93EF93FF93E0918A03F09136
:101110008B038081E0919003F091910382FD12C0D6
:101120009081809193038F5F8F7320919403821736
:1011300051F0E0919303F0E0E658FC4F958F8093D7
:10114000930301C08081FF91EF919F918F912F9127
:101150000F900FBE0F901F9018954F925F926F9255
:101160007F928F929F92AF92BF92CF92DF92EF9237
:10117000FF92CF93DF93EC016A017B0120E030E026
:10118000A901C701B6010E949E3587FF04C0F7FA86
:10119000F094F7F8F0948C8C9D8CAE8CBF8CA701EA
:1011A0009601C501B4010E949E35882309F449C007
:1011B0006CA97DA98EA99FA90E94A5352B013C0190
:1011C000A7019601C501B4010E9499379B01AC01AA
:1011D000C301B2010E9404360E940B386CAB7DAB98
:1011E0008EAB9FABA701960160E070E080E090E4D9
:1011F0000E9499370E944C3826E53EE04DE25FE3BD
:101200000E94043620E034E244E759E40E940436A8
:1012100068AF79AF8AAF9BAFCC8EDD8EEE8EFF8E3E
:10122000CE01DF91CF91FF90EF90DF90CF90BF90F4
:10123000AF909F908F907F906F905F904F900C94A5
:10124000EA0ADF91CF91FF90EF90DF90CF90BF90AF
:10125000AF909F908F907F906F905F904F90089588
:1012600030917603313208F04AC08091AC0281118E
:10127000FCCF9091780322E02093AC026093AB0204
:101280002FEF2093AA021092A9023093A802EFEA4E
:10129000F2E0A8E8B2E020E0321721F041914D934E
:1012A0002F5FFACF1092870220918702990F922B1D
:1012B0009093870290918602913061F41092860299
:1012C000909187029093BB009091BC0093FDF8CF62
:1012D00095EC01C095EE9093BC009091AC029230D9
:1012E000E1F39091AA029F3F79F08091AA028032A7
:1012F00041F08091AA02803331F084E005C081E0A2
:1013000003C082E001C083E010927703109276035D
:101310001092790308958091AC028111FCCF413283
:1013200008F040E281E08093AC028093AB029FEF33
:101330009093AA021092A902940F9093A80280930E
:10134000870280918702660F682B609387028091E5
:101350008602813061F41092860280918702809328
:10136000BB008091BC0083FDF8CF85EC01C085EE09
:101370008093BC008091AC028130E1F38091A9029E
:10138000841710F44091A902A8E8B2E0EFECF2E073
:1013900080E0841721F09D9191938F5FFACF109296
:1013A000AE028093AD0208950F931F93CF93DF9306
:1013B000EC01FC0170961491113009F098C0109363
:1013C0002A0440E150E0BC0182E594E00E947931BA
:1013D00020E130E040E050E060E070E082E594E041
:1013E0000E941F20FE01729685919491FC016491E8
:1013F0003996A591B491611104C08C9180936404D5
:101400006FC08FEF860F823040F48D919C911197C1
:1014100090936A048093690463C08DEF860F8230D5
:1014200070F40D911D912D913C91139700936504DB
:1014300010936604209367043093680451C06930A8
:1014400031F5FD013396C591D491FD0185919491BB
:10145000FC018081FD013296A4919E0160E090E044
:10146000A91761F0F90145915491FA01449184134F
:1014700001C0692F9F5F2E5F3F4FF2CF60936404DE
:10148000CE01DF91CF911F910F910C94EF206A3024
:10149000D1F4FD013196C591D491FD01A4918881CB
:1014A00090E002C095958795AA95E2F780FF03C06A
:1014B0001093640402C010926404DF91CF911F91D5
:1014C0000F910C941A210D911D912D913C91139720
:1014D00000936B0410936C0420936D0430936E049E
:1014E000CD01DF91CF911F910F910C9488201111A4
:1014F00034C061112EC020912F0430913004821726
:10150000930739F18091330490913404892B79F059
:101510008091350490913604892B61F080913704D5
:1015200090913804892B79F482E090E005C080E046
:1015300090E002C081E090E0880F991FFC01ED5C13
:10154000FB4F31832083D0933004C0932F0410923B
:101550004D0460914D04CE0114C01230D9F4FC0149
:10156000729685919491009711F0FC0109958091F4
:101570002904882361F060914D0480912F0490919B
:101580003004DF91CF911F910F910C94272081E0BF
:1015900080932C04DF91CF911F910F9108950F93A9
:1015A0001F93CF93DF938C01C0E0D0E0F801EC0FE4
:1015B000FD1F6491662341F085EF94E00E94261A96
:1015C000892B11F02196F2CFCE01DF91CF911F919F
:1015D0000F9108954F925F926F927F928F929F9298
:1015E000AF92BF92CF92DF92EF92FF920F931F9331
:1015F000CF93DF93EC01C888D988EA88FB888C8573
:101600009D85AE85BF85C81AD90AEA0AFB0A6C898E
:101610007D898E899F899B01AC010E9404364B0114
:101620005C016C8D7D8D8E8D9F8D9B01AC010E9428
:101630002D379B01AC01C501B4010E9499370E946E
:101640000B38C114D104E104F10499F4623071053E
:10165000810591050CF076C01CA21DA21EA21FA23E
:101660001C8A1D8A1E8A1F8A1CAA1DAA1EAA1FAABE
:10167000EDC00CA91DA92EA93FA91C141D041E0410
:101680001F04FCF410161106120613064CF46C1518
:101690007D058E059F054CF52A81211153C025C07B
:1016A000011511052105310509F44CC06C157D05A6
:1016B0008E059F050CF046C08A81882309F442C03C
:1016C00036C01016110612061306ECF40027112777
:1016D00098010C191D092E093F096017710782072F
:1016E00093071CF42A81222369F19B01AC0188270E
:1016F0009927DC01821B930BA40BB50B8CAB9DAB24
:10170000AEABBFAB1FC00115110521053105D1F0EE
:101710008824992454018C189D08AE08BF086815C8
:1017200079058A059B0574F48A8181110BC0309577
:101730002095109501951F4F2F4F3F4F0CAB1DABC0
:101740002EAB3FAB8CA89DA8AEA8BFA88114910476
:10175000A104B10489F488AD99ADAAADBBAD8CAF3D
:101760009DAFAEAFBFAF81E01C141D041E041F046B
:101770000CF080E08A833FC0CCACDDACEEACFFACBB
:10178000A7019601C701B6010E942D372B013C012C
:10179000C501B4010E94A53520E030E040E850E4E6
:1017A0000E94043620E030E040E85FE30E942D37DD
:1017B0009B01AC01C301B2010E9499379B01AC01AE
:1017C000C701B6010E942C373B016C01FE01E05CB1
:1017D000FF4FE080F180028113819701A8010E94F0
:1017E0004138181614F473018601C701D8018CAF73
:1017F0009DAFAEAFBFAF3FEF831A930AA30AB30A00
:101800008CAA9DAAAEAABFAACCACDDACEEACFFAC54
:10181000C701B6010E9412386CA37DA38EA39FA3BB
:10182000A701960160E074E284E799E40E94993789
:101830006C8B7D8B8E8B9F8B2A81211107C0DC01E5
:10184000CB01B0588C8B9D8BAE8BBF8BDF91CF9132
:101850001F910F91FF90EF90DF90CF90BF90AF90CE
:101860009F908F907F906F905F904F900895CF9250
:10187000DF92EF92FF92CF93DF93EC018CA19DA1B9
:10188000AEA1BFA1892B8A2B8B2BB9F10E94A52178
:101890006B017C0188A599A5AAA5BBA5B701A601E6
:1018A000481B590B6A0B7B0B8CA19DA1AEA1BFA15C
:1018B000481759076A077B0700F12A818C859D85A7
:1018C000AE85BF85222321F00196A11DB11D03C065
:1018D0000197A109B1098C879D87AE87BF874C8589
:1018E0005D856E857F85CE010E941C06C8A6D9A69F
:1018F000EAA6FBA6CE010E94EA0A20E030E0A90198
:101900006C897D898E899F890E949E35811110C0C6
:1019100081E0C888D988EA88FB884C855D856E851A
:101920007F85C416D506E606F70619F480E001C0E7
:1019300081E0DF91CF91FF90EF90DF90CF900895FD
:101940000F931F93FC0100891189228933890417A1
:1019500015072607370741F0408B518B628B738B3D
:101960001F910F910C94EA0A1F910F9108950F9304
:101970001F93CF93DF93EC0120E030E0A9016C8945
:101980007D898E899F890E949E35811110C081E0DA
:10199000088919892A893B894C855D856E857F85F3
:1019A000041715072607370719F480E001C081E006
:1019B000DF91CF911F910F910895CF92DF92EF9217
:1019C000FF920E94CA216B017C010E94CA21DC01A6
:1019D000CB018C199D09AE09BF09843F9140A10537
:1019E000B10528F40E941C1C0E94D31BEECFFF906F
:1019F000EF90DF90CF900895CF92DF92EF92FF9219
:101A00000F931F93CF93DF93EC016A017B0120E0DA
:101A100030E0A901C701B6010E949E3587FF04C0CE
:101A2000F7FAF094F7F8F094A7019601688D798D94
:101A30008A8D9B8D0E949E35882309F446C0C88EEE
:101A4000D98EEA8EFB8E8E01005C1F4FA701960196
:101A500060E074E284E799E40E949937F8016083BA
:101A60007183828393838CA99DA9AEA9BFA91816FF
:101A700019061A061B064CF56C897D898E899F898B
:101A80009B01AC010E9404366B017C016C8D7D8D45
:101A90008E8D9F8D9B01AC010E942D379B01AC0167
:101AA000C701B6010E9499370E940B386CAB7DAB21
:101AB0008EAB9FABCE01DF91CF911F910F91FF9025
:101AC000EF90DF90CF900C94EA0ADF91CF911F91B5
:101AD0000F91FF90EF90DF90CF9008958F929F929B
:101AE000AF92BF92CF92DF92EF92FF92CF93DF93AC
:101AF000EC018C889D88AE88BF8820E030E0A90189
:101B0000C501B4010E949E35882309F442C0A50195
:101B10009401C501B4010E9404366B017C016C8DF7
:101B20007D8D8E8D9F8D9B01AC010E942D379B0179
:101B3000AC01C701B6010E9499370E940B386B01B6
:101B40007C012FEFC21AD20AE20AF20A20E030E04A
:101B5000A901C501B4010E9441384C855D856E859F
:101B60007F8518162CF44C0D5D1D6E1D7F1D04C065
:101B70004C195D096E097F09CE01DF91CF91FF906D
:101B8000EF90DF90CF90BF90AF909F908F900C948C
:101B9000A00CDF91CF91FF90EF90DF90CF90BF909E
:101BA000AF909F908F900895CF92DF92EF92FF9227
:101BB0000F931F93CF93DF9377FF1DC06A017B01C3
:101BC000EC016DE20E94EE078C0144275527BA0113
:101BD0004C195D096E097F092AE0CE010E940A08AE
:101BE000800F911FDF91CF911F910F91FF90EF9088
:101BF000DF90CF9008952AE0DF91CF911F910F9150
:101C0000FF90EF90DF90CF900C940A0867E372E0AA
:101C10008AE793E00C94F507CF93DF93BC018AE742
:101C200093E00E94F507EC010E94060E8C0F9D1FA9
:101C3000DF91CF910895CF93DF93AB01BC018AE789
:101C400093E00E94D40DEC010E94060E8C0F9D1FA4
:101C5000DF91CF910895CF93DF93FC0124813581EB
:101C6000232B71F0FB01DC01CD91DC91608171814E
:101C7000CE010E94143B009719F08C1B9D0B02C0F3
:101C80008FEF9FEFDF91CF9108950F931F930E94E5
:101C9000CA2160938203709383038093840390939B
:101CA00085038AE793E00E94EB0397FF1FC00E9421
:101CB000CA21009182031091830320918403309103
:101CC0008503DC01CB01801B910BA20BB30B0091B0
:101CD0007E0310917F032091800330918103801750
:101CE0009107A207B307E8F28FEF9FEF1F910F91C3
:101CF0000895CF93DF93282F30E0F901E959FD4F84
:101D00008491F901ED5AFD4FD491F901E15CFD4F49
:101D1000C491CC2391F081110E944021EC2FF0E07E
:101D2000EE0FFF1FEB5CFD4FA591B491EC91ED23FD
:101D300081E090E021F480E002C080E090E0DF915B
:101D4000CF9108951F93CF93DF93282F30E0F901AF
:101D5000E959FD4F8491F901ED5AFD4FD491F901F4
:101D6000E15CFD4FC491CC23C1F0162F81110E947C
:101D70004021EC2FF0E0EE0FFF1FE55DFD4FA59138
:101D8000B4919FB7F894111104C08C91D095D823C9
:101D900002C0EC91DE2BDC939FBFDF91CF911F91AE
:101DA00008952F923F924F925F926F927F928F92FF
:101DB0009F92AF92BF92CF92DF92EF92FF920F93DA
:101DC0001F93CF93DF93CDB7DEB764970FB6F89428
:101DD000DEBF0FBECDBF042F4296FC0185919491CA
:101DE000FC0114913596C590D590E590F490FC01D6
:101DF00031962591359145915491298B3A8B4B8B96
:101E00005C8B643009F46DC3633008F097C21930FD
:101E100029F5FC01399625913491F9013296949176
:101E2000319625913491EFEFE90F90916404613080
:101E300039F0911103C0E09364040AC0915006C0C8
:101E4000E91303C01092640403C09F5F909364047D
:101E500060916404C9010E94EF204CC31A3059F408
:101E600081E090916404913009F480E080936404EF
:101E70000E941A213FC3613019F08FEF9FEF02C01B
:101E800081E090E02091620430916304829F5001D0
:101E9000839FB00C929FB00C1124B5010B2C000C49
:101EA000880B990B0E94A535163029F420E030E00C
:101EB00040E251E40DC0173029F420E030E048EC56
:101EC00052E406C0183031F420E030E04AE754E430
:101ED0000E94993749885A886B887C882DEF200F9B
:101EE0002230B8F410926F049B01AC0160916B0436
:101EF00070916C0480916D0490916E040E942D3756
:101F000060936B0470936C0480936D0490936E04E3
:101F100058C00334B9F410926B0410926C04109200
:101F20006D0410926E041092650410926604109273
:101F300067041092680410926A0410926904109267
:101F400064043AC00130D9F580916404819580938E
:101F500064048091690490916A0491958195910936
:101F600090936A048093690480916504909166045B
:101F7000A0916704B0916804B095A0959095819563
:101F80009F4FAF4FBF4F8093650490936604A0931B
:101F90006704B093680480916B0490916C04A091E5
:101FA0006D04B0916E04B05880936B0490936C04F0
:101FB000A0936D04B0936E04A12CB12CC8C0A12CC9
:101FC000B12C00530A3008F0C2C080916F048230F7
:101FD00008F442C080916404880F982F990F990FDC
:101FE000890F809364042091690430916A044AE067
:101FF000429FC001439F900D112490936A048093E7
:102000006904209165043091660440916704509101
:102010006804AAE0B0E00E94DB3660936504709328
:102020006604809367049093680420E030E040E207
:1020300051E460916B0470916C0480916D049091F7
:102040006E040E94043660936B0470936C0480935A
:102050006D0490936E0418C08130B1F41092650441
:1020600010926604109267041092680410926A0439
:10207000109269041092640410926B0410926C0424
:1020800010926D0410926E0480916404800F80930E
:1020900064048091690490916A04800F911D90936B
:1020A0006A04809369048091650490916604A0910C
:1020B0006704B0916804800F911DA11DB11D80932C
:1020C000650490936604A0936704B0936804163087
:1020D00061F4602F000F770B880B990B0E94A535D8
:1020E00020E030E040E251E40DC0173011F5602FE0
:1020F000000F770B880B990B0E94A53520E030E08C
:1021000048EC52E40E9499379B01AC0160916B044A
:1021100070916C0480916D0490916E040E942D3733
:1021200060936B0470936C0480936D0490936E04C1
:10213000B9C0183061F4602F000F770B880B990B32
:102140000E94A53520E030E04AE754E4DBCF1111CE
:1021500026C0809164048A0DC114D104E104F10405
:1021600041F4411451046104710419F4809364042E
:1021700013C090E0A0E0B0E0481659066A067B065E
:1021800044F0C816D906EA06FB0624F46C017D016A
:1021900001C0C988C092640484E694E0CBC01130C9
:1021A00011F0123089F58091690490916A048A0DCA
:1021B0009B1DC114D104E104F10451F441145104F4
:1021C0006104710429F490936A04809369040FC038
:1021D000092E000CAA0BBB0B481659066A067B0693
:1021E0004CF499898A899093690480936A0489E6FA
:1021F00094E0A0C0C816D906EA06FB0614F46C01E8
:102200007D019C2D8D2DEFCF133069F4A501BB0C02
:10221000660B770B8091650490916604A09167042A
:10222000B09168040EC01430E9F5C501BB0CAA0BCF
:10223000BB0B4091650450916604609167047091F6
:102240006804840F951FA61FB71FC114D104E104B1
:10225000F10471F4411451046104710449F4809350
:10226000650490936604A0936704B09368040FC05C
:10227000481659066A067B066CF473016201C09227
:102280006504D0926604E0926704F092680485E6E3
:1022900094E050C0C816D906EA06FB0684F76C0124
:1022A0007D01EDCFC114D104E104F10429F44114FE
:1022B000510461047104E1F120906B0430906C04CE
:1022C00080906D0490906E04C301B2010E94A53508
:1022D000762EA72EB82E092F262F372F482F592FAD
:1022E000B101C4010E9441381816B4F0C701B6010B
:1022F0000E94A535762EA72EB82E092F262F372F10
:10230000482F592FB101C4010E949E3587FD04C09A
:10231000722CA32CB82C092D872D9A2DAB2DB02F04
:1023200080936B0490936C04A0936D04B0936E043F
:102330008BE694E0612F0E948820DCC0633009F0B6
:10234000D9C0FC013996A591B491193099F4FD01D9
:1023500033962591349140916404F901E40FF11D05
:10236000E40FF11D65917491FB016491FD01A5914C
:10237000B4912AC01A3021F5FD013196659174910E
:10238000FD01A49120916404FB01B081222349F056
:1023900041E050E001C0440FAA95EAF74B2B40837F
:1023A0000AC021E030E001C0220FAA95EAF720958B
:1023B0002B23FB012083FB0160810E94A51C91C09F
:1023C000111104C0609164046C93F7CF1230A9F42A
:1023D0002091690430916A042D933C93388B2F87A8
:1023E000FC013B9685919491009709F47AC0BE0157
:1023F000615F7F4F0E94BE1C74C01130A9F4209110
:10240000690430916A042D933C933E872D87FC012B
:102410003B9685919491009709F463C0BE01635F78
:102420007F4F0E94BE1C5DC01430F1F440916504E2
:102430005091660460916704709168044D935D93B8
:102440006D937C93139749875A876B877C87FC0130
:102450003B9685919491009709F443C0BE01675F54
:102460007F4F0E94BB1C3DC01330E9F440916504CE
:102470005091660460916704709168044D935D9378
:102480006D937C9313974D835E836F837887FC01F4
:102490003B9685919491009721F1BE016B5F7F4F30
:1024A0000E94BB1C1EC01530E0F040916B0450919F
:1024B0006C0460916D0470916E044D935D936D9307
:1024C0007C93139749835A836B837C83FC013B96EF
:1024D00085919491009729F0BE016F5F7F4F0E9414
:1024E000BB1C10922A0461E080912F04909130046B
:1024F0000E94D40964960FB6F894DEBF0FBECDBF1C
:10250000DF91CF911F910F91FF90EF90DF90CF90CF
:10251000BF90AF909F908F907F906F905F904F9003
:102520003F902F900895AF92BF92CF92DF92EF929B
:10253000FF920F931F93CF93DF937C016B01EA010E
:10254000DB011496AD90BC901597A416B50620F447
:102550008D2FE501A42EB82E69E372E0C7010E9419
:10256000D907F60104811581C017D107C8F5A01657
:10257000B10608F48501D601ED91FC911197E00FA9
:10258000F11FB08010826D917C916C0F7D1F6115E1
:10259000710561F0FB0101900020E9F73197AF016F
:1025A000461B570BC7010E94A90713C0F701808182
:1025B0009181009711F00E94A939D70111961C92C0
:1025C0001E9215961C921E92149713961C921E92A0
:1025D0001297F60180819181FC01E00FF11FB0821A
:1025E000C701DF91CF911F910F91FF90EF90DF9086
:1025F000CF90BF90AF90089585ED8093BC008091FF
:10260000BC0084FDFCCF1092AC02089585EF94E0ED
:102610000E94D11C6AE971E085EF94E00E945308A2
:1026200061E080E00E94A71F67EA71E085EF94E017
:102630000C94530885EF94E00E94C91C1092290461
:1026400085E090E0909352028093510281E090E007
:102650009093500280934F021092410210924202D6
:1026600010924302109244021092400285EF94E0CF
:102670000E94D11C60E080E00E94A71F8CEA92E0DB
:102680000E94CF0A61E080E00E94A71F8BE992E0E0
:102690000C94CF0AEF92FF920F931F93CF93DF9387
:1026A0008C01D62FC42F790185EF94E00E94C91CBC
:1026B0006D2F8C2F0E94A71FE801CE01801B910B6C
:1026C0008E159F055CF469918FED860F8E3508F0AD
:1026D00060E285EF94E00E94261AEFCFDF91CF9160
:1026E0001F910F91FF90EF9008951092AE021092FB
:1026F000AD0210927703109276031092AC0281E043
:102700008093AB021092860261E082E10E94A20EE9
:1027100061E083E10E94A20EE9EBF0E080818E7F10
:10272000808380818D7F808388E48093B80085E4F6
:102730008093BC0081E696E090933303809332034C
:1027400082E696E0909335038093340308951F92B8
:102750000F920FB60F9211242F933F934F935F93D5
:102760006F937F938F939F93AF93BF93EF93FF9359
:102770008091B900887F803609F49CC068F5883262
:1027800009F45BC090F4803109F454C038F4882314
:1027900009F4F6C0883009F44DC0F6C0883109F458
:1027A0004CC0803209F45DC0EFC0803409F468C0C9
:1027B00048F4803309F455C0883309F0E5C08093AC
:1027C000AA02D8C0803509F44FC0883509F45DC02D
:1027D000883409F0D9C0D6C0883909F4C7C0A8F434
:1027E000883709F467C038F4883609F463C0803745
:1027F00009F460C0C9C0883809F4B8C0803909F448
:102800005FC0803809F0C0C05BC0803B09F486C05F
:1028100038F4803A09F466C0883A09F47FC0B4C03D
:10282000803C09F4A7C0883C09F4A4C0883B09F4A3
:102830008AC0AAC08091870210C09091A90280919D
:10284000A802981770F5E091A90281E08E0F80939D
:10285000A902F0E0E857FD4F80818093BB0085EC32
:1028600086C08093AA028EC0E091A90281E08E0FFB
:102870008093A9028091BB00F0E0E857FD4F808370
:102880009091A9028091A8026EC0E091A90281E016
:102890008E0F8093A9028091BB00F0E0E857FD4FB6
:1028A00080838091AB0281116DC081E080938602AC
:1028B00084EA61C083E08093AC0210923103CFCFF1
:1028C00080913103803208F051C0E091310381E002
:1028D0008E0F809331038091BB00F0E0EF5EFC4FE0
:1028E0008083BDCF85EC8093BC001092AC028091B8
:1028F0003103803230F4E0913103F0E0EF5EFC4FC1
:1029000010826091310370E0E0913403F09135035F
:1029100081E193E009951092310336C084E0809301
:10292000AC021092100310920F03E0913203F09169
:102930003303099580910F03811105C081E08093D5
:102940000F031092EF02E091100381E08E0F80934D
:102950001003F0E0E151FD4F80818093BB00909126
:10296000100380910F03981708F479CF85E88093BE
:10297000BC000AC085EC8093BC001092AC0204C07D
:102980001092AA020E94FC12FF91EF91BF91AF91A9
:102990009F918F917F916F915F914F913F912F9177
:1029A0000F900FBE0F901F90189540910F03262F88
:1029B00030E0240F311D21323105DCF42091AC02CE
:1029C0002430C9F4FC0180E090E0861758F430917F
:1029D0000F032191DC01A151BD4FA30FB11D2C9319
:1029E0000196F3CF80910F03680F60930F0380E08F
:1029F000089581E0089582E0089544E00C94651CF8
:102A000080EC92E00E94CF0A0E941C1C0C94D31B05
:102A1000CF93C62F482F50E060E070E085EF94E040
:102A20000E94D40DC11102C061E405C0C33010F48E
:102A30006DE401C068E585EF94E0CF910C94EE075A
:102A400085EF94E00E94D11C60E080E00E94A71F07
:102A500088E992E00E94CF0A0C94DD0C0E942015B8
:102A600081E080934E0208950E9420151092450245
:102A700010924A0210924B0210924C0210924D0298
:102A80001092460210924702109248021092490298
:102A900010924E0208950E94201582E080934E020B
:102AA0000895CF92DF92EF92FF9269017A01AB0114
:102AB000BC0182E595E00E94A00CB701A6018EE062
:102AC00095E0FF90EF90DF90CF900C94A00C0E94C7
:102AD000201520E030E0A90160E070E0CB010C940B
:102AE00051150E94201520915A0330915B034091AB
:102AF0005C0350915D0360915E0370915F03809170
:102B00006003909161030C9451150E94201520914F
:102B100062033091630340916403509165036091B7
:102B200066037091670380916803909169030C9428
:102B30005115CF92DF92EF92FF9280915303109242
:102B40005A0580935B051092800580915103109285
:102B500016058093170510923C0560916C037091E7
:102B60006D0380E090E00E94A335AB01BC0182E5DB
:102B700095E00E94FC0C60916A0370916B0380E009
:102B800090E00E94A3356B017C0120E030E0A901B8
:102B90000E949E35882331F0B701A60182E595E0B9
:102BA0000E94AD0860916C0370916D0380E090E02D
:102BB0000E94A335AB01BC018EE095E00E94FC0CA5
:102BC00060916A0370916B0380E090E00E94A335EE
:102BD0006B017C0120E030E0A9010E949E35882332
:102BE00051F0B701A6018EE095E0FF90EF90DF90E5
:102BF000CF900C94AD08FF90EF90DF90CF900895A8
:102C000041E066E373E084E090E00E94651C42E0EE
:102C10006CE673E088E090E00E94651C42E06AE6A2
:102C200073E08CE090E00E94651C62E773E088E34B
:102C300090E00E94FD1442E068E573E080E290E0DD
:102C40000E94651C42E066E573E084E290E00E9429
:102C5000651C42E064E573E088E290E00E94651C38
:102C600066E673E080E190E00E94FD1462E673E0A6
:102C700084E190E00E94FD146EE573E088E190E04D
:102C80000E94FD146AE573E08CE190E00E94FD145F
:102C900041E063E573E08CE290E00E94651C41E056
:102CA00061E573E080E390E00E94651C41E06FE421
:102CB00073E084E390E00E94651C6BE473E08CE3B6
:102CC00090E00E94FD1467E473E080E490E00E94CD
:102CD000FD1463E473E084E490E00E94FD146FE36C
:102CE00073E088E490E00E94FD146BE373E08CE4F1
:102CF00090E00E94FD1467E373E080E590E00E949D
:102D0000FD1441E062E573E08CE590E00E94651CF3
:102D100041E060E573E080E690E00E94651C6EE6AD
:102D200073E084E590E00C94FD14CF93DF93EC0105
:102D30000E94CD1D8E859F858130910589F182305D
:102D4000910581F18430910579F1089779F18C85AD
:102D50009D858130910561F18230910559F1843072
:102D6000910551F1089751F18A859B858130910534
:102D700039F18230910531F18430910529F10897BC
:102D800029F1888599858130910511F1823091056D
:102D900009F18430910501F1089701F180E01FC02D
:102DA0008AE21DC087E31BC084E319C081E317C01A
:102DB00080E315C088E313C085E311C082E30FC030
:102DC00083E20DC089E30BC086E309C083E307C03B
:102DD00084E405C083E403C082E401C081E4DF91A0
:102DE000CF910895CF92DF92EF92FF920F931F93AE
:102DF000CF93DF93EC010E94CD1D888580FF1CC01E
:102E00008A8580FF0EC085EF94E00E94D11C89E87E
:102E100092E00E94CF0A10925202109251020E9438
:102E2000DD0C8E8583FF08C085EF94E00E94D11CE5
:102E30008BE792E00E94CF0ACE010E94CD1D8E85C5
:102E40009F85049731F58C859D85089711F40E9424
:102E50004B158A859B85089711F40E942E1588854D
:102E60009985089711F40E9434158C859D850497E7
:102E700019F481E0809336038A859B85049719F4C1
:102E800082E08093360388859985049711F4109227
:102E900036038E859F858B7F029739F08091510292
:102EA00090915202059709F004C18C859D8584306C
:102EB000910511F580915E0590915F05A0916005E7
:102EC000B0916105409143035091440360914503E3
:102ED000709146038C019D0109511C4F2F4F3F4FAC
:102EE000041715072607370754F5AC01BD014851F3
:102EF0005C4F6F4F7F4F23C0089731F580915E057F
:102F000090915F05A0916005B091610540914B03E0
:102F100050914C0360914D0370914E038C019D01C3
:102F2000075E1340210931094017510762077307F3
:102F300034F4AC01BD01485E53406109710982E57A
:102F400095E00E94A00C2DC082E595E00E94B70C90
:102F5000882339F140E25CEB6EEB7CE482E595E09E
:102F60000E94AD0882E595E00E946E0D0E941C1C37
:102F70008111FCCF60916A0370916B0380E090E057
:102F80000E94A3356B017C0120E030E0A9010E9482
:102F90009E35882331F0B701A60182E595E00E94B5
:102FA000AD088E859F858D7F049711F580911A0558
:102FB00090911B05A0911C05B0911D0540913F0308
:102FC0005091400360914103709142038C019D0137
:102FD00009511C4F2F4F3F4F04171507260737077E
:102FE00064F5AC01BD0148515C4F6F4F7F4F25C068
:102FF0008A859B85049731F580911A0590911B0570
:10300000A0911C05B0911D054091470350914803C4
:103010006091490370914A038C019D01075E134042
:1030200021093109401751076207730734F4AC01D5
:10303000BD01485E5340610971098EE095E00E9430
:10304000A00C2DC08EE095E00E94B70C882339F1CA
:1030500040E25CEB6EEB7CE48EE095E00E94AD0814
:103060008EE095E00E946E0D0E94D31B8111FCCF73
:1030700060916A0370916B0380E090E00E94A33539
:103080006B017C0120E030E0A9010E949E3588237D
:1030900031F0B701A6018EE095E00E94AD088C8565
:1030A0009D85019721F482E08093360302C010923F
:1030B0003603888599858E0101581F4F892B61F44D
:1030C0008A859B85892B41F48C859D85892B21F4EC
:1030D0008E859F85892BA1F1F80180819181A28144
:1030E000B381892B8A2B8B2B39F40E94CA21F801DA
:1030F0006083718382839383F801C080D180E280F2
:10310000F380F4EFCF0EF1E0DF1EE11CF11C0E9412
:10311000CA216C157D058E059F05B8F4F801C080A5
:10312000D180E280F380F8ECCF0ED11CE11CF11CC1
:103130000E94CA21C616D706E806F90630F410C068
:10314000F8011082118212821382CE01DF91CF9199
:103150001F910F91FF90EF90DF90CF900C949516F8
:1031600080E0DF91CF911F910F91FF90EF90DF9062
:10317000CF900895835B9F4FFC01808191810E94D5
:10318000F216813461F0823469F0843471F0833254
:1031900079F08A3281F0082E000C990B089583E0B3
:1031A00090E0089584E090E0089581E090E0089533
:1031B00082E090E0089585E090E008951092360353
:1031C00080EA9FE090936D0380936C0384E690E027
:1031D00090936B0380936A0382E090E0A0E0B0E0FC
:1031E0008093720390937303A0937403B093750359
:1031F00088EB9BE0909359038093580384EF91E010
:1032000090935703809356038CED95E0909355036C
:103210008093540388EE93E0A0E0B0E080936603CF
:1032200090936703A0936803B0936903809362034C
:1032300090936303A0936403B093650388E19CEFCC
:10324000AFEFBFEF80935E0390935F03A0936003A3
:10325000B093610380935A0390935B03A0935C0344
:10326000B0935D031092530381E080935103109259
:103270004F0380EF98EDAFEFBFEF80934B03909338
:103280004C03A0934D03B0934E0380934703909358
:103290004803A0934903B0934A0380E197E2A0E07A
:1032A000B0E08093430390934403A0934503B0930D
:1032B000460380933F0390934003A0934103B09350
:1032C00042038AE090E0A0E0B0E080933B0390935B
:1032D0003C03A0933D03B0933E0380933703909348
:1032E0003803A0933903B0933A0310926E031092FF
:1032F0006F03109270031092710341E066E373E074
:1033000084E090E00E94831C6CE673E088E090E02B
:103310000E94BE1C6AE673E08CE090E00E94BE1C36
:1033200062E773E088E390E00E94BB1C68E573E00D
:1033300080E290E00E94BE1C66E573E084E290E0CB
:103340000E94BE1C64E573E088E290E00E94BE1C0F
:1033500066E673E080E190E00E94BB1C62E673E0E9
:1033600084E190E00E94BB1C6EE573E088E190E090
:103370000E94BB1C6AE573E08CE190E00E94BB1CDC
:1033800041E063E573E08CE290E00E94831C41E041
:1033900061E573E080E390E00E94831C41E06FE40C
:1033A00073E084E390E00E94831C6BE473E08CE3A1
:1033B00090E00E94BB1C67E473E080E490E00E9410
:1033C000BB1C63E473E084E490E00E94BB1C6FE3E9
:1033D00073E088E490E00E94BB1C6BE373E08CE434
:1033E00090E00E94BB1C67E373E080E590E00E94E0
:1033F000BB1C41E062E573E08CE590E00E94831C19
:1034000041E060E573E080E690E00E94831C6EE698
:1034100073E084E590E00C94BB1C0E94DE180C94D1
:103420002015089521E001C0220F6A95EAF7DC011A
:103430001C962C931C971A965C934E931997ED91BA
:10344000FC910484F585E02D60E00994DC01ED91A8
:10345000FC910684F785E02D41E0099581E090E03C
:10346000089508950895089580E090E00895DC019E
:1034700026E0629FA00DB11D112490965C934E939F
:103480005F9721E091962C939197FC01E459FF4FAF
:10349000208131960190F081E02D222331F0309788
:1034A00049F0611107C0DC0102C0309719F05C9649
:1034B0008C9109940895862F642F0C94A20EEF929C
:1034C000FF920F931F93CF93DF937C018C01C0E099
:1034D000D0E0F80186890E94790E892B51F4269656
:1034E000CC0FDD1FCC0FDD1FCE0DDF1D8881998134
:1034F00008C021960C5F1F4FC530D10551F780E001
:1035000090E0DF91CF911F910F91FF90EF90089580
:10351000862F0C94790E0F931F93CF93DF93062F72
:103520000F70423019F440E0602F0EC0142FEC01F0
:1035300070E084E0759567958A95E1F7CE010E9469
:10354000EF1F412F602FCE01DF91CF911F910F917F
:103550000C94EF1FFC0184858823A9F02185328516
:103560002115310519F4611106C007C0213031055C
:1035700021F4611102C0858701C015866585CF01E0
:103580000E960C947F1F0895CF92DF92EF92FF92D8
:103590000F931F93CF93DF93EC0181E090E002C083
:1035A000880F991F6A95E2F78E0103581F4F442335
:1035B00049F0D8012D913C911197822B932B8D933B
:1035C0009C9309C080959095F801208131818223D8
:1035D000932391838083D801CC901196DC90FE01D7
:1035E000E558FF4F80817E01BFE6EB0EF11C91E0B4
:1035F0009093790380937803109277031092760367
:10360000D701ED91FC910190F081E02D6C2DC70167
:103610000995C458DF4F8881823048F0D701ED9179
:10362000FC910190F081E02D6D2DC701099561E0BD
:10363000C7010E943009F801C082D182DF91CF9189
:103640001F910F91FF90EF90DF90CF900895CF9250
:10365000DF92EF92FF920F931F93CF93DF9301E0DE
:1036600010E002C0000F111F6A95E2F77C012FE6FF
:10367000E20EF11C6C01ECE7CE0ED11CF60140818C
:1036800050E03197608170E0C7010E948B09C7014B
:103690000E947306EC01F6018081823040F0C70180
:1036A0000E94730620E030E0382FC22BD32BC023BA
:1036B000D12381E090E0C017D10711F080E090E0C5
:1036C000DF91CF911F910F91FF90EF90DF90CF90FE
:1036D0000895CF92DF92EF92FF920F931F93CF93B3
:1036E000DF93EC01162F042FFC0186E0689FE00DAC
:1036F000F11D112411A2878D90A181309105D1F087
:1037000048F08230910591F1039709F03FC040E005
:1037100050E030C04423D1F141E050E0CE010E949E
:10372000371A0E94CA21C85ADF4F688379838A8377
:103730009B832CC00E94CA21FE01E85AFF4FC08023
:10374000D180E280F380AB01BC014C195D096E09A8
:103750007F09729680819181A0E0B0E0841795077F
:10376000A607B70718F442E050E004C001110EC0EC
:1037700043E050E0612FCE01DF91CF911F910F9177
:10378000FF90EF90DF90CF900C94371ADF91CF919C
:103790001F910F91FF90EF90DF90CF900895862FAB
:1037A000642F0C94692180915003882339F08EE0B6
:1037B00095E00E94B70C61E0682705C08EE095E0B7
:1037C0000E94B70C682F8AE00E94A20E40913F032E
:1037D00050914003609141037091420380911E0516
:1037E00090911F05A0912005B09121054817590718
:1037F0006A077B0724F48EE095E00E94A00C4091BC
:103800004703509148036091490370914A038091A6
:103810001E0590911F05A0912005B09121058417E8
:103820009507A607B70724F48EE095E00E94A00C48
:103830008EE095E00C94370C80915203882339F088
:1038400082E595E00E94B70C61E0682705C082E53B
:1038500095E00E94B70C682F86E00E94A20E40916E
:103860004303509144036091450370914603809156
:10387000620590916305A0916405B09165054817B4
:1038800059076A077B0724F482E595E00E94A00CA3
:1038900040914B0350914C0360914D0370914E0346
:1038A0008091620590916305A0916405B0916505D2
:1038B00084179507A607B70724F482E595E00E94D0
:1038C000A00C82E595E00C94370CEF92FF920F93D9
:1038D0001F93CF93DF938C010D5F1F4FEB017B0193
:1038E000E40EF11CEC16FD0639F0C8010E94C53645
:1038F00089930F5F1F4FF6CFDF91CF911F910F91EB
:10390000FF90EF900895EF92FF920F931F93CF9344
:10391000DF938C010D5F1F4FEB017B01E40EF11C67
:10392000CE15DF0539F06991C8010E94CD360F5FD1
:103930001F4FF6CF60E080E090E0DF91CF911F91C4
:103940000F91FF90EF900C94CD36CF93DF931F92A1
:10395000CDB7DEB769830B96FC01859194910097F2
:1039600031F041E0BE016F5F7F4F0E94831C0F90DA
:10397000DF91CF91089544E00C94831C42E00C94B5
:10398000831CDC01ED91FC910684F785E02D40E07D
:103990000994DC01ED91FC910484F585E02D6FEF35
:1039A000099461E00E94C11C8BE39FE10197F1F74C
:1039B00008958F929F92AF92BF92CF92DF92EF9233
:1039C000FF920F931F93CF93DF93EC01423018F0D7
:1039D0008C8188608C834F836887222329F0413053
:1039E00019F48C8184608C830E94A5216B017C0179
:1039F00084E6882E912CA12CB12C0E94A521DC01FB
:103A0000CB018C199D09AE09BF09883E9340A105E1
:103A1000B10598F321E0821A9108A108B10888EE57
:103A2000C80E83E0D81EE11CF11C81149104A1048E
:103A3000B10419F76C8164FD31C0E881F981068415
:103A4000F785E02D42E063E0CE0109958BE496E432
:103A50000197F1F7E881F9810684F785E02D42E0CE
:103A600063E0CE01099503E512E0C8010197F1F783
:103A7000E881F9810684F785E02D42E063E0CE011C
:103A80000995C8010197F1F7E881F9810684F78566
:103A9000E02D42E062E0CE01099517C06062CE01E0
:103AA0000E94C11C8BE496E40197F1F76C8160627F
:103AB000CE010E94C11C03E512E0C8010197F1F795
:103AC0006C816062CE010E94C11CC8010197F1F7B0
:103AD0006C816062CE010E94C11C8BEE90E0019768
:103AE000F1F784E08D836CE0CE010E94C11CCE0111
:103AF0000E94D11C82E08E8366E0CE010E94C11C30
:103B0000CE01DF91CF911F910F91FF90EF90DF9049
:103B1000CF90BF90AF909F908F900C94C91CFF9254
:103B20000F931F93CF93DF93EC01162F042FF22EE8
:103B30008B85888B87E194E00E947513888991E0DA
:103B40009093790380937803109277031092760311
:103B500061E087E194E00E94300991E0811190E0FA
:103B6000998B811105C087E194E00E9473068E87CE
:103B70008989882339F01F861C8260E0CE010E9669
:103B80000E947F1F2F2D402F612FCE01DF91CF91FB
:103B90001F910F91FF900C94D91C2F923F924F923E
:103BA0005F926F927F928F929F92AF92BF92CF92CD
:103BB000DF92EF92FF920F931F93CF93DF93CDB7D6
:103BC000DEB72A970FB6F894DEBF0FBECDBF9A8737
:103BD00089870E94CA2129853A85245A3F4F3A8312
:103BE0002983D9010D911D912D913C91AB01BC010F
:103BF000401B510B620B730BE985FA85E859FF4FA7
:103C000080819181A0E0B0E084179507A607B707EF
:103C100008F02FC110E049845A84B6E64B0E511CBF
:103C2000E984FA84E2E6EE0EF11CD2018C911817B9
:103C3000B0F010E029843A84B7E62B0E311CC98419
:103C4000DA84E4E6CE0ED11C812C912C54018394AD
:103C500029853A852E593F4F38872F8361C0F70158
:103C6000A081B181A10FB11DE985FA858081918183
:103C7000FC012081318142E06C9189859A85F901AE
:103C800009951F5FD2CF802F90E0AF81B8852D912D
:103C90003C913C01D901A60DB71D0480F581E02DB2
:103CA0006C9189859A850995660C771CE985FA855A
:103CB000E60DF71D892B09F071C0808591852B8158
:103CC0003C81822B932B918780870F5FD2018C914F
:103CD000A985BA85ED91FC910817A8F2D6018D91BE
:103CE0009C91DC01AE0DBF1D0280F381E02D41E00F
:103CF0006C9189859A850995F60180819181DC0115
:103D0000AE0DBF1DE985FA8580819181FC0120817E
:103D1000318140E06C9189859A85F90109951F5F91
:103D2000D1018C91181708F040C0E12EF12CF6015A
:103D3000A081B181AE0DBF1DE985FA858081918199
:103D4000FC012081318141E06C9189859A85F901DE
:103D50000995F601A081B181AE0DBF1DE985FA85F7
:103D600080819181FC012281338140E06C918985C1
:103D70009A85F9010995D501C401012E04C0880F67
:103D8000991FAA1FBB1F0A94D2F79C838B839C01A7
:103D9000209530953E832D8300E098CF80859185D6
:103DA000AD81BE818A239B238ECFE984FA8467018B
:103DB000FCE3CF0ED11CF7018FEF9FEF278D30A1D1
:103DC000232B21F4148E968F858F11A23696EC1535
:103DD000FD05A1F7912CA984BA8420E6A20EB11C9E
:103DE00086E0782ED2018C91981660F5812C098599
:103DF0001A85090D111D090D111D085F1F4FF101D5
:103E000080818816E8F4D8012D913C91082C02C0DD
:103E1000369527950A94E2F7422F4170989EC0018B
:103E20001124880D911DE985FA8560E0A58DB68D78
:103E30008A179B07E9F16F5F36966A30B9F71BC0A6
:103E40009394D0CF1B82F70181A1882311F0F1E078
:103E5000FB8326E0E20EF11CCE14DF04A1F70E94E2
:103E6000CA21A981BA816D937D938D939C931397F9
:103E70002CC01B822AC020FF1FC0E985FA8560E0A4
:103E800070E0248D21111AC0D501ED91FC91E80F4D
:103E9000F91F5081769E9001779E300D1124E9859F
:103EA000FA85E20FF31F548F968F858F10A2178E1D
:103EB00089859A850E94691B8394A1CF6F5F7F4F8C
:103EC00036966A307105E9F6F7CF8B812A960FB6E0
:103ED000F894DEBF0FBECDBFDF91CF911F910F9140
:103EE000FF90EF90DF90CF90BF90AF909F908F901A
:103EF0007F906F905F904F903F902F900895FC01BE
:103F000083818823D9F0962F61816095692360832E
:103F1000828191E0909379038093780310927703E4
:103F20001092760387E194E00E94480761E087E100
:103F300094E00E943009282F30E002C020E030E0F9
:103F400081E090E0232B11F080E090E008950F9342
:103F50001F93CF93DF93CDB7DEB728970FB6F894B2
:103F6000DEBF0FBECDBF00911E0110911F01209139
:103F70002001309121010D831E832F83388700910A
:103F80002201109123012091240130912501098300
:103F90001A832B833C839091FC04691710F06FEF18
:103FA000690F4091FD04262F30E0FE01E20FF31F60
:103FB000403121F4943011F4618101C06581680FB2
:103FC000606885EF94E028960FB6F894DEBF0FBEC8
:103FD000CDBFDF91CF911F910F910C94C11CEF9237
:103FE000FF920F931F93CF938C01FC0184E0C0E0FC
:103FF00060FF02C09589C92B669581503196811169
:10400000F7CF413011F4F8014489F8018585C82BB8
:10401000C42B7801FEE0EF0EF11CF80162896C2BD5
:10402000C7010E947F1FF801628960956C23C70158
:10403000CF911F910F91FF90EF900C947F1FE09113
:104040004E04F0914F04309709F009940895CF92EF
:10405000DF92EF92FF920F931F93CF93DF93FC01B8
:104060007196C491C1503196C590D490E62EF12C32
:10407000F701EE0FFF1FEC0DFD1D859194919093BC
:104080002E0480932D0400E010E0D0E040E150E0E9
:1040900060E270E082E594E00E94063B21E030E0BF
:1040A00040E050E0011105C060E070E08AE392E07A
:1040B00004C061E070E082EC91E00E941F20F701F3
:1040C000E00FF11FCE17DF0764F0EE0FFF1FEC0DBE
:1040D000FD1D6591749140E150E082E594E00E94FD
:1040E000793120E130E041E050E0B80182E594E030
:1040F0000E941F200F5F1F4F0230110539F6DF911C
:10410000CF911F910F91FF90EF90DF90CF90089586
:104110000F931F93CF938C01C62F40E150E060E2D4
:1041200070E082E594E00E94063BC730D9F1C830C8
:10413000D9F1C11107C0F80180814AE062E574E05D
:1041400090E013C0C13049F44AE062E574E0F80140
:10415000808191810E94823135C0C23049F44AE0A9
:1041600062E574E0F801808191810E94D3312AC018
:10417000C33059F4F80160817181828193812AE012
:1041800042E554E00E948D311DC0C43079F4F8013D
:1041900060817181828193812AE042E554E00E942E
:1041A000B13110C022E003C023E001C021E042E0B1
:1041B000420FF801608171818281938102E514E0F0
:1041C0000E942E3120E130E040E050E061E070E0FC
:1041D00082E594E0CF911F910F910C941F201F93C3
:1041E000CF93DF93182FD92FC62F40E150E060E224
:1041F00070E082E594E00E94063BE12FFD2FEC0F7A
:10420000F11DEC0FF11D659174916F5F7F4F4FE0D1
:1042100050E082E594E00E94793120E130E040E016
:1042200050E061E070E082E594E0DF91CF911F9172
:104230000C941F2040E150E060E270E082E594E0E1
:104240000E94063B80916404813039F48FE49EE63D
:10425000909353048093520409C083E0ECE3F2E0AE
:10426000A2E5B4E001900D928A95E1F720E130E0FB
:1042700040E050E061E070E082E594E00C941F20A3
:10428000833081F028F4813099F08230A1F00895D4
:104290008730A9F08830B9F08430D1F48091800063
:1042A0008F7D03C0809180008F7780938000089578
:1042B00084B58F7702C084B58F7D84BD08958091C9
:1042C000B0008F7703C08091B0008F7D8093B000E5
:1042D0000895CF93DF9390E0FC01ED5AFD4F2491B8
:1042E000FC01E15CFD4F8491882361F190E0880F2F
:1042F000991FFC01ED5FF84FC591D491FC01E55D7C
:10430000FD4FA591B491611109C09FB7F8948881C0
:10431000209582238883EC912E230BC0623061F4B8
:104320009FB7F8948881322F309583238883EC914E
:104330002E2B2C939FBF06C08FB7F894E8812E2BAD
:1043400028838FBFDF91CF9108953FB7F894809174
:104350009B0590919C05A0919D05B0919E0526B569
:10436000A89B05C02F3F19F00196A11DB11D3FBFAD
:10437000BA2FA92F982F8827820F911DA11DB11D3B
:10438000BC01CD0142E0660F771F881F991F4A9537
:10439000D1F708952FB7F89460919705709198051B
:1043A0008091990590919A052FBF08951F920F92C1
:1043B0000FB60F9211242F933F938F939F93AF9338
:1043C000BF938091970590919805A0919905B09120
:1043D0009A053091960523E0230F2D3720F401969E
:1043E000A11DB11D05C026E8230F0296A11DB11D18
:1043F000209396058093970590939805A09399052F
:10440000B0939A0580919B0590919C05A0919D0584
:10441000B0919E050196A11DB11D80939B059093BF
:104420009C05A0939D05B0939E05BF91AF919F9170
:104430008F913F912F910F900FBE0F901F90189565
:10444000CF93DF93CDB7DEB7A8970FB6F894DEBF52
:104450000FBECDBF789484B5826084BD84B5816081
:1044600084BD85B5826085BD85B5816085BD80913F
:104470006E00816080936E001092810080918100B7
:1044800082608093810080918100816080938100AF
:10449000809180008160809380008091B100846071
:1044A0008093B1008091B00081608093B0008091D2
:1044B0007A00846080937A0080917A008260809391
:1044C0007A0080917A00816080937A0080917A00EE
:1044D000806880937A001092C10061E08DE00E94B4
:1044E000692161E084E00E94692161E083E00E942B
:1044F000692161E086E00E94692161E08AE00E9412
:10450000692180E090E00E94C536811103C00E94BD
:10451000001602C00E94DE18E0918A03F0918B031E
:1045200082E08083E0918A03F0918B031082E09116
:104530008603F09187031082E0918803F09189034C
:1045400080E1808310929203E0918E03F0918F03BB
:1045500086E08083E0918C03F0918D0380818061FF
:104560008083E0918C03F0918D038081886080834B
:10457000E0918C03F0918D03808180688083E091CD
:104580008C03F0918D0380818F7D808384E190E0A6
:10459000A0E0B0E080937E0390937F03A09380031C
:1045A000B09381038AE991E00E940C0E87EA91E0C2
:1045B0000E940C0E87E194E00E94751388E091E060
:1045C0009093D3048093D20481EE94E00E947513FB
:1045D0004091EE0450E06091ED0470E081EE94E0D3
:1045E0000E948B0981EE94E00E9473069093F00480
:1045F0008093EF048091EE04823088F081EE94E0A5
:104600000E94730620E030E0382F8091EF049091F3
:10461000F004282B392B3093F0042093EF0420E092
:1046200042E060E185EF94E00E948F1D6AE971E04D
:1046300085EF94E00E94530861E080E00E94A71F8C
:1046400067EA71E085EF94E00E9453088AE493E101
:1046500090934F0480934E0486E093E1909351042D
:104660008093500481E0809329040E94991511E001
:1046700022242394312C0E941C1C0E94D31B0E94D4
:10468000CA218090820290908302A0908402B09010
:104690008502DC01CB0188199909AA09BB09893E69
:1046A0009340A105B105D0F00E94CA216093820217
:1046B000709383028093840290938502809181029B
:1046C0008F5F8093810280918002882319F010927D
:1046D000800202C0109380020E94991582E794E044
:1046E0000E94F21690912B04833279F410925202B8
:1046F000109251021092500210924F02109329040E
:1047000091110EC00E9406130BC0992321F09091C5
:104710002904911105C0883309F003C40E941A13BB
:1047200080915D0281110CC00E94CA2160935902E0
:1047300070935A0280935B0290935C0210935D0227
:1047400080912C04882371F080912904882351F0F2
:1047500010922C0460914D0480912F0490913004AC
:104760000E94272080912504811150C08091260449
:104770008E3008F08E508770806480937C0080912A
:104780007A00806480937A0080917A0086FDFCCF65
:10479000209178008091790030E0382B60912704D7
:1047A000709128048091530290915402821B930BC4
:1047B00097FF03C0919581959109681779072CF4AB
:1047C000309354022093530227C0E3E2F4E080E0E8
:1047D00090E046895789DA01A61BB70BA217B307E9
:1047E0007CF4460F571F2417350754F4880F991F80
:1047F000880F991FFC01E55CFB4FA080B1800EC0C3
:10480000019634968530910521F706C083E294E045
:104810000E94BA185C0102C0A12CB12C0091580270
:10482000802E912C8A149B04B9F0A0925802109209
:1048300057020E94CA216093590270935A028093D2
:104840005B0290935C0210925602109255023092D5
:10485000630420926204F3C00E94CA21409059026E
:1048600050905A0260905B0270905C02DC01CB01B8
:1048700084199509A609B70989379105A105B105DC
:1048800008F4DDC00E94CA216093590270935A0255
:1048900080935B0290935C02A114B10421F080919B
:1048A000290481110BC010925602109255023092C9
:1048B00063042092620410925702C1C0B5E0AB16A7
:1048C000B10411F410932B0480912B04882309F474
:1048D000B6C08091570290E088169906C9F480917D
:1048E000550290915602019690935602809355027C
:1048F0006AE070E00E94B638892B81F080916204F2
:10490000909163040296909363048093620406C0BE
:1049100000935702309263042092620420912A048B
:104920000530B9F480912D0490912E04222329F0B2
:1049300045E063E00E94D10E09C060E0009721F4D9
:1049400080913104909132040E94D40910926F0436
:1049500076C0033031F0043031F0023031F060E0E5
:1049600005C061E003C062E001C064E0222369F099
:1049700080916F048F5F80936F04402F80912D048E
:1049800090912E040E94D10E5AC08FEF860F823074
:1049900018F0643009F053C020912F043091300496
:1049A000F9017196E491E150643081F510922E0482
:1049B00010922D048091370490913804009781F46F
:1049C0008091350490913604009769F48091330406
:1049D00090913404009709F4B4C520E030E005C09C
:1049E00022E030E002C021E030E0220F331FF90165
:1049F000ED5CFB4F118210829093300480932F0462
:104A000010924D0461E00E94D40919C080914D04B8
:104A1000613011F49FEF01C091E0682F690FE61734
:104A200030F481E06F3F09F080E0682F61956F3FBF
:104A300009F46E2F60934D04C9010E9427208091D4
:104A40004E028130B9F580914A0290914B02A091BB
:104A50004C02B0914D02892B8A2B8B2BF1F4809163
:104A6000460290914702A0914802B0914902892BD9
:104A70008A2B8B2B91F42091620330916303409138
:104A800064035091650360916603709167038091A0
:104A90006803909169030E94511582E595E00E9498
:104AA000B70C81110BC08EE095E00E94B70C81110C
:104AB00005C05CC510927F0210927E0280917E023A
:104AC00090917F0201E08230910509F000E00093AF
:104AD000450261E0019709F460E083E00E94A20EC4
:104AE00080913603837021F001E0823009F000E00C
:104AF0000093710280914F03602F811101C06127E3
:104B000084E00E94A20E69E372E0CE0107960E9443
:104B1000D9078AE793E00E940D04181619060CF0D5
:104B200055C069E372E0CE0101960E94D9070E9448
:104B3000450E97FD1CC08D871E86AD80BE803FEF61
:104B4000A31AB30AB501CE0101960E9482078823F9
:104B500071F329813A818D819E81BE01635F7F4F10
:104B6000820F931F0E940D3BBE82AD82E0CF8F81EA
:104B700098850097A9F069817A816115710571F0B6
:104B800049855A852D813E814217530738F00E948E
:104B90000D3B8D819E819C878B8712C00E94A93915
:104BA00089819A8198878F838B819C819A87898755
:104BB0008D819E819C878B871A8219821C821B8221
:104BC0001E821D82CE0101960E94D4078F81988596
:104BD000892B09F49FC162E372E0CE0101960E9425
:104BE000D907BE016F5F7F4FCE0107960E942B0E43
:104BF0005C01CE0101960E94D407B7FC28C0A50134
:104C00004C5F5F4FBE01695F7F4FCE0101960E94EE
:104C10009312CE0101960E947707DC01CB0142E09E
:104C2000BE01635F7F4F0E94651C4D855E85052E2A
:104C3000000C660B770B8AE793E00E94D40D0E946C
:104C4000060E0E94060ECE0101960E94D4076CE06B
:104C500072E0CE0101960E94D907BE016F5F7F4FBF
:104C6000CE0107960E942B0E5C01CE0101960E9498
:104C7000D407B7FE47C76DE172E0CE0101960E94EE
:104C8000D907BE016F5F7F4FCE0107960E942B0EA2
:104C90005C01CE0101960E94D407B7FC2EC0A5018D
:104CA0004C5F5F4FBE01695F7F4FCE0101960E944E
:104CB0009312CE0101960E9477072B013C01CE0191
:104CC00001960E94D407A501475F5F4FBE01695F4F
:104CD0007F4FCE0101960E949312CE0101960E9451
:104CE00077077E876D87CE0101960E94D407BE01AB
:104CF000635F7F4FC2010E94BE1C62E272E0CE0180
:104D000001960E94D907BE016F5F7F4FCE010796C3
:104D10000E942B0E5C01CE0101960E94D407B7FEC3
:104D2000C5C767E272E0CE0101960E94D907BE01B5
:104D30006F5F7F4FCE0107960E942B0E5C01CE0164
:104D400001960E94D407B7FE0E94001660EB71E046
:104D5000CE0101960E94D907BE016F5F7F4FCE0141
:104D600007960E942B0E5C01CE0101960E94D4078B
:104D7000B7FC1AC0A5014F5F5F4FBE01695F7F4F4F
:104D8000CE0101960E949312CE0101960E947707F0
:104D900060936D0270936E0280936F029093700225
:104DA000CE0101960E94D4076CE272E0CE0101961A
:104DB0000E94D907BE016F5F7F4FCE0107960E9408
:104DC0002B0E5C01CE0101960E94D407B7FC1AC0DD
:104DD000A5014F5F5F4FBE01695F7F4FCE01019616
:104DE0000E949312CE0101960E9477076093690298
:104DF00070936A0280936B0290936C02CE010196CD
:104E00000E94D40765EA71E0CE0101960E94D9079D
:104E1000BE016F5F7F4FCE0107960E942B0E5C0193
:104E2000CE0101960E94D407B7FC1AC0A5014F5FBE
:104E30005F4FBE01695F7F4FCE0101960E949312C2
:104E4000CE0101960E947707609365027093660217
:104E50008093670290936802CE0101960E94D40766
:104E60006EE272E0CE0101960E94D907BE016F5F2B
:104E70007F4FCE0107960E942B0E5C01CE0101965A
:104E80000E94D407B7FC30C080916D028093360336
:104E90008090650290906602A0906702B0906802D0
:104EA0006091690270916A0280916B0290916C022C
:104EB000A50194010E945115C501B4010E941B0E69
:104EC0006091690270916A0280916B0290916C020C
:104ED0000E941B0E60916D0270916E0280916F02B4
:104EE000909170020E941B0E60E372E0CE01019669
:104EF0000E94D907BE016F5F7F4FCE0107960E94C7
:104F00002B0E5C01CE0101960E94D407AB20A09429
:104F100009F003C7CE0107960E94D4070E94B4048B
:104F2000AACB8933F9F485EF94E00E94C91C109252
:104F3000290443E050E050935202409351021092F2
:104F4000500210924F0210924102109242021092AF
:104F50004302109244021092400285EF94E00E94B6
:104F6000D11CDECB82E794E00E949516082F88239F
:104F700009F442C08091410290914202A091430203
:104F8000B0914402892B8A2B8B2B51F40E94CA21A9
:104F900060934102709342028093430290934402D3
:104FA0008090410290904202A0904302B09044024F
:104FB0000E94CA212401350158E7450E511C611C8D
:104FC000711C641575058605970538F080914002BF
:104FD000811103C00093400201C000E00E94CA2179
:104FE000A8E58A0EA2E09A1EA11CB11C861697069F
:104FF000A806B90658F408C0109241021092420265
:105000001092430210924402109240028091510289
:1050100090915202059709F0BCC0033409F053C0C7
:105020000E94201510925E0510925F051092600597
:10503000109261051092620510926305109264054A
:1050400010926505109286051092870510928805CA
:1050500010928905109276051092770510927805C6
:1050600010927905109266051092670510926805F6
:105070001092690510921A0510921B0510921C05DA
:1050800010921D0510921E0510921F05109220050A
:10509000109221051092420510924305109244058A
:1050A0001092450510923205109233051092340586
:1050B00010923505109222051092230510922405B6
:1050C0001092250560C0013469F50E942015809179
:1050D0005E0590915F05A0916005B0916105809398
:1050E000660390936703A0936803B093690380916C
:1050F0001A0590911B05A0911C05B0911D05809388
:10510000620390936303A0936403B093650366E620
:1051100073E080E190E00E94BB1C62E673E084E1F2
:1051200090E02FC0023409F0FBCA0E942015809144
:105130005E0590915F05A0916005B0916105809337
:105140005E0390935F03A0936003B093610380912B
:105150001A0590911B05A0911C05B0911D05809327
:105160005A0390935B03A0935C03B0935D036EE5D9
:1051700073E088E190E00E94BB1C6AE573E08CE17B
:1051800090E00E94BB1C10925202109251021093A8
:1051900029048091510290915202039709F0C0CAEC
:1051A00080914F0290915002013411F4019703C095
:1051B000023429F401969093500280934F0280911B
:1051C0004F029091500297FF02C080E090E086303D
:1051D000910514F085E090E09093500280934F0287
:1051E000892B09F070C060E080E00E94A71F8091C9
:1051F0004E02811103C08CE192E059C09FEF980FDD
:10520000923008F050C0823019F48EE092E002C073
:105210008FEF91E00E94CF0A0E94001561E080E0CC
:105220000E94A71F40914A0250914B0260914C028C
:1052300070914D0285EF94E00E94D40D6FE285EFEE
:1052400094E00E94EE0740917203509173036091C5
:1052500074037091750385EF94E00E94D40D0E9451
:10526000001561E088E00E94A71F4091460250911E
:105270004702609148027091490285EF94E00E94D4
:10528000D40D6FE285EF94E00E94EE0740916E032B
:1052900050916F03609170037091710385EF94E0FA
:1052A0000E94D40D0EC0833071F483EF91E00E9410
:1052B000CF0A0E94001561E080E00E94A71F0E94B3
:1052C00000150E94001580914F02909150020197A5
:1052D00081F560E080E00E94A71F80EF91E00E94CE
:1052E000CF0A40915E0550915F0560916005709115
:1052F000610585EF94E00E94D40D0E9400150E9484
:10530000001561E080E00E94A71F8DEE91E00E94F1
:10531000CF0A40911A0550911B0560911C057091B0
:105320001D0585EF94E00E94D40D0E9400150E9497
:10533000001580914F0290915002029709F048C0E9
:1053400060E080E00E94A71F85EE91E00E94CF0AF6
:1053500060915E0570915F05809160059091610597
:1053600020913B0330913C0340913D0350913E031B
:105370000E94EC38BA01A90185EF94E00E94D40D97
:105380000E9400150E94001561E080E00E94A71FA6
:105390008DED91E00E94CF0A60911A0570911B0576
:1053A00080911C0590911D052091370330913803A1
:1053B0004091390350913A030E94EC38BA01A90197
:1053C00085EF94E00E94D40D0E9400150E94001504
:1053D00080914F0290915002039709F044C085EFED
:1053E00094E00E94C91C60E080E00E94A71F62EB6D
:1053F00071E085EF94E00E9453086091360380913C
:1054000071020E9408150E9400150E94001561E0BB
:1054100080E00E94A71F67EB71E085EF94E00E9497
:10542000530860E080E00E94081569E272E085EFB1
:1054300094E00E94530860E080E00E9408156AEB47
:1054400071E085EF94E00E94530860E080E00E94E4
:1054500008156DEB71E085EF94E00E94530860E061
:1054600080E00E94081580914F02909150020497AD
:1054700081F560E080E00E94A71F85ED91E00E9429
:10548000CF0A409166035091670360916803709161
:10549000690385EF94E00E94D40D0E9400150E94DC
:1054A000001561E080E00E94A71F8DEC91E00E9452
:1054B000CF0A40916203509163036091640370913D
:1054C000650385EF94E00E94D40D0E9400150E94B0
:1054D000001580914F0290915002059709F020C964
:1054E00060E080E00E94A71F85EC91E00E94CF0A57
:1054F00040915E0350915F0360916003709161037E
:1055000085EF94E00E94D40D0E9400150E940015C2
:1055100061E080E00E94A71F8DEB91E00E94CF0A1E
:1055200040915A0350915B0360915C0370915D035D
:1055300085EF94E00E94D40D0E9400150E94001592
:10554000EFC880913104909132049093300480939D
:105550002F0410924D0410922B04E0915004F0910E
:105560005104309709F46BCA099569CA80917E028B
:1055700090917F02892B91F50E94CA2160937A0253
:1055800070937B0280937C0290937D0230927F0225
:1055900020927E0260EC71E08AE793E00E9453085B
:1055A00060915E0570915F05809160059091610545
:1055B0000E941B0E64EC71E08AE793E00E9453089E
:1055C00060911A0570911B0580911C0590911D0535
:1055D0000E941B0E88EC91E00E940C0E0E94CA21D2
:1055E00080907A0290907B02A0907C02B0907D0225
:1055F000AB01BC01481959096A097B09809158031C
:1056000090915903A0E0B0E0481759076A077B075B
:1056100008F454CA80917E0290917F02019791F51F
:105620000E94CA2160937602709377028093780279
:105630009093790222E030E030937F0220937E0243
:1056400060ED71E08AE793E00E94530840914A02BE
:1056500050914B0260914C0270914D028AE793E0A9
:105660000E94D40D67ED71E08AE793E00E94530831
:1056700060914602709147028091480290914902E0
:105680000E941B0E0E94CA218090760290907702A1
:10569000A0907802B0907902AB01BC014819590979
:1056A0006A097B098091560390915703A0E0B0E00E
:1056B000481759076A077B0708F400CA80917E02E1
:1056C00090917F020297A1F40E94CA216093720216
:1056D00070937302809374029093750243E050E0DC
:1056E00050937F0240937E028BED91E00E940C0E5E
:1056F0000E94CA218090720290907302A09074025E
:10570000B0907502AB01BC01481959096A097B09BF
:105710008091540390915503A0E0B0E048175907D9
:105720006A077B0708F4CAC910927F0210927E02B2
:1057300084EE91E00E940C0E80916E0390916F03B5
:10574000A0917003B0917103898B9A8BAB8BBC8B4A
:10575000892B8A2B8B2B09F084C080904A02909071
:105760004B02A0904C02B0904D029FEF891A990A0B
:10577000A90AB90A80924A0290924B02A0924C0266
:10578000B0924D0240907203509073036090740386
:105790007090750384149504A604B7049CF083E00C
:1057A00080934E0210924A0210924B0210924C02C9
:1057B00010924D02C12CD12C76011D8A1E8A1F8A9F
:1057C000188E4FC0C0906603D0906703E0906803C6
:1057D000F0906903A1E04A1A5108610871088091AC
:1057E0005E0390915F03A0916003B0916103BC01DF
:1057F000CD016C197D098E099F09A30192010E94B8
:10580000EC38C501B4010E94A6389B01AC012C0DF7
:105810003D1D4E1D5F1D2D8B3E8B4F8B588FC090B5
:105820006203D0906303E0906403F090650380917D
:105830005A0390915B03A0915C03B0915D03BC019E
:10584000CD016C197D098E099F09A30192010E9467
:10585000EC38C501B4010E94A638C60ED71EE81E5A
:10586000F91E89899A89AB89BC89898F9A8FAB8FF8
:10587000BC8FB7FF0BC0B095A095909581959F4FB9
:10588000AF4FBF4F898F9A8FAB8FBC8F298D3A8DC9
:105890004B8D5C8D232B242B252B09F4E8C08091A4
:1058A0004A0290914B02A0914C02B0914D02019698
:1058B000A11DB11D80934A0290934B02A0934C020C
:1058C000B0934D02C0907203D0907303E0907403C4
:1058D000F09075038C159D05AE05BF05DCF01092A8
:1058E0004A0210924B0210924C0210924D0280918B
:1058F000460290914702A0914802B0914902019658
:10590000A11DB11D8093460290934702A0934802C7
:10591000B093490280914A0290914B02A0914C02AF
:10592000B0914D028D8F9E8FAF8FB8A3209146020C
:1059300030914702409148025091490229A33AA36D
:105940004BA35CA38090660390906703A0906803CC
:10595000B0906903409062035090630360906403C9
:105960007090650380915E0390915F03A091600346
:10597000B091610320915A0330915B0340915C0325
:1059800050915D032DA33EA34FA358A731E0C31A46
:10599000D108E108F10829893A894B895C89BC0161
:1059A000CD01681979098A099B0912161306140694
:1059B00015065CF5A70196010E94EC386D8D7E8D71
:1059C0008F8D98A10E94A6389B01AC01280D391D2E
:1059D0004A1D5B1D2D8B3E8B4F8B588F6DA17EA179
:1059E0008FA198A5641975098609970929893A89AB
:1059F0004B895C8921503109410951090E94EC38D9
:105A000069A17AA18BA19CA12AC029893A894B89D5
:105A10005C8920953095409550950E94EC3869A19D
:105A20007AA18BA19CA10E94A6389B01AC01280DF4
:105A3000391D4A1D5B1D2D8B3E8B4F8B588F6DA1E1
:105A40007EA18FA198A56419750986099709A701F8
:105A500096010E94EC386D8D7E8D8F8D98A10E94ED
:105A6000A6386B017C01C40CD51CE61CF71C809188
:105A7000460290914702A0914802B0914902298DB7
:105A80003A8D4B8D5C8D82179307A407B507D4F030
:105A900083E080934E0210924A0210924B021092C1
:105AA0004C0210924D021092460210924702109240
:105AB000480210924902C12CD12C76011D8A1E8AFF
:105AC0001F8A188EA70196016D897E898F89988D0E
:105AD0000E9451156DEE71E08AE793E00E94530831
