:100000000C94BC030C94E4030C94E4030C94E403FC
:100010000C94E4030C94E4030C94E4030C94E403C4
:100020000C94E4030C94E4030C94E4030C94E403B4
:100030000C94E4030C94E4030C94E4030C94E403A4
:100040000C9483230C94E4030C94AD180C9487183F
:100050000C94E4030C94E4030C94E4030C94E40384
:100060000C94001B0C94E403AB15B115B715BD152A
:10007000C315C915CF15001707170E1715171C172D
:100080003317231733172A1700407A10F35A00A0AA
:10009000724E18090010A5D4E80000E87648170051
:1000A00000E40B54020000CA9A3B000000E1F50591
:1000B000000080969800000040420F000000A086DB
:1000C00001000000102700000000E803000000000D
:1000D0006400000000000A000000000001000000B1
:1000E00000002C76D888DC674F0823DFC1DFAE59CB
:1000F000E1B1B796E5E3E453C63AE651997696E85E
:10010000E6C28426EB898C9B62ED407C6FFCEFBCE1
:100110009C9F40F2BAA56FA5F490055A2AF75C930C
:100120006B6CF9676DC11BFCE0E40D47FEF520E642
:10013000B500D0ED902E0300943577050080841E25
:10014000080000204E0A000000C80C333333330F80
:10015000986E12831141EF8D2114893BE65516CF1D
:10016000FEE6DB18D1844B381BF77C1D901DA4BB29
:10017000E424203284725E228100C9F124ECA1E5DE
:100180003D2752315B73745D3A004C315B73745D93
:100190003A0052305B73745D3A004C305B73745DAF
:1001A0003A00525B6465675D3A004C5B6465675D6D
:1001B0003A00523A004C3A004D4F56494E472046BD
:1001C000494E495348004D4F56494E472052554ECF
:1001D0004E494E47004D4F56494E472050415553CA
:1001E0004544004D4F56494E472053544F505045BB
:1001F0004400454D2053544F502052455345540020
:10020000454D455247454E43592053544F500000E9
:10021000000000240027002A00000000002500281C
:10022000002B000000000023002600290004040425
:10023000040404040402020202020203030303038F
:10024000030102040810204080010204081020016C
:10025000020408102000000008000201000003044E
:100260000700000000000000004F4B0052205354D4
:100270004F50533A20004C2053544F50533A2000D3
:1002800052204E4558543A20004C204E4558543A7E
:10029000200052204D41583A20004C204D41583A00
:1002A000200052204D494E3A20004C204D494E3AF4
:1002B000200052313A20004C313A200052303A208E
:1002C000004C303A20005E324C355F203C345236D0
:1002D0003E2020302D53005A5B435D20535B415D2F
:1002E00020465B425D2023455343005E324C355F20
:1002F000203C3452363E2020302D53002020202038
:100300002020202000030000000000000000210346
:10031000500003000000000000000025034C000313
:100320000000000000000000290348000300000056
:1003300000000000002D0344000300000000000046
:100340000000310340000300000000000000003501
:10035000033C0000010000000000000039036200BF
:100360000001000000000000003A0334000001001A
:100370000000000000003B036100000100000000DD
:100380000000003C033000000100000000000000FD
:100390003D0360000001000000000000003E032C4F
:1003A000000200000000000000003F0328000200DF
:1003B00000000000000000410324000200000000D3
:1003C00000000000430320000200000000000000C5
:1003D0000045030C0002000000000000000047037D
:1003E000080003000000000000000049035400045E
:1003F00000000000000000004D0338000300000072
:10040000000000000051035C000300000000000039
:1004100000005503580003000000000000000059D0
:10042000031C000300000000000000005D03180032
:10043000030000000000000000610314000300003E
:100440000000000000006503100052455345542091
:1004500044454641554C5453210002008D21522001
:100460005343414C455B73742F6465675D00010025
:1004700005034C205343414C455B73742F646567FF
:100480005D000100120352204D41585B737465708A
:10049000735D0000000001001F034C204D41585BBC
:1004A00073746570735D0000000001002C0352201E
:1004B0004D494E5B73746570735D00000000010070
:1004C00039034C204D494E5B73746570735D0000B9
:1004D00000000100460350524553484F5420494EF6
:1004E00056455253494F0100530353484F54204936
:1004F0004E56455253494F4E0000010060035220B2
:10050000454E4120494E5600000000000000010009
:100510006D03522044495220494E5600000000000D
:10052000000001007A034C20454E4120494E560000
:10053000000000000000010087034C2044495220C5
:10054000494E560000000000000001009403504F87
:1005500053542053484F5420545B6D735D00010089
:10056000A10353484F542054494D455B6D735D00C2
:1005700000000100AE035052452053484F54205410
:100580005B6D735D00000100BB03414343454C5B61
:1005900073742F73325D000000000100C8034D41E9
:1005A000582053504545445B73742F735D00010020
:1005B000D503522053544F50535B2D5D0000000073
:1005C00000000100E2034C2053544F50535B2D5D5B
:1005D0000000000000000100EF0352204E45585477
:1005E0005B73746570735D0000000100FC034C20B8
:1005F0004E4558545B73746570735D0000000100D4
:10060000090452315B73746570735D000000000073
:100610000000010016044C315B73746570735D005B
:100620000000000000000100230452305B73746579
:1006300070735D00000000000000010030044C30C9
:100640005B73746570735D000000000000000100C2
:100650003D04EE05DA05C605B2059E058A05760558
:1006600062054E053A0526051205FE04EA04D60485
:10067000C204AE049A04860472045E044A043E0670
:100680002A061606020653455454494E47532D3E3A
:1006900000000000000000165206474F544F20464D
:1006A000494E414C20504F5321000200A41F474F98
:1006B000544F20535441525420504F5321000200B4
:1006C000B81F53544152542F46494E20504F532D7A
:1006D0003E0000047E064D4F56450000000000001D
:1006E0000000000000000200561A43414C494252EB
:1006F0004154494F4E00000000000200801A474F4D
:10070000544F205A45524F20504F532100000200B1
:100710009A1F4D4F56452053544F50210000000062
:1007200000000200611F4D4F564520535441525462
:100730002100000000000200761C4D4F564520505D
:10074000415553452100000000000200771F3A0781
:1007500026071207FE06EA06D606C206AE069A0667
:100760008606524F4F5400000000000000000000B9
:100770000000000A4E07C12D11241FBECFEFD8E0A4
:10078000DEBFCDBF25E0A4E2B2E001C01D92A239D8
:10079000B207E1F712E0A0E0B1E0E0EDFCE602C054
:1007A00005900D92A432B107D9F713E0CCEBD3E05A
:1007B00004C02197FE010E945436CB3BD107C9F7F4
:1007C0000E94CD230C9466360C94000021E001C0F9
:1007D000220F6A95EAF7DC011C962C931C971A9657
:1007E0005C934E931997ED91FC910484F585E02D6F
:1007F00060E00994DC01ED91FC910684F785E02D21
:1008000041E0099581E090E00895089508950895E4
:10081000089580E090E00895DC0126E0629FA00D3D
:10082000B11D112490965C934E935F9721E09196B1
:100830002C939197FC01E459FF4F20813196019050
:10084000F081E02D222331F0309749F0611107C08B
:10085000DC0102C0309719F05C968C9109940895E0
:10086000CF92DF92EF92FF920F931F93CF93DF937C
:10087000EC01162F042FFC0186E0689FE00DF11DAE
:10088000112411A2878D90A181309105D1F048F0FB
:100890008230910591F1039709F03FC040E050E0AC
:1008A00030C04423D1F141E050E0CE010E940C045D
:1008B0000E947723C85ADF4F688379838A839B839A
:1008C0002CC00E947723FE01E85AFF4FC080D180E0
:1008D000E280F380AB01BC014C195D096E097F0910
:1008E000729680819181A0E0B0E084179507A607F9
:1008F000B70718F442E050E004C001110EC043E015
:1009000050E0612FCE01DF91CF911F910F91FF90A9
:10091000EF90DF90CF900C940C04DF91CF911F915A
:100920000F91FF90EF90DF90CF9008952F923F921C
:100930004F925F926F927F928F929F92AF92BF92EF
:10094000CF92DF92EF92FF920F931F93CF93DF939B
:10095000CDB7DEB72A970FB6F894DEBF0FBECDBF76
:100960009A8789870E94772329853A85245A3F4FA1
:100970003A832983D9010D911D912D913C91AB01B1
:10098000BC01401B510B620B730BE985FA85E859DA
:10099000FF4F80819181A0E0B0E084179507A60702
:1009A000B70708F02FC110E049845A84B6E64B0E11
:1009B000511CE984FA84E2E6EE0EF11CD2018C911E
:1009C0001817B0F010E029843A84B7E62B0E311CDA
:1009D000C984DA84E4E6CE0ED11C812C912C54011A
:1009E000839429853A852E593F4F38872F8361C0DC
:1009F000F701A081B181A10FB11DE985FA85808140
:100A00009181FC012081318142E06C9189859A8538
:100A1000F90109951F5FD2CF802F90E0AF81B88593
:100A20002D913C913C01D901A60DB71D0480F581A3
:100A3000E02D6C9189859A850995660C771CE9856E
:100A4000FA85E60DF71D892B09F071C08085918527
:100A50002B813C81822B932B918780870F5FD20162
:100A60008C91A985BA85ED91FC910817A8F2D60161
:100A70008D919C91DC01AE0DBF1D0280F381E02DB4
:100A800041E06C9189859A850995F6018081918173
:100A9000DC01AE0DBF1DE985FA8580819181FC01E5
:100AA0002081318140E06C9189859A85F901099511
:100AB0001F5FD1018C91181708F040C0E12EF12C76
:100AC000F601A081B181AE0DBF1DE985FA85808157
:100AD0009181FC012081318141E06C9189859A8569
:100AE000F9010995F601A081B181AE0DBF1DE9851F
:100AF000FA8580819181FC012281338140E06C91F3
:100B000089859A85F9010995D501C401012E04C092
:100B1000880F991FAA1FBB1F0A94D2F79C838B834F
:100B20009C01209530953E832D8300E098CF8085F1
:100B30009185AD81BE818A239B238ECFE984FA847F
:100B40006701FCE3CF0ED11CF7018FEF9FEF278DDC
:100B500030A1232B21F4148E968F858F11A2369607
:100B6000EC15FD05A1F7912CA984BA8420E6A20E0C
:100B7000B11C86E0782ED2018C91981660F5812CFC
:100B800009851A85090D111D090D111D085F1F4FDB
:100B9000F10180818816E8F4D8012D913C91082C50
:100BA00002C0369527950A94E2F7422F4170989E2D
:100BB000C0011124880D911DE985FA8560E0A58D9D
:100BC000B68D8A179B07E9F16F5F36966A30B9F7E1
:100BD0001BC09394D0CF1B82F70181A1882311F011
:100BE000F1E0FB8326E0E20EF11CCE14DF04A1F756
:100BF0000E947723A981BA816D937D938D939C93F5
:100C000013972CC01B822AC020FF1FC0E985FA85DC
:100C100060E070E0248D21111AC0D501ED91FC91A6
:100C2000E80FF91F5081769E9001779E300D1124B8
:100C3000E985FA85E20FF31F548F968F858F10A2F6
:100C4000178E89859A850E9430048394A1CF6F5FA7
:100C50007F4F36966A307105E9F6F7CF8B812A9679
:100C60000FB6F894DEBF0FBECDBFDF91CF911F91BD
:100C70000F91FF90EF90DF90CF90BF90AF909F903B
:100C80008F907F906F905F904F903F902F9008953E
:100C9000862F642F0C945A10EF92FF920F931F939C
:100CA000CF93DF937C018C01C0E0D0E0F80186890E
:100CB0000E943110892B51F42696CC0FDD1FCC0FEA
:100CC000DD1FCE0DDF1D8881998108C021960C5F44
:100CD0001F4FC530D10551F780E090E0DF91CF91F3
:100CE0001F910F91FF90EF900895862F0C94311073
:100CF0000F931F93CF93DF93062F0F70423019F499
:100D000040E0602F0EC0142FEC0170E084E0759578
:100D100067958A95E1F7CE010E940122412F602F4D
:100D2000CE01DF91CF911F910F910C940122FC0114
:100D300084858823A9F0218532852115310519F490
:100D4000611106C007C02130310521F4611102C0D4
:100D5000858701C015866585CF010E960C9491217B
:100D60000895CF92DF92EF92FF920F931F93CF934C
:100D7000DF93EC0181E090E002C0880F991F6A9533
:100D8000E2F78E0103581F4F442349F0D8012D91FB
:100D90003C911197822B932B8D939C9309C0809546
:100DA0009095F80120813181822393239183808360
:100DB000D801CC901196DC90FE01E558FF4F808160
:100DC0007E01BFE6EB0EF11C91E090936C038093E3
:100DD0006B0310926A0310926903D701ED91FC91A5
:100DE0000190F081E02D6C2DC7010995C458DF4FAB
:100DF0008881823048F0D701ED91FC910190F0811B
:100E0000E02D6D2DC701099561E0C7010E946219AF
:100E1000F801C082D182DF91CF911F910F91FF9095
:100E2000EF90DF90CF900895CF92DF92EF92FF92F4
:100E30000F931F93CF93DF9301E010E002C0000FE8
:100E4000111F6A95E2F77C012FE6E20EF11C6C019E
:100E5000ECE7CE0ED11CF601408150E03197608165
:100E600070E0C7010E94BD19C7010E944817EC013C
:100E7000F6018081823040F0C7010E94481720E0CF
:100E800030E0382FC22BD32BC023D12381E090E058
:100E9000C017D10711F080E090E0DF91CF911F9152
:100EA0000F91FF90EF90DF90CF900895862F642FE1
:100EB0000C948910CF93DF93EC010E9496048E85E9
:100EC0009F858130910589F18230910581F18430CF
:100ED000910579F1089779F18C859D85813091058F
:100EE00061F18230910559F18430910551F10897F3
:100EF00051F18A859B858130910539F182309105C8
:100F000031F18430910529F1089729F18885998577
:100F10008130910511F18230910509F184309105FC
:100F200001F1089701F180E01FC08AE21DC087E34C
:100F30001BC084E319C081E317C080E315C088E3B8
:100F400013C085E311C082E30FC083E20DC089E3C3
:100F50000BC086E309C083E307C084E405C083E4D3
:100F600003C082E401C081E4DF91CF9108958091B4
:100F70003B03882339F081E095E00E946C0E61E02C
:100F8000682705C081E095E00E946C0E682F8AE01A
:100F90000E945A104091290350912A0360912B031B
:100FA00070912C038091110590911205A091130569
:100FB000B0911405481759076A077B0724F481E0AC
:100FC00095E00E94550E409131035091320360919B
:100FD0003303709134038091110590911205A09113
:100FE0001305B091140584179507A607B70724F4D5
:100FF00081E095E00E94550E81E095E00C94EC0DA7
:1010000080913D03882339F085E495E00E946C0EC1
:1010100061E0682705C085E495E00E946C0E682FAA
:1010200086E00E945A1040912D0350912E0360914A
:101030002F03709130038091550590915605A09132
:101040005705B0915805481759076A077B0724F4DC
:1010500085E495E00E94550E40913503509136038A
:101060006091370370913803809155059091560532
:10107000A0915705B091580584179507A607B707A3
:1010800024F485E495E00E94550E85E495E00C94E7
:10109000EC0DCF93DF931F92CDB7DEB769830B962C
:1010A000FC0185919491009729F0BE016F5F7F4FFD
:1010B0000E94561C0F90DF91CF910895EF92FF92FE
:1010C0000F931F93CF93DF938C010D5F1F4FEB01A5
:1010D0007B01E40EF11CEC16FD0639F0C8010E94FC
:1010E000133489930F5F1F4FF6CFDF91CF911F917C
:1010F0000F91FF90EF900895EF92FF920F931F933F
:10110000CF93DF938C010D5F1F4FEB017B01E40E4A
:10111000F11CCE15DF0539F06991C8010E941B341E
:101120000F5F1F4FF6CF60E080E090E0DF91CF913E
:101130001F910F91FF90EF900C941B3444E00C949E
:101140007C08DC01ED91FC910684F785E02D40E000
:101150000994DC01ED91FC910484F585E02D6FEF9D
:10116000099461E00E94A1088BE39FE10197F1F7E8
:101170000895CF92DF92EF92FF920F931F93CF9338
:10118000DF93EC010E949604888580FF20C08A8549
:1011900080FF10C088EE94E00E94B10860E072E029
:1011A00088EE94E00E944C1810924702109246027A
:1011B0000E94920E8E8583FF0AC088EE94E00E9402
:1011C000B10862EF71E088EE94E00E944C18CE0105
:1011D0000E9496048E859F85049731F58C859D85A8
:1011E000089711F40E94771F8A859B85089711F450
:1011F0000E94761C88859985089711F40E94611FCA
:101200008C859D85049719F481E0809329028A8555
:101210009B85049719F482E080932902888599853B
:10122000049711F4109229028E859F858B7F029777
:1012300041F080914602909147020597029708F08D
:1012400004C18C859D858430910511F580915105EF
:1012500090915205A0915305B091540540912D03F2
:1012600050912E0360912F03709130038C019D01EA
:1012700009511C4F2F4F3F4F0417150726073707FB
:1012800054F5AC01BD0148515C4F6F4F7F4F23C0F7
:10129000089731F58091510590915205A091530521
:1012A000B091540540913503509136036091370356
:1012B000709138038C019D01075E134021093109AB
:1012C000401751076207730734F4AC01BD01485E53
:1012D00053406109710985E495E00E94550E2DC0C7
:1012E00085E495E00E946C0E882339F140E25CEBC6
:1012F0006EEB7CE485E495E00E94DF1885E495E0E0
:101300000E94B80F0E9400088111FCCF6091450334
:101310007091460380E090E00E94F4326B017C0102
:1013200020E030E0A9010E94EF32882331F0B701BC
:10133000A60185E495E00E94DF188E859F858D7F4C
:10134000049711F580910D0590910E05A0910F0560
:10135000B09110054091290350912A0360912B030D
:1013600070912C038C019D0109511C4F2F4F3F4F51
:10137000041715072607370764F5AC01BD0148516E
:101380005C4F6F4F7F4F25C08A859B85049731F551
:1013900080910D0590910E05A0910F05B09110055B
:1013A00040913103509132036091330370913403C3
:1013B0008C019D01075E1340210931094017510737
:1013C0006207730734F4AC01BD01485E5340610904
:1013D000710981E095E00E94550E2DC081E095E0F5
:1013E0000E946C0E882339F140E25CEB6EEB7CE4EA
:1013F00081E095E00E94DF1881E095E00E94B80F3F
:101400000E94B7078111FCCF60914503709146039C
:1014100080E090E00E94F4326B017C0120E030E03B
:10142000A9010E94EF32882331F0B701A60181E0C3
:1014300095E00E94DF188C859D85019721F482E05C
:101440008093290202C010922902888599858E0115
:1014500001581F4F892B61F48A859B85892B41F4A4
:101460008C859D85892B21F48E859F85892BA9F1FB
:10147000F80180819181A281B381892B8A2B8B2BEA
:1014800039F40E947723F801608371838283938308
:101490000E947723F801C080D180E280F380DC01D4
:1014A000CB018C199D09AE09BF09843F9140A1056C
:1014B000B105C0F40E947723F801008111812281D7
:1014C0003381DC01CB01801B910BA20BB30B893C58
:1014D0009105A105B10530F010C0F801108211820C
:1014E00012821382CE01DF91CF911F910F91FF9055
:1014F000EF90DF90CF900C945A0780E0DF91CF916E
:101500001F910F91FF90EF90DF90CF9008958F92F1
:101510009F92AF92BF92CF92DF92EF92FF920F9382
:101520001F93CF93DF93EC01423018F08C818860D9
:101530008C834F836887222329F0413019F48C81F2
:1015400084608C830E9452236B017C0184E6882E88
:10155000912CA12CB12C0E945223DC01CB018C19BF
:101560009D09AE09BF09883E9340A105B10598F3D6
:1015700021E0821A9108A108B10888EEC80E83E024
:10158000D81EE11CF11C81149104A104B10419F7C7
:101590006C8164FD31C0E881F9810684F785E02D16
:1015A00042E063E0CE0109958BE496E40197F1F700
:1015B000E881F9810684F785E02D42E063E0CE0101
:1015C000099503E512E0C8010197F1F7E881F98177
:1015D0000684F785E02D42E063E0CE010995C8015D
:1015E0000197F1F7E881F9810684F785E02D42E063
:1015F00062E0CE01099517C06062CE010E94A10889
:101600008BE496E40197F1F76C816062CE010E9451
:10161000A10803E512E0C8010197F1F76C8160624F
:10162000CE010E94A108C8010197F1F76C816062A8
:10163000CE010E94A1088BEE90E00197F1F784E0C3
:101640008D836CE0CE010E94A108CE010E94B108FA
:1016500082E08E8366E0CE010E94A108CE01DF9178
:10166000CF911F910F91FF90EF90DF90CF90BF909F
:10167000AF909F908F900C94A908FF920F931F93A7
:10168000CF93DF93EC01162F042FF22E8B85888BDE
:101690008AE094E00E94061A888991E090936C0396
:1016A00080936B0310926A031092690361E08AE0F1
:1016B00094E00E94621991E0811190E0998B811170
:1016C00005C08AE094E00E9448178E8789898823A4
:1016D00039F01F861C8260E0CE010E960E94912197
:1016E0002F2D402F612FCE01DF91CF911F910F91B0
:1016F000FF900C94870A833081F028F4813099F0B0
:101700008230A1F008958730A9F08830B9F0843094
:10171000D1F4809180008F7D03C0809180008F770D
:1017200080938000089584B58F7702C084B58F7D43
:1017300084BD08958091B0008F7703C08091B00080
:101740008F7D8093B00008950F931F93CF93DF9305
:10175000EC01FC0170961491113009F098C01093BF
:101760001D0440E150E0BC0185E494E00E944E304D
:1017700020E130E040E050E060E070E085E494E09B
:101780000E943122FE01729685919491FC01649130
:101790003996A591B491611104C08C91809357043E
:1017A0006FC08FEF860F823040F48D919C9111971E
:1017B00090935D0480935C0463C08DEF860F82304C
:1017C00070F40D911D912D913C9113970093580445
:1017D0001093590420935A0430935B0451C069302C
:1017E00031F5FD013396C591D491FD018591949118
:1017F000FC018081FD013296A4919E0160E090E0A1
:10180000A91761F0F90145915491FA0144918413AB
:1018100001C0692F9F5F2E5F3F4FF2CF6093570447
:10182000CE01DF91CF911F910F910C9401236A306B
:10183000D1F4FD013196C591D491FD01A491888127
:1018400090E002C095958795AA95E2F780FF03C0C6
:101850001093570402C010925704DF91CF911F914B
:101860000F910C942C230D911D912D913C91139768
:1018700000935E0410935F0420936004309361042E
:10188000CD01DF91CF911F910F910C949A221111EC
:1018900034C061112EC0209122043091230482179C
:1018A000930739F18091260490912704892B79F0D0
:1018B0008091280490912904892B61F080912A0459
:1018C00090912B04892B79F482E090E005C080E0B0
:1018D00090E002C081E090E0880F991FFC01EA5D72
:1018E000FB4F31832083D0932304C09322041092B2
:1018F000400460914004CE0114C01230D9F4FC01C0
:10190000729685919491009711F0FC010995809150
:101910001C04882361F0609140048091220490911E
:101920002304DF91CF911F910F910C94392281E014
:1019300080931F04DF91CF911F910F9108954F92D3
:101940005F926F927F928F929F92AF92BF92CF924F
:10195000DF92EF92FF920F931F93CF93DF93EC01EF
:10196000C888D988EA88FB888C859D85AE85BF8527
:10197000C81AD90AEA0AFB0A6C897D898E899F896F
:101980009B01AC010E9455334B015C016C8D7D8D38
:101990008E8D9F8D9B01AC010E947B349B01AC011D
:1019A000C501B4010E94E7340E945935C114D10425
:1019B000E104F10499F462307105810591050CF0A0
:1019C00076C01CA21DA21EA21FA21C8A1D8A1E8AEE
:1019D0001F8A1CAA1DAA1EAA1FAAEDC00CA91DA918
:1019E0002EA93FA91C141D041E041F04FCF410168C
:1019F0001106120613064CF46C157D058E059F0525
:101A00004CF52A81211153C025C00115110521056E
:101A1000310509F44CC06C157D058E059F050CF051
:101A200046C08A81882309F442C036C010161106C8
:101A300012061306ECF40027112798010C191D0952
:101A40002E093F0960177107820793071CF42A814A
:101A5000222369F19B01AC0188279927DC01821BB5
:101A6000930BA40BB50B8CAB9DABAEABBFAB1FC048
:101A70000115110521053105D1F08824992454015F
:101A80008C189D08AE08BF08681579058A059B0566
:101A900074F48A8181110BC03095209510950195C1
:101AA0001F4F2F4F3F4F0CAB1DAB2EAB3FAB8CA846
:101AB0009DA8AEA8BFA881149104A104B10489F423
:101AC00088AD99ADAAADBBAD8CAF9DAFAEAFBFAF8A
:101AD00081E01C141D041E041F040CF080E08A83A6
:101AE0003FC0CCACDDACEEACFFACA7019601C701AA
:101AF000B6010E947B342B013C01C501B4010E9458
:101B0000F63220E030E040E850E40E94553320E017
:101B100030E040E85FE30E947B349B01AC01C301ED
:101B2000B2010E94E7349B01AC01C701B6010E94DB
:101B30007A343B016C01FE01E05CFF4FE080F180F4
:101B4000028113819701A8010E948F35181614F4A1
:101B500073018601C701D8018CAF9DAFAEAFBFAF97
:101B60003FEF831A930AA30AB30A8CAA9DAAAEAACE
:101B7000BFAACCACDDACEEACFFACC701B6010E9495
:101B800060356CA37DA38EA39FA3A701960160E09F
:101B900074E284E799E40E94E7346C8B7D8B8E8B32
:101BA0009F8B2A81211107C0DC01CB01B0588C8B9F
:101BB0009D8BAE8BBF8BDF91CF911F910F91FF90CB
:101BC000EF90DF90CF90BF90AF909F908F907F90DD
:101BD0006F905F904F900895CF92DF92EF92FF92B7
:101BE000CF93DF93EC018CA19DA1AEA1BFA1892B66
:101BF0008A2B8B2BB9F10E9452236B017C0188A5A3
:101C000099A5AAA5BBA5B701A601481B590B6A0B4C
:101C10007B0B8CA19DA1AEA1BFA1481759076A07F4
:101C20007B0700F12A818C859D85AE85BF852223A7
:101C300021F00196A11DB11D03C00197A109B109B1
:101C40008C879D87AE87BF874C855D856E857F8538
:101C5000CE010E94F116C8A6D9A6EAA6FBA6CE011F
:101C60000E949F0C20E030E0A9016C897D898E895B
:101C70009F890E94EF32811110C081E0C888D98805
:101C8000EA88FB884C855D856E857F85C416D50600
:101C9000E606F70619F480E001C081E0DF91CF91FC
:101CA000FF90EF90DF90CF9008950F931F93FC016A
:101CB00000891189228933890417150726073707F8
:101CC00041F0408B518B628B738B1F910F910C9461
:101CD0009F0C1F910F9108950F931F93CF93DF9344
:101CE000EC0120E030E0A9016C897D898E899F8913
:101CF0000E94EF32811110C081E0088919892A8978
:101D00003B894C855D856E857F8504171507260701
:101D1000370719F480E001C081E0DF91CF911F9176
:101D20000F910895CF92DF92EF92FF920E94772356
:101D30006B017C010E947723DC01CB018C199D098A
:101D4000AE09BF09843F9140A105B10528F40E9466
:101D500000080E94B707EECFFF90EF90DF90CF9082
:101D60000895CF92DF92EF92FF920F931F93CF933C
:101D7000DF93EC016A017B0120E030E0A901C7019B
:101D8000B6010E94EF3287FF04C0F7FAF094F7F82B
:101D9000F094A7019601688D798D8A8D9B8D0E94A4
:101DA000EF32882309F446C0C88ED98EEA8EFB8EA6
:101DB0008E01005C1F4FA701960160E074E284E78A
:101DC00099E40E94E734F8016083718382839383EE
:101DD0008CA99DA9AEA9BFA9181619061A061B063B
:101DE0004CF56C897D898E899F899B01AC010E948D
:101DF00055336B017C016C8D7D8D8E8D9F8D9B018C
:101E0000AC010E947B349B01AC01C701B6010E946A
:101E1000E7340E9459356CAB7DAB8EAB9FABCE01E6
:101E2000DF91CF911F910F91FF90EF90DF90CF90B6
:101E30000C949F0CDF91CF911F910F91FF90EF9029
:101E4000DF90CF9008954F925F926F927F928F9222
:101E50009F92AF92BF92CF92DF92EF92FF920F9339
:101E60001F93CF93DF93CDB7DEB7A1970FB6F8944A
:101E7000DEBF0FBECDBF8C016A017B0177FF2FC093
:101E8000DC01ED91FC910190F081E02D6DE209956E
:101E90005C0122273327A9012C193D094E095F094E
:101EA00019A2FE01B1967F019AE0492E512C612CB6
:101EB000712CCA01B901A30192010E941336605D21
:101EC000D7016E937D01211531054105510589F733
:101ED000BD01C8010E9470188A0D9B1D1EC09A0189
:101EE000AB0119A2FE01B1967F018AE0882E912CE8
:101EF000A12CB12CCA01B901A50194010E9413368D
:101F0000605DD7016E937D012115310541055105B5
:101F100089F7BD01C8010E947018A1960FB6F89408
:101F2000DEBF0FBECDBFDF91CF911F910F91FF900C
:101F3000EF90DF90CF90BF90AF909F908F907F9069
:101F40006F905F904F900895CF93DF93AB01BC01EA
:101F50008DE693E00E94230FEC0168EF71E08DE6BF
:101F600093E00E9470188C0F9D1FDF91CF91089510
:101F70008F929F92AF92BF92CF92DF92EF92FF9299
:101F8000CF93DF93EC018C889D88AE88BF8820E0DA
:101F900030E0A901C501B4010E94EF32882309F4A1
:101FA00042C0A5019401C501B4010E9455336B01E3
:101FB0007C016C8D7D8D8E8D9F8D9B01AC010E946F
:101FC0007B349B01AC01C701B6010E94E7340E943B
:101FD00059356B017C012FEFC21AD20AE20AF20ACC
:101FE00020E030E0A901C501B4010E948F354C8585
:101FF0005D856E857F8518162CF44C0D5D1D6E1D5C
:102000007F1D04C04C195D096E097F09CE01DF9167
:10201000CF91FF90EF90DF90CF90BF90AF909F90C7
:102020008F900C94550EDF91CF91FF90EF90DF9041
:10203000CF90BF90AF909F908F900895CF93DF93F4
:10204000BC018DE693E00E947018EC0168EF71E02E
:102050008DE693E00E9470188C0F9D1FDF91CF9149
:102060000895CF93DF93282F30E0F901EB5AFD4F0D
:102070008491F901EF5BFD4FD491F901E35DFD4FD0
:10208000C491CC2391F081110E947B0BEC2FF0E0E6
:10209000EE0FFF1FED5DFD4FA591B491EC91ED2387
:1020A00081E090E021F480E002C080E090E0DF91E8
:1020B000CF9108951F93CF93DF93282F30E0F9013C
:1020C000EB5AFD4F8491F901EF5BFD4FD491F9017B
:1020D000E35DFD4FC491CC23C1F0162F81110E9406
:1020E0007B0BEC2FF0E0EE0FFF1FE75EFD4FA5919D
:1020F000B4919FB7F894111104C08C91D095D82356
:1021000002C0EC91DE2BDC939FBFDF91CF911F913A
:102110000895CF93DF9390E0FC01EF5BFD4F249196
:10212000FC01E35DFD4F8491882361F190E0880F0D
:10213000991FFC01E15FFD4FC591D491FC01E75E61
:10214000FD4FA591B491611109C09FB7F8948881A2
:10215000209582238883EC912E230BC0623061F49A
:102160009FB7F8948881322F309583238883EC9130
:102170002E2B2C939FBF06C08FB7F894E8812E2B8F
:1021800028838FBFDF91CF9108952F923F924F9276
:102190005F926F927F928F929F92AF92BF92CF92F7
:1021A000DF92EF92FF920F931F93CF93DF93CDB700
:1021B000DEB764970FB6F894DEBF0FBECDBF042F15
:1021C0004296FC0185919491FC0114913596C5903D
:1021D000D590E590F490FC0131962591359145918B
:1021E0005491298B3A8B4B8B5C8B643009F46DC313
:1021F000633008F097C2193029F5FC013996259112
:102200003491F90132969491319625913491EFEF02
:10221000E90F90915704613039F0911103C0E093B8
:1022200057040AC0915006C0E91303C01092570426
:1022300003C09F5F9093570460915704C9010E94A7
:1022400001234CC31A3059F481E090915704913026
:1022500009F480E0809357040E942C233FC361302F
:1022600019F08FEF9FEF02C081E090E020915504BC
:1022700030915604829F5001839FB00C929FB00C06
:102280001124B5010B2C000C880B990B0E94F6321F
:10229000163029F420E030E040E251E40DC0173060
:1022A00029F420E030E048EC52E406C0183031F464
:1022B00020E030E04AE754E40E94E73449885A8835
:1022C0006B887C882DEF200F2230B8F410926204C6
:1022D0009B01AC0160915E0470915F048091600489
:1022E000909161040E947B3460935E0470935F045C
:1022F000809360049093610458C00334B9F4109241
:102300005E0410925F0410926004109261041092B7
:1023100058041092590410925A0410925B041092BF
:102320005D0410925C04109257043AC00130D9F554
:102330008091570481958093570480915C0490911B
:102340005D0491958195910990935D0480935C045F
:102350008091580490915904A0915A04B0915B0463
:10236000B095A095909581959F4FAF4FBF4F8093AB
:10237000580490935904A0935A04B0935B0480913D
:102380005E0490915F04A0916004B0916104B05824
:1023900080935E0490935F04A0936004B093610403
:1023A000A12CB12CC8C0A12CB12C00530A3008F0CC
:1023B000C2C080916204823008F442C08091570408
:1023C000880F982F990F990F890F809357042091A8
:1023D0005C0430915D044AE0429FC001439F900D30
:1023E000112490935D0480935C04209158043091F3
:1023F000590440915A0450915B04AAE0B0E00E9455
:102400002934609358047093590480935A0490932C
:102410005B0420E030E040E251E460915E047091A2
:102420005F0480916004909161040E945533609331
:102430005E0470935F04809360049093610418C0FD
:102440008130B1F4109258041092590410925A0439
:1024500010925B0410925D0410925C041092570479
:1024600010925E0410925F04109260041092610456
:1024700080915704800F8093570480915C04909161
:102480005D04800F911D90935D0480935C048091A6
:10249000580490915904A0915A04B0915B04800FA4
:1024A000911DA11DB11D8093580490935904A093D0
:1024B0005A04B0935B04163061F4602F000F770B61
:1024C000880B990B0E94F63220E030E040E251E4A4
:1024D0000DC0173011F5602F000F770B880B990B8B
:1024E0000E94F63220E030E048EC52E40E94E734EB
:1024F0009B01AC0160915E0470915F048091600467
:10250000909161040E947B3460935E0470935F0439
:102510008093600490936104B9C0183061F4602F17
:10252000000F770B880B990B0E94F63220E030E009
:102530004AE754E4DBCF111126C0809157048A0D7D
:10254000C114D104E104F10441F4411451046104C3
:10255000710419F48093570413C090E0A0E0B0E038
:10256000481659066A067B0644F0C816D906EA06DC
:10257000FB0624F46C017D0101C0C988C092570498
:1025800087E594E0CBC0113011F0123089F58091CD
:102590005C0490915D048A0D9B1DC114D104E1047B
:1025A000F10451F4411451046104710429F490932D
:1025B0005D0480935C040FC0092E000CAA0BBB0BBA
:1025C000481659066A067B064CF499898A899093C5
:1025D0005C0480935D048CE594E0A0C0C816D90625
:1025E000EA06FB0614F46C017D019C2D8D2DEFCFC6
:1025F000133069F4A501BB0C660B770B809158046E
:1026000090915904A0915A04B0915B040EC014300B
:10261000E9F5C501BB0CAA0BBB0B409158045091C6
:10262000590460915A0470915B04840F951FA61F92
:10263000B71FC114D104E104F10471F44114510431
:102640006104710449F48093580490935904A09351
:102650005A04B0935B040FC0481659066A067B06FD
:102660006CF473016201C0925804D0925904E09254
:102670005A04F0925B0488E594E050C0C816D9066D
:10268000EA06FB0684F76C017D01EDCFC114D1048D
:10269000E104F10429F44114510461047104E1F1ED
:1026A00020905E0430905F048090600490906104FC
:1026B000C301B2010E94F632762EA72EB82E092F42
:1026C000262F372F482F592FB101C4010E948F3573
:1026D0001816B4F0C701B6010E94F632762EA72E66
:1026E000B82E092F262F372F482F592FB101C4019B
:1026F0000E94EF3287FD04C0722CA32CB82C092D48
:10270000872D9A2DAB2DB02F80935E0490935F049C
:10271000A0936004B09361048EE594E0612F0E9461
:102720009A22DCC0633009F0D9C0FC013996A5912A
:10273000B491193099F4FD0133962591349140916B
:102740005704F901E40FF11DE40FF11D6591749137
:10275000FB016491FD01A591B4912AC01A3021F5C5
:10276000FD01319665917491FD01A491209157046A
:10277000FB01B081222349F041E050E001C0440F49
:10278000AA95EAF74B2B40830AC021E030E001C054
:10279000220FAA95EAF720952B23FB012083FB014A
:1027A00060810E94490891C0111104C060915704D2
:1027B0006C93F7CF1230A1F420915C0430915D044A
:1027C0002D933C93388B2F87FC013B9685919491F8
:1027D000009709F47AC042E0BE01615F7F4F15C0E7
:1027E0001130B1F420915C0430915D042D933C9341
:1027F0003E872D87FC013B9685919491009709F4C3
:1028000064C042E0BE01635F7F4F0E947C085DC0F0
:102810001430F1F4409158045091590460915A04D5
:1028200070915B044D935D936D937C9313974987EF
:102830005A876B877C87FC013B9685919491009722
:1028400009F443C0BE01675F7F4F0E949E083DC0F0
:102850001330E9F4409158045091590460915A049E
:1028600070915B044D935D936D937C9313974D83AF
:102870005E836F837887FC013B96859194910097E6
:1028800021F1BE016B5F7F4F0E949E081EC0153074
:10289000E0F040915E0450915F046091600470919B
:1028A00061044D935D936D937C93139749835A8391
:1028B0006B837C83FC013B9685919491009729F072
:1028C000BE016F5F7F4F0E949E0810921D0461E061
:1028D00080912204909123040E94A40B64960FB669
:1028E000F894DEBF0FBECDBFDF91CF911F910F9146
:1028F000FF90EF90DF90CF90BF90AF909F908F9020
:102900007F906F905F904F903F902F900895CF925F
:10291000DF92EF92FF920F931F93CF93DF936C019F
:102920007A018B01C0E0D0E0CE15DF0581F0D8013F
:102930006D918D01D601ED91FC910190F081E02D1A
:10294000C6010995892B11F02196EECF7E01C701B2
:10295000DF91CF911F910F91FF90EF90DF90CF907B
:102960000895FC01538D448D252F30E0842F90E095
:10297000821B930B541710F0CF960895019708957A
:10298000FC01918D828D981761F0828DDF01A80F77
:10299000B11D5D968C91928D9F5F9F73928F90E099
:1029A00008958FEF9FEF0895FC01918D828D981708
:1029B00031F0828DE80FF11D858D90E008958FEF45
:1029C0009FEF0895FC01918D228D892F90E0805C0E
:1029D0009F4F821B91098F73992708958DE693E08D
:1029E0000E94E21421E0892B09F420E0822F08954F
:1029F000FC01848DDF01A80FB11DA35ABF4F2C919C
:102A0000848D90E001968F739927848FA689B7896A
:102A10002C93A089B1898C91837080648C93938D61
:102A2000848D981306C00288F389E02D80818F7D04
:102A300080830895EF92FF920F931F93CF93DF93BC
:102A4000EC0181E0888F9B8D8C8D981305C0E889FF
:102A5000F989808185FD26C0F62E0B8D10E00F5F71
:102A60001F4F0F731127E02E8C8DE8120CC00FB68C
:102A700007FCFACFE889F989808185FFF5CFCE017F
:102A80000E94F814F1CF8B8DFE01E80FF11DE35A7F
:102A9000FF4FF0829FB7F8940B8FEA89FB89808102
:102AA00080620AC09FB7F894EE89FF896083E88945
:102AB000F98980818370806480839FBF81E090E08A
:102AC000DF91CF911F910F91FF90EF900895CF93D9
:102AD000DF93EC01888D8823C9F0EA89FB89808126
:102AE00085FD05C0A889B9898C9186FD0FC00FB6F8
:102AF00007FCF5CF808185FFF2CFA889B9898C9139
:102B000085FFEDCFCE010E94F814E7CFDF91CF9182
:102B1000089580E090E0892B29F00E94EE14811145
:102B20000C9400000895CF93DF93477055276627D4
:102B30007727FA013197EC01A881B981E730F105D7
:102B400020F4EC5CFF4F0C9454361496ED91FC91FC
:102B5000159761E029C01496ED91FC91159765E0F9
:102B600023C01496ED91FC91159764E01DC0149656
:102B7000ED91FC91159766E017C01496ED91FC91CC
:102B8000159762E011C01496ED91FC9115976AE0DB
:102B90000BC01496ED91FC91159768E005C0149652
:102BA000ED91FC91159769E0DF91CF910994CF9356
:102BB000DF93EC01CB01BA0126E030E040E050E0C9
:102BC0000E943536623071058105910559F18CF40A
:102BD0006115710581059105F1F06130710581057F
:102BE0009105C1F5E881F9810480F581E02D65E06A
:102BF0002DC0643071058105910511F1D4F0653067
:102C000071058105910531F5E881F9810480F5812F
:102C1000E02D66E01BC0E881F9810480F581E02D9C
:102C200064E014C0E881F9810480F581E02D61E061
:102C30000DC0E881F9810480F581E02D63E006C0D4
:102C4000E881F9810480F581E02D62E0CE01DF9119
:102C5000CF910994DF91CF9108954370552766274E
:102C60007727DC01ED91FC910480F581E02D423065
:102C700051056105710571F043305105610571051C
:102C800059F0413051056105710511F065E005C04D
:102C900066E003C06AE001C069E00994CF93DF9366
:102CA000EC01CB01BA0123E030E040E050E00E94AB
:102CB0003536613071058105910581F0623071050D
:102CC0008105910591F0672B682B692BC1F4E88190
:102CD000F9810480F581E02D64E00DC0E881F9817F
:102CE0000480F581E02D61E006C0E881F98104806F
:102CF000F581E02D62E0CE01DF91CF910994DF9163
:102D0000CF9108954370552766277727DC01ED9111
:102D1000FC910480F581E02D42305105610571057B
:102D200071F0433051056105710559F0413051058D
:102D30006105710511F062E005C063E003C061E068
:102D400001C060E00994CF93DF93EC01E881F98141
:102D50000480F581E02D8A81811102C060E001C00C
:102D600062E0CE010995E881F9810480F581E02DCA
:102D70008A81811102C061E001C063E0CE01099542
:102D80008CA59DA58230910538F0880F991F880F7A
:102D9000991F05970197F1F7E881F9810480F58182
:102DA000E02D8A81811102C060E001C062E0CE01A5
:102DB000DF91CF910994CF93DF93EC0120E030E0D5
:102DC000A9016C897D898E899F890E948F3518168B
:102DD0001CF4E8A9F9A902C0EAA9FBA9DF91CF91E7
:102DE00009940F931F93DC011396EC910E2F10E0C2
:102DF00009301105C0F5F801E55CFF4F0C9454361D
:102E0000DC01ED91FC910084F185E02D29C0DC010D
:102E1000ED91FC910284F385E02D22C0DC01ED915F
:102E2000FC910484F585E02D1BC0DC01ED91FC9143
:102E30000684F785E02D14C0DC01ED91FC9100883B
:102E4000F189E02D0DC0DC01ED91FC910288F38940
:102E5000E02D06C0DC01ED91FC910488F589E02DA0
:102E60001F910F9109941F910F910895089508954E
:102E70000895E091DD028091DC02E81730F4F0E083
:102E8000E454FD4F808190E008958FEF9FEF089507
:102E90009091DD028091DC02981750F4E92FF0E068
:102EA000E454FD4F208130E09F5F9093DD0202C02B
:102EB0002FEF3FEFC90108958091DC0290E020914F
:102EC000DD02821B910908950E945A36CF92DF924B
:102ED000EF92FF920F931F93CF93DF93EC019B81AF
:102EE000943041F0983031F0933031F0963021F049
:102EF00012E003C014E001C013E02496E12CF12C91
:102F0000C62ED12C01E0C6010E2C02C095958795E6
:102F10000A94E2F76C8180FD602789910E945A1023
:102F20008FEFE81AF80AE11670F3DF91CF911F9145
:102F30000F91FF90EF90DF90CF900895CF93DF93A4
:102F4000FC012381222359F1EC0161E084810E947C
:102F5000891061E08D810E9489108B81843011F08D
:102F6000883039F461E08E810E94891061E08F81A0
:102F700006C0833011F0863021F461E08E810E941A
:102F800089108FA58F3F59F061E00E9489106EA5CE
:102F900081E068278FA5DF91CF910C945A10DF91C3
:102FA000CF910895CF93DF93FC0123812223A9F0D1
:102FB000EC010190F081E02D0480F581E02D60E0CE
:102FC00009958FA58F3F49F061E00E9489106EA599
:102FD0008FA5DF91CF910C945A10DF91CF91089576
:102FE000CF92DF92EF92FF920F931F93CF93DF93D5
:102FF0007C01CB018A0120916C03222389F0EB0133
:103000006B01C40ED51ECC15DD0569F06991D701A1
:10301000ED91FC910190F081E02DC7010995F3CF6E
:10302000642F0E942E1CC801DF91CF911F910F9138
:10303000FF90EF90DF90CF900895CF93DF931F9292
:10304000CDB7DEB7698320916C032223D1F02091A4
:103050006903203240F021E030E0FC013383228319
:1030600080E090E015C080916A03E82FF0E0E4561C
:10307000FD4F998190838F5F80936A0380936903EA
:1030800005C061E0CE0101960E942E1C81E090E017
:103090000F90DF91CF910895EF92FF920F931F93BE
:1030A000CF93DF938C017B01C0E0D0E0F701EC0F00
:1030B000FD1F6491662361F0D801ED91FC910190B0
:1030C000F081E02DC8010995892B11F02196EECFF2
:1030D000CE01DF91CF911F910F91FF90EF90089556
:1030E0006115710579F0FB0101900020E9F7319736
:1030F000AF01461B570BDC01ED91FC910280F3817F
:10310000E02D099480E090E008950C9470181F92CF
:103110000F920FB60F9211242F933F934F935F930B
:103120006F937F938F939F93AF93BF93EF93FF938F
:103130008DE693E00E94F814FF91EF91BF91AF915B
:103140009F918F917F916F915F914F913F912F91BF
:103150000F900FBE0F901F9018951F920F920FB6F1
:103160000F9211242F938F939F93EF93FF93E091EE
:103170007D03F0917E038081E0918303F0918403CD
:1031800082FD12C09081809186038F5F8F732091A2
:103190008703821751F0E0918603F0E0E359FC4F7A
:1031A000958F8093860301C08081FF91EF919F915D
:1031B0008F912F910F900FBE0F901F9018954F92E7
:1031C0005F926F927F928F929F92AF92BF92CF92B7
:1031D000DF92EF92FF92CF93DF93EC016A017B01C4
:1031E00020E030E0A901C701B6010E94EF3287FF5D
:1031F00004C0F7FAF094F7F8F0948C8C9D8CAE8CA8
:10320000BF8CA7019601C501B4010E94EF3288234B
:1032100009F449C06CA97DA98EA99FA90E94F63224
:103220002B013C01A7019601C501B4010E94E734BE
:103230009B01AC01C301B2010E9455330E94593574
:103240006CAB7DAB8EAB9FABA701960160E070E0ED
:1032500080E090E40E94E7340E949A3526E53EE043
:103260004DE25FE30E94553320E034E244E759E445
:103270000E94553368AF79AF8AAF9BAFCC8EDD8E9D
:10328000EE8EFF8ECE01DF91CF91FF90EF90DF9019
:10329000CF90BF90AF909F908F907F906F905F90F6
:1032A0004F900C949F0CDF91CF91FF90EF90DF90A7
:1032B000CF90BF90AF909F908F907F906F905F90D6
:1032C0004F90089530916903313208F04AC08091DF
:1032D0009B028111FCCF90916B0322E020939B0213
:1032E00060939A022FEF20939902109298023093E4
:1032F0009702ECE9F2E0A7E7B2E020E0321721F014
:1033000041914D932F5FFACF109276022091760271
:10331000990F922B9093760290917502913061F4FF
:1033200010927502909176029093BB009091BC0030
:1033300093FDF8CF95EC01C095EE9093BC00909171
:103340009B029230E1F3909199029F3F79F0809136
:103350009902803241F080919902803331F084E00B
:1033600005C081E003C082E001C083E010926A03DF
:103370001092690310926C03089580919B02811151
:10338000FCCF413208F040E281E080939B028093C1
:103390009A029FEF9093990210929802940F909343
:1033A00097028093760280917602660F682B609375
:1033B000760280917502813061F4109275028091DD
:1033C00076028093BB008091BC0083FDF8CF85EC32
:1033D00001C085EE8093BC0080919B028130E1F3B7
:1033E00080919802841710F440919802A7E7B2E008
:1033F000ECEBF2E080E0841721F09D9191938F5FD8
:10340000FACF1092DD028093DC0208951092DD0263
:103410001092DC0210926A031092690310929B02D0
:1034200081E080939A021092750261E082E10E942D
:103430005A1061E083E10E945A10E9EBF0E08081CC
:103440008E7F808380818D7F808388E48093B80025
:1034500085E48093BC0086E397E1909372028093A9
:10346000710287E397E19093740280937302089549
:1034700085ED8093BC008091BC0084FDFCCF109250
:103480009B02089588EE94E00E94B10864E971E01F
:1034900088EE94E00E94851861E080E00E94B921E6
:1034A00061EA71E088EE94E00C94851888EE94E06F
:1034B0000E94A90810921C0486E090E090934702B5
:1034C0008093460281E090E090934502809344020D
:1034D00010922502109226021092270210922802C2
:1034E0001092240288EE94E00E94B10861E080E02E
:1034F0000E94B9216BEE72E088EE94E00C944C18B7
:1035000088EE94E00E94A90810921C0485E090E0E7
:10351000909347028093460281E090E090934502A9
:1035200080934402109225021092260210922702E4
:10353000109228021092240288EE94E00E94B108B2
:1035400060E080E00E94B92167ED72E088EE94E0CF
:103550000E944C1861E080E00E94B92166EC72E0A4
:1035600088EE94E00C944C18EF92FF920F931F9307
:10357000CF93DF938C01842F79010E94B921E80158
:10358000CE01801B910B8E159F057CF469918FED08
:10359000860F8E3508F060E288EE94E00E94FA0310
:1035A0000E9400080E94B707EBCFDF91CF911F91D7
:1035B0000F91FF90EF900895835B9F4FFC018081F6
:1035C00091810E94B908813461F0823469F08434B9
:1035D00071F0833279F08A3281F0082E000C990B59
:1035E000089583E090E0089584E090E0089581E0FC
:1035F00090E0089582E090E0089585E090E00895DD
:103600001F920F920FB60F9211242F933F934F9357
:103610005F936F937F938F939F93AF93BF93EF933A
:10362000FF938091B900887F803609F49CC068F5CB
:10363000883209F45BC090F4803109F454C038F446
:10364000882309F4F6C0883009F44DC0F6C08831EB
:1036500009F44CC0803209F45DC0EFC0803409F435
:1036600068C048F4803309F455C0883309F0E5C0D8
:1036700080939902D8C0803509F44FC0883509F489
:103680005DC0883409F0D9C0D6C0883909F4C7C0F4
:10369000A8F4883709F467C038F4883609F463C0A1
:1036A000803709F460C0C9C0883809F4B8C08039CF
:1036B00009F45FC0803809F0C0C05BC0803B09F4EA
:1036C00086C038F4803A09F466C0883A09F47FC0AD
:1036D000B4C0803C09F4A7C0883C09F4A4C0883B6E
:1036E00009F48AC0AAC08091760210C09091980215
:1036F00080919702981770F5E091980281E08E0F03
:1037000080939802F0E0E958FD4F80818093BB00E0
:1037100085EC86C0809399028EC0E091980281E08A
:103720008E0F809398028091BB00F0E0E958FD4F26
:10373000808390919802809197026EC0E0919802E8
:1037400081E08E0F809398028091BB00F0E0E958F1
:10375000FD4F808380919A0281116DC081E080933A
:10376000750284EA61C083E080939B02109220037B
:10377000CFCF80912003803208F051C0E091200328
:1037800081E08E0F809320038091BB00F0E0E05039
:10379000FD4F8083BDCF85EC8093BC0010929B02CF
:1037A00080912003803230F4E0912003F0E0E0507B
:1037B000FD4F10826091200370E0E0917302F09160
:1037C000740280E093E009951092200336C084E0F3
:1037D00080939B021092FF021092FE02E091710210
:1037E000F091720209958091FE02811105C081E07D
:1037F0008093FE021092DE02E091FF0281E08E0FC4
:103800008093FF02F0E0E252FD4F80818093BB0085
:103810009091FF028091FE02981708F479CF85E815
:103820008093BC000AC085EC8093BC0010929B0280
:1038300004C0109299020E94381AFF91EF91BF9133
:10384000AF919F918F917F916F915F914F913F9138
:103850002F910F900FBE0F901F9018954091FE0270
:10386000262F30E0240F311D21323105DCF4209168
:103870009B022430C9F4FC0180E090E0861758F4E4
:103880003091FE022191DC01A252BD4FA30FB11D68
:103890002C930196F3CF8091FE02680F6093FE0295
:1038A00080E0089581E0089582E0089541E00C945D
:1038B0007C0844E00C945E086CEF72E088EE94E0C3
:1038C0000E944C180E9400080C94B70788EE94E000
:1038D0000E94B10860E080E00E94B92169E672E0D0
:1038E00088EE94E00E944C180C94920E4F925F92D6
:1038F0006F927F928F929F92AF92BF92CF92DF9200
:10390000EF92FF92CF93DF93CDB7DEB72C970FB630
:10391000F894DEBF0FBECDBF0E94661C80904D03A1
:1039200090904E03A0904F03B0905003C0905D0361
:10393000D0905E03E0905F03F09060038091650398
:1039400090916603A0916703B09168032091590399
:1039500030915A0340915B0350915C0329833A8371
:103960004B835C8320916103309162034091630338
:10397000509164032D833E834F83588781149104B3
:10398000A104B10409F01BC1809055039090560327
:10399000A0905703B0905803809233029092340263
:1039A000A0923502B0923602209151033091520319
:1039B000409153035091540329873A874B875C8782
:1039C00020932F0230933002409331025093320201
:1039D000C81AD90AEA0AFB0AC701B601A50194016F
:1039E0000E94353629013A0120933702309338027C
:1039F0004093390250933A0269817A818B819C818C
:103A00002D813E814F815885621B730B840B950B72
:103A100029853A854B855C850E94353620932B029B
:103A200030932C0240932D0250932E02A501940155
:103A3000C301B2010E94EF35C61AD70AE80AF90A93
:103A4000B1F16BEF71E08DE693E00E948518209153
:103A50003702309138024091390250913A02C70141
:103A6000B6010E943536CA01B9010E94A40F209107
:103A70003702309138024091390250913A02C70121
:103A8000B6010E9435368091330290913402A091A4
:103A90003502B0913602820F931FA41FB51F809389
:103AA000330290933402A0933502B0933602C09053
:103AB0005903D0905A03E0905B03F0905C0380912F
:103AC000610390916203A0916303B0916403C81AEB
:103AD000D90AEA0AFB0A20912F0230913002409164
:103AE00031025091320260912B0270912C02809130
:103AF0002D0290912E020E94EF35C61AD70AE80ACD
:103B0000F90AB1F16CE072E08DE693E00E9485184D
:103B100020912B0230912C0240912D0250912E02C7
:103B2000C701B6010E943536CA01B9010E94A40F2F
:103B300020912B0230912C0240912D0250912E02A7
:103B4000C701B6010E94353680912F029091300254
:103B5000A0913102B0913202820F931FA41FB51FB2
:103B600080932F0290933002A0933102B0933202DF
:103B70008091370290913802A0913902B0913A02B7
:103B80000196A11DB11D8093370290933802A09336
:103B90003902B0933A0280912B0290912C02A091AD
:103BA0002D02B0912E020196A11DB11D80932B0212
:103BB00090932C02A0932D02B0932E028EC04090C1
:103BC000490350904A0360904B0370904C03A70147
:103BD0009601281B390B4A0B5B0BCA01B90114145F
:103BE000150416041704ECF5A501940121503109C0
:103BF000410951090E943536209333023093340233
:103C000040933502509336028092370290923802E8
:103C1000A0923902B0923A0269817A818B819C81AB
:103C20002D813E814F815885621B730B840B950B50
:103C3000A301920121503109410951090E943536F1
:103C400020932F023093300240933102509332027E
:103C500040922B0250922C0260922D0270922E0202
:103C60003CC0A301920120953095409550950E944B
:103C7000353620933302309334024093350250930B
:103C800036024092370250923802609239027092A6
:103C90003A0269817A818B819C812D813E814F819D
:103CA0005885621B730B840B950BA5019401215061
:103CB0003109410951090E94353620932F02309372
:103CC0003002409331025093320280922B02909244
:103CD0002C02A0922D02B0922E0261EC72E08DE6D1
:103CE00093E00E944C186091650370916603809187
:103CF0006703909168030E94A40F6CEB72E08DE65D
:103D000093E00E944C18609161037091620380916E
:103D10006303909164030E94A40F67EB72E08DE649
:103D200093E00E944C1860915D0370915E03809156
:103D30005F03909160030E94A40F62EB72E08DE636
:103D400093E00E944C186091590370915A0380913E
:103D50005B0390915C030E94A40F6AEA72E08DE617
:103D600093E00E944C186091350370913603809166
:103D70003703909138030E94A40F62EA72E08DE647
:103D800093E00E944C18609131037091320380914E
:103D90003303909134030E94A40F6AE972E08DE628
:103DA00093E00E944C1860912D0370912E03809136
:103DB0002F03909130030E94A40F62E972E08DE618
:103DC00093E00E944C186091290370912A0380911E
:103DD0002B0390912C030E94A40F69E872E08DE6FA
:103DE00093E00E944C1860915503709156038091A6
:103DF0005703909158030E94A40F60E872E08DE68B
:103E000093E00E944C18609151037091520380918D
:103E10005303909154030E94A40F66E772E08DE66D
:103E200093E00E944C1860914D0370914E03809175
:103E30004F03909150030E94A40F6CE672E08DE650
:103E400093E00E944C186091490370914A0380915D
:103E50004B0390914C030E94A40F40913702509164
:103E600038026091390270913A028DE693E00E9427
:103E7000230F63EC71E08DE693E00E94851860915A
:103E80002B0270912C0280912D0290912E020E94A3
:103E9000A40F81E0809343022C960FB6F894DEBF06
:103EA0000FBECDBFDF91CF91FF90EF90DF90CF900D
:103EB000BF90AF909F908F907F906F905F904F904A
:103EC000089510922A0210923F021092400210921E
:103ED00041021092420210923B0210923C02109258
:103EE0003D0210923E02109243020C94661C809197
:103EF0004302813011F482E003C0823019F481E082
:103F0000809343020C94661CCF92DF92EF92FF9253
:103F100069017A01AB01BC0185E495E00E94550E70
:103F2000B701A60181E095E0FF90EF90DF90CF9080
:103F30000C94550E0E94661C20E030E0A90160E060
:103F400070E0CB010C94841F0E94661C20915903E1
:103F500030915A0340915B0350915C0360915D0383
:103F600070915E0380915F03909160030C94841FB5
:103F70000E94661C209161033091620340916303AB
:103F800050916403609165037091660380916703AB
:103F9000909168030C94841FCF92DF92EF92FF926E
:103FA00080913E0310924D0580934E05109273054B
:103FB00080913C031092090580930A0510922F0509
:103FC000609147037091480380E090E00E94F432D2
:103FD000AB01BC0185E495E00E94B10E6091450300
:103FE0007091460380E090E00E94F4326B017C0106
:103FF00020E030E0A9010E94EF32882331F0B701C0
:10400000A60185E495E00E94DF1860914703709156
:10401000480380E090E00E94F432AB01BC0181E0F3
:1040200095E00E94B10E609145037091460380E0D7
:1040300090E00E94F4326B017C0120E030E0A901A5
:104040000E94EF32882351F0B701A60181E095E08C
:10405000FF90EF90DF90CF900C94DF18FF90EF90DF
:10406000DF90CF9008951092290280EA9FE090930C
:1040700048038093470384E690E09093460380933F
:10408000450310924D0310924E0310924F0310926D
:10409000500388EB9BE0909344038093430384EFA9
:1040A00091E090934203809341038CED95E09093CF
:1040B000400380933F0388E19CEFAFEFBFEF809315
:1040C000650390936603A0936703B093680380939E
:1040D000610390936203A0936303B093640388EE3B
:1040E00093E0A0E0B0E080935D0390935E03A09323
:1040F0005F03B09360038093590390935A03A09396
:104100005B03B0935C0310923E0310923C0381E08A
:1041100080933D0380933B0310923A03109239033E
:1041200080EF98EDAFEFBFEF8093350390933603A8
:10413000A0933703B09338038093310390933203F5
:10414000A0933303B093340380E197E2A0E0B0E0A2
:1041500080932D0390932E03A0932F03B0933003ED
:104160008093290390932A03A0932B03B0932C03ED
:104170008AE090E0A0E0B0E08093250390932603CE
:10418000A0932703B09328038093210390932203E5
:10419000A0932303B093240381E090E0A0E0B0E07B
:1041A0008093490390934A03A0934B03B0934C032D
:1041B00084E690E0A0E0B0E080935503909356032E
:1041C000A0935703B09358038093510390935203E5
:1041D000A0935303B093540369E272E084E090E04B
:1041E0000E94561C42E067E473E088E090E00E9481
:1041F0007C0842E065E473E08CE090E00E947C087B
:104200006DE473E088E390E00E949E0842E063E47E
:1042100073E080E290E00E947C0842E061E473E099
:1042200084E290E00E947C0842E06FE373E088E261
:1042300090E00E947C0865E673E080E190E00E94D7
:104240009E0861E673E084E190E00E949E086DE5BF
:1042500073E088E190E00E949E0869E573E08CE1DC
:1042600090E00E949E086EE373E08CE290E00E9472
:10427000561C6CE373E080E390E00E94561C6AE3F6
:1042800073E084E390E00E94561C69E373E082E6E9
:1042900090E00E94561C65E373E08CE390E00E947E
:1042A0009E0861E373E080E490E00E949E086DE266
:1042B00073E084E490E00E949E0869E273E088E481
:1042C00090E00E949E0865E273E08CE490E00E941A
:1042D0009E0861E273E080E590E00E949E086DE335
:1042E00073E080E690E00E94561C6BE373E081E689
:1042F00090E00E94561C69E473E084E590E00E941F
:104300009E0865E573E088E590E00E949E0861E5FF
:1043100073E08CE590E00C949E080E9433200C948E
:10432000661CFC0183818823D9F0962F61816095FA
:1043300069236083828191E090936C0380936B0387
:1043400010926A03109269038AE094E00E941D189B
:1043500061E08AE094E00E946219282F30E002C0F8
:1043600020E030E081E090E0232B11F080E090E04D
:1043700008950F931F93CF93DF93CDB7DEB72897A0
:104380000FB6F894DEBF0FBECDBF0091180110919B
:10439000190120911A0130911B010D831E832F8377
:1043A000388700911C0110911D0120911E01309150
:1043B0001F0109831A832B833C839091EF046917B3
:1043C00010F06FEF690F4091F004262F30E0FE01EE
:1043D000E20FF31F403121F4943011F4618101C0E8
:1043E0006581680F606888EE94E028960FB6F894AF
:1043F000DEBF0FBECDBFDF91CF911F910F910C9407
:10440000A108EF92FF920F931F93CF938C01FC01B1
:1044100084E0C0E060FF02C09589C92B6695815099
:1044200031968111F7CF413011F4F8014489F80138
:104430008585C82BC42B7801FEE0EF0EF11CF80136
:1044400062896C2BC7010E949121F80162896095F5
:104450006C23C701CF911F910F91FF90EF900C94A7
:104460009121E0914104F0914204309709F00994C0
:104470000895CF92DF92EF92FF920F931F93CF9305
:10448000DF93FC017196C491C1503196C590D490D0
:10449000E62EF12CF701EE0FFF1FEC0DFD1D8591AF
:1044A0009491909321048093200400E010E0D0E0E8
:1044B00040E150E060E270E085E494E00E945F3605
:1044C00021E030E040E050E0011105C060E070E024
:1044D0008DE192E004C061E070E08EEA91E00E941C
:1044E0003122F701E00FF11FCE17DF0764F0EE0F66
:1044F000FF1FEC0DFD1D6591749140E150E085E4D6
:1045000094E00E944E3020E130E041E050E0B801FC
:1045100085E494E00E9431220F5F1F4F02301105A5
:1045200039F6DF91CF911F910F91FF90EF90DF90BF
:10453000CF9008950F931F93CF938C01C62F40E126
:1045400050E060E270E085E494E00E945F36C7309E
:10455000D9F1C830D9F1C11107C0F80180814AE012
:1045600065E474E090E013C0C13049F44AE065E4CA
:1045700074E0F801808191810E94573035C0C230CB
:1045800049F44AE065E474E0F801808191810E9479
:1045900093302AC0C33059F4F8016081718182815F
:1045A00093812AE045E454E00E9462301DC0C4308B
:1045B00079F4F80160817181828193812AE045E478
:1045C00054E00E94713010C022E003C023E001C01B
:1045D00021E042E0420FF801608171818281938184
:1045E00005E414E00E942E3020E130E040E050E08D
:1045F00061E070E085E494E0CF911F910F910C94FD
:1046000031221F93CF93DF93182FD92FC62F40E16C
:1046100050E060E270E085E494E00E945F36E12FB4
:10462000FD2FEC0FF11DEC0FF11D659174916F5F83
:104630007F4F4FE050E085E494E00E944E3020E14F
:1046400030E040E050E061E070E085E494E0DF912C
:10465000CF911F910C94312240E150E060E270E074
:1046600085E494E00E945F3680915704813039F4EC
:104670008FE49EE6909346048093450409C083E04E
:10468000EFE1F2E0A5E4B4E001900D928A95E1F744
:1046900020E130E040E050E061E070E085E494E04B
:1046A0000C9431223FB7F89480918E0590918F053C
:1046B000A0919005B091910526B5A89B05C02F3F0C
:1046C00019F00196A11DB11D3FBFBA2FA92F982F38
:1046D0008827820F911DA11DB11DBC01CD0142E0B3
:1046E000660F771F881F991F4A95D1F708952FB736
:1046F000F89460918A0570918B0580918C0590915A
:104700008D052FBF08951F920F920FB60F9211249F
:104710002F933F938F939F93AF93BF9380918A057D
:1047200090918B05A0918C05B0918D0530918905F4
:1047300023E0230F2D3720F40196A11DB11D05C0E4
:1047400026E8230F0296A11DB11D209389058093B1
:104750008A0590938B05A0938C05B0938D0580916D
:104760008E0590918F05A0919005B09191050196CD
:10477000A11DB11D80938E0590938F05A093900588
:10478000B0939105BF91AF919F918F913F912F91E0
:104790000F900FBE0F901F901895789484B582608B
:1047A00084BD84B5816084BD85B5826085BD85B5D5
:1047B000816085BD80916E00816080936E00109253
:1047C00081008091810082608093810080918100CE
:1047D000816080938100809180008160809380005F
:1047E0008091B10084608093B1008091B0008160BD
:1047F0008093B00080917A00846080937A008091E9
:104800007A00826080937A0080917A008160809340
:104810007A0080917A00806880937A001092C100BB
:1048200061E08DE00E94891061E086E00E948910BD
:1048300061E08AE00E94891080E090E00E941334D9
:104840008111A9C041E069E272E084E090E00E9439
:104850005E0842E067E473E088E090E00E945E0852
:1048600042E065E473E08CE090E00E945E086DE455
:1048700073E088E390E00E94591C42E063E473E037
:1048800080E290E00E945E0842E061E473E084E22E
:1048900090E00E945E0842E06FE373E088E290E0FF
:1048A0000E945E0865E673E080E190E00E94591C7A
:1048B00061E673E084E190E00E94591C6DE573E0CD
:1048C00088E190E00E94591C69E573E08CE190E07A
:1048D0000E94591C41E06EE373E08CE290E00E947C
:1048E0005E0841E06CE373E080E390E00E945E08C4
:1048F00041E06AE373E084E390E00E945E0841E0F7
:1049000069E373E082E690E00E945E0865E373E08D
:104910008CE390E00E94591C61E373E080E490E036
:104920000E94591C6DE273E084E490E00E94591CDF
:1049300069E273E088E490E00E94591C65E273E04C
:104940008CE490E00E94591C61E273E080E590E005
:104950000E94591C41E06DE373E080E690E00E9404
:104960005E0841E06BE373E081E690E00E945E0840
:1049700069E473E084E590E00E94591C65E573E00A
:1049800088E590E00E94591C61E573E08CE590E0B9
:104990000E94591C02C00E94332060913A03C1E07A
:1049A0006C2784E00E945A10609139036C2783E0E1
:1049B0000E945A1061E084E00E94891061E083E067
:1049C0000E948910E0917D03F0917E0382E0808354
:1049D000E0917D03F0917E031082E0917903F091E4
:1049E0007A031082E0917B03F0917C0380E1808365
:1049F00010928503E0918103F091820386E0808329
:104A0000E0917F03F0918003808180618083E09159
:104A10007F03F0918003808188608083E0917F0331
:104A2000F0918003808180688083E0917F03F09122
:104A3000800380818F7D808384E190E0A0E0B0E0FE
:104A40008093710390937203A0937303B0937403E4
:104A500084E991E00E941E1081EA91E00E941E10FC
:104A60008AE094E00E94061A88E091E09093C604E0
:104A70008093C50484ED94E00E94061A4091E104FD
:104A800050E06091E00470E084ED94E00E94BD1974
:104A900084ED94E00E9448179093E3048093E2042D
:104AA0008091E104823088F084ED94E00E94481700
:104AB00020E030E0382F8091E2049091E304282B2D
:104AC000392B3093E3042093E20420E042E060E1DC
:104AD00088EE94E00E943D0B64E971E088EE94E07A
:104AE0000E94851861E080E00E94B92161EA71E0CE
:104AF00088EE94E00E94851884EB9AE1909342043A
:104B00008093410482E49AE19093440480934304A7
:104B100081E080931C040E94CC1FD1E073E0E72E5B
:104B2000F12C01E010E0E2E03E2EFAE0CF2ED12C95
:104B30000E9400080E94B7070E94772380906D02B0
:104B400090906E02A0906F02B0907002DC01CB01D9
:104B500088199909AA09BB09893E9340A105B105A5
:104B6000D0F00E94772360936D0270936E02809361
:104B70006F029093700280916C028F5F80936C0241
:104B800080916B02882319F010926B0202C0D093BF
:104B90006B020E94CC1F85E694E00E94B9089091B8
:104BA0001E04833279F4109247021092460210924A
:104BB000450210924402D0931C0491110EC00E9431
:104BC000421A0BC0992321F090911C04911105C049
:104BD000883309F0F7C10E94801A80915602811132
:104BE0000CC00E947723609352027093530280930B
:104BF000540290935502D093560280911F0488234B
:104C000071F080911C04882351F010921F04609170
:104C1000400480912204909123040E9439228091C3
:104C20001804811150C0809119048E3008F08E5004
:104C30008770806480937C0080917A008064809388
:104C40007A0080917A0086FDFCCF209178008091D7
:104C5000790030E0382B60911A0470911B04809128
:104C60004C0290914D02821B930B97FF03C09195CC
:104C700081959109681779072CF430934D022093A0
:104C80004C0227C0E6E1F4E080E090E046895789D5
:104C9000DA01A61BB70BA217B3077CF4460F571F08
:104CA0002417350754F4880F991F880F991FFC01AA
:104CB000E25DFB4F808091800EC001963496853076
:104CC000910521F706C086E194E00E94DC1A4C01B0
:104CD00002C0812C912CC0915102AC2EB12CA81491
:104CE000B904B9F080925102109250020E947723C9
:104CF0006093520270935302809354029093550232
:104D000010924F0210924E021093560400935504D5
:104D1000F2C00E947723409052025090530260905C
:104D2000540270905502DC01CB0184199509A60943
:104D3000B70989379105A105B10508F4DCC00E94C7
:104D4000772360935202709353028093540290939E
:104D500055028114910421F080911C0481110BC033
:104D600010924F0210924E02109356040093550475
:104D700010925002C0C085E08816910411F4D093BF
:104D80001E0480911E04882309F4B5C0809150024E
:104D900090E0A816B906C1F480914E0290914F029E
:104DA000019690934F0280934E02B6010E94FF3508
:104DB000892B81F08091550490915604029690932E
:104DC00056048093550406C0C093500210935604B5
:104DD0000093550420911D04C530B9F4809120043E
:104DE00090912104222329F045E063E00E94C51040
:104DF00009C060E0009721F480912404909125047B
:104E00000E94A40B1092620476C0C33031F0C4300B
:104E100031F0C23031F464E005C061E003C062E00B
:104E200001C060E0222369F0809162048F5F80936B
:104E300062044C2F80912004909121040E94C5109F
:104E40005AC08FEF860F823018F0643009F053C0DB
:104E50002091220430912304F9017196E491E150EC
:104E6000643081F5109221041092200480912A046C
:104E700090912B04009781F480912804909129044B
:104E8000009769F48091260490912704009709F413
:104E9000E5C320E030E005C022E030E002C021E0C0
:104EA00030E0220F331FF901EA5DFB4F11821082BF
:104EB00090932304809322041092400461E00E94A6
:104EC000A40B19C080914004613011F091E001C041
:104ED0009FEF682F690FE61730F481E06F3F09F00C
:104EE00080E0682F61956F3F09F46E2F6093400456
:104EF000C9010E943922809143028130B9F5809125
:104F00003F0290914002A0914102B0914202892B50
:104F10008A2B8B2BF1F480913B0290913C02A09163
:104F20003D02B0913E02892B8A2B8B2B91F420916C
:104F30006103309162034091630350916403609177
:104F400065037091660380916703909168030E94E6
:104F5000841F85E495E00E946C0E811109C081E0F8
:104F600095E00E946C0E811103C08DC310926A02FD
:104F700080916A02C1E0823009F0C0E0C0932A0249
:104F80009091390361E0992319F0813019F403C03D
:104F9000813009F460E083E00E945A108091290278
:104FA000837021F0C1E0823009F0C0E080913A03C3
:104FB0006C2F811101C06D2784E00E945A100E945D
:104FC0008915B6CD8933E9F488EE94E00E94A908EA
:104FD00010921C04F0924702E092460210924502A1
:104FE000109244021092250210922602109227027B
:104FF000109228021092240288EE94E00E94B108D8
:10500000ECCD85E694E00E945A07C82F882309F466
:1050100041C08091250290912602A0912702B09173
:105020002802892B8A2B8B2B51F40E9477236093C3
:1050300025027093260280932702909328020E94F3
:1050400077238090250290902602A0902702B090AE
:105050002802DC01CB0188199909AA09BB09883704
:105060009105A105B10538F080912402811103C09A
:10507000C093240201C0C0E00E947723DC01CB0171
:1050800088199909AA09BB0989359240A105B1057A
:1050900058F008C0109225021092260210922702A2
:1050A00010922802109224028091460290914702A9
:1050B000059709F0C0C0C33409F053C00E94661CB4
:1050C00010925105109252051092530510925405FA
:1050D00010925505109256051092570510925805DA
:1050E0001092790510927A0510927B0510927C053A
:1050F0001092690510926A0510926B0510926C056A
:105100001092590510925A0510925B0510925C0599
:1051100010920D0510920E0510920F0510921005B9
:105120001092110510921205109213051092140599
:1051300010923505109236051092370510923805F9
:105140001092250510922605109227051092280529
:105150001092150510921605109217051092180559
:105160005FC0C13469F50E94661C80915105909121
:105170005205A0915305B091540580936503909317
:105180006603A0936703B093680380910D05909127
:105190000E05A0910F05B0911005809361039093C7
:1051A0006203A0936303B093640365E673E080E158
:1051B00090E00E949E0861E673E084E190E02EC0DA
:1051C000C234A9F50E94661C809151059091520548
:1051D000A0915305B091540580935D0390935E03B5
:1051E000A0935F03B093600380910D0590910E052D
:1051F000A0910F05B09110058093590390935A0325
:10520000A0935B03B0935C036DE573E088E190E0ED
:105210000E949E0869E573E08CE190E00E949E0880
:105220001092470210924602D0931C0404C0C3326D
:10523000B9F3CA32A9F380914602909147020697CA
:1052400009F049C00E94772380904802909049025B
:10525000A0904A02B0904B02DC01CB018819990959
:10526000AA09BB09853F9140A105B10550F10E94F3
:105270007723609348027093490280934A02909387
:105280004B0260E080E00E94B921409151055091AD
:105290005205609153057091540588EE94E00E9488
:1052A000230F60E088E00E94B92140910D055091E4
:1052B0000E0560910F057091100588EE94E00E9434
:1052C000230FC33211F0CA3231F410924702109208
:1052D0004602D0931C0480914602909147020397A6
:1052E00009F07BCC8091440290914502C13411F4C5
:1052F000019703C0C23429F401969093450280932C
:105300004402A0904402B0904502B7FE02C0A12C16
:10531000B12C85E0A816B1041CF064E0A62EB12CD7
:10532000B0924502A09244020E9477234090480226
:105330005090490260904A0270904B02DC01CB0110
:1053400084199509A609B709853F9140A105B105C2
:1053500008F443CC0E94772360934802709349027B
:1053600080934A0290934B02AB2809F074C060E02E
:1053700080E00E94B92180914302811103C063EE55
:1053800071E05BC09FEF980F923008F052C08230FE
:1053900019F465ED71E002C066EC71E088EE94E00E
:1053A0000E944C180E945C1C61E080E00E94B921C0
:1053B00040913F025091400260914102709142023F
:1053C00088EE94E00E94230F6FE288EE94E00E9442
:1053D000FA0340913702509138026091390270917E
:1053E0003A0288EE94E00E94230F0E945C1C61E068
:1053F00088E00E94B92140913B0250913C026091AB
:105400003D0270913E0288EE94E00E94230F6FE20D
:1054100088EE94E00E94FA0340912B0250912C02F6
:1054200060912D0270912E0288EE94E00E94230F6D
:1054300010C0833081F468EB71E088EE94E00E9444
:105440004C180E945C1C61E080E00E94B9210E941F
:105450005C1C0E945C1C8091440290914502019763
:10546000A1F560E080E00E94B92165EB71E088EE73
:1054700094E00E944C184091510550915205609162
:1054800053057091540588EE94E00E94230F0E940A
:105490005C1C0E945C1C61E080E00E94B92162EB10
:1054A00071E088EE94E00E944C1840910D055091F7
:1054B0000E0560910F057091100588EE94E00E9432
:1054C000230F0E945C1C0E945C1C809144029091FE
:1054D0004502029709F04CC060E080E00E94B921CB
:1054E0006AEA71E088EE94E00E944C1860915105E0
:1054F0007091520580915305909154052091250398
:105500003091260340912703509128030E9435369D
:10551000BA01A90188EE94E00E94230F0E945C1C4E
:105520000E945C1C61E080E00E94B92162EA71E0A7
:1055300088EE94E00E944C1860910D0570910E0564
:1055400080910F0590911005209121033091220345
:1055500040912303509124030E943536BA01A901DA
:1055600088EE94E00E94230F0E945C1C0E945C1C49
:1055700080914402909145020397A1F560E080E09C
:105580000E94B9216AE971E088EE94E00E944C180B
:1055900040916503509166036091670370916803C1
:1055A00088EE94E00E94230F0E945C1C0E945C1C09
:1055B00061E080E00E94B92162E971E088EE94E048
:1055C0000E944C1840916103509162036091630303
:1055D0007091640388EE94E00E94230F0E945C1C8B
:1055E0000E945C1C8091440290914502049709F04E
:1055F000F4CA60E080E00E94B9216AE871E088EEB8
:1056000094E00E944C1840915D0350915E036091BC
:105610005F037091600388EE94E00E94230F0E9464
:105620005C1C0E945C1C61E080E00E94B92162E881
:1056300071E088EE94E00E944C184091590350911B
:105640005A0360915B0370915C0388EE94E00E94C2
:10565000230F0E945C1C0E945C1CBFCA8091240422
:105660009091250490932304809322041092400487
:1056700010921E04E0914304F0914404309709F421
:105680003ACC099538CC80916A02811130C00E94D1
:105690007723609366027093670280936802909309
:1056A0006902D0936A026CEA71E08DE693E00E9491
:1056B0008518609151057091520580915305909124
:1056C00054050E94A40F60EB71E08DE693E00E9408
:1056D000851860910D0570910E0580910F059091D0
:1056E00010050E94A40F84EB91E00E941E100E94FE
:1056F00077238090660290906702A0906802B09035
:105700006902AB01BC01481959096A097B098091FA
:10571000430390914403A0E0B0E0481759076A079B
:105720007B0708F425CC80916A02813071F50E94D4
:105730007723609362027093630280936402909374
:10574000650230926A026CEB71E08DE693E00E9494
:10575000851840913F025091400260914102709142
:1057600042028DE693E00E94230F63EC71E08DE628
:1057700093E00E94851860913B0270913C028091F9
:105780003D0290913E020E94A40F0E9477238090D8
:10579000620290906302A0906402B0906502AB0137
:1057A000BC01481959096A097B098091410390910C
:1057B0004203A0E0B0E0481759076A077B0708F4E6
:1057C000D7CB80916A02823089F40E94772360935C
:1057D0005E0270935F02809360029093610283E0A7
:1057E00080936A0287EC91E00E941E100E9477234A
:1057F00080905E0290905F02A0906002B090610283
:10580000AB01BC01481959096A097B0980913F0322
:1058100090914003A0E0B0E0481759076A077B0762
:1058200008F4A6CB10926A0280ED91E00E941E104F
:105830008091490390914A03A0914B03B0914C038E
:105840000097A105B10509F081C080913F029091B8
:105850004002A0914102B09142029C01AD012F5F34
:105860003F4F4F4F5F4F20933F0230934002409392
:1058700041025093420280903B0290903C02A090E3
:105880003D02B0903E028FEF881A980AA80AB80A23
:1058900080923B0290923C02A0923D02B0923E0266
:1058A0008091370290913802A0913902B0913A026A
:1058B000281739074A075B07D4F083E08093430237
:1058C00010923F0210924002109241021092420246
:1058D00010923B0210923C0210923D0210923E0246
:1058E000812C912C5401412C512C3201AEC060917D
:1058F00033027091340280913502909136020E94F9
:10590000EF35409065035090660360906703709098
:105910006803460E571E681E791E60912F02709113
:1059200030028091310290913202A50194010E94CF
:10593000EF358090610390906203A0906303B09074
:105940006403860E971EA81EB91EAEC0181619064F
:105950001A061B060CF0D8C080913F0290914002BD
:10596000A0914102B09142020196A11DB11D809308
:105970003F0290934002A0934102B09342024091B3
:105980003702509138026091390270913A028417BF
:105990009507A607B707DCF010923F02109240026D
:1059A000109241021092420280913B0290913C027F
:1059B000A0913D02B0913E020196A11DB11D8093C0
:1059C0003B0290933C02A0933D02B0933E02209193
:1059D0003302309134024091350250913602609189
:1059E0003F027091400280914102909142020E94D8
:1059F000EF358090650390906603A0906703B090A8
:105A000068032B013C01480C591C6A1C7B1C20912B
:105A10002F02309130024091310250913202609158
:105A20003B0270913C0280913D0290913E020E94A7
:105A3000EF358090610390906203A0906303B09073
:105A40006403860E971EA81EB91E40913F02509116
:105A50004002609141027091420280913702909120
:105A60003802A0913902B0913A02481759076A07E3
:105A70007B07D4F083E08093430210923F021092A0
:105A80004002109241021092420210923B02109288
:105A90003C0210923D0210923E02812C912C540146
:105AA000412C512C320115C040913B0250913C02D7
:105AB00060913D0270913E0280912B0290912C02E8
:105AC000A0912D02B0912E02481759076A077B0753
:105AD0008CF6A5019401C301B2010E94841F69EDF7
