:100000000C948D030C94B5030C94B5030C94B503B8
:100010000C94B5030C94B5030C94B5030C94B50380
:100020000C94B5030C94B5030C94B5030C94B50370
:100030000C94B5030C94B5030C94B5030C94B50360
:100040000C943D200C94B5030C9498170C947217E3
:100050000C94B5030C94B5030C94B5030C94B50340
:100060000C9430040C94B503B314B914BF14C51424
:10007000CB14D114D71408160F1616161D162416F5
:100080003B162B163B16321600407A10F35A00A08E
:10009000724E18090010A5D4E80000E87648170051
:1000A00000E40B54020000CA9A3B000000E1F50591
:1000B000000080969800000040420F000000A086DB
:1000C00001000000102700000000E803000000000D
:1000D0006400000000000A000000000001000000B1
:1000E00000002C76D888DC674F0823DFC1DFAE59CB
:1000F000E1B1B796E5E3E453C63AE651997696E85E
:10010000E6C28426EB898C9B62ED407C6FFCEFBCE1
:100110009C9F40F2BAA56FA5F490055A2AF75C930C
:100120006B6CF9676DC11BFCE0E40D47FEF520E642
:10013000B500D0ED902E0300943577050080841E25
:10014000080000204E0A000000C80C333333330F80
:10015000986E12831141EF8D2114893BE65516CF1D
:10016000FEE6DB18D1844B381BF77C1D901DA4BB29
:10017000E424203284725E228100C9F124ECA1E5DE
:100180003D2752315B73745D3A004C315B73745D93
:100190003A0052305B73745D3A004C305B73745DAF
:1001A0003A00525B6465675D3A004C5B6465675D6D
:1001B0003A00523A004C3A004D4F56494E472044BF
:1001C0004F4E45004D4F56494E472052554E4E49D1
:1001D0004E47004D4F56494E4720504155534544D8
:1001E000004D4F56494E472053544F505045440000
:1001F000454D2053544F5020524553455400454DD2
:10020000455247454E43592053544F50004F4B00E1
:100210005E324C355F203C3452363E2020302D5328
:10022000005A5B435D20535B415D20465B425D208D
:1002300023455343002020202020202020000000C0
:100240000000250028002B000000000023002600ED
:100250002900040404040404040402020202020249
:10026000030303030303010204081020408001027A
:1002700004081020010204081020000000080002F9
:100280000100000304070000000000000000024F0E
:100290004E21000000000000000000000000014F9F
:1002A0004646210000000000000000000000004160
:1002B00055544F2100000000000000000000AE0275
:1002C0009E028E02FC0203BE02030000000000003A
:1002D0000000FD02500003000000000000000001CB
:1002E000034C00030000000000000000050348006C
:1002F00003000000000000000009034400030000A8
:100300000000000000000D0340000300000000009A
:1003100000000011033C0009000000000000000084
:10032000C4020400000100000000000000150334B6
:100330000000010000000000000016036100000141
:100340000000000000000017033000000100000062
:100350000000000018036000000100000000000021
:100360000019032C000200000000000000001A0326
:1003700028000200000000000000001C032400020E
:1003800000000000000000001E0320000300000029
:10039000000000000020031C00030000000000001B
:1003A00000002403180003000000000000000028E3
:1003B0000314000300000000000000002C031000E4
:1003C00002000000000000000030030C00020000EA
:1003D00000000000000032030800030000000000DD
:1003E00000000034035C0003000000000000000077
:1003F000380358000300000000000000003C0354D4
:1004000000040000000000000000400338005245D6
:100410005345542044454641554C54532100020055
:10042000CE0A52205343414C455B73742F64656779
:100430005D000100C9024C205343414C455B73747D
:100440002F6465675D000100D60252204D41585B64
:1004500073746570735D000000000100E3024C20BE
:100460004D41585B73746570735D000000000100BE
:10047000F00252204D494E5B73746570735D00004D
:1004800000000100FD024C204D494E5B7374657005
:10049000735D0000000001000A0353484F54204FD1
:1004A00055545055540000000000010017035348F4
:1004B0004F5420494E56455253494F4E00000100BB
:1004C00024035220454E4120494E560000000000B2
:1004D000000001003103522044495220494E560089
:1004E00000000000000001003E034C20454E41206A
:1004F000494E560000000000000001004B034C2054
:1005000044495220494E56000000000000000100FE
:100510005803504F53542053484F5420545B6D732D
:100520005D000100650353484F542054494D455B1D
:100530006D735D0000000100720350524520534866
:100540004F5420545B6D735D000001007F035231F6
:100550005B73746570735D000000000000000100B3
:100560008C034C315B73746570735D000000000098
:1005700000000100990352305B73746570735D0075
:100580000000000000000100A6034C305B7374659E
:1005900070735D000000000000000100B3034143E0
:1005A00043454C5B73742F73325D00000000010003
:1005B000C0034D41582053504545445B73742F731D
:1005C0005D000100CD0352204E4558545B737465A5
:1005D00070735D0000000100DA034C204E45585452
:1005E0005B73746570735D0000000100E703535492
:1005F0004F505320325B2D5D0000000000000100D1
:10060000F40353544F50535B2D5D00000000000075
:100610000000010001040206EE05DA05C605B20578
:100620009E058A05760562054E053A0526051205E2
:10063000FE04EA04D604C204AE049A0486047204DA
:100640005E044A04360422040E04474F544F2046E9
:10065000494E414C20504F5321000200F205474FB4
:10066000544F20535441525420504F532100020004
:10067000060653455454494E47532D3E0000000092
:100680000000001A160643414C4942524154494F5A
:100690004E00000000000200D503474F544F205A7F
:1006A00045524F20504F532100000200E8054D4FA6
:1006B00056452053544F5021000000000000020016
:1006C000B5054D4F5645205354415254210000006A
:1006D00000000200AF054D4F56452050415553458F
:1006E0002100000000000200CC05D606C206AE06BE
:1006F0009A06860672065E064A06524F4F5400005E
:10070000000000000000000000000008EA060000F1
:100710000000240027002A00372B11241FBECFEF32
:10072000D8E0DEBFCDBF25E0A2E1B2E001C01D925E
:10073000AD36B207E1F712E0A0E0B1E0ECEBF7E68E
:1007400002C005900D92A231B107D9F713E0CDE8B0
:10075000D3E004C02197FE010E94CA33CC38D107F0
:10076000C9F70E9487200C94DC330C94000085EDBF
:100770008093BC008091BC0084FDFCCF1092B90234
:10078000089583EC94E00E94381B64E971E083ECE7
:1007900094E00E94701761E080E00E940E1E61EA02
:1007A00071E083EC94E00C94701783EC94E00E9469
:1007B000301B1092F70385E090E090932402809321
:1007C000230281E090E09093220280932102109214
:1007D0001302109214021092150210921602109237
:1007E000120283EC94E00E94381B60E080E00E94DB
:1007F0000E1E81E292E00E94CD0B61E080E00E943B
:100800000E1E80E192E00C94CD0BEF92FF920F93BD
:100810001F93CF93DF938C01D62FC42F790183ECE4
:1008200094E00E94301B6D2F8C2F0E940E1EE80159
:10083000CE01801B910B8E159F055CF469918FEDA5
:10084000860F8E3508F060E283EC94E00E94371941
:10085000EFCFDF91CF911F910F91FF90EF9008950F
:100860001F920F920FB60F9211242F933F934F9325
:100870005F936F937F938F939F93AF93BF93EF9308
:10088000FF938091B900887F803609F49CC068F599
:10089000883209F45BC090F4803109F454C038F414
:1008A000882309F4F6C0883009F44DC0F6C08831B9
:1008B00009F44CC0803209F45DC0EFC0803409F403
:1008C00068C048F4803309F455C0883309F0E5C0A6
:1008D0008093B702D8C0803509F44FC0883509F439
:1008E0005DC0883409F0D9C0D6C0883909F4C7C0C2
:1008F000A8F4883709F467C038F4883609F463C06F
:10090000803709F460C0C9C0883809F4B8C080399C
:1009100009F45FC0803809F0C0C05BC0803B09F4B7
:1009200086C038F4803A09F466C0883A09F47FC07A
:10093000B4C0803C09F4A7C0883C09F4A4C0883B3B
:1009400009F48AC0AAC08091940210C09091B602A6
:100950008091B502981770F5E091B60281E08E0F94
:100960008093B602F0E0EB56FD4F80818093BB0090
:1009700085EC86C08093B7028EC0E091B60281E01C
:100980008E0F8093B6028091BB00F0E0EB56FD4FD6
:1009900080839091B6028091B5026EC0E091B6025C
:1009A00081E08E0F8093B6028091BB00F0E0EB56A1
:1009B000FD4F80838091B80281116DC081E08093EA
:1009C000930284EA61C083E08093B90210928E02A0
:1009D000CFCF80918E02803208F051C0E0918E021C
:1009E00081E08E0F80938E028091BB00F0E0E2598F
:1009F000FD4F8083BDCF85EC8093BC001092B9027F
:100A000080918E02803230F4E0918E02F0E0E25963
:100A1000FD4F108260918E0270E0E0919102F091A2
:100A200092028EE692E0099510928E0236C084E022
:100A30008093B90210926D0210926C02E0918F02C5
:100A4000F0919002099580916C02811105C081E0BE
:100A500080936C0210924C02E0916D0281E08E0F47
:100A600080936D02F0E0E45BFD4F80818093BB00DA
:100A700090916D0280916C02981708F479CF85E807
:100A80008093BC000AC085EC8093BC001092B90230
:100A900004C01092B7020E94B703FF91EF91BF917B
:100AA000AF919F918F917F916F915F914F913F9106
:100AB0002F910F900FBE0F901F90189540916C02D0
:100AC000262F30E0240F311D21323105DCF4209136
:100AD000B9022430C9F4FC0180E090E0861758F494
:100AE00030916C022191DC01A45BBD4FA30FB11DBD
:100AF0002C930196F3CF80916C02680F60936C0287
:100B000080E0089581E0089582E0089544E00C9427
:100B1000E51ACF93C62F482F50E060E070E083ECD9
:100B200094E00E94D20EC11102C061E405C0C3303E
:100B300010F46DE401C068E583EC94E0CF910C946F
:100B4000541783EC94E00E94381B60E080E00E9420
:100B50000E1E8DE092E00E94CD0B0C94DB0D0E94E6
:100B6000A10581E08093200208950E94A1051092C2
:100B7000170210921C0210921D0210921E02109277
:100B80001F02109218021092190210921A0210926B
:100B90001B021092200208950E94A10582E080931A
:100BA00020020895CF92DF92EF92FF9269017A01BD
:100BB000AB01BC0180E295E00E949E0DB701A60149
:100BC0008CED94E0FF90EF90DF90CF900C949E0D11
:100BD0000E94A10520E030E0A90160E070E0CB01B7
:100BE0000C94D2050E94A10520912003309121038D
:100BF00040912203509123036091240370912503B7
:100C000080912603909127030C94D2050E94A105A0
:100C1000209128033091290340912A0350912B03FE
:100C200060912C0370912D0380912E0390912F03DE
:100C30000C94D205CF92DF92EF92FF92809119032C
:100C4000109228058093290510924E058091170374
:100C50001092E4048093E50410920A056091320337
:100C60007091330380E090E00E946A30AB01BC01D8
:100C700080E295E00E94FA0D60913003709131039B
:100C800080E090E00E946A306B017C0120E030E05F
:100C9000A9010E946530882331F0B701A60180E2E6
:100CA00095E00E94CA17609132037091330380E08F
:100CB00090E00E946A30AB01BC018CED94E00E9490
:100CC000FA0D609130037091310380E090E00E9452
:100CD0006A306B017C0120E030E0A9010E946530A0
:100CE000882351F0B701A6018CED94E0FF90EF90BE
:100CF000DF90CF900C94CA17FF90EF90DF90CF90C9
:100D00000895CF93DF93EC010E94341C8E859F855C
:100D10008130910589F18230910581F1843091050E
:100D200079F1089779F18C859D858130910561F184
:100D30008230910559F18430910551F1089751F1B4
:100D40008A859B858130910539F18230910531F199
:100D50008430910529F1089729F18885998581309A
:100D6000910511F18230910509F18430910501F16D
:100D7000089701F180E01FC08AE21DC087E31BC015
:100D800084E319C081E317C080E315C088E313C072
:100D900085E311C082E30FC083E20DC089E30BC07D
:100DA00086E309C083E307C084E405C083E403C08D
:100DB00082E401C081E4DF91CF9108958091160310
:100DC000882339F08CED94E00E94B50D61E068272E
:100DD00005C08CED94E00E94B50D682F8AE00E945A
:100DE0009E0F409105035091060360910703709197
:100DF00008038091EC049091ED04A091EE04B09171
:100E0000EF04481759076A077B0724F48CED94E038
:100E10000E949E0D40910D0350910E0360910F03AF
:100E2000709110038091EC049091ED04A091EE0478
:100E3000B091EF0484179507A607B70724F48CED4B
:100E400094E00E949E0D8CED94E00C94350D809101
:100E50001803882339F080E295E00E94B50D61E027
:100E6000682705C080E295E00E94B50D682F86E0F6
:100E70000E949E0F4091090350910A0360910B0359
:100E800070910C038091300590913105A09132054D
:100E9000B0913305481759076A077B0724F480E2AD
:100EA00095E00E949E0D40911103509112036091B4
:100EB0001303709114038091300590913105A09136
:100EC0003205B091330584179507A607B70724F4B8
:100ED00080E295E00E949E0D80E295E00C94350D35
:100EE00085E392E00E94CD0B0E9427070C94DE065A
:100EF000CF92DF92EF92FF920F931F93CF93DF93E6
:100F0000EC010E94341C888580FF1CC08A8580FF0C
:100F10000EC083EC94E00E94381B8EEF91E00E949B
:100F2000CD0B10922402109223020E94DB0D8E85BD
:100F300083FF08C083EC94E00E94381B80EF91E0AF
:100F40000E94CD0BCE010E94341C8E859F85049794
:100F500031F58C859D85089711F40E94CC058A8512
:100F60009B85089711F40E94AF058885998508979D
:100F700011F40E94B5058C859D85049719F481E0D4
:100F80008093FC028A859B85049719F482E0809304
:100F9000FC0288859985049711F41092FC028E85D5
:100FA0009F858B7F029739F08091230290912402D4
:100FB000059709F004C18C859D858430910511F554
:100FC00080912C0590912D05A0912E05B0912F05B3
:100FD0004091090350910A0360910B0370910C0337
:100FE0008C019D0109511C4F2F4F3F4F04171507CE
:100FF0002607370754F5AC01BD0148515C4F6F4FD0
:101000007F4F23C0089731F580912C0590912D05D5
:10101000A0912E05B0912F0540911103509112031C
:1010200060911303709114038C019D01075E1340BE
:1010300021093109401751076207730734F4AC01E5
:10104000BD01485E53406109710980E295E00E944C
:101050009E0D2DC080E295E00E94B50D882339F1E8
:1010600040E25CEB6EEB7CE480E295E00E94CA1704
:1010700080E295E00E946C0E0E9427078111FCCF50
:10108000609130037091310380E090E00E946A30FB
:101090006B017C0120E030E0A9010E9465308823CB
:1010A00031F0B701A60180E295E00E94CA178E8553
:1010B0009F858D7F049711F58091E8049091E90454
:1010C000A091EA04B091EB0440910503509106030E
:1010D00060910703709108038C019D0109511C4F19
:1010E0002F4F3F4F041715072607370764F5AC014C
:1010F000BD0148515C4F6F4F7F4F25C08A859B854E
:10110000049731F58091E8049091E904A091EA04F4
:10111000B091EB0440910D0350910E0360910F03C9
:10112000709110038C019D01075E13402109310964
:10113000401751076207730734F4AC01BD01485EE4
:101140005340610971098CED94E00E949E0D2DC001
:101150008CED94E00E94B50D882339F140E25CEB00
:101160006EEB7CE48CED94E00E94CA178CED94E069
:101170000E946C0E0E94DE068111FCCF609130034C
:101180007091310380E090E00E946A306B017C0135
:1011900020E030E0A9010E946530882331F0B701DA
:1011A000A6018CED94E00E94CA178C859D8501975D
:1011B00021F482E08093FC0202C01092FC02888538
:1011C00099858E0101581F4F892B61F48A859B8573
:1011D000892B41F48C859D85892B21F48E859F85F3
:1011E000892BA1F1F80180819181A281B381892BA2
:1011F0008A2B8B2B39F40E943120F8016083718394
:1012000082839383F801C080D180E280F380F4EF81
:10121000CF0EF1E0DF1EE11CF11C0E9431206C15A5
:101220007D058E059F05B8F4F801C080D180E2806D
:10123000F380F8ECCF0ED11CE11CF11C0E94312090
:10124000C616D706E806F90630F410C0F801108279
:10125000118212821382CE01DF91CF911F910F91E3
:10126000FF90EF90DF90CF900C94810680E0DF91AB
:10127000CF911F910F91FF90EF90DF90CF90089545
:10128000835B9F4FFC01808191810E9478078134AC
:1012900061F0823469F0843471F0833279F08A32FB
:1012A00081F0082E000C990B089583E090E00895DA
:1012B00084E090E0089581E090E0089582E090E07D
:1012C000089585E090E00895CF93DF931F92CDB706
:1012D000DEB769830B96FC0185919491009731F0FC
:1012E00041E0BE016F5F7F4F0E94031B0F90DF91B3
:1012F000CF9108951092FC0280EA9FE0909333030F
:101300008093320384E690E090933103809330031E
:1013100082E090E0A0E0B0E080934003909341032E
:10132000A0934203B093430388EB9BE090931F0389
:1013300080931E0384EF91E090931D0380931C0320
:101340008CED95E090931B0380931A0388EE93E055
:10135000A0E0B0E080932C0390932D03A0932E0384
:10136000B0932F038093280390932903A0932A031B
:10137000B0932B0388E19CEFAFEFBFEF8093240382
:1013800090932503A0932603B09327038093200313
:1013900090932103A0932203B09323031092190387
:1013A00081E0809317031092150380EF98EDAFEF63
:1013B000BFEF8093110390931203A0931303B09394
:1013C000140380930D0390930E03A0930F03B09327
:1013D000100380E197E2A0E0B0E0809309039093CE
:1013E0000A03A0930B03B0930C038093050390931F
:1013F0000603A0930703B09308038AE090E0A0E0FF
:10140000B0E08093010390930203A0930303B09391
:1014100004038093FD029093FE02A093FF02B09319
:10142000000310923C0310923D0310923E03109271
:101430003F0384E690E0A0E0B0E08093380390930F
:101440003903A0933A03B0933B0380933403909302
:101450003503A0933603B093370341E06CEF72E09D
:1014600084E090E00E94031B42E062E373E088E0C6
:1014700090E00E94031B42E060E373E08CE090E0A8
:101480000E94031B60E473E088E390E00E94251B48
:1014900042E06EE173E080E290E00E94031B42E0D4
:1014A0006CE173E084E290E00E94031B42E06AE199
:1014B00073E088E290E00E94031B6CE273E080E13D
:1014C00090E00E94251B68E273E084E190E00E94B6
:1014D000251B64E273E088E190E00E94251B60E236
:1014E00073E08CE190E00E94251B41E069E173E02C
:1014F0008CE290E00E94031B41E067E173E080E32F
:1015000090E00E94031B41E065E173E084E390E01A
:101510000E94031B61E173E08CE390E00E94251BB5
:101520006DE073E080E490E00E94251B69E073E0C9
:1015300084E490E00E94251B65E073E088E490E07D
:101540000E94251B61E073E08CE490E00E94251B63
:101550006DEF72E080E590E00E94251B41E068E1BC
:1015600073E080E690E00E94031B41E066E173E0D7
:1015700081E690E00E94031B6CE373E084E590E059
:101580000E94251B68E373E088E590E00E94251B1C
:1015900064E373E08CE590E00C94251B0E947A09CB
:1015A0000C94A1050F931F93CF93DF93EC01FC01E3
:1015B00070961491113009F098C01093F80340E12F
:1015C00050E0BC0180E294E00E94C42D20E130E0B4
:1015D00040E050E060E070E080E294E00E94861E0F
:1015E000FE01729685919491FC0164913996A591C2
:1015F000B491611104C08C91809332046FC08FEF5D
:10160000860F823040F48D919C911197909338040D
:101610008093370463C08DEF860F823070F40D9194
:101620001D912D913C911397009333041093340432
:10163000209335043093360451C0693031F5FD01F3
:101640003396C591D491FD0185919491FC018081DF
:10165000FD013296A4919E0160E090E0A91761F02F
:10166000F90145915491FA014491841301C0692F05
:101670009F5F2E5F3F4FF2CF60933204CE01DF9128
:10168000CF911F910F910C94561F6A30D1F4FD0138
:101690003196C591D491FD01A491888190E002C05A
:1016A00095958795AA95E2F780FF03C010933204C1
:1016B00002C010923204DF91CF911F910F910C94D0
:1016C000811F0D911D912D913C9113970093390429
:1016D00010933A0420933B0430933C04CD01DF91F6
:1016E000CF911F910F910C94EF1E111134C0611115
:1016F0002EC02091FD033091FE038217930739F12C
:101700008091010490910204892B79F08091030467
:1017100090910404892B61F0809105049091060456
:10172000892B79F482E090E005C080E090E002C06F
:1017300081E090E0880F991FFC01EF5FFB4F318340
:101740002083D093FE03C093FD0310921B0460918D
:101750001B04CE0114C01230D9F4FC01729685919D
:101760009491009711F0FC0109958091F70388236B
:1017700061F060911B048091FD039091FE03DF9165
:10178000CF911F910F910C948E1E81E08093FA03EC
:10179000DF91CF911F910F9108950F931F93CF93D6
:1017A000DF938C01C0E0D0E0F801EC0FFD1F6491E5
:1017B000662341F083EC94E00E943719892B11F0E5
:1017C0002196F2CFCE01DF91CF911F910F91089515
:1017D0004F925F926F927F928F929F92AF92BF9241
:1017E000CF92DF92EF92FF920F931F93CF93DF93ED
:1017F000EC01C888D988EA88FB888C859D85AE85F0
:10180000BF85C81AD90AEA0AFB0A6C897D898E89C4
:101810009F899B01AC010E94CB304B015C016C8D18
:101820007D8D8E8D9F8D9B01AC010E94F1319B01BE
:10183000AC01C501B4010E945D320E94CF32C114D7
:10184000D104E104F10499F4623071058105910538
:101850000CF076C01CA21DA21EA21FA21C8A1D8A0B
:101860001E8A1F8A1CAA1DAA1EAA1FAAEDC00CA9A7
:101870001DA92EA93FA91C141D041E041F04FCF45D
:1018800010161106120613064CF46C157D058E0514
:101890009F054CF52A81211153C025C00115110562
:1018A0002105310509F44CC06C157D058E059F0599
:1018B0000CF046C08A81882309F442C036C0101655
:1018C000110612061306ECF40027112798010C19D3
:1018D0001D092E093F0960177107820793071CF441
:1018E0002A81222369F19B01AC0188279927DC0119
:1018F000821B930BA40BB50B8CAB9DABAEABBFABFC
:101900001FC00115110521053105D1F08824992446
:1019100054018C189D08AE08BF08681579058A0522
:101920009B0574F48A8181110BC030952095109528
:1019300001951F4F2F4F3F4F0CAB1DAB2EAB3FAB55
:101940008CA89DA8AEA8BFA881149104A104B104DD
:1019500089F488AD99ADAAADBBAD8CAF9DAFAEAFEC
:10196000BFAF81E01C141D041E041F040CF080E0B6
:101970008A833FC0CCACDDACEEACFFACA7019601D6
:10198000C701B6010E94F1312B013C01C501B40130
:101990000E946C3020E030E040E850E40E94CB3000
:1019A00020E030E040E85FE30E94F1319B01AC01B0
:1019B000C301B2010E945D329B01AC01C701B601B7
:1019C0000E94F0313B016C01FE01E05CFF4FE080C2
:1019D000F180028113819701A8010E940533181636
:1019E00014F473018601C701D8018CAF9DAFAEAF6F
:1019F000BFAF3FEF831A930AA30AB30A8CAA9DAA2A
:101A0000AEAABFAACCACDDACEEACFFACC701B60150
:101A10000E94D6326CA37DA38EA39FA3A70196013B
:101A200060E074E284E799E40E945D326C8B7D8B08
:101A30008E8B9F8B2A81211107C0DC01CB01B0580E
:101A40008C8B9D8BAE8BBF8BDF91CF911F910F91B4
:101A5000FF90EF90DF90CF90BF90AF909F908F90CE
:101A60007F906F905F904F900895CF92DF92EF92AA
:101A7000FF92CF93DF93EC018CA19DA1AEA1BFA1FA
:101A8000892B8A2B8B2BB9F10E940C206B017C01D6
:101A900088A599A5AAA5BBA5B701A601481B590B06
:101AA0006A0B7B0B8CA19DA1AEA1BFA14817590762
:101AB0006A077B0700F12A818C859D85AE85BF85ED
:101AC000222321F00196A11DB11D03C00197A10998
:101AD000B1098C879D87AE87BF874C855D856E85F4
:101AE0007F85CE010E94F915C8A6D9A6EAA6FBA655
:101AF000CE010E94E80B20E030E0A9016C897D89CD
:101B00008E899F890E946530811110C081E0C8884C
:101B1000D988EA88FB884C855D856E857F85C416EB
:101B2000D506E606F70619F480E001C081E0DF91F2
:101B3000CF91FF90EF90DF90CF9008950F931F9378
:101B4000FC010089118922893389041715072607AA
:101B5000370741F0408B518B628B738B1F910F9134
:101B60000C94E80B1F910F9108950F931F93CF933F
:101B7000DF93EC0120E030E0A9016C897D898E893A
:101B80009F890E946530811110C081E00889198900
:101B90002A893B894C855D856E857F8504171507ED
:101BA0002607370719F480E001C081E0DF91CF916B
:101BB0001F910F910895CF92DF92EF92FF920E94B2
:101BC00031206B017C010E943120DC01CB018C199A
:101BD0009D09AE09BF09843F9140A105B10528F4D4
:101BE0000E9427070E94DE06EECFFF90EF90DF9065
:101BF000CF900895CF92DF92EF92FF920F931F93B1
:101C0000CF93DF93EC016A017B0120E030E0A90172
:101C1000C701B6010E94653087FF04C0F7FAF0944F
:101C2000F7F8F094A7019601688D798D8A8D9B8DC8
:101C30000E946530882309F446C0C88ED98EEA8E8A
:101C4000FB8E8E01005C1F4FA701960160E074E2DD
:101C500084E799E40E945D32F80160837183828396
:101C600093838CA99DA9AEA9BFA9181619061A06B7
:101C70001B064CF56C897D898E899F899B01AC017F
:101C80000E94CB306B017C016C8D7D8D8E8D9F8D84
:101C90009B01AC010E94F1319B01AC01C701B6016F
:101CA0000E945D320E94CF326CAB7DAB8EAB9FAB9E
:101CB000CE01DF91CF911F910F91FF90EF90DF90B8
:101CC000CF900C94E80BDF91CF911F910F91FF9073
:101CD000EF90DF90CF9008958F929F92AF92BF9236
:101CE000CF92DF92EF92FF92CF93DF93EC018C883B
:101CF0009D88AE88BF8820E030E0A901C501B4010D
:101D00000E946530882309F442C0A5019401C501F1
:101D1000B4010E94CB306B017C016C8D7D8D8E8D6A
:101D20009F8D9B01AC010E94F1319B01AC01C70169
:101D3000B6010E945D320E94CF326B017C012FEF11
:101D4000C21AD20AE20AF20A20E030E0A901C50173
:101D5000B4010E9405334C855D856E857F8518161C
:101D60002CF44C0D5D1D6E1D7F1D04C04C195D09CA
:101D70006E097F09CE01DF91CF91FF90EF90DF9048
:101D8000CF90BF90AF909F908F900C949E0DDF915D
:101D9000CF91FF90EF90DF90CF90BF90AF909F904A
:101DA0008F9008954F925F926F927F928F929F9241
:101DB000AF92BF92CF92DF92EF92FF920F931F9359
:101DC000CF93DF93CDB7DEB7A1970FB6F894DEBF00
:101DD0000FBECDBF8C016A017B0177FF2AC06DE287
:101DE0000E9454175C0122273327A9012C193D09B1
:101DF0004E095F0919A2CE0181967C019AE0492E15
:101E0000512C612C712CCA01B901A30192010E94CD
:101E10008933605DF70162937F012115310541052A
:101E2000510589F7BF01C8010E945B178A0D9B1DF0
:101E30001EC09A01AB0119A2CE0181967C018AE0F5
:101E4000882E912CA12CB12CCA01B901A5019401B5
:101E50000E948933605DF70162937F01211531058E
:101E60004105510589F7BF01C8010E945B17A19682
:101E70000FB6F894DEBF0FBECDBFDF91CF911F919B
:101E80000F91FF90EF90DF90CF90BF90AF909F9019
:101E90008F907F906F905F904F900895CF93DF93D6
:101EA000AB01BC0188E493E00E94D20EEC0169E032
:101EB00072E088E493E00E945B178C0F9D1FDF9116
:101EC000CF910895CF93DF93BC0188E493E00E9403
:101ED0005B17EC0169E072E088E493E00E945B1715
:101EE0008C0F9D1FDF91CF910895CF93DF93282F03
:101EF00030E0F901E658FD4F8491F901EA59FD4FB0
:101F0000D491F901EE5AFD4FC491CC2391F0811187
:101F10000E94A71FEC2FF0E0EE0FFF1FE85BFD4FC4
:101F2000A591B491EC91ED2381E090E021F480E063
:101F300002C080E090E0DF91CF9108951F93CF938E
:101F4000DF93282F30E0F901E658FD4F8491F90125
:101F5000EA59FD4FD491F901EE5AFD4FC491CC23BB
:101F6000C1F0162F81110E94A71FEC2FF0E0EE0F99
:101F7000FF1FE25CFD4FA591B4919FB7F89411113A
:101F800004C08C91D095D82302C0EC91DE2BDC9359
:101F90009FBFDF91CF911F9108952F923F924F9253
:101FA0005F926F927F928F929F92AF92BF92CF92E9
:101FB000DF92EF92FF920F931F93CF93DF93CDB7F2
:101FC000DEB764970FB6F894DEBF0FBECDBF042F07
:101FD0004296FC0185919491FC0114913596C5902F
:101FE000D590E590F490FC0131962591359145917D
:101FF0005491298B3A8B4B8B5C8B643009F46DC305
:10200000633008F097C2193029F5FC013996259103
:102010003491F90132969491319625913491EFEFF4
:10202000E90F90913204613039F0911103C0E093CF
:1020300032040AC0915006C0E91303C01092320462
:1020400003C09F5F9093320460913204C9010E94E3
:10205000561F4CC31A3059F481E0909132049130EC
:1020600009F480E0809332040E94811F3FC36130F5
:1020700019F08FEF9FEF02C081E090E020913004D3
:1020800030913104829F5001839FB00C929FB00C1D
:102090001124B5010B2C000C880B990B0E946C309D
:1020A000163029F420E030E040E251E40DC0173052
:1020B00029F420E030E048EC52E406C0183031F456
:1020C00020E030E04AE754E40E945D3249885A88B3
:1020D0006B887C882DEF200F2230B8F410923D04DD
:1020E0009B01AC016091390470913A0480913B04EA
:1020F00090913C040E94F1316093390470933A044A
:1021000080933B0490933C0458C00334B9F410927C
:10211000390410923A0410923B0410923C0410923D
:102120003304109234041092350410923604109245
:10213000380410923704109232043AC00130D9F5B5
:10214000809132048195809332048091370490917C
:1021500038049195819591099093380480933704C0
:102160008091330490913404A0913504B0913604E9
:10217000B095A095909581959F4FAF4FBF4F80939D
:10218000330490933404A0933504B09336048091C3
:10219000390490913A04A0913B04B0913C04B058AA
:1021A0008093390490933A04A0933B04B0933C0489
:1021B000A12CB12CC8C0A12CB12C00530A3008F0BE
:1021C000C2C080913D04823008F442C08091320444
:1021D000880F982F990F990F890F809332042091BF
:1021E0003704309138044AE0429FC001439F900D6C
:1021F0001124909338048093370420913304309154
:1022000034044091350450913604AAE0B0E00E94B5
:102210009F3160933304709334048093350490931A
:10222000360420E030E040E251E4609139047091DE
:102230003A0480913B0490913C040E94CB3060931F
:10224000390470933A0480933B0490933C0418C083
:102250008130B1F41092330410923404109235049A
:1022600010923604109238041092370410923204FF
:102270001092390410923A0410923B0410923C04DC
:1022800080913204800F80933204809137049091C2
:102290003804800F911D9093380480933704809107
:1022A000330490913404A0913504B0913604800F2A
:1022B000911DA11DB11D8093330490933404A0930C
:1022C0003504B0933604163061F4602F000F770B9D
:1022D000880B990B0E946C3020E030E040E251E422
:1022E0000DC0173011F5602F000F770B880B990B7D
:1022F0000E946C3020E030E048EC52E40E945D32F5
:102300009B01AC016091390470913A0480913B04C7
:1023100090913C040E94F1316093390470933A0427
:1023200080933B0490933C04B9C0183061F4602F53
:10233000000F770B880B990B0E946C3020E030E087
:102340004AE754E4DBCF111126C0809132048A0D94
:10235000C114D104E104F10441F4411451046104B5
:10236000710419F48093320413C090E0A0E0B0E04F
:10237000481659066A067B0644F0C816D906EA06CE
:10238000FB0624F46C017D0101C0C988C0923204AF
:1023900082E394E0CBC0113011F0123089F58091C6
:1023A0003704909138048A0D9B1DC114D104E104B7
:1023B000F10451F4411451046104710429F490931F
:1023C0003804809337040FC0092E000CAA0BBB0BF6
:1023D000481659066A067B064CF499898A899093B7
:1023E00037048093380487E394E0A0C0C816D90668
:1023F000EA06FB0614F46C017D019C2D8D2DEFCFB8
:10240000133069F4A501BB0C660B770B8091330484
:1024100090913404A0913504B09136040EC014306C
:10242000E9F5C501BB0CAA0BBB0B409133045091DD
:1024300034046091350470913604840F951FA61FF3
:10244000B71FC114D104E104F10471F44114510423
:102450006104710449F48093330490933404A0938D
:102460003504B09336040FC0481659066A067B0639
:102470006CF473016201C0923304D0923404E09290
:102480003504F092360483E394E050C0C816D906B0
:10249000EA06FB0684F76C017D01EDCFC114D1047F
:1024A000E104F10429F44114510461047104E1F1DF
:1024B0002090390430903A0480903B0490903C0482
:1024C000C301B2010E946C30762EA72EB82E092FC0
:1024D000262F372F482F592FB101C4010E940533F1
:1024E0001816B4F0C701B6010E946C30762EA72EE4
:1024F000B82E092F262F372F482F592FB101C4018D
:102500000E94653087FD04C0722CA32CB82C092DC5
:10251000872D9A2DAB2DB02F8093390490933A04D8
:10252000A0933B04B0933C0489E394E0612F0E94A4
:10253000EF1EDCC0633009F0D9C0FC013996A591CB
:10254000B491193099F4FD0133962591349140915D
:102550003204F901E40FF11DE40FF11D659174914E
:10256000FB016491FD01A591B4912AC01A3021F5B7
:10257000FD01319665917491FD01A4912091320481
:10258000FB01B081222349F041E050E001C0440F3B
:10259000AA95EAF74B2B40830AC021E030E001C046
:1025A000220FAA95EAF720952B23FB012083FB013C
:1025B00060810E94640991C0111104C060913204CD
:1025C0006C93F7CF1230A1F4209137043091380486
:1025D0002D933C93388B2F87FC013B9685919491EA
:1025E000009709F47AC042E0BE01615F7F4F15C0D9
:1025F0001130B1F420913704309138042D933C937D
:102600003E872D87FC013B9685919491009709F4B4
:1026100064C042E0BE01635F7F4F0E94031B5DC048
:102620001430F1F440913304509134046091350436
:10263000709136044D935D936D937C931397498706
:102640005A876B877C87FC013B9685919491009714
:1026500009F443C0BE01675F7F4F0E94251B3DC048
:102660001330E9F4409133045091340460913504FF
:10267000709136044D935D936D937C9313974D83C6
:102680005E836F837887FC013B96859194910097D8
:1026900021F1BE016B5F7F4F0E94251B1EC01530CC
:1026A000E0F04091390450913A0460913B047091FC
:1026B0003C044D935D936D937C93139749835A83A8
:1026C0006B837C83FC013B9685919491009729F064
:1026D000BE016F5F7F4F0E94251B1092F80361E0DF
:1026E0008091FD039091FE030E94D20A64960FB67A
:1026F000F894DEBF0FBECDBFDF91CF911F910F9138
:10270000FF90EF90DF90CF90BF90AF909F908F9011
:102710007F906F905F904F903F902F900895CF9251
:10272000DF92EF92FF920F931F93CF93DF936C0191
:102730007A018B01C0E0D0E0CE15DF0581F0D80131
:102740006D918D01D601ED91FC910190F081E02D0C
:10275000C6010995892B11F02196EECF7E01C701A4
:10276000DF91CF911F910F91FF90EF90DF90CF906D
:102770000895FC01538D448D252F30E0842F90E087
:10278000821B930B541710F0CF960895019708956C
:10279000FC01918D828D981761F0828DDF01A80F69
:1027A000B11D5D968C91928D9F5F9F73928F90E08B
:1027B00008958FEF9FEF0895FC01918D828D9817FA
:1027C00031F0828DE80FF11D858D90E008958FEF37
:1027D0009FEF0895FC01918D228D892F90E0805C00
:1027E0009F4F821B91098F739927089588E493E086
:1027F0000E94EA1321E0892B09F420E0822F08953A
:10280000FC01848DDF01A80FB11DA35ABF4F2C918D
:10281000848D90E001968F739927848FA689B7895C
:102820002C93A089B1898C91837080648C93938D53
:10283000848D981306C00288F389E02D80818F7DF6
:1028400080830895EF92FF920F931F93CF93DF93AE
:10285000EC0181E0888F9B8D8C8D981305C0E889F1
:10286000F989808185FD26C0F62E0B8D10E00F5F63
:102870001F4F0F731127E02E8C8DE8120CC00FB67E
:1028800007FCFACFE889F989808185FFF5CFCE0171
:102890000E940014F1CF8B8DFE01E80FF11DE35A69
:1028A000FF4FF0829FB7F8940B8FEA89FB898081F4
:1028B00080620AC09FB7F894EE89FF896083E88937
:1028C000F98980818370806480839FBF81E090E07C
:1028D000DF91CF911F910F91FF90EF900895CF93CB
:1028E000DF93EC01888D8823C9F0EA89FB89808118
:1028F00085FD05C0A889B9898C9186FD0FC00FB6EA
:1029000007FCF5CF808185FFF2CFA889B9898C912A
:1029100085FFEDCFCE010E940014E7CFDF91CF916C
:10292000089580E090E0892B29F00E94F613811130
:102930000C9400000895CF93DF93477055276627C6
:102940007727FA013197EC01A881B981E730F105C9
:1029500020F4EC5CFF4F0C94CA331496ED91FC917B
:10296000159761E029C01496ED91FC91159765E0EB
:1029700023C01496ED91FC91159764E01DC0149648
:10298000ED91FC91159766E017C01496ED91FC91BE
:10299000159762E011C01496ED91FC9115976AE0CD
:1029A0000BC01496ED91FC91159768E005C0149644
:1029B000ED91FC91159769E0DF91CF910994CF9348
:1029C000DF93EC01CB01BA0126E030E040E050E0BB
:1029D0000E94AB33623071058105910559F18CF489
:1029E0006115710581059105F1F061307105810571
:1029F0009105C1F5E881F9810480F581E02D65E05C
:102A00002DC0643071058105910511F1D4F0653058
:102A100071058105910531F5E881F9810480F58121
:102A2000E02D66E01BC0E881F9810480F581E02D8E
:102A300064E014C0E881F9810480F581E02D61E053
:102A40000DC0E881F9810480F581E02D63E006C0C6
:102A5000E881F9810480F581E02D62E0CE01DF910B
:102A6000CF910994DF91CF91089543705527662740
:102A70007727DC01ED91FC910480F581E02D423057
:102A800051056105710571F043305105610571050E
:102A900059F0413051056105710511F065E005C03F
:102AA00066E003C06AE001C069E00994CF93DF9358
:102AB000EC01CB01BA0123E030E040E050E00E949D
:102AC000AB33613071058105910581F0623071058C
:102AD0008105910591F0672B682B692BC1F4E88182
:102AE000F9810480F581E02D64E00DC0E881F98171
:102AF0000480F581E02D61E006C0E881F981048061
:102B0000F581E02D62E0CE01DF91CF910994DF9154
:102B1000CF9108954370552766277727DC01ED9103
:102B2000FC910480F581E02D42305105610571056D
:102B300071F0433051056105710559F0413051057F
:102B40006105710511F062E005C063E003C061E05A
:102B500001C060E00994CF93DF93EC01E881F98133
:102B60000480F581E02D8A81811102C060E001C0FE
:102B700062E0CE010995E881F9810480F581E02DBC
:102B80008A81811102C061E001C063E0CE01099534
:102B90008CA59DA58230910538F0880F991F880F6C
:102BA000991F05970197F1F7E881F9810480F58174
:102BB000E02D8A81811102C060E001C062E0CE0197
:102BC000DF91CF910994CF93DF93EC0120E030E0C7
:102BD000A9016C897D898E899F890E940533181609
:102BE0001CF4E8A9F9A902C0EAA9FBA9DF91CF91D9
:102BF00009940F931F93DC011396EC910E2F10E0B4
:102C000009301105C0F5F801E55CFF4F0C94CA339B
:102C1000DC01ED91FC910084F185E02D29C0DC01FF
:102C2000ED91FC910284F385E02D22C0DC01ED9151
:102C3000FC910484F585E02D1BC0DC01ED91FC9135
:102C40000684F785E02D14C0DC01ED91FC9100882D
:102C5000F189E02D0DC0DC01ED91FC910288F38932
:102C6000E02D06C0DC01ED91FC910488F589E02D92
:102C70001F910F9109941F910F9108950895089540
:102C80000895E091FB028091FA02E81730F4F0E039
:102C9000E652FD4F808190E008958FEF9FEF0895F9
:102CA0009091FB028091FA02981750F4E92FF0E01E
:102CB000E652FD4F208130E09F5F9093FB0202C0FF
:102CC0002FEF3FEFC90108958091FA0290E0209123
:102CD000FB02821B910908950E94D033CF92DF92AC
:102CE000EF92FF920F931F93CF93DF93EC019B81A1
:102CF000943041F0983031F0933031F0963021F03B
:102D000012E003C014E001C013E02496E12CF12C82
:102D1000C62ED12C01E0C6010E2C02C095958795D8
:102D20000A94E2F76C8180FD602789910E949E0FD2
:102D30008FEFE81AF80AE11670F3DF91CF911F9137
:102D40000F91FF90EF90DF90CF900895CF93DF9396
:102D5000FC012381222359F1EC0161E084810E946E
:102D6000D01F61E08D810E94D01F8B81843011F0D3
:102D7000883039F461E08E810E94D01F61E08F813C
:102D800006C0833011F0863021F461E08E810E940C
:102D9000D01F8FA58F3F59F061E00E94D01F6EA514
:102DA00081E068278FA5DF91CF910C949E0FDF9172
:102DB000CF910895CF93DF93FC0123812223A9F0C3
:102DC000EC010190F081E02D0480F581E02D60E0C0
:102DD00009958FA58F3F49F061E00E94D01F6EA535
:102DE0008FA5DF91CF910C949E0FDF91CF91089525
:102DF000CF92DF92EF92FF920F931F93CF93DF93C7
:102E00007C01CB018A0120914703222389F0EB0149
:102E10006B01C40ED51ECC15DD0569F06991D70193
:102E2000ED91FC910190F081E02DC7010995F3CF60
:102E3000642F0E945E05C801DF91CF911F910F9111
:102E4000FF90EF90DF90CF900895CF93DF931F9284
:102E5000CDB7DEB76983209147032223D1F02091BB
:102E60004403203240F021E030E0FC013383228330
:102E700080E090E015C080914503E82FF0E0E65433
:102E8000FD4F998190838F5F809345038093440326
:102E900005C061E0CE0101960E945E0581E090E0F0
:102EA0000F90DF91CF910895DC01ED91FC9101909D
:102EB000F081E02D09946115710579F0FB01019015
:102EC0000020E9F73197AF01461B570BDC01ED916C
:102ED000FC910280F381E02D099480E090E0089558
:102EE0000C945B171F920F920FB60F9211242F9321
:102EF0003F934F935F936F937F938F939F93AF9382
:102F0000BF93EF93FF9388E493E00E940014FF9136
:102F1000EF91BF91AF919F918F917F916F915F9151
:102F20004F913F912F910F900FBE0F901F901895CA
:102F30001F920F920FB60F9211242F938F939F938E
:102F4000EF93FF93E0915803F09159038081E09152
:102F50005E03F0915F0382FD12C090818091610356
:102F60008F5F8F7320916203821751F0E0916103AC
:102F7000F0E0E85BFC4F958F8093610301C0808196
:102F8000FF91EF919F918F912F910F900FBE0F9016
:102F90001F9018954F925F926F927F928F929F929F
:102FA000AF92BF92CF92DF92EF92FF92CF93DF93D7
:102FB000EC016A017B0120E030E0A901C701B60104
:102FC0000E94653087FF04C0F7FAF094F7F8F09498
:102FD0008C8C9D8CAE8CBF8CA7019601C501B40171
:102FE0000E946530882309F449C06CA97DA98EA987
:102FF0009FA90E946C302B013C01A7019601C501DD
:10300000B4010E945D329B01AC01C301B2010E9478
:10301000CB300E94CF326CAB7DAB8EAB9FABA701A8
:10302000960160E070E080E090E40E945D320E94D2
:10303000103326E53EE04DE25FE30E94CB3020E016
:1030400034E244E759E40E94CB3068AF79AF8AAFED
:103050009BAFCC8EDD8EEE8EFF8ECE01DF91CF91B9
:10306000FF90EF90DF90CF90BF90AF909F908F90A8
:103070007F906F905F904F900C94E80BDF91CF9111
:10308000FF90EF90DF90CF90BF90AF909F908F9088
:103090007F906F905F904F9008953091440331324C
:1030A00008F04AC08091B9028111FCCF909146038B
:1030B00022E02093B9026093B8022FEF2093B70269
:1030C0001092B6023093B502EAEBF2E0A5E9B2E065
:1030D00020E0321721F041914D932F5FFACF1092EB
:1030E000940220919402990F922B909394029091C4
:1030F0009302913061F41092930290919402909314
:10310000BB009091BC0093FDF8CF95EC01C095EE0B
:103110009093BC009091B9029230E1F39091B70284
:103120009F3F79F08091B702803241F08091B702E1
:10313000803331F084E005C081E003C082E001C04B
:1031400083E01092450310924403109247030895C0
:103150008091B9028111FCCF413208F040E281E058
:103160008093B9028093B8029FEF9093B7021092B8
:10317000B602940F9093B5028093940280919402CA
:10318000660F682B6093940280919302813061F402
:1031900010929302809194028093BB008091BC00B6
:1031A00083FDF8CF85EC01C085EE8093BC00809153
:1031B000B9028130E1F38091B602841710F4409196
:1031C000B602A5E9B2E0EAEDF2E080E0841721F072
:1031D0009D9191938F5FFACF1092FB028093FA0238
:1031E00008951092FB021092FA0210924503109279
:1031F00044031092B90281E08093B80210929302C6
:1032000061E082E10E949E0F61E083E10E949E0FD7
:10321000E9EBF0E080818E7F808380818D7F8083E9
:1032200088E48093B80085E48093BC008EE396E147
:103230009093900280938F028FE396E19093920295
:1032400080939102089521E001C0220F6A95EAF768
:10325000DC011C962C931C971A965C934E9319973D
:10326000ED91FC910484F585E02D60E00994DC018A
:10327000ED91FC910684F785E02D41E0099581E010
:1032800090E00895089508950895089580E090E0ED
:103290000895DC0126E0629FA00DB11D11249096D7
:1032A0005C934E935F9721E091962C939197FC014C
:1032B000E459FF4F208131960190F081E02D2223C7
:1032C00031F0309749F0611107C0DC0102C030973E
:1032D00019F05C968C9109940895EF92FF920F93E8
:1032E0001F93CF93DF937C018C01C0E0D0E0F80105
:1032F00086890E94750F892B51F42696CC0FDD1F0D
:10330000CC0FDD1FCE0DDF1D8881998108C021966D
:103310000C5F1F4FC530D10551F780E090E0DF9181
:10332000CF911F910F91FF90EF900895862F0C94ED
:10333000750F0F931F93CF93DF93062F0F704230BB
:1033400019F440E0602F0EC0142FEC0170E084E00F
:10335000759567958A95E1F7CE010E94561E412F1B
:10336000602FCE01DF91CF911F910F910C94561ECB
:10337000FC0184858823A9F021853285211531053A
:1033800019F4611106C007C02130310521F4611123
:1033900002C0858701C015866585CF010E960C9405
:1033A000E61D0895CF92DF92EF92FF920F931F9345
:1033B000CF93DF93EC0181E090E002C0880F991F6A
:1033C0006A95E2F78E0103581F4F442349F0D80154
:1033D0002D913C911197822B932B8D939C9309C037
:1033E00080959095F80120813181822393239183E8
:1033F0008083D801CC901196DC90FE01E558FF4FF8
:1034000080817E01BFE6EB0EF11C91E090934703B3
:10341000809346031092450310924403D701ED9127
:10342000FC910190F081E02D6C2DC7010995C458E5
:10343000DF4F8881823048F0D701ED91FC910190F7
:10344000F081E02D6D2DC701099561E0C7010E9453
:103450004D18F801C082D182DF91CF911F910F9159
:10346000FF90EF90DF90CF900895CF92DF92EF9290
:10347000FF920F931F93CF93DF9301E010E002C000
:10348000000F111F6A95E2F77C012FE6E20EF11C96
:103490006C01ECE7CE0ED11CF601408150E0319773
:1034A000608170E0C7010E94A818C7010E945016F1
:1034B000EC01F6018081823040F0C7010E94501675
:1034C00020E030E0382FC22BD32BC023D12381E062
:1034D00090E0C017D10711F080E090E0DF91CF912C
:1034E0001F910F91FF90EF90DF90CF900895CF92B2
:1034F000DF92EF92FF920F931F93CF93DF93EC0134
:10350000162F042FFC0186E0689FE00DF11D1124A9
:1035100011A2878D90A181309105D1F048F08230C1
:10352000910591F1039709F03FC040E050E030C0B1
:103530004423D1F141E050E0CE010E9449190E949C
:103540003120C85ADF4F688379838A839B832CC0DC
:103550000E943120FE01E85AFF4FC080D180E280F6
:10356000F380AB01BC014C195D096E097F097296AD
:1035700080819181A0E0B0E084179507A607B70786
:1035800018F442E050E004C001110EC043E050E0E6
:10359000612FCE01DF91CF911F910F91FF90EF909E
:1035A000DF90CF900C944919DF91CF911F910F912B
:1035B000FF90EF90DF90CF900895862F642F0C94AA
:1035C0009E0F862F642F0C94D01FEF92FF920F93C3
:1035D0001F93CF93DF938C010D5F1F4FEB017B0196
:1035E000E40EF11CEC16FD0639F0C8010E94893189
:1035F00089930F5F1F4FF6CFDF91CF911F910F91EE
:10360000FF90EF900895EF92FF920F931F93CF9347
:10361000DF938C010D5F1F4FEB017B01E40EF11C6A
:10362000CE15DF0539F06991C8010E9491310F5F15
:103630001F4FF6CF60E080E090E0DF91CF911F91C7
:103640000F91FF90EF900C94913144E00C94031B88
:10365000DC01ED91FC910684F785E02D40E00994B2
:10366000DC01ED91FC910484F585E02D6FEF099468
:1036700061E00E94281B8BE39FE10197F1F7089519
:103680008F929F92AF92BF92CF92DF92EF92FF9272
:103690000F931F93CF93DF93EC01423018F08C818E
:1036A00088608C834F836887222329F0413019F486
:1036B0008C8184608C830E940C206B017C0184E6E9
:1036C000882E912CA12CB12C0E940C20DC01CB0166
:1036D0008C199D09AE09BF09883E9340A105B1052B
:1036E00098F321E0821A9108A108B10888EEC80E6B
:1036F00083E0D81EE11CF11C81149104A104B104E3
:1037000019F76C8164FD31C0E881F9810684F78581
:10371000E02D42E063E0CE0109958BE496E4019749
:10372000F1F7E881F9810684F785E02D42E063E056
:10373000CE01099503E512E0C8010197F1F7E88190
:10374000F9810684F785E02D42E063E0CE0109951A
:10375000C8010197F1F7E881F9810684F785E02D2A
:1037600042E062E0CE01099517C06062CE010E947E
:10377000281B8BE496E40197F1F76C816062CE011F
:103780000E94281B03E512E0C8010197F1F76C8144
:103790006062CE010E94281BC8010197F1F76C817D
:1037A0006062CE010E94281B8BEE90E00197F1F73A
:1037B00084E08D836CE0CE010E94281BCE010E9424
:1037C000381B82E08E8366E0CE010E94281BCE016A
:1037D000DF91CF911F910F91FF90EF90DF90CF90ED
:1037E000BF90AF909F908F900C94301BFF920F93DF
:1037F0001F93CF93DF93EC01162F042FF22E8B85AE
:10380000888B85EE93E00E94F118888991E090936F
:10381000470380934603109245031092440361E0EE
:1038200085EE93E00E944D1891E0811190E0998B14
:10383000811105C085EE93E00E9450168E8789891C
:10384000882339F01F861C8260E0CE010E960E940C
:10385000E61D2F2D402F612FCE01DF91CF911F91BB
:103860000F91FF900C94401B2F923F924F925F92CA
:103870006F927F928F929F92AF92BF92CF92DF9280
:10388000EF92FF920F931F93CF93DF93CDB7DEB7E5
:103890002A970FB6F894DEBF0FBECDBF9A878987EF
:1038A0000E94312029853A85245A3F4F3A83298343
:1038B000D9010D911D912D913C91AB01BC01401B93
:1038C000510B620B730BE985FA85E859FF4F808134
:1038D0009181A0E0B0E084179507A607B70708F02C
:1038E0002FC110E049845A84B6E64B0E511CE9847E
:1038F000FA84E2E6EE0EF11CD2018C911817B0F0BA
:1039000010E029843A84B7E62B0E311CC984DA848E
:10391000E4E6CE0ED11C812C912C54018394298590
:103920003A852E593F4F38872F8361C0F701A08118
:10393000B181A10FB11DE985FA8580819181FC01DA
:103940002081318142E06C9189859A85F901099540
:103950001F5FD2CF802F90E0AF81B8852D913C9131
:103960003C01D901A60DB71D0480F581E02D6C91B5
:1039700089859A850995660C771CE985FA85E60D97
:10398000F71D892B09F071C0808591852B813C81C1
:10399000822B932B918780870F5FD2018C91A98511
:1039A000BA85ED91FC910817A8F2D6018D919C91F2
:1039B000DC01AE0DBF1D0280F381E02D41E06C9172
:1039C00089859A850995F60180819181DC01AE0D8A
:1039D000BF1DE985FA8580819181FC0120813181BB
:1039E00040E06C9189859A85F90109951F5FD101A5
:1039F0008C91181708F040C0E12EF12CF601A0813F
:103A0000B181AE0DBF1DE985FA8580819181FC01F0
:103A10002081318141E06C9189859A85F901099570
:103A2000F601A081B181AE0DBF1DE985FA858081C7
:103A30009181FC012281338140E06C9189859A85D6
:103A4000F9010995D501C401012E04C0880F991F01
:103A5000AA1FBB1F0A94D2F79C838B839C012095DD
:103A600030953E832D8300E098CF80859185AD8190
:103A7000BE818A239B238ECFE984FA846701FCE30D
:103A8000CF0ED11CF7018FEF9FEF278D30A1232B95
:103A900021F4148E968F858F11A23696EC15FD05B4
:103AA000A1F7912CA984BA8420E6A20EB11C86E06D
:103AB000782ED2018C91981660F5812C09851A8593
:103AC000090D111D090D111D085F1F4FF1018081A6
:103AD0008816E8F4D8012D913C91082C02C0369547
:103AE00027950A94E2F7422F4170989EC001112455
:103AF000880D911DE985FA8560E0A58DB68D8A1740
:103B00009B07E9F16F5F36966A30B9F71BC0939453
:103B1000D0CF1B82F70181A1882311F0F1E0FB8354
:103B200026E0E20EF11CCE14DF04A1F70E94312042
:103B3000A981BA816D937D938D939C9313972CC02B
:103B40001B822AC020FF1FC0E985FA8560E070E073
:103B5000248D21111AC0D501ED91FC91E80FF91FB8
:103B60005081769E9001779E300D1124E985FA856B
:103B7000E20FF31F548F968F858F10A2178E8985C1
:103B80009A850E94771A8394A1CF6F5F7F4F3696F4
:103B90006A307105E9F6F7CF8B812A960FB6F89453
:103BA000DEBF0FBECDBFDF91CF911F910F91FF9070
:103BB000EF90DF90CF90BF90AF909F908F907F90CD
:103BC0006F905F904F903F902F900895FC018381FC
:103BD0008823D9F0962F6181609569236083828163
:103BE00091E090934703809346031092450310920F
:103BF000440385EE93E00E94251761E085EE93E093
:103C00000E944D18282F30E002C020E030E081E013
:103C100090E0232B11F080E090E008950F931F9324
:103C2000CF93DF93CDB7DEB728970FB6F894DEBFFA
:103C30000FBECDBF009118011091190120911A01FA
:103C400030911B010D831E832F83388700911C0147
:103C500010911D0120911E0130911F0109831A83CB
:103C60002B833C839091CA04691710F06FEF690FA2
:103C70004091CB04262F30E0FE01E20FF31F4031CC
:103C800021F4943011F4618101C06581680F60688E
:103C900083EC94E028960FB6F894DEBF0FBECDBF3C
:103CA000DF91CF911F910F910C94281BEF92FF92FF
:103CB0000F931F93CF938C01FC0184E0C0E060FF61
:103CC00002C09589C92B6695815031968111F7CF35
:103CD000413011F4F8014489F8018585C82BC42BC3
:103CE0007801FEE0EF0EF11CF80162896C2BC70130
:103CF0000E94E61DF801628960956C23C701CF918F
:103D00001F910F91FF90EF900C94E61DE0911C0421
:103D1000F0911D04309709F009940895CF92DF9235
:103D2000EF92FF920F931F93CF93DF93FC01719655
:103D3000C491C1503196C590D490E62EF12CF70174
:103D4000EE0FFF1FEC0DFD1D859194919093FC03E8
:103D50008093FB0300E010E0D0E040E150E060E23F
:103D600070E080E294E00E94D53321E030E040E052
:103D700050E0011105C060E070E08CE092E004C00A
:103D800061E070E083EC91E00E94861EF701E00F95
:103D9000F11FCE17DF0764F0EE0FFF1FEC0DFD1DC6
:103DA0006591749140E150E080E294E00E94C42D5E
:103DB00020E130E041E050E0B80180E294E00E9470
:103DC000861E0F5F1F4F0230110539F6DF91CF912C
:103DD0001F910F91FF90EF90DF90CF9008950F9378
:103DE0001F93CF938C01C62F40E150E060E270E05A
:103DF00080E294E00E94D533C730D9F1C830D9F1C0
:103E0000C11107C0F80180814AE060E274E090E0EF
:103E100013C0C13049F44AE060E274E0F8018081E7
:103E200091810E94CD2D35C0C23049F44AE060E254
:103E300074E0F801808191810E94092E2AC0C3306C
:103E400059F4F80160817181828193812AE040E216
:103E500054E00E94D82D1DC0C43079F4F80160816F
:103E60007181828193812AE040E254E00E94E72D33
:103E700010C022E003C023E001C021E042E0420F75
:103E8000F801608171818281938100E214E00E94D7
:103E9000A42D20E130E040E050E061E070E080E2FD
:103EA00094E0CF911F910F910C94861E1F93CF9396
:103EB000DF93182FD92FC62F40E150E060E270E069
:103EC00080E294E00E94D533E12FFD2FEC0FF11D2D
:103ED000EC0FF11D659174916F5F7F4F4FE050E0E3
:103EE00080E294E00E94C42D20E130E040E050E008
:103EF00061E070E080E294E0DF91CF911F910C943B
:103F0000861E40E150E060E270E080E294E00E94B2
:103F1000D53380913204813039F48FE49EE690935A
:103F200021048093200409C083E0EEE0F2E0A0E2E7
:103F3000B4E001900D928A95E1F720E130E040E095
:103F400050E061E070E080E294E00C94861E8330E3
:103F500081F028F4813099F08230A1F00895873003
:103F6000A9F08830B9F08430D1F4809180008F7D41
:103F700003C0809180008F7780938000089584B57E
:103F80008F7702C084B58F7D84BD08958091B00085
:103F90008F7703C08091B0008F7D8093B00008952B
:103FA000CF93DF9390E0FC01EA59FD4F2491FC018F
:103FB000EE5AFD4F8491882361F190E0880F991F9C
:103FC000FC01E25FF84FC591D491FC01E25CFD4F2A
:103FD000A591B491611109C09FB7F894888120958B
:103FE00082238883EC912E230BC0623061F49FB74B
:103FF000F8948881322F309583238883EC912E2B7F
:104000002C939FBF06C08FB7F894E8812E2B28838E
:104010008FBFDF91CF9108953FB7F89480916905E4
:1040200090916A05A0916B05B0916C0526B5A89B8F
:1040300005C02F3F19F00196A11DB11D3FBFBA2F3A
:10404000A92F982F8827820F911DA11DB11DBC019A
:10405000CD0142E0660F771F881F991F4A95D1F75F
:1040600008952FB7F8946091650570916605809169
:104070006705909168052FBF08951F920F920FB6A4
:104080000F9211242F933F938F939F93AF93BF93DE
:104090008091650590916605A0916705B0916805CE
:1040A0003091640523E0230F2D3720F40196A11DE4
:1040B000B11D05C026E8230F0296A11DB11D209356
:1040C00064058093650590936605A0936705B0939A
:1040D00068058091690590916A05A0916B05B09182
:1040E0006C050196A11DB11D8093690590936A0529
:1040F000A0936B05B0936C05BF91AF919F918F9189
:104100003F912F910F900FBE0F901F901895CF9356
:10411000DF93CDB7DEB764970FB6F894DEBF0FBE5E
:10412000CDBF789484B5826084BD84B5816084BD40
:1041300085B5826085BD85B5816085BD80916E0045
:10414000816080936E001092810080918100826076
:1041500080938100809181008160809381008091B3
:1041600080008160809380008091B10084608093A2
:10417000B1008091B00081608093B00080917A009E
:10418000846080937A0080917A00826080937A00C4
:1041900080917A00816080937A0080917A008068B3
:1041A00080937A001092C10061E08DE00E94D01FE0
:1041B00061E086E00E94D01F61E08AE00E94D01F8B
:1041C00080E090E00E9489318111A2C041E06CEF53
:1041D00072E084E090E00E94E51A42E062E373E05E
:1041E00088E090E00E94E51A42E060E373E08CE032
:1041F00090E00E94E51A60E473E088E390E00E949A
:10420000860542E06EE173E080E290E00E94E51AEC
:1042100042E06CE173E084E290E00E94E51A42E043
:104220006AE173E088E290E00E94E51A6CE273E0D4
:1042300080E190E00E94860568E273E084E190E00E
:104240000E94860564E273E088E190E00E948605A2
:1042500060E273E08CE190E00E94860541E069E154
:1042600073E08CE290E00E94E51A41E067E173E0C0
:1042700080E390E00E94E51A41E065E173E084E3A9
:1042800090E00E94E51A61E173E08CE390E00E9407
:1042900086056DE073E080E490E00E94860569E0A9
:1042A00073E084E490E00E94860565E073E088E4B2
:1042B00090E00E94860561E073E08CE490E00E944B
:1042C00086056DEF72E080E590E00E94860541E092
:1042D00068E173E080E690E00E94E51A41E066E163
:1042E00073E081E690E00E94E51A6CE373E084E5F8
:1042F00090E00E94860568E373E088E590E00E9404
:10430000860564E373E08CE590E00E94860502C0B8
:104310000E947A096091150381E0682784E00E9479
:104320009E0F61E083E00E949E0F61E084E00E94A6
:10433000D01F61E083E00E94D01FE0915803F0910C
:10434000590382E08083E0915803F0915903108271
:10435000E0915403F09155031082E0915603F091DF
:10436000570380E1808310926003E0915C03F09139
:104370005D0386E08083E0915A03F0915B038081C6
:1043800080618083E0915A03F0915B0380818860B3
:104390008083E0915A03F0915B0380818068808381
:1043A000E0915A03F0915B0380818F7D808384E1EB
:1043B00090E0A0E0B0E080934C0390934D03A09375
:1043C0004E03B0934F0384E991E00E94620F81EAAB
:1043D00091E00E94620F85EE93E00E94F11888E060
:1043E00091E09093A1048093A0048FEA94E00E944E
:1043F000F1184091BC0450E06091BB0470E08FEA7A
:1044000094E00E94A8188FEA94E00E9450169093BE
:10441000BE048093BD048091BC04823088F08FEA92
:1044200094E00E94501620E030E0382F8091BD04C7
:104430009091BE04282B392B3093BE042093BD04E9
:1044400020E042E060E183EC94E00E94F61B64E926
:1044500071E083EC94E00E94701761E080E00E94BC
:104460000E1E61EA71E083EC94E00E94701785E013
:1044700094E090931D0480931C0481EC93E090934E
:104480001F0480931E0481E08093F7030E941A06A4
:1044900022242394312C0E9427070E94DE060E94CA
:1044A0003120009148021091490220914A02309136
:1044B0004B02DC01CB01801B910BA20BB30B893E9D
:1044C0009340A105B105D8F00E94312060934802C5
:1044D0007093490280934A0290934B028091470265
:1044E0008F5F8093470280914602882319F01092D3
:1044F000460203C031E0309346020E941A0680E46F
:1045000094E00E9478079091F903833281F410922D
:10451000240210922302109222021092210241E002
:104520004093F70391110EC00E94C1030BC0992361
:1045300021F09091F703911105C0883309F0A4C2CE
:104540000E94D50380912F0281110DC00E9431205D
:1045500060932B0270932C0280932D0290932E0275
:1045600021E020932F028091FA03882371F080913B
:10457000F703882351F01092FA0360911B04809195
:10458000FD039091FE030E948E1E8091F303811122
:1045900052C08091F4038E3008F08E508770806492
:1045A00080937C0080917A00806480937A0080916F
:1045B0007A0086FDFCCF209178008091790030E070
:1045C000382B6091F5037091F6038091250290914C
:1045D0002602821B930B97FF03C091958195910949
:1045E000681779072CF430932602209325022AC0FD
:1045F000E1EFF3E080E090E046895789DA01A61BFD
:10460000B70BA217B3078CF4460F571F24173507B3
:1046100064F4880F991F880F991FFC01E75FFB4F17
:10462000408151815A8349830FC001963496853069
:10463000910511F707C081EF93E00E9440099A832A
:10464000898302C01A82198270902A02072D10E015
:1046500089819A8108171907B9F080932A0210926C
:1046600029020E94312060932B0270932C028093C8
:104670002D0290932E02109228021092270230925F
:10468000310420923004F8C00E94312020912B0286
:1046900030912C0240912D0250912E02DC01CB0171
:1046A000821B930BA40BB50B89379105A105B105AE
:1046B00008F4E2C00E94312060932B0270932C0218
:1046C00080932D0290932E02A981BA81AB2B21F009
:1046D0008091F70381110BC01092280210922702DB
:1046E000309231042092300410922902C5C02981F1
:1046F0003A812530310519F431E03093F903809186
:10470000F903882309F4B8C08091290290E00817C2
:104710001907C9F48091270290912802019690937D
:104720002802809327026AE070E00E947533892B8B
:1047300081F080913004909131040296909331047D
:104740008093300406C07092290230923104209286
:1047500030042091F80345E0741216C08091FB03E9
:104760009091FC03222321F063E00E94CD0F09C049
:1047700060E0009721F48091FF03909100040E9473
:10478000D20A10923D0478C053E0751641F084E0DF
:10479000781639F092E0791206C064E005C061E055
:1047A00003C062E001C060E0222369F080913D0413
:1047B0008F5F80933D04472D8091FB039091FC0314
:1047C0000E94CD0F59C08FEF860F823018F06430F1
:1047D00009F052C08091FD039091FE03FC01719697
:1047E000E491E150643081F51092FC031092FB03D8
:1047F0008091050490910604009781F48091030450
:1048000090910404009769F480910104909102044E
:10481000009709F45FC420E030E005C022E030E0FA
:1048200002C021E030E0220F331FF901EF5FFB4FA0
:10483000118210829093FE038093FD0310921B045B
:1048400061E00E94D20A18C030911B04613011F05F
:1048500021E001C02FEF632F620FE61730F421E053
:104860006F3F09F020E0622F61956F3F09F46E2FD2
:1048700060931B040E948E1E80912002813009F0FB
:10488000D0C08091400390914103A0914203B09128
:104890004303892B8A2B8B2B09F08CC08091240336
:1048A00090912503A0912603B091270300912C033A
:1048B00010912D0320912E0330912F03BC01CD01C7
:1048C000601B710B820B930B2091380330913903DD
:1048D00040913A0350913B030E94AB3329013A01C6
:1048E0008091200390912103A0912203B091230392
:1048F000009128031091290320912A0330912B0362
:10490000BC01CD01601B710B820B930B2091340312
:104910003091350340913603509137030E94AB33F9
:1049200080913C0390913D03A0913E03B0913F03E1
:10493000181619061A061B068CF440924003509272
:104940004103609242037092430320933C033093EF
:104950003D0340933E0350933F0310C040923C03FD
:1049600050923D0360923E0370923F0320934003B8
:1049700030934103409342035093430340914003DB
:1049800050914103609142037091430388E493E0A6
:104990000E94D20E6DEB71E088E493E00E947017E4
:1049A00060913C0370913D0380913E0390913F03E1
:1049B0000E944E0F80911C0290911D02A0911E0238
:1049C000B0911F02892B8A2B8B2BF1F48091180256
:1049D00090911902A0911A02B0911B02892B8A2B87
:1049E0008B2B91F4209128033091290340912A03C5
:1049F00050912B0360912C0370912D0380912E0315
:104A000090912F030E94D20580E295E00E94B50D9F
:104A100081110BC08CED94E00E94B50D811105C091
:104A20006EC310924502109244028091440290910C
:104A3000450231E039838230910509F019824981BC
:104A40004093170261E0019709F460E083E00E945F
:104A50009E0F8091FC02837029F051E059838230CF
:104A600009F0198289818093370280911503882388
:104A700011F0698103C061E09981692784E00E9497
:104A80009E0F0E94911407CD8933F9F483EC94E0D2
:104A90000E94301B1092F70383E090E09093240271
:104AA000809323021092220210922102109213028C
:104AB0001092140210921502109216021092120215
:104AC00083EC94E00E94381B3DCD80E494E00E948A
:104AD00081068983882309F442C080911302909152
:104AE0001402A0911502B0911602892B8A2B8B2BF0
:104AF00051F40E943120609313027093140280934A
:104B00001502909316024090130250901402609088
:104B10001502709016020E943120930182010858FC
:104B20001F4F2F4F3F4F601771078207930740F0C9
:104B300080911202811104C099819093120201C0E8
:104B400019820E943120A8E54A0EA2E05A1E611C7B
:104B5000711C461657066806790658F408C010926C
:104B60001302109214021092150210921602109263
:104B700012028091230290912402059709F0D0C07F
:104B8000B981B33409F05AC00E94A10510922C05D6
:104B900010922D0510922E0510922F0510923005BF
:104BA000109231051092320510923305109254057F
:104BB0001092550510925605109257051092440513
:104BC0001092450510924605109247051092340543
:104BD0001092350510923605109237051092E804B0
:104BE0001092E9041092EA041092EB041092EC0483
:104BF0001092ED041092EE041092EF041092100542
:104C000010921105109212051092130510920005D2
:104C10001092010510920205109203051092F00403
:104C20001092F1041092F2041092F30410922402F4
:104C30001092230221E02093F70372C039813134AE
:104C4000B1F50E94A10580912C0590912D05A091B0
:104C50002E05B0912F0580932C0390932D03A093E4
:104C60002E03B0932F038091E8049091E904A09162
:104C7000EA04B091EB048093280390932903A09356
:104C80002A03B0932B036CE273E080E190E00E9472
:104C9000251B68E273E084E190E00E94251B1092DE
:104CA00024021092230241E04093F70339C0A98106
:104CB000A23409F047CC0E94A10580912C05909167
:104CC0002D05A0912E05B0912F058093240390937C
:104CD0002503A0932603B09327038091E8049091C5
:104CE000E904A091EA04B091EB048093200390932F
:104CF0002103A0932203B093230364E273E088E1CD
:104D000090E00E94251B60E273E08CE190E00E943D
:104D1000251B109224021092230251E05093F703B6
:104D20008091230290912402039709F00BCC80918B
:104D3000210290912202A981A13411F4019704C0AB
:104D4000B981B23429F40196909322028093210212
:104D5000809121029091220297FF02C080E090E0B2
:104D60008630910514F085E090E0909322028093C4
:104D70002102892B09F070C060E080E00E940E1EC5
:104D800080912002811103C081EE91E059C09FEF14
:104D9000980F923008F050C0823019F483ED91E002
:104DA00002C084EC91E00E94CD0B0E94700761E08C
:104DB00080E00E940E1E40911C0250911D026091E5
:104DC0001E0270911F0283EC94E00E94D20E6FE2EB
:104DD00083EC94E00E9454174091400350914103AA
:104DE000609142037091430383EC94E00E94D20EE1
:104DF0000E94700761E088E00E940E1E4091180238
:104E00005091190260911A0270911B0283EC94E098
:104E10000E94D20E6FE283EC94E00E9454174091FE
:104E20003C0350913D0360913E0370913F0383EC3E
:104E300094E00E94D20E0EC0833071F488EB91E0B2
:104E40000E94CD0B0E94700761E080E00E940E1E60
:104E50000E9470070E9470078091210290912202A7
:104E6000019781F560E080E00E940E1E85EB91E0E5
:104E70000E94CD0B40912C0550912D0560912E057F
:104E800070912F0583EC94E00E94D20E0E9470076F
:104E90000E94700761E080E00E940E1E82EB91E0AC
:104EA0000E94CD0B4091E8045091E9046091EA041E
:104EB0007091EB0483EC94E00E94D20E0E94700784
:104EC0000E9470078091210290912202029709F0BE
:104ED00048C060E080E00E940E1E8AEA91E00E94D5
:104EE000CD0B60912C0570912D0580912E05909130
:104EF0002F0520910103309102034091030350914B
:104F000004030E94AB33BA01A90183EC94E00E9430
:104F1000D20E0E9470070E94700761E080E00E943C
:104F20000E1E82EA91E00E94CD0B6091E804709120
:104F3000E9048091EA049091EB042091FD02309104
:104F4000FE024091FF02509100030E94AB33BA0170
:104F5000A90183EC94E00E94D20E0E9470070E9487
:104F600070078091210290912202039709F044C0BA
:104F700083EC94E00E94301B60E080E00E940E1EF3
:104F80006CEA71E083EC94E00E9470176091FC027F
:104F9000809137020E9489050E9470070E94700765
:104FA00061E080E00E940E1E61EB71E083EC94E012
:104FB0000E94701760E080E00E94890564EB71E058
:104FC00083EC94E00E94701760E080E00E94890505
:104FD00067EB71E083EC94E00E94701760E080E082
:104FE0000E9489056AEB71E083EC94E00E947017DF
:104FF00060E080E00E948905809121029091220268
:10500000049781F560E080E00E940E1E8AE991E03D
:105010000E94CD0B40912C0350912D0360912E03E3
:1050200070912F0383EC94E00E94D20E0E947007CF
:105030000E94700761E080E00E940E1E82E991E00C
:105040000E94CD0B409128035091290360912A03BF
:1050500070912B0383EC94E00E94D20E0E947007A3
:105060000E9470078091210290912202059709F019
:1050700069CA60E080E00E940E1E8AE891E00E940A
:10508000CD0B40912403509125036091260370912C
:10509000270383EC94E00E94D20E0E9470070E94C6
:1050A000700761E080E00E940E1E82E891E00E949D
:1050B000CD0B409120035091210360912203709108
:1050C000230383EC94E00E94D20E0E9470070E949A
:1050D000700738CA8091FF03909100049093FE03FB
:1050E0008093FD0310921B041092F903E0911E04BB
:1050F000F0911F04309709F4BFCB0995BDCB809187
:10510000440290914502892B91F50E9431206093D1
:105110004002709341028093420290934302309286
:1051200045022092440261EC71E088E493E00E9421
:10513000701760912C0570912D0580912E0590912E
:105140002F050E944E0F65EC71E088E493E00E9409
:1051500070176091E8047091E9048091EA049091DD
:10516000EB040E944E0F89EC91E00E94620F0E94B6
:105170003120009140021091410220914202309171
:105180004302AB01BC01401B510B620B730B8091BE
:105190001E0390911F03A0E0B0E0481759076A076B
:1051A0007B0708F442CC809144029091450201971C
:1051B00091F50E94312060933C0270933D028093F0
:1051C0003E0290933F02A2E0B0E0B0934502A0936C
:1051D000440261ED71E088E493E00E947017409111
:1051E0001C0250911D0260911E0270911F0288E402
:1051F00093E00E94D20E6DEB71E088E493E00E9490
:105200007017609118027091190280911A029091A2
:105210001B020E944E0F0E94312000913C0210910F
:105220003D0220913E0230913F02AB01BC01401B88
:10523000510B620B730B80911C0390911D03A0E036
:10524000B0E0481759076A077B0708F4EECB809156
:105250004402909145020297A1F40E94312060938C
:1052600038027093390280933A0290933B0223E014
:1052700030E0309345022093440288ED91E00E9493
:10528000620F0E9431200091380210913902209162
:105290003A0230913B02AB01BC01401B510B620B47
:1052A000730B80911A0390911B03A0E0B0E04817A4
:1052B00059076A077B0708F4B8CB10924502109291
:1052C000440281EE91E00E94620F80913C03909134
:1052D0003D03A0913E03B0913F0389839A83AB8342
:1052E000BC83892B8A2B8B2B09F082C040901C0237
:1052F00050901D0260901E0270901F029FEF491A8D
:10530000590A690A790A40921C0250921D02609261
:105310001E0270921F028091400390914103A09160
:105320004203B0914303481659066A067B0694F07F
:1053300083E08093200210921C0210921D021092B2
:105340001E0210921F02C12CD12C7601812C912CAF
:1053500054014EC080902C0390902D03A0902E03FA
:10536000B0902F039C01AD01215031094109510931
:105370002D833E834F83588780912403909125038A
:10538000A0912603B0912703BC01CD0168197909CA
:105390008A099B090E94AB33C301B2010E946533A5
:1053A000860E971EA81EB91EC0902803D090290310
:1053B000E0902A03F0902B03809120039091210329
:1053C000A0912203B0912303BC01CD016C197D098A
:1053D0008E099F092D813E814F8158850E94AB33F4
:1053E000C301B2010E946533C60ED71EE81EF91E26
:1053F00089819A81AB81BC818D839E83AF83B8877D
:10540000B7FF0BC0B095A095909581959F4FAF4F7A
:10541000BF4F8D839E83AF83B8872D813E814F819F
:105420005885232B242B252B09F4DCC080911C02EA
:1054300090911D02A0911E02B0911F020196A11D24
:10544000B11D80931C0290931D02A0931E02B09385
:105450001F02C0904003D0904103E0904203F090BF
:1054600043038C159D05AE05BF05DCF010921C02B0
:1054700010921D0210921E0210921F0280911802BB
:1054800090911902A0911A02B0911B020196A11DE0
:10549000B11D8093180290931902A0931A02B09341
:1054A0001B0280911C0290911D02A0911E02B091DE
:1054B0001F0289879A87AB87BC8720911802309199
:1054C000190240911A0250911B022D873E874F8787
:1054D000588B80902C0390902D03A0902E03B090B9
:1054E0002F03409028035090290360902A03709066
:1054F0002B038091240390912503A0912603B09162
:1055000027032091200330912103409122035091E1
:105510002303298B3A8B4B8B5C8B31E0C31AD10868
:10552000E108F10829813A814B815C81BC01CD0100
:10553000681979098A099B091216130614061506BB
:105540002CF5A70196010E94AB3369857A858B857E
:105550009C850E946533860E971EA81EB91E698918
:105560007A898B899C89641975098609970929812B
:105570003A814B815C8121503109410951090E94D6
:10558000AB336D857E858F85988924C029813A81CA
:105590004B815C8120953095409550950E94AB33AE
:1055A0006D857E858F8598890E946533860E971E4E
:1055B000A81EB91E69897A898B899C896419750925
:1055C00086099709A70196010E94AB3369857A8500
:1055D0008B859C850E9465336B017C01C40CD51CB6
:1055E000E61CF71C8091180290911902A0911A02F2
:1055F000B0911B022D813E814F8158858217930700
:10560000A407B507CCF083E08093200210921C021F
:1056100010921D0210921E0210921F021092180288
:105620001092190210921A0210921B02C12CD12C56
:105630007601812C912C5401A7019601C501B4017A
:105640000E94D2056AEE71E088E493E00E94701730
:10565000C501B4010E944E0F69EF71E088E493E048
:105660000E947017C701B6010E944E0FDEC98F92CB
:105670009F92AF92BF92CF92DF92EF92FF920F93E1
:105680001F93CF93DF9310924B0310924A0388EE3F
:1056900093E0A0E0B0E080934C0390934D03A0937F
:1056A0004E03B0934F0324E231E03093490320933B
:1056B000480325EC30E0309355032093540324EC49
:1056C00030E0309357032093560320EC30E03093C2
:1056D00059032093580321EC30E030935B0320936F
:1056E0005A0322EC30E030935D0320935C0326ECF8
:1056F00030E030935F0320935E03109261031092B9
:10570000620310926303109264031092E8031092F4
:10571000E7038093E9039093EA03A093EB03B0932C
:10572000EC0386E391E09093E6038093E50388E73A
:10573000A82E81E0B82EB0922105A0922005C1E0EC
:10574000C093230510922C0510922D0510922E0562
:1057500010922F05109230051092310510923205EB
:1057600010923305109234051092350510923605CB
:1057700010923705C12CD12C90E8E92E9FE3F92E29
:10578000C0923805D0923905E0923A05F0923B0577
:1057900010923C0510923D0510923E0510923F0577
:1057A000C0924005D0924105E0924205F092430537
:1057B0001092440510924505109246051092470537
:1057C00001E010E010934D0500934C0599249A9444
:1057D00090924F05109248051092490510924A0583
:1057E00010924B0587E08093240588E0809325057F
:1057F000D4E0D093260525E0822E809227051092D2
:105800004E051092540510925505109256051092AF
:105810005705109258051092590510925A0510928A
:105820005B0510925C0510925D0510925E0510926A
:105830005F05C0926005D0926105E0926205F0922A
:1058400063051092220510922805109229051092E6
:105850002A0510922B0580E295E00E94A616B7015A
:10586000A60180E295E00E94CA17B092DD04A092E2
:10587000DC04C093DF041092E8041092E904109253
:10588000EA041092EB041092EC041092ED041092D2
:10589000EE041092EF041092F0041092F1041092B2
:1058A000F2041092F304C092F404D092F504E09252
:1058B000F604F092F7041092F8041092F904109292
:1058C000FA041092FB04C092FC04D092FD04E09212
:1058D000FE04F092FF041092000510920105109250
:1058E0000205109203051093090500930805909294
:1058F0000B051092040510920505109206051092F2
:1059000007058BE08093E0048CE08093E104D09362
:10591000E2048092E30410920A051092100510929E
:105920001105109212051092130510921405109291
:105930001505109216051092170510921805109271
:10594000190510921A0510921B05C0921C05D092E1
:105950001D05E0921E05F0921F051092DE041092C4
:10596000E4041092E5041092E6041092E7048CED32
:1059700094E00E94A616B701A6018CED94E00E9467
:10598000CA171092C6041092C50484E691E0909361
:10599000C4048093C3041092D3049092D204109252
:1059A000D1041092D40487E28093CE041092CF04E5
:1059B0001092D0041092CD041092CC04D093D50450
:1059C00082E08093D604C093D70480E18093D8040A
:1059D00080E28093D90480E48093DA0480E88093A5
:1059E000DB0440E050E063E083EC94E00E94231984
:1059F00010924204109246041092450410924704FB
:105A0000E0E4F4E0148E10A2178E11A2369684E022
:105A1000EC37F807B9F784E091E09093A304809302
:105A2000A20480E091E09093A5048093A40484E014
:105A30008093A6048093A70488E091E09093A1044A
:105A40008093A0048AE090E09093A9048093A80436
:105A500084EF91E09093AB048093AA041092AE047B
:105A60001092AD0410929C0410929D0410929E041A
:105A700010929F041092AC041092B2041092B104E0
:105A800088EE93E0A0E0B0E08093B3049093B40478
:105A9000A093B504B093B60480E28093BB0481E088
:105AA0008093BC0428E431E0309341042093400407
:105AB00022E531E03093B0042093AF048093F303E8
:105AC0002AEF36E03093FE032093FD033093000469
:105AD0002093FF031092F8038093F7031092F903C9
