:100000000C948F030C94B7030C94B7030C94B703B0
:100010000C94B7030C94B7030C94B7030C94B70378
:100020000C94B7030C94B7030C94B7030C94B70368
:100030000C94B7030C94B7030C94B7030C94B70358
:100040000C949B220C94B7030C944F190C9429190F
:100050000C94B7030C94B7030C94B7030C94B70338
:100060000C9457040C94B703711677167D168316FB
:1000700089168F169516C617CD17D417DB17E217FA
:10008000F917E917F917F01700407A10F35A00A092
:10009000724E18090010A5D4E80000E87648170051
:1000A00000E40B54020000CA9A3B000000E1F50591
:1000B000000080969800000040420F000000A086DB
:1000C00001000000102700000000E803000000000D
:1000D0006400000000000A000000000001000000B1
:1000E00000002C76D888DC674F0823DFC1DFAE59CB
:1000F000E1B1B796E5E3E453C63AE651997696E85E
:10010000E6C28426EB898C9B62ED407C6FFCEFBCE1
:100110009C9F40F2BAA56FA5F490055A2AF75C930C
:100120006B6CF9676DC11BFCE0E40D47FEF520E642
:10013000B500D0ED902E0300943577050080841E25
:10014000080000204E0A000000C80C333333330F80
:10015000986E12831141EF8D2114893BE65516CF1D
:10016000FEE6DB18D1844B381BF77C1D901DA4BB29
:10017000E424203284725E228100C9F124ECA1E5DE
:100180003D2752315B73745D3A004C315B73745D93
:100190003A0052305B73745D3A004C305B73745DAF
:1001A0003A00525B6465675D3A004C5B6465675D6D
:1001B0003A00523A004C3A004D4F56494E472046BD
:1001C000494E495348004D4F56494E472052554ECF
:1001D0004E494E47004D4F56494E472050415553CA
:1001E0004544004D4F56494E472053544F505045BB
:1001F0004400454D2053544F502052455345540020
:10020000454D455247454E43592053544F50004F9A
:100210004B005E324C355F203C3452363E2020305D
:100220002D53005A5B435D20535B415D20465B428A
:100230005D2023455343005E324C355F203C3452F1
:10024000363E2020302D530020202020202020204A
:100250000000000000250028002B00000000002303
:100260000026002900040404040404040402020219
:1002700002020203030303030301020408102040E7
:100280008001020408102001020408102000000070
:100290000800020100000304070000000000000045
:1002A00000030000000000000000210350000300D4
:1002B0000000000000000025034C000300000000C7
:1002C00000000000290348000300000000000000B7
:1002D000002D034400030000000000000000310373
:1002E000400003000000000000000035033C000057
:1002F000010000000000000039036200000100005E
:1003000000000000003A033400000100000000007B
:1003100000003B0361000001000000000000003C01
:100320000330000001000000000000003D036000F9
:100330000001000000000000003E032C000200004D
:100340000000000000003F03280002000000000041
:100350000000004103240002000000000000000033
:100360004303200002000000000000000045030CD1
:100370000002000000000000000047030800030026
:1003800000000000000000490354000400000000C9
:10039000000000004D0338000300000000000000D2
:1003A0000051035C00030000000000000000550342
:1003B000580003000000000000000059031C000367
:1003C00000000000000000005D03180003000000B2
:1003D00000000000006103140003000000000000A2
:1003E00000006503100052455345542044454641E2
:1003F000554C545321000200870C52205343414C6A
:10040000455B73742F6465675D000100A1024C2099
:100410005343414C455B73742F6465675D00010075
:10042000AE0252204D41585B73746570735D0000DD
:1004300000000100BB024C204D41585B7374657095
:10044000735D000000000100C80252204D494E5B60
:1004500073746570735D000000000100D5024C20CC
:100460004D494E5B73746570735D000000000100C0
:10047000E20250524553484F5420494E564552537C
:10048000494F0100EF0253484F5420494E56455200
:1004900053494F4E00000100FC025220454E4120BE
:1004A000494E5600000000000000010009035220E0
:1004B00044495220494E560000000000000001004F
:1004C00016034C20454E4120494E560000000000C6
:1004D0000000010023034C2044495220494E56009D
:1004E00000000000000001003003504F535420531F
:1004F000484F5420545B6D735D0001003D03534829
:100500004F542054494D455B6D735D000000010060
:100510004A035052452053484F5420545B6D735D3D
:10052000000001005703414343454C5B73742F7334
:10053000325D00000000010064034D41582053501B
:100540004545445B73742F735D00010071035220B5
:1005500053544F50535B2D5D00000000000001001C
:100560007E034C2053544F50535B2D5D0000000020
:10057000000001008B0352204E4558545B73746594
:1005800070735D000000010098034C204E455854E4
:100590005B73746570735D0000000100A503523148
:1005A0005B73746570735D00000000000000010063
:1005B000B2034C315B73746570735D000000000022
:1005C00000000100BF0352305B73746570735D00FF
:1005D0000000000000000100CC034C305B73746528
:1005E00070735D000000000000000100D9038A055F
:1005F000760562054E053A0526051205FE04EA0455
:10060000D604C204AE049A04860472045E044A044A
:10061000360422040E04FA03E603DA05C605B20521
:100620009E0553455454494E47532D3E000000004B
:1006300000000016EE05474F544F2046494E414CEE
:1006400020504F53210002005308474F544F20536E
:100650005441525420504F53210002006708535414
:100660004152542F46494E20504F532D3E00000416
:100670001A064D4F56450000000000000000000023
:1006800000000200D70343414C4942524154494FB4
:100690004E00000000000200FF03474F544F205A55
:1006A00045524F20504F53210000020049084D4F42
:1006B00056452053544F5021000000000000020016
:1006C00010084D4F5645205354415254210000000C
:1006D00000000200C9054D4F564520504155534575
:1006E00021000000000002002608D606C206AE0661
:1006F0009A06860672065E064A0636062206524F9D
:100700004F54000000000000000000000000000A3C
:10071000EA0600000000240027002A00C42C11244F
:100720001FBECFEFD8E0DEBFCDBF25E0A4E2B2E030
:1007300001C01D92A239B207E1F712E0A0E0B1E0DA
:10074000E6EDFAE602C005900D92A432B107D9F7A2
:1007500013E0CFE8D3E004C02197FE010E94573593
:10076000CE38D107C9F70E94E5220C9469350C9464
:10077000000085ED8093BC008091BC0084FDFCCF1F
:100780001092DE02089588EE94E00E94961D64E9BE
:1007900071E088EE94E00E94271961E080E00E94F9
:1007A0006C2061EA71E088EE94E00C94271988EEE1
:1007B00094E00E948E1D10921C0486E090E09093BD
:1007C00047028093460281E090E090934502809337
:1007D00044021092250210922602109227021092D3
:1007E00028021092240288EE94E00E94961D61E097
:1007F00080E00E946C2087E392E00C94860D88EEE6
:1008000094E00E948E1D10921C0485E090E090936D
:1008100047028093460281E090E0909345028093E6
:100820004402109225021092260210922702109282
:1008300028021092240288EE94E00E94961D60E047
:1008400080E00E946C2083E292E00E94860D61E0CD
:1008500080E00E946C2082E192E00C94860DEF9281
:10086000FF920F931F93CF93DF938C01842F790115
:100870000E946C20E801CE01801B910B8E159F0514
:100880007CF469918FED860F8E3508F060E288EE7A
:1008900094E00E94EE1A0E94E51C0E949C1CEBCF83
:1008A000DF91CF911F910F91FF90EF9008951F92CC
:1008B0000F920FB60F9211242F933F934F935F9394
:1008C0006F937F938F939F93AF93BF93EF93FF9318
:1008D0008091B900887F803609F49CC068F5883221
:1008E00009F45BC090F4803109F454C038F48823D3
:1008F00009F4F6C0883009F44DC0F6C0883109F417
:100900004CC0803209F45DC0EFC0803409F468C087
:1009100048F4803309F455C0883309F0E5C080936A
:10092000DC02D8C0803509F44FC0883509F45DC0B9
:10093000883409F0D9C0D6C0883909F4C7C0A8F4F2
:10094000883709F467C038F4883609F463C0803703
:1009500009F460C0C9C0883809F4B8C0803909F406
:100960005FC0803809F0C0C05BC0803B09F486C01E
:1009700038F4803A09F466C0883A09F47FC0B4C0FC
:10098000803C09F4A7C0883C09F4A4C0883B09F462
:100990008AC0AAC08091B90210C09091DB028091F8
:1009A000DA02981770F5E091DB0281E08E0F8093F8
:1009B000DB02F0E0E654FD4F80818093BB0085ECC4
:1009C00086C08093DC028EC0E091DB0281E08E0F56
:1009D0008093DB028091BB00F0E0E654FD4F808302
:1009E0009091DB028091DA026EC0E091DB0281E03F
:1009F0008E0F8093DB028091BB00F0E0E654FD4F48
:100A000080838091DD0281116DC081E08093B80206
:100A100084EA61C083E08093DE021092B302CFCFFC
:100A20008091B302803208F051C0E091B30281E0BE
:100A30008E0F8093B3028091BB00F0E0ED56FD4F26
:100A40008083BDCF85EC8093BC001092DE02809144
:100A5000B302803230F4E091B302F0E0ED56FD4F86
:100A600010826091B30270E0E091B602F091B7029B
:100A700083E992E009951092B30236C084E0809336
:100A8000DE021092920210929102E091B402F09173
:100A9000B502099580919102811105C081E0809392
:100AA000910210927102E091920281E08E0F809388
:100AB0009202F0E0EF58FD4F80818093BB0090914F
:100AC000920280919102981708F479CF85E880937B
:100AD000BC000AC085EC8093BC001092DE0204C00A
:100AE0001092DC020E94B903FF91EF91BF91AF9188
:100AF0009F918F917F916F915F914F913F912F9136
:100B00000F900FBE0F901F90189540919102262FC5
:100B100030E0240F311D21323105DCF42091DE025A
:100B20002430C9F4FC0180E090E0861758F430913D
:100B300091022191DC01AF58BD4FA30FB11D2C9341
:100B40000196F3CF80919102680F6093910280E04B
:100B5000089581E0089582E0089541E00C94611DBC
:100B600044E00C94431D88E492E00E94860D0E94AC
:100B7000E51C0C949C1C88EE94E00E94961D60E09D
:100B800080E00E946C208FE092E00E94860D0C9421
:100B9000940F4F925F926F927F928F929F92AF923B
:100BA000BF92CF92DF92EF92FF92CF93DF93CDB7B8
:100BB000DEB72C970FB6F894DEBF0FBECDBF0E94F4
:100BC000BB0580904D0390904E03A0904F03B090D2
:100BD0005003C0905D03D0905E03E0905F03F090FF
:100BE00060038091650390916603A0916703B091C3
:100BF00068032091590330915A0340915B0350914F
:100C00005C0329833A834B835C8320916103309199
:100C1000620340916303509164032D833E834F83AD
:100C2000588781149104A104B10409F037C1809060
:100C3000550390905603A0905703B09058038092AC
:100C4000330290923402A0923502B0923602209183
:100C5000510330915203409153035091540329871B
:100C60003A874B875C8720932F0230933002409362
:100C7000310250933202C81AD90AEA0AFB0AC701A4
:100C8000B601A50194010E94383529013A0120934B
:100C90003702309338024093390250933A02698107
:100CA0007A818B819C812D813E814F815885621B89
:100CB000730B840B950B29853A854B855C850E94C7
:100CC000383520932B0230932C0240932D02509301
:100CD0002E02A5019401C301B2010E94F234C61A8A
:100CE000D70AE80AF90A09F454C068EF71E08DE602
:100CF00093E00E94271920913702309138024091E9
:100D0000390250913A02C701B6010E943835CA0132
:100D1000B9010E94A610609155037091560380910D
:100D200057039091580322E030E040E050E00E94E9
:100D30003835DA01C90120913702309138024091EB
:100D4000390250913A028090330290903402A09080
:100D50003502B0903602C816D906EA06FB064CF0FA
:100D6000C701B6010E943835820E931EA41EB51E1F
:100D700008C0C701B6010E943835821A930AA40A36
:100D8000B50A8092330290923402A0923502B0925A
:100D90003602C0905903D0905A03E0905B03F09064
:100DA0005C038091610390916203A0916303B09111
:100DB0006403C81AD90AEA0AFB0A20912F0230916B
:100DC0003002409131025091320260912B027091B9
:100DD0002C0280912D0290912E020E94F234C61AAC
:100DE000D70AE80AF90A09F4E7C069E072E08DE67B
:100DF00093E00E94271920912B0230912C02409100
:100E00002D0250912E02C701B6010E943835CA0149
:100E1000B9010E94A6106091510370915203809114
:100E200053039091540322E030E040E050E00E94F0
:100E30003835DA01C90180902F0290903002A090DD
:100E40003102B090320220912B0230912C0240915D
:100E50002D0250912E02C816D906EA06FB065CF058
:100E6000C701B6010E943835D501C401820F931F16
:100E7000A41FB51F0AC0C701B6010E943835D501AD
:100E8000C401821B930BA40BB50B80932F0290938C
:100E90003002A0933102B09332028EC040904903D9
:100EA00050904A0360904B0370904C03A701960149
:100EB000281B390B4A0B5B0BCA01B901141415042A
:100EC00016041704ECF5A5019401215031094109DC
:100ED00051090E94383520933302309334024093F5
:100EE0003502509336028092370290923802A092D7
:100EF0003902B0923A0269817A818B819C812D817D
:100F00003E814F815885621B730B840B950BA301A7
:100F1000920121503109410951090E94383520932D
:100F20002F023093300240933102509332024092AC
:100F30002B0250922C0260922D0270922E023CC025
:100F4000A301920120953095409550950E94383527
:100F5000209333023093340240933502509336028B
:100F600040923702509238026092390270923A02EF
:100F700069817A818B819C812D813E814F81588549
:100F8000621B730B840B950BA50194012150310951
:100F9000410951090E94383520932F0230933002C5
:100FA000409331025093320280922B0290922C0295
:100FB000A0922D02B0922E02409137025091380239
:100FC0006091390270913A028DE693E00E942510FB
:100FD00063EC71E08DE693E00E94271960912B028B
:100FE00070912C0280912D0290912E020E94A610E9
:100FF00081E0809343022C960FB6F894DEBF0FBEBB
:10100000CDBFDF91CF91FF90EF90DF90CF90BF9059
:10101000AF909F908F907F906F905F904F900895CA
:1010200010922A0210923F02109240021092410246
:101030001092420210923B0210923C0210923D022A
:1010400010923E02109243020C94BB058091430221
:10105000813011F482E003C0823019F481E0809382
:1010600043020C94BB05CF92DF92EF92FF9269018D
:101070007A01AB01BC0185E495E00E94570FB701EE
:10108000A60181E095E0FF90EF90DF90CF900C9467
:10109000570F0E94BB0520E030E0A90160E070E03E
:1010A000CB010C9433080E94BB0520915903309169
:1010B0005A0340915B0350915C0360915D03709112
:1010C0005E0380915F03909160030C9433080E944B
:1010D000BB052091610330916203409163035091FD
:1010E000640360916503709166038091670390913A
:1010F00068030C943308CF92DF92EF92FF928091B5
:101100003E0310924D0580934E0510927305809119
:101110003C031092090580930A0510922F056091F7
:1011200047037091480380E090E00E94F731AB01E3
:10113000BC0185E495E00E94B30F60914503709176
:10114000460380E090E00E94F7316B017C0120E0D3
:1011500030E0A9010E94F231882331F0B701A601E5
:1011600085E495E00E9481196091470370914803DE
:1011700080E090E00E94F731AB01BC0181E095E096
:101180000E94B30F609145037091460380E090E0A8
:101190000E94F7316B017C0120E030E0A9010E9440
:1011A000F231882351F0B701A60181E095E0FF906C
:1011B000EF90DF90CF900C948119FF90EF90DF902B
:1011C000CF900895CF93DF93EC010E94921E8E85FD
:1011D0009F858130910589F18230910581F18430BC
:1011E000910579F1089779F18C859D85813091057C
:1011F00061F18230910559F18430910551F10897E0
:1012000051F18A859B858130910539F182309105B4
:1012100031F18430910529F1089729F18885998564
:101220008130910511F18230910509F184309105E9
:1012300001F1089701F180E01FC08AE21DC087E339
:101240001BC084E319C081E317C080E315C088E3A5
:1012500013C085E311C082E30FC083E20DC089E3B0
:101260000BC086E309C083E307C084E405C083E4C0
:1012700003C082E401C081E4DF91CF910895CF9251
:10128000DF92EF92FF920F931F93CF93DF93EC01C6
:101290000E94921E888580FF1CC08A8580FF0EC038
:1012A00088EE94E00E94961D80E092E00E94860DF8
:1012B00010924702109246020E94940F8E8583FF7F
:1012C00008C088EE94E00E94961D82EF91E00E9493
:1012D000860DCE010E94921E8E859F85049731F562
:1012E0008C859D85089711F40E9426088A859B8528
:1012F000089711F40E94C90588859985089711F40B
:101300000E9410088C859D85049719F481E08093D4
:1013100029028A859B85049719F482E0809329022B
:1013200088859985049711F4109229028E859F85EE
:101330008B7F029741F0809146029091470205977A
:10134000029708F004C18C859D858430910511F5C4
:101350008091510590915205A0915305B09154058B
:1013600040912D0350912E0360912F037091300313
:101370008C019D0109511C4F2F4F3F4F041715073A
:101380002607370754F5AC01BD0148515C4F6F4F3C
:101390007F4F23C0089731F58091510590915205F8
:1013A000A0915305B09154054091350350913603F7
:1013B00060913703709138038C019D01075E1340E3
:1013C00021093109401751076207730734F4AC0152
:1013D000BD01485E53406109710985E495E00E94B2
:1013E000570F2DC085E495E00E946E0F882339F1D8
:1013F00040E25CEB6EEB7CE485E495E00E948119B1
:1014000085E495E00E94BA100E94E51C8111FCCF92
:10141000609145037091460380E090E00E94F731AF
:101420006B017C0120E030E0A9010E94F2318823A9
:1014300031F0B701A60185E495E00E9481198E85FF
:101440009F858D7F049711F580910D0590910E0574
:10145000A0910F05B09110054091290350912A03E6
:1014600060912B0370912C038C019D0109511C4F3D
:101470002F4F3F4F041715072607370764F5AC01B8
:10148000BD0148515C4F6F4F7F4F25C08A859B85BA
:10149000049731F580910D0590910E05A0910F05EF
:1014A000B0911005409131035091320360913303A4
:1014B000709134038C019D01075E134021093109AD
:1014C000401751076207730734F4AC01BD01485E51
:1014D00053406109710981E095E00E94570F2DC0CA
:1014E00081E095E00E946E0F882339F140E25CEBC9
:1014F0006EEB7CE481E095E00E94811981E095E04B
:101500000E94BA100E949C1C8111FCCF609145037F
:101510007091460380E090E00E94F7316B017C01FE
:1015200020E030E0A9010E94F231882331F0B701B8
:10153000A60181E095E00E9481198C859D85019727
:1015400021F482E08093290202C01092290288854A
:1015500099858E0101581F4F892B61F48A859B85DF
:10156000892B41F48C859D85892B21F48E859F855F
:10157000892BA9F1F80180819181A281B381892B06
:101580008A2B8B2B39F40E948F22F80160837183A0
:10159000828393830E948F22F801C080D180E280F1
:1015A000F380DC01CB018C199D09AE09BF09843F92
:1015B0009140A105B105C0F40E948F22F80100817D
:1015C000118122813381DC01CB01801B910BA20BA5
:1015D000B30B893C9105A105B10530F010C0F801AD
:1015E0001082118212821382CE01DF91CF911F915E
:1015F0000F91FF90EF90DF90CF900C94E20880E085
:10160000DF91CF911F910F91FF90EF90DF90CF90DE
:101610000895835B9F4FFC01808191810E943F0967
:10162000813461F0823469F0843471F0833279F06E
:101630008A3281F0082E000C990B089583E090E027
:10164000089584E090E0089581E090E0089582E0BC
:1016500090E0089585E090E008951092290280EAD4
:101660009FE0909348038093470384E690E0909333
:1016700046038093450310924D0310924E0310923F
:101680004F031092500388EB9BE0909344038093A8
:10169000430384EF91E090934203809341038CEDE8
:1016A00095E09093400380933F0388E19CEFAFEF78
:1016B000BFEF8093650390936603A0936703B09395
:1016C00068038093610390936203A0936303B093D4
:1016D000640388EE93E0A0E0B0E080935D03909314
:1016E0005E03A0935F03B0936003809359039093CC
:1016F0005A03A0935B03B0935C0310923E031092D5
:101700003C0381E080933D0380933B0310923A03B6
:101710001092390380EF98EDAFEFBFEF8093350360
:1017200090933603A0933703B0933803809331032B
:1017300090933203A0933303B093340380E197E294
:10174000A0E0B0E080932D0390932E03A0932F038D
:10175000B09330038093290390932A03A0932B0323
:10176000B0932C038AE090E0A0E0B0E080932503E2
:1017700090932603A0932703B0932803809321031B
:1017800090932203A0932303B093240381E090E07D
:10179000A0E0B0E08093490390934A03A0934B03E9
:1017A000B0934C0384E690E0A0E0B0E08093550352
:1017B00090935603A0935703B0935803809351031B
:1017C00090935203A0935303B093540369E272E0E1
:1017D00084E090E00E94AD0542E067E473E088E0B9
:1017E00090E00E94611D42E065E473E08CE090E0CF
:1017F0000E94611D6DE473E088E390E00E94831D08
:1018000042E063E473E080E290E00E94611D42E008
:1018100061E473E084E290E00E94611D42E06FE3C6
:1018200073E088E290E00E94611D65E673E080E16C
:1018300090E00E94831D61E673E084E190E00E94E5
:10184000831D6DE573E088E190E00E94831D69E5EA
:1018500073E08CE190E00E94831D6EE373E08CE204
:1018600090E00E94AD056CE373E080E390E00E949D
:10187000AD056AE373E084E390E00E94AD0569E39F
:1018800073E082E690E00E94AD0565E373E08CE3CF
:1018900090E00E94831D61E373E080E490E00E9489
:1018A000831D6DE273E084E490E00E94831D69E291
:1018B00073E088E490E00E94831D65E273E08CE4AD
:1018C00090E00E94831D61E273E080E590E00E9459
:1018D000831D6DE373E080E690E00E94AD056BE34D
:1018E00073E081E690E00E94AD0569E473E084E571
:1018F00090E00E94831D65E573E088E590E00E941A
:10190000831D61E573E08CE590E00C94831D0E94DB
:101910002D0B0C94BB050F931F93CF93DF93EC011A
:10192000FC0170961491113009F098C010931D04B9
:1019300040E150E0BC0185E494E00E94512F20E199
:1019400030E040E050E060E070E085E494E00E9428
:10195000E420FE01729685919491FC016491399680
:10196000A591B491611104C08C91809357046FC00C
:101970008FEF860F823040F48D919C911197909358
:101980005D0480935C0463C08DEF860F823070F439
:101990000D911D912D913C91139700935804109334
:1019A000590420935A0430935B0451C0693031F5D7
:1019B000FD013396C591D491FD0185919491FC016F
:1019C0008081FD013296A4919E0160E090E0A9170C
:1019D00061F0F90145915491FA014491841301C0D9
:1019E000692F9F5F2E5F3F4FF2CF60935704CE0168
:1019F000DF91CF911F910F910C94B4216A30D1F4F3
:101A0000FD013196C591D491FD01A491888190E0AA
:101A100002C095958795AA95E2F780FF03C01093C1
:101A2000570402C010925704DF91CF911F910F917C
:101A30000C94DF210D911D912D913C9113970093F2
:101A40005E0410935F042093600430936104CD0121
:101A5000DF91CF911F910F910C944D21111134C042
:101A600061112EC020912204309123048217930724
:101A700039F18091260490912704892B79F0809187
:101A8000280490912904892B61F080912A04909177
:101A90002B04892B79F482E090E005C080E090E08F
:101AA00002C081E090E0880F991FFC01EA5DFB4FC6
:101AB00031832083D0932304C093220410924004E6
:101AC00060914004CE0114C01230D9F4FC0172962A
:101AD00085919491009711F0FC01099580911C0467
:101AE000882361F060914004809122049091230446
:101AF000DF91CF911F910F910C94EC2081E08093A6
:101B00001F04DF91CF911F910F9108950F931F93A1
:101B1000CF93DF938C01C0E0D0E0F801EC0FFD1F04
:101B20006491662341F088EE94E00E94EE1A892BBE
:101B300011F02196F2CFCE01DF91CF911F910F913D
:101B400008954F925F926F927F928F929F92AF9281
:101B5000BF92CF92DF92EF92FF920F931F93CF939A
:101B6000DF93EC01C888D988EA88FB888C859D853D
:101B7000AE85BF85C81AD90AEA0AFB0A6C897D8935
:101B80008E899F899B01AC010E9458324B015C01F8
:101B90006C8D7D8D8E8D9F8D9B01AC010E947E335F
:101BA0009B01AC01C501B4010E94EA330E945C3480
:101BB000C114D104E104F10499F462307105810586
:101BC00091050CF076C01CA21DA21EA21FA21C8AA9
:101BD0001D8A1E8A1F8A1CAA1DAA1EAA1FAAEDC042
:101BE0000CA91DA92EA93FA91C141D041E041F0425
:101BF000FCF410161106120613064CF46C157D0544
:101C00008E059F054CF52A81211153C025C0011571
:101C100011052105310509F44CC06C157D058E05B3
:101C20009F050CF046C08A81882309F442C036C063
:101C30001016110612061306ECF40027112798015E
:101C40000C191D092E093F096017710782079307B8
:101C50001CF42A81222369F19B01AC018827992772
:101C6000DC01821B930BA40BB50B8CAB9DABAEAB15
:101C7000BFAB1FC00115110521053105D1F0882426
:101C8000992454018C189D08AE08BF086815790581
:101C90008A059B0574F48A8181110BC030952095CB
:101CA000109501951F4F2F4F3F4F0CAB1DAB2EAB27
:101CB0003FAB8CA89DA8AEA8BFA881149104A10435
:101CC000B10489F488AD99ADAAADBBAD8CAF9DAF21
:101CD000AEAFBFAF81E01C141D041E041F040CF046
:101CE00080E08A833FC0CCACDDACEEACFFACA7019A
:101CF0009601C701B6010E947E332B013C01C5014C
:101D0000B4010E94F93120E030E040E850E40E9444
:101D1000583220E030E040E85FE30E947E339B01D0
:101D2000AC01C301B2010E94EA339B01AC01C701BF
:101D3000B6010E947D333B016C01FE01E05CFF4F68
:101D4000E080F180028113819701A8010E94923402
:101D5000181614F473018601C701D8018CAF9DAF2A
:101D6000AEAFBFAF3FEF831A930AA30AB30A8CAAA0
:101D70009DAAAEAABFAACCACDDACEEACFFACC7014D
:101D8000B6010E9463346CA37DA38EA39FA3A70119
:101D9000960160E074E284E799E40E94EA336C8B78
:101DA0007D8B8E8B9F8B2A81211107C0DC01CB019B
:101DB000B0588C8B9D8BAE8BBF8BDF91CF911F91D9
:101DC0000F91FF90EF90DF90CF90BF90AF909F90DA
:101DD0008F907F906F905F904F900895CF92DF9299
:101DE000EF92FF92CF93DF93EC018CA19DA1AEA166
:101DF000BFA1892B8A2B8B2BB9F10E946A226B0120
:101E00007C0188A599A5AAA5BBA5B701A601481B79
:101E1000590B6A0B7B0B8CA19DA1AEA1BFA14817EA
:101E200059076A077B0700F12A818C859D85AE855D
:101E3000BF85222321F00196A11DB11D03C001978A
:101E4000A109B1098C879D87AE87BF874C855D85C9
:101E50006E857F85CE010E94B717C8A6D9A6EAA6CF
:101E6000FBA6CE010E94A10D20E030E0A9016C8903
:101E70007D898E899F890E94F231811110C081E095
:101E8000C888D988EA88FB884C855D856E857F8502
:101E9000C416D506E606F70619F480E001C081E015
:101EA000DF91CF91FF90EF90DF90CF9008950F9347
:101EB0001F93FC01008911892289338904171507B2
:101EC0002607370741F0408B518B628B738B1F9134
:101ED0000F910C94A10D1F910F9108950F931F93D3
:101EE000CF93DF93EC0120E030E0A9016C897D897C
:101EF0008E899F890E94F231811110C081E008898A
:101F000019892A893B894C855D856E857F850417F3
:101F100015072607370719F480E001C081E0DF913B
:101F2000CF911F910F910895CF92DF92EF92FF9280
:101F30000E948F226B017C010E948F22DC01CB0169
:101F40008C199D09AE09BF09843F9140A105B105D7
:101F500028F40E94E51C0E949C1CEECFFF90EF909D
:101F6000DF90CF900895CF92DF92EF92FF920F9380
:101F70001F93CF93DF93EC016A017B0120E030E0F7
:101F8000A901C701B6010E94F23187FF04C0F7FA28
:101F9000F094F7F8F094A7019601688D798D8A8DF9
:101FA0009B8D0E94F231882309F446C0C88ED98ED9
:101FB000EA8EFB8E8E01005C1F4FA701960160E048
:101FC00074E284E799E40E94EA33F8016083718344
:101FD000828393838CA99DA9AEA9BFA9181619065F
:101FE0001A061B064CF56C897D898E899F899B0199
:101FF000AC010E9458326B017C016C8D7D8D8E8D01
:102000009F8D9B01AC010E947E339B01AC01C701F7
:10201000B6010E94EA330E945C346CAB7DAB8EABA0
:102020009FABCE01DF91CF911F910F91FF90EF9069
:10203000DF90CF900C94A10DDF91CF911F910F9164
:10204000FF90EF90DF90CF9008954F925F926F9244
:102050007F928F929F92AF92BF92CF92DF92EF9238
:10206000FF920F931F93CF93DF93CDB7DEB7A19766
:102070000FB6F894DEBF0FBECDBF8C016A017B01A5
:1020800077FF2FC0DC01ED91FC910190F081E02DF4
:102090006DE209955C0122273327A9012C193D091E
:1020A0004E095F0919A2FE01B1967F019AE0492EFF
:1020B000512C612C712CCA01B901A30192010E941B
:1020C0001635605DD7016E937D01211531054105FF
:1020D000510589F7BD01C8010E9412198A0D9B1D87
:1020E0001EC09A01AB0119A2FE01B1967F018AE0E0
:1020F000882E912CA12CB12CCA01B901A501940103
:102100000E941635605DD7016E937D012115310562
:102110004105510589F7BD01C8010E941219A19618
:102120000FB6F894DEBF0FBECDBFDF91CF911F91E8
:102130000F91FF90EF90DF90CF90BF90AF909F9066
:102140008F907F906F905F904F900895CF93DF9323
:10215000AB01BC018DE693E00E942510EC016AE121
:1021600072E08DE693E00E9412198C0F9D1FDF91A3
:10217000CF9108958F929F92AF92BF92CF92DF92AC
:10218000EF92FF92CF93DF93EC018C889D88AE880D
:10219000BF8820E030E0A901C501B4010E94F231FE
:1021A000882309F442C0A5019401C501B4010E942D
:1021B00058326B017C016C8D7D8D8E8D9F8D9B01C6
:1021C000AC010E947E339B01AC01C701B6010E94A5
:1021D000EA330E945C346B017C012FEFC21AD20AF1
:1021E000E20AF20A20E030E0A901C501B4010E9430
:1021F00092344C855D856E857F8518162CF44C0DC8
:102200005D1D6E1D7F1D04C04C195D096E097F099F
:10221000CE01DF91CF91FF90EF90DF90CF90BF90F4
:10222000AF909F908F900C94570FDF91CF91FF90BC
:10223000EF90DF90CF90BF90AF909F908F900895D8
:10224000CF93DF93BC018DE693E00E941219EC015D
:102250006AE172E08DE693E00E9412198C0F9D1FD7
:10226000DF91CF910895CF93DF93282F30E0F901CC
:10227000E357FD4F8491F901E758FD4FD491F901DF
:10228000EB59FD4FC491CC2391F081110E9405229E
:10229000EC2FF0E0EE0FFF1FE55AFD4FA591B49132
:1022A000EC91ED2381E090E021F480E002C080E039
:1022B00090E0DF91CF9108951F93CF93DF93282F64
:1022C00030E0F901E357FD4F8491F901E758FD4FE4
:1022D000D491F901EB59FD4FC491CC23C1F0162FD5
:1022E00081110E940522EC2FF0E0EE0FFF1FEF5A44
:1022F000FD4FA591B4919FB7F894111104C08C9132
:10230000D095D82302C0EC91DE2BDC939FBFDF91E8
:10231000CF911F9108952F923F924F925F926F92AB
:102320007F928F929F92AF92BF92CF92DF92EF9265
:10233000FF920F931F93CF93DF93CDB7DEB76497D0
:102340000FB6F894DEBF0FBECDBF042F4296FC013E
:1023500085919491FC0114913596C590D590E590A6
:10236000F490FC0131962591359145915491298B3A
:102370003A8B4B8B5C8B643009F46DC3633008F08F
:1023800097C2193029F5FC01399625913491F9014C
:1023900032969491319625913491EFEFE90F909117
:1023A0005704613039F0911103C0E09357040AC01B
:1023B000915006C0E91303C01092570403C09F5FF9
:1023C0009093570460915704C9010E94B4214CC3F3
:1023D0001A3059F481E090915704913009F480E06B
:1023E000809357040E94DF213FC3613019F08FEFC3
:1023F0009FEF02C081E090E0209155043091560497
:10240000829F5001839FB00C929FB00C1124B501A4
:102410000B2C000C880B990B0E94F931163029F413
:1024200020E030E040E251E40DC0173029F420E014
:1024300030E048EC52E406C0183031F420E030E0DF
:102440004AE754E40E94EA3349885A886B887C88BA
:102450002DEF200F2230B8F4109262049B01AC01E2
:1024600060915E0470915F048091600490916104BA
:102470000E947E3360935E0470935F0480936004D7
:102480009093610458C00334B9F410925E04109222
:102490005F0410926004109261041092580410922C
:1024A000590410925A0410925B0410925D04109229
:1024B0005C04109257043AC00130D9F5809157045A
:1024C00081958093570480915C0490915D0491956F
:1024D0008195910990935D0480935C0480915804E8
:1024E00090915904A0915A04B0915B04B095A095C5
:1024F000909581959F4FAF4FBF4F80935804909315
:102500005904A0935A04B0935B0480915E049091A7
:102510005F04A0916004B0916104B05880935E04A0
:1025200090935F04A0936004B0936104A12CB12C3C
:10253000C8C0A12CB12C00530A3008F0C2C0809151
:102540006204823008F442C080915704880F982FAB
:10255000990F990F890F8093570420915C04309153
:102560005D044AE0429FC001439F900D1124909367
:102570005D0480935C04209158043091590440918B
:102580005A0450915B04AAE0B0E00E942C3360939F
:1025900058047093590480935A0490935B0420E08C
:1025A00030E040E251E460915E0470915F048091FC
:1025B0006004909161040E94583260935E047093AD
:1025C0005F04809360049093610418C08130B1F47B
:1025D000109258041092590410925A0410925B04FD
:1025E00010925D0410925C041092570410925E04E5
:1025F00010925F041092600410926104809157045D
:10260000800F8093570480915C0490915D04800F4B
:10261000911D90935D0480935C0480915804909187
:102620005904A0915A04B0915B04800F911DA11D23
:10263000B11D8093580490935904A0935A04B09309
:102640005B04163061F4602F000F770B880B990B39
:102650000E94F93120E030E040E251E40DC0173033
:1026600011F5602F000F770B880B990B0E94F93141
:1026700020E030E048EC52E40E94EA339B01AC01D8
:1026800060915E0470915F04809160049091610498
:102690000E947E3360935E0470935F0480936004B5
:1026A00090936104B9C0183061F4602F000F770B6C
:1026B000880B990B0E94F93120E030E04AE754E49E
:1026C000DBCF111126C0809157048A0DC114D104AB
:1026D000E104F10441F4411451046104710419F45A
:1026E0008093570413C090E0A0E0B0E0481659066C
:1026F0006A067B0644F0C816D906EA06FB0624F4EF
:102700006C017D0101C0C988C092570487E594E03F
:10271000CBC0113011F0123089F580915C0490919A
:102720005D048A0D9B1DC114D104E104F10451F430
:10273000411451046104710429F490935D04809361
:102740005C040FC0092E000CAA0BBB0B48165906DF
:102750006A067B064CF499898A8990935C0480937D
:102760005D048CE594E0A0C0C816D906EA06FB0615
:1027700014F46C017D019C2D8D2DEFCF133069F485
:10278000A501BB0C660B770B8091580490915904FE
:10279000A0915A04B0915B040EC01430E9F5C50154
:1027A000BB0CAA0BBB0B409158045091590460918B
:1027B0005A0470915B04840F951FA61FB71FC114A4
:1027C000D104E104F10471F4411451046104710471
:1027D00049F48093580490935904A0935A04B093F9
:1027E0005B040FC0481659066A067B066CF4730139
:1027F0006201C0925804D0925904E0925A04F092B7
:102800005B0488E594E050C0C816D906EA06FB06CA
:1028100084F76C017D01EDCFC114D104E104F10412
:1028200029F44114510461047104E1F120905E0423
:1028300030905F048090600490906104C301B20105
:102840000E94F931762EA72EB82E092F262F372F6A
:10285000482F592FB101C4010E9492341816B4F0C8
:10286000C701B6010E94F931762EA72EB82E092F86
:10287000262F372F482F592FB101C4010E94F23162
:1028800087FD04C0722CA32CB82C092D872D9A2DFE
:10289000AB2DB02F80935E0490935F04A0936004EF
:1028A000B09361048EE594E0612F0E944D21DCC05D
:1028B000633009F0D9C0FC013996A591B491193063
:1028C00099F4FD0133962591349140915704F90113
:1028D000E40FF11DE40FF11D65917491FB0164910A
:1028E000FD01A591B4912AC01A3021F5FD01319660
:1028F00065917491FD01A49120915704FB01B08171
:10290000222349F041E050E001C0440FAA95EAF7C4
:102910004B2B40830AC021E030E001C0220FAA9572
:10292000EAF720952B23FB012083FB0160810E94A5
:102930002E1D91C0111104C0609157046C93F7CF04
:102940001230A1F420915C0430915D042D933C93EE
:10295000388B2F87FC013B9685919491009709F461
:102960007AC042E0BE01615F7F4F15C01130B1F403
:1029700020915C0430915D042D933C933E872D871C
:10298000FC013B9685919491009709F464C042E064
:10299000BE01635F7F4F0E94611D5DC01430F1F482
:1029A000409158045091590460915A0470915B040D
:1029B0004D935D936D937C93139749875A876B87EB
:1029C0007C87FC013B9685919491009709F443C064
:1029D000BE01675F7F4F0E94831D3DC01330E9F445
:1029E000409158045091590460915A0470915B04CD
:1029F0004D935D936D937C9313974D835E836F83AB
:102A00007887FC013B9685919491009721F1BE0156
:102A10006B5F7F4F0E94831D1EC01530E0F0409118
:102A20005E0450915F0460916004709161044D9365
:102A30005D936D937C93139749835A836B837C8357
:102A4000FC013B9685919491009729F0BE016F5F40
:102A50007F4F0E94831D10921D0461E0809122042B
:102A6000909123040E948B0C64960FB6F894DEBFFD
:102A70000FBECDBFDF91CF911F910F91FF90EF90CF
:102A8000DF90CF90BF90AF909F908F907F906F908E
:102A90005F904F903F902F900895CF92DF92EF92EA
:102AA000FF920F931F93CF93DF936C017A018B01F9
:102AB000C0E0D0E0CE15DF0581F0D8016D918D0129
:102AC000D601ED91FC910190F081E02DC6010995B0
:102AD000892B11F02196EECF7E01C701DF91CF91B6
:102AE0001F910F91FF90EF90DF90CF900895FC0120
:102AF000538D448D252F30E0842F90E0821B930B63
:102B0000541710F0CF96089501970895FC01918D08
:102B1000828D981761F0828DDF01A80FB11D5D963F
:102B20008C91928D9F5F9F73928F90E008958FEFAD
:102B30009FEF0895FC01918D828D981731F0828D61
:102B4000E80FF11D858D90E008958FEF9FEF0895B8
:102B5000FC01918D228D892F90E0805C9F4F821B1C
:102B600091098F73992708958DE693E00E94A81527
:102B700021E0892B09F420E0822F0895FC01848D47
:102B8000DF01A80FB11DA35ABF4F2C91848D90E097
:102B900001968F739927848FA689B7892C93A08972
:102BA000B1898C91837080648C93938D848D9813FC
:102BB00006C00288F389E02D80818F7D808308958F
:102BC000EF92FF920F931F93CF93DF93EC0181E07D
:102BD000888F9B8D8C8D981305C0E889F989808139
:102BE00085FD26C0F62E0B8D10E00F5F1F4F0F7373
:102BF0001127E02E8C8DE8120CC00FB607FCFACF1F
:102C0000E889F989808185FFF5CFCE010E94BE1544
:102C1000F1CF8B8DFE01E80FF11DE35AFF4FF082DB
:102C20009FB7F8940B8FEA89FB89808180620AC084
:102C30009FB7F894EE89FF896083E889F9898081DC
:102C40008370806480839FBF81E090E0DF91CF91AB
:102C50001F910F91FF90EF900895CF93DF93EC01B8
:102C6000888D8823C9F0EA89FB89808185FD05C0AC
:102C7000A889B9898C9186FD0FC00FB607FCF5CFE6
:102C8000808185FFF2CFA889B9898C9185FFEDCF2E
:102C9000CE010E94BE15E7CFDF91CF91089580E06D
:102CA00090E0892B29F00E94B41581110C9400004A
:102CB0000895CF93DF934770552766277727FA014A
:102CC0003197EC01A881B981E730F10520F4EC5C83
:102CD000FF4F0C9457351496ED91FC91159761E0D8
:102CE00029C01496ED91FC91159765E023C01496C8
:102CF000ED91FC91159764E01DC01496ED91FC9147
:102D0000159766E017C01496ED91FC91159762E057
:102D100011C01496ED91FC9115976AE00BC01496C2
:102D2000ED91FC91159768E005C01496ED91FC912A
:102D3000159769E0DF91CF910994CF93DF93EC0170
:102D4000CB01BA0126E030E040E050E00E94383587
:102D5000623071058105910559F18CF46115710599
:102D600081059105F1F06130710581059105C1F58D
:102D7000E881F9810480F581E02D65E02DC06430A3
:102D800071058105910511F1D4F06530710581055A
:102D9000910531F5E881F9810480F581E02D66E047
:102DA0001BC0E881F9810480F581E02D64E014C046
:102DB000E881F9810480F581E02D61E00DC0E881B2
:102DC000F9810480F581E02D63E006C0E881F98196
:102DD0000480F581E02D62E0CE01DF91CF9109946E
:102DE000DF91CF9108954370552766277727DC013F
:102DF000ED91FC910480F581E02D42305105610593
:102E0000710571F0433051056105710559F041308C
:102E100051056105710511F065E005C066E003C06C
:102E20006AE001C069E00994CF93DF93EC01CB0124
:102E3000BA0123E030E040E050E00E9438356130D4
:102E400071058105910581F062307105810591055B
:102E500091F0672B682B692BC1F4E881F98104801C
:102E6000F581E02D64E00DC0E881F9810480F581F1
:102E7000E02D61E006C0E881F9810480F581E02D54
:102E800062E0CE01DF91CF910994DF91CF91089557
:102E90004370552766277727DC01ED91FC9104806C
:102EA000F581E02D423051056105710571F0433027
:102EB00051056105710559F04130510561057105F4
:102EC00011F062E005C063E003C061E001C060E0B2
:102ED0000994CF93DF93EC01E881F9810480F581B7
:102EE000E02D8A81811102C060E001C062E0CE0164
:102EF0000995E881F9810480F581E02D8A818111AD
:102F000002C061E001C063E0CE0109958CA59DA5DA
:102F10008230910538F0880F991F880F991F059707
:102F20000197F1F7E881F9810480F581E02D8A812C
:102F3000811102C060E001C062E0CE01DF91CF915B
:102F40000994CF93DF93EC0120E030E0A9016C8974
:102F50007D898E899F890E94923418161CF4E8A9F5
:102F6000F9A902C0EAA9FBA9DF91CF9109940F93B7
:102F70001F93DC011396EC910E2F10E00930110520
:102F8000C0F5F801E55CFF4F0C945735DC01ED917D
:102F9000FC910084F185E02D29C0DC01ED91FC91CC
:102FA0000284F385E02D22C0DC01ED91FC910484C4
:102FB000F585E02D1BC0DC01ED91FC910684F785C1
:102FC000E02D14C0DC01ED91FC910088F189E02D29
:102FD0000DC0DC01ED91FC910288F389E02D06C063
:102FE000DC01ED91FC910488F589E02D1F910F9192
:102FF00009941F910F910895089508950895E091FF
:10300000200380911F03E81730F4F0E0E150FD4FFA
:10301000808190E008958FEF9FEF089590912003B5
:1030200080911F03981750F4E92FF0E0E150FD4F15
:10303000208130E09F5F9093200302C02FEF3FEF8D
:10304000C901089580911F0390E020912003821B05
:10305000910908950E945D35CF92DF92EF92FF9221
:103060000F931F93CF93DF93EC019B81943041F03A
:10307000983031F0933031F0963021F012E003C0F7
:1030800014E001C013E02496E12CF12CC62ED12CC3
:1030900001E0C6010E2C02C0959587950A94E2F7CF
:1030A0006C8180FD602789910E945C118FEFE81A86
:1030B000F80AE11670F3DF91CF911F910F91FF9005
:1030C000EF90DF90CF900895CF93DF93FC012381A1
:1030D000222359F1EC0161E084810E942E2261E0FB
:1030E0008D810E942E228B81843011F0883039F43A
:1030F00061E08E810E942E2261E08F8106C08330C4
:1031000011F0863021F461E08E810E942E228FA57D
:103110008F3F59F061E00E942E226EA581E0682762
:103120008FA5DF91CF910C945C11DF91CF91089521
:10313000CF93DF93FC0123812223A9F0EC010190BE
:10314000F081E02D0480F581E02D60E009958FA5E8
:103150008F3F49F061E00E942E226EA58FA5DF917E
:10316000CF910C945C11DF91CF910895CF92DF92B3
:10317000EF92FF920F931F93CF93DF937C01CB01CC
:103180008A0120916C03222389F0EB016B01C40EAC
:10319000D51ECC15DD0569F06991D701ED91FC9143
:1031A0000190F081E02DC7010995F3CF642F0E94B3
:1031B0008505C801DF91CF911F910F91FF90EF908E
:1031C000DF90CF900895CF93DF931F92CDB7DEB7F6
:1031D000698320916C032223D1F02091690320326E
:1031E00040F021E030E0FC013383228380E090E076
:1031F00015C080916A03E82FF0E0E152FD4F9981FC
:1032000090838F5F80936A038093690305C061E0B8
:10321000CE0101960E94850581E090E00F90DF913C
:10322000CF9108956115710579F0FB01019000209F
:10323000E9F73197AF01461B570BDC01ED91FC918B
:103240000280F381E02D099480E090E008950C94D1
:1032500012191F920F920FB60F9211242F933F93C2
:103260004F935F936F937F938F939F93AF93BF938E
:10327000EF93FF938DE693E00E94BE15FF91EF91CF
:10328000BF91AF919F918F917F916F915F914F917E
:103290003F912F910F900FBE0F901F9018951F9286
:1032A0000F920FB60F9211242F938F939F93EF934A
:1032B000FF93E0917D03F0917E038081E091830391
:1032C000F091840382FD12C09081809186038F5F0C
:1032D0008F7320918703821751F0E0918603F0E00D
:1032E000E359FC4F958F8093860301C08081FF9145
:1032F000EF919F918F912F910F900FBE0F901F9084
:1033000018954F925F926F927F928F929F92AF9299
:10331000BF92CF92DF92EF92FF92CF93DF93EC01B7
:103320006A017B0120E030E0A901C701B6010E94DB
:10333000F23187FF04C0F7FAF094F7F8F0948C8C20
:103340009D8CAE8CBF8CA7019601C501B4010E9473
:10335000F231882309F449C06CA97DA98EA99FA9DF
:103360000E94F9312B013C01A7019601C501B4016E
:103370000E94EA339B01AC01C301B2010E945832A2
:103380000E945C346CAB7DAB8EAB9FABA70196010A
:1033900060E070E080E090E40E94EA330E949D3497
:1033A00026E53EE04DE25FE30E94583220E034E241
:1033B00044E759E40E94583268AF79AF8AAF9BAFB7
:1033C000CC8EDD8EEE8EFF8ECE01DF91CF91FF9001
:1033D000EF90DF90CF90BF90AF909F908F907F90B5
:1033E0006F905F904F900C94A10DDF91CF91FF9063
:1033F000EF90DF90CF90BF90AF909F908F907F9095
:103400006F905F904F90089530916903313208F0CA
:103410004AC08091DE028111FCCF90916B0322E0C3
:103420002093DE026093DD022FEF2093DC021092E6
:10343000DB023093DA02EFEDF2E0AAEBB2E020E03B
:10344000321721F041914D932F5FFACF1092B902BC
:103450002091B902990F922B9093B9029091B802E2
:10346000913061F41092B8029091B9029093BB0030
:103470009091BC0093FDF8CF95EC01C095EE909330
:10348000BC009091DE029230E1F39091DC029F3F0C
:1034900079F08091DC02803241F08091DC0280334F
:1034A00031F084E005C081E003C082E001C083E028
:1034B00010926A031092690310926C030895809130
:1034C000DE028111FCCF413208F040E281E08093BE
:1034D000DE028093DD029FEF9093DC021092DB020C
:1034E000940F9093DA028093B9028091B902660F2B
:1034F000682B6093B9028091B802813061F4109218
:10350000B8028091B9028093BB008091BC0083FD1A
:10351000F8CF85EC01C085EE8093BC008091DE027F
:103520008130E1F38091DB02841710F44091DB02DB
:10353000AAEBB2E0EFEFF2E080E0841721F09D917A
:1035400091938F5FFACF1092200380931F03089509
:103550001092200310921F0310926A0310926903C5
:103560001092DE0281E08093DD021092B80261E0E9
:1035700082E10E945C1161E083E10E945C11E9EB51
:10358000F0E080818E7F808380818D7F808388E4DE
:103590008093B80085E48093BC008CEF97E1909312
:1035A000B5028093B4028DEF97E19093B7028093B8
:1035B000B602089521E001C0220F6A95EAF7DC0106
:1035C0001C962C931C971A965C934E931997ED9129
:1035D000FC910484F585E02D60E00994DC01ED9117
:1035E000FC910684F785E02D41E0099581E090E0AB
:1035F0000895089508950895089580E090E008954D
:10360000DC0126E0629FA00DB11D112490965C9311
:103610004E935F9721E091962C939197FC01E4598A
:10362000FF4F208131960190F081E02D222331F06F
:10363000309749F0611107C0DC0102C0309719F0E2
:103640005C968C9109940895862F642F0C945C11DC
:10365000EF92FF920F931F93CF93DF937C018C0126
:10366000C0E0D0E0F80186890E943311892B51F423
:103670002696CC0FDD1FCC0FDD1FCE0DDF1D888100
:10368000998108C021960C5F1F4FC530D10551F7B5
:1036900080E090E0DF91CF911F910F91FF90EF902C
:1036A0000895862F0C9433110F931F93CF93DF93BC
:1036B000062F0F70423019F440E0602F0EC0142F17
:1036C000EC0170E084E0759567958A95E1F7CE018D
:1036D0000E94B420412F602FCE01DF91CF911F9126
:1036E0000F910C94B420FC0184858823A9F02185D6
:1036F00032852115310519F4611106C007C021304A
:10370000310521F4611102C0858701C015866585E8
:10371000CF010E960C9444200895CF92DF92EF9241
:10372000FF920F931F93CF93DF93EC0181E090E022
:1037300002C0880F991F6A95E2F78E0103581F4F48
:10374000442349F0D8012D913C911197822B932B62
:103750008D939C9309C080959095F80120813181CB
:103760008223932391838083D801CC901196DC909F
:10377000FE01E558FF4F80817E01BFE6EB0EF11C94
:1037800091E090936C0380936B0310926A03109204
:103790006903D701ED91FC910190F081E02D6C2D32
:1037A000C7010995C458DF4F8881823048F0D7019E
:1037B000ED91FC910190F081E02D6D2DC7010995EF
:1037C00061E0C7010E94041AF801C082D182DF9132
:1037D000CF911F910F91FF90EF90DF90CF900895C0
:1037E000CF92DF92EF92FF920F931F93CF93DF93CD
:1037F00001E010E002C0000F111F6A95E2F77C01A2
:103800002FE6E20EF11C6C01ECE7CE0ED11CF601A6
:10381000408150E03197608170E0C7010E945F1ADB
:10382000C7010E940E18EC01F6018081823040F041
:10383000C7010E940E1820E030E0382FC22BD32B96
:10384000C023D12381E090E0C017D10711F080E0C0
:1038500090E0DF91CF911F910F91FF90EF90DF905B
:10386000CF900895CF92DF92EF92FF920F931F9324
:10387000CF93DF93EC01162F042FFC0186E0689FA5
:10388000E00DF11D112411A2878D90A181309105C9
:10389000D1F048F08230910591F1039709F03FC0D3
:1038A00040E050E030C04423D1F141E050E0CE018F
:1038B0000E94001B0E948F22C85ADF4F68837983C1
:1038C0008A839B832CC00E948F22FE01E85AFF4FFF
:1038D000C080D180E280F380AB01BC014C195D094E
:1038E0006E097F09729680819181A0E0B0E0841713
:1038F0009507A607B70718F442E050E004C001118D
:103900000EC043E050E0612FCE01DF91CF911F91B7
:103910000F91FF90EF90DF90CF900C94001BDF9100
:10392000CF911F910F91FF90EF90DF90CF9008956E
:10393000862F642F0C942E2280913B03882339F02C
:1039400081E095E00E946E0F61E0682705C081E08C
:1039500095E00E946E0F682F8AE00E945C114091F2
:10396000290350912A0360912B0370912C038091BD
:10397000110590911205A0911305B09114054817F7
:1039800059076A077B0724F481E095E00E94570FEE
:1039900040913103509132036091330370913403AD
:1039A0008091110590911205A0911305B091140515
:1039B00084179507A607B70724F481E095E00E94D5
:1039C000570F81E095E00C94EE0E80913D03882323
:1039D00039F085E495E00E946E0F61E0682705C02C
:1039E00085E495E00E946E0F682F86E00E945C11CE
:1039F00040912D0350912E0360912F03709130035D
:103A00008091550590915605A0915705B0915805A4
:103A1000481759076A077B0724F485E495E00E945C
:103A2000570F4091350350913603609137037091E1
:103A300038038091550590915605A0915705B09196
:103A4000580584179507A607B70724F485E495E081
:103A50000E94570F85E495E00C94EE0ECF93DF9310
:103A60001F92CDB7DEB769830B96FC0185919491C7
:103A7000009729F0BE016F5F7F4F0E94AD050F9048
:103A8000DF91CF910895EF92FF920F931F93CF9301
:103A9000DF938C010D5F1F4FEB017B01E40EF11CE6
:103AA000EC16FD0639F0C8010E94163389930F5FAA
:103AB0001F4FF6CFDF91CF911F910F91FF90EF90A5
:103AC0000895EF92FF920F931F93CF93DF938C0192
:103AD0000D5F1F4FEB017B01E40EF11CCE15DF05DE
:103AE00039F06991C8010E941E330F5F1F4FF6CF56
:103AF00060E080E090E0DF91CF911F910F91FF9007
:103B0000EF900C941E3344E00C94611DDC01ED91A8
:103B1000FC910684F785E02D40E00994DC01ED91ED
:103B2000FC910484F585E02D6FEF099461E00E941B
:103B3000861D8BE39FE10197F1F708958F929F9285
:103B4000AF92BF92CF92DF92EF92FF920F931F93AB
:103B5000CF93DF93EC01423018F08C8188608C8326
:103B60004F836887222329F0413019F48C818460C7
:103B70008C830E946A226B017C0184E6882E912C42
:103B8000A12CB12C0E946A22DC01CB018C199D0969
:103B9000AE09BF09883E9340A105B10598F321E025
:103BA000821A9108A108B10888EEC80E83E0D81ED9
:103BB000E11CF11C81149104A104B10419F76C817A
:103BC00064FD31C0E881F9810684F785E02D42E08B
:103BD00063E0CE0109958BE496E40197F1F7E88163
:103BE000F9810684F785E02D42E063E0CE01099576
:103BF00003E512E0C8010197F1F7E881F981068435
:103C0000F785E02D42E063E0CE010995C8010197F8
:103C1000F1F7E881F9810684F785E02D42E062E062
:103C2000CE01099517C06062CE010E94861D8BE40B
:103C300096E40197F1F76C816062CE010E94861DC7
:103C400003E512E0C8010197F1F76C816062CE01D3
:103C50000E94861DC8010197F1F76C816062CE0158
:103C60000E94861D8BEE90E00197F1F784E08D8332
:103C70006CE0CE010E94861DCE010E94961D82E05E
:103C80008E8366E0CE010E94861DCE01DF91CF912A
:103C90001F910F91FF90EF90DF90CF90BF90AF906A
:103CA0009F908F900C948E1DFF920F931F93CF9334
:103CB000DF93EC01162F042FF22E8B85888B8AE080
:103CC00094E00E94A81A888991E090936C038093F5
:103CD0006B0310926A031092690361E08AE094E03A
:103CE0000E94041A91E0811190E0998B811105C026
:103CF0008AE094E00E940E188E878989882339F023
:103D00001F861C8260E0CE010E960E9444202F2D5B
:103D1000402F612FCE01DF91CF911F910F91FF9026
:103D20000C949E1D2F923F924F925F926F927F92C2
:103D30008F929F92AF92BF92CF92DF92EF92FF92BB
:103D40000F931F93CF93DF93CDB7DEB72A970FB6AC
:103D5000F894DEBF0FBECDBF9A8789870E948F225D
:103D600029853A85245A3F4F3A832983D9010D91F9
:103D70001D912D913C91AB01BC01401B510B620B7D
:103D8000730BE985FA85E859FF4F80819181A0E0A6
:103D9000B0E084179507A607B70708F02FC110E019
:103DA00049845A84B6E64B0E511CE984FA84E2E653
:103DB000EE0EF11CD2018C911817B0F010E029849E
:103DC0003A84B7E62B0E311CC984DA84E4E6CE0EC1
:103DD000D11C812C912C5401839429853A852E592C
:103DE0003F4F38872F8361C0F701A081B181A10FB8
:103DF000B11DE985FA8580819181FC0120813181A5
:103E000042E06C9189859A85F90109951F5FD2CFAF
:103E1000802F90E0AF81B8852D913C913C01D90174
:103E2000A60DB71D0480F581E02D6C9189859A85DA
:103E30000995660C771CE985FA85E60DF71D892B37
:103E400009F071C0808591852B813C81822B932B59
:103E5000918780870F5FD2018C91A985BA85ED91FA
:103E6000FC910817A8F2D6018D919C91DC01AE0D52
:103E7000BF1D0280F381E02D41E06C9189859A8518
:103E80000995F60180819181DC01AE0DBF1DE985A8
:103E9000FA8580819181FC012081318140E06C9123
:103EA00089859A85F90109951F5FD1018C911817B1
:103EB00008F040C0E12EF12CF601A081B181AE0DD9
:103EC000BF1DE985FA8580819181FC0120813181C6
:103ED00041E06C9189859A85F9010995F601A081E7
:103EE000B181AE0DBF1DE985FA8580819181FC010C
:103EF0002281338140E06C9189859A85F901099589
:103F0000D501C401012E04C0880F991FAA1FBB1F31
:103F10000A94D2F79C838B839C01209530953E8335
:103F20002D8300E098CF80859185AD81BE818A2365
:103F30009B238ECFE984FA846701FCE3CF0ED11C6A
:103F4000F7018FEF9FEF278D30A1232B21F4148EE3
:103F5000968F858F11A23696EC15FD05A1F7912C51
:103F6000A984BA8420E6A20EB11C86E0782ED20184
:103F70008C91981660F5812C09851A85090D111D03
:103F8000090D111D085F1F4FF10180818816E8F4AB
:103F9000D8012D913C91082C02C0369527950A94A2
:103FA000E2F7422F4170989EC0011124880D911DA7
:103FB000E985FA8560E0A58DB68D8A179B07E9F142
:103FC0006F5F36966A30B9F71BC09394D0CF1B82CF
:103FD000F70181A1882311F0F1E0FB8326E0E20ED6
:103FE000F11CCE14DF04A1F70E948F22A981BA81AF
:103FF0006D937D938D939C9313972CC01B822AC045
:1040000020FF1FC0E985FA8560E070E0248D211152
:104010001AC0D501ED91FC91E80FF91F5081769EF1
:104020009001779E300D1124E985FA85E20FF31F88
:10403000548F968F858F10A2178E89859A850E943E
:10404000321C8394A1CF6F5F7F4F36966A30710523
:10405000E9F6F7CF8B812A960FB6F894DEBF0FBE34
:10406000CDBFDF91CF911F910F91FF90EF90DF9027
:10407000CF90BF90AF909F908F907F906F905F9008
:104080004F903F902F900895FC0183818823D9F0B1
:10409000962F6181609569236083828191E090937E
:1040A0006C0380936B0310926A03109269038AE099
:1040B00094E00E94E31861E08AE094E00E94041A10
:1040C000282F30E002C020E030E081E090E0232B98
:1040D00011F080E090E008950F931F93CF93DF934A
:1040E000CDB7DEB728970FB6F894DEBF0FBECDBFB1
:1040F000009118011091190120911A0130911B01B2
:104100000D831E832F83388700911C0110911D01A0
:1041100020911E0130911F0109831A832B833C8358
:104120009091EF04691710F06FEF690F4091F00460
:10413000262F30E0FE01E20FF31F403121F49430CE
:1041400011F4618101C06581680F606888EE94E0B8
:1041500028960FB6F894DEBF0FBECDBFDF91CF918A
:104160001F910F910C94861DEF92FF920F931F9356
:10417000CF938C01FC0184E0C0E060FF02C0958910
:10418000C92B6695815031968111F7CF413011F4DA
:10419000F8014489F8018585C82BC42B7801FEE01D
:1041A000EF0EF11CF80162896C2BC7010E944420BC
:1041B000F801628960956C23C701CF911F910F911F
:1041C000FF90EF900C944420E0914104F091420460
:1041D000309709F009940895CF92DF92EF92FF9201
:1041E0000F931F93CF93DF93FC017196C491C1503D
:1041F0003196C590D490E62EF12CF701EE0FFF1FFB
:10420000EC0DFD1D859194919093210480932004E1
:1042100000E010E0D0E040E150E060E270E085E4D2
:1042200094E00E94623521E030E040E050E001116E
:1042300005C060E070E08DE192E004C061E070E0F4
:104240008EEA91E00E94E420F701E00FF11FCE1703
:10425000DF0764F0EE0FFF1FEC0DFD1D65917491FB
:1042600040E150E085E494E00E94512F20E130E0ED
:1042700041E050E0B80185E494E00E94E4200F5F43
:104280001F4F0230110539F6DF91CF911F910F9129
:10429000FF90EF90DF90CF9008950F931F93CF93EF
:1042A0008C01C62F40E150E060E270E085E494E0CC
:1042B0000E946235C730D9F1C830D9F1C11107C0A9
:1042C000F80180814AE065E474E090E013C0C130F9
:1042D00049F44AE065E474E0F801808191810E942C
:1042E0005A2F35C0C23049F44AE065E474E0F80161
:1042F000808191810E94962F2AC0C33059F4F80121
:1043000060817181828193812AE045E454E00E94BA
:10431000652F1DC0C43079F4F801608171818281FC
:1043200093812AE045E454E00E94742F10C022E0FB
:1043300003C023E001C021E042E0420FF8016081A8
:1043400071818281938105E414E00E94312F20E184
:1043500030E040E050E061E070E085E494E0CF912F
:104360001F910F910C94E4201F93CF93DF93182F8C
:10437000D92FC62F40E150E060E270E085E494E080
:104380000E946235E12FFD2FEC0FF11DEC0FF11DA6
:10439000659174916F5F7F4F4FE050E085E494E04A
:1043A0000E94512F20E130E040E050E061E070E0F9
:1043B00085E494E0DF91CF911F910C94E42040E1DB
:1043C00050E060E270E085E494E00E946235809104
:1043D0005704813039F48FE49EE69093460480932D
:1043E000450409C083E0EFE1F2E0A5E4B4E0019008
:1043F0000D928A95E1F720E130E040E050E061E085
:1044000070E085E494E00C94E420833081F028F49B
:10441000813099F08230A1F008958730A9F088307A
:10442000B9F08430D1F4809180008F7D03C08091F9
:1044300080008F7780938000089584B58F7702C0C5
:1044400084B58F7D84BD08958091B0008F7703C0BF
:104450008091B0008F7D8093B0000895CF93DF935B
:1044600090E0FC01E758FD4F2491FC01EB59FD4F12
:104470008491882361F190E0880F991FFC01EE5E22
:10448000F84FC591D491FC01EF5AFD4FA591B4911D
:10449000611109C09FB7F894888120958223888391
:1044A000EC912E230BC0623061F49FB7F8948881A1
:1044B000322F309583238883EC912E2B2C939FBF32
:1044C00006C08FB7F894E8812E2B28838FBFDF9129
:1044D000CF9108953FB7F89480918E0590918F0504
:1044E000A0919005B091910526B5A89B05C02F3FDE
:1044F00019F00196A11DB11D3FBFBA2FA92F982F0A
:104500008827820F911DA11DB11DBC01CD0142E084
:10451000660F771F881F991F4A95D1F708952FB707
:10452000F89460918A0570918B0580918C0590912B
:104530008D052FBF08951F920F920FB60F92112471
:104540002F933F938F939F93AF93BF9380918A054F
:1045500090918B05A0918C05B0918D0530918905C6
:1045600023E0230F2D3720F40196A11DB11D05C0B6
:1045700026E8230F0296A11DB11D20938905809383
:104580008A0590938B05A0938C05B0938D0580913F
:104590008E0590918F05A0919005B091910501969F
:1045A000A11DB11D80938E0590938F05A09390055A
:1045B000B0939105BF91AF919F918F913F912F91B2
:1045C0000F900FBE0F901F901895789484B582605D
:1045D00084BD84B5816084BD85B5826085BD85B5A7
:1045E000816085BD80916E00816080936E00109225
:1045F00081008091810082608093810080918100A0
:104600008160809381008091800081608093800030
:104610008091B10084608093B1008091B00081608E
:104620008093B00080917A00846080937A008091BA
:104630007A00826080937A0080917A008160809312
:104640007A0080917A00806880937A001092C1008D
:1046500061E08DE00E942E2261E086E00E942E2221
:1046600061E08AE00E942E2280E090E00E941633F2
:104670008111A9C041E069E272E084E090E00E940B
:10468000431D42E067E473E088E090E00E94431D30
:1046900042E065E473E08CE090E00E94431D6DE42D
:1046A00073E088E390E00E94B00542E063E473E0C9
:1046B00080E290E00E94431D42E061E473E084E206
:1046C00090E00E94431D42E06FE373E088E290E0D7
:1046D0000E94431D65E673E080E190E00E94B00512
:1046E00061E673E084E190E00E94B0056DE573E05F
:1046F00088E190E00E94B00569E573E08CE190E00C
:104700000E94B00541E06EE373E08CE290E00E940D
:10471000431D41E06CE373E080E390E00E94431DA1
:1047200041E06AE373E084E390E00E94431D41E0CE
:1047300069E373E082E690E00E94431D65E373E065
:104740008CE390E00E94B00561E373E080E490E0C8
:104750000E94B0056DE273E084E490E00E94B00531
:1047600069E273E088E490E00E94B00565E273E0DE
:104770008CE490E00E94B00561E273E080E590E097
:104780000E94B00541E06DE373E080E690E00E9496
:10479000431D41E06BE373E081E690E00E94431D1E
:1047A00069E473E084E590E00E94B00565E573E09C
:1047B00088E590E00E94B00561E573E08CE590E04B
:1047C0000E94B00502C00E942D0B60913A03C1E027
:1047D0006C2784E00E945C11609139036C2783E0B0
:1047E0000E945C1161E084E00E942E2261E083E07F
:1047F0000E942E22E0917D03F0917E0382E080836F
:10480000E0917D03F0917E031082E0917903F091B5
:104810007A031082E0917B03F0917C0380E1808336
:1048200010928503E0918103F091820386E08083FA
:10483000E0917F03F0918003808180618083E0912B
:104840007F03F0918003808188608083E0917F0303
:10485000F0918003808180688083E0917F03F091F4
:10486000800380818F7D808384E190E0A0E0B0E0D0
:104870008093710390937203A0937303B0937403B6
:1048800084E991E00E94201181EA91E00E942011C8
:104890008AE094E00E94A81A88E091E09093C60410
:1048A0008093C50484ED94E00E94A81A4091E1042D
:1048B00050E06091E00470E084ED94E00E945F1AA3
:1048C00084ED94E00E940E189093E3048093E20438
:1048D0008091E104823088F084ED94E00E940E180B
:1048E00020E030E0382F8091E2049091E304282BFF
:1048F000392B3093E3042093E20420E042E060E1AE
:1049000088EE94E00E94541E64E971E088EE94E021
:104910000E94271961E080E00E946C2061EA71E04A
:1049200088EE94E00E9427198FE294E0909342046D
:104930008093410483EC93E0909344048093430478
:1049400081E080931C040E947B08D1E073E0E72E95
:10495000F12C01E010E0E2E03E2EFAE0CF2ED12C67
:104960000E94E51C0E949C1C0E948F2280906D0278
:1049700090906E02A0906F02B0907002DC01CB01AB
:1049800088199909AA09BB09893E9340A105B10577
:10499000D0F00E948F2260936D0270936E0280931C
:1049A0006F029093700280916C028F5F80936C0213
:1049B00080916B02882319F010926B0202C0D09391
:1049C0006B020E947B0885E694E00E943F0990916B
:1049D0001E04833279F4109247021092460210921C
:1049E000450210924402D0931C0491110EC00E9403
:1049F000C3030BC0992321F090911C04911105C0B1
:104A0000883309F0F7C10E94FF038091560281119B
:104A10000CC00E948F2260935202709353028093C5
:104A2000540290935502D093560280911F0488231C
:104A300071F080911C04882351F010921F04609142
:104A4000400480912204909123040E94EC208091E4
:104A50001804811150C0809119048E3008F08E50D6
:104A60008770806480937C0080917A00806480935A
:104A70007A0080917A0086FDFCCF209178008091A9
:104A8000790030E0382B60911A0470911B048091FA
:104A90004C0290914D02821B930B97FF03C091959E
:104AA00081959109681779072CF430934D02209372
:104AB0004C0227C0E6E1F4E080E090E046895789A7
:104AC000DA01A61BB70BA217B3077CF4460F571FDA
:104AD0002417350754F4880F991F880F991FFC017C
:104AE000E25DFB4F808091800EC001963496853048
:104AF000910521F706C086E194E00E94090B4C0164
:104B000002C0812C912CC0915102AC2EB12CA81462
:104B1000B904B9F080925102109250020E948F2283
:104B20006093520270935302809354029093550203
:104B300010924F0210924E021093560400935504A7
:104B4000F2C00E948F224090520250905302609017
:104B5000540270905502DC01CB0184199509A60915
:104B6000B70989379105A105B10508F4DCC00E9499
:104B70008F22609352027093530280935402909359
:104B800055028114910421F080911C0481110BC005
:104B900010924F0210924E02109356040093550447
:104BA00010925002C0C085E08816910411F4D09391
:104BB0001E0480911E04882309F4B5C08091500220
:104BC00090E0A816B906C1F480914E0290914F0270
:104BD000019690934F0280934E02B6010E940235D7
:104BE000892B81F080915504909156040296909300
:104BF00056048093550406C0C09350021093560487
:104C00000093550420911D04C530B9F4809120040F
:104C100090912104222329F045E063E00E948B114A
:104C200009C060E0009721F480912404909125044C
:104C30000E948B0C1092620476C0C33031F0C430F5
:104C400031F0C23031F464E005C061E003C062E0DD
:104C500001C060E0222369F0809162048F5F80933D
:104C600062044C2F80912004909121040E948B11AA
:104C70005AC08FEF860F823018F0643009F053C0AD
:104C80002091220430912304F9017196E491E150BE
:104C9000643081F5109221041092200480912A043E
:104CA00090912B04009781F480912804909129041D
:104CB000009769F48091260490912704009709F4E5
:104CC000D1C320E030E005C022E030E002C021E0A6
:104CD00030E0220F331FF901EA5DFB4F1182108291
:104CE00090932304809322041092400461E00E9478
:104CF0008B0C19C080914004613011F091E001C02B
:104D00009FEF682F690FE61730F481E06F3F09F0DD
:104D100080E0682F61956F3F09F46E2F6093400427
:104D2000C9010E94EC20809143028130B9F5809145
:104D30003F0290914002A0914102B0914202892B22
:104D40008A2B8B2BF1F480913B0290913C02A09135
:104D50003D02B0913E02892B8A2B8B2B91F420913E
:104D60006103309162034091630350916403609149
:104D700065037091660380916703909168030E94B8
:104D8000330885E495E00E946E0F811109C081E02F
:104D900095E00E946E0F811103C079C310926A02E0
:104DA00080916A02C1E0823009F0C0E0C0932A021B
:104DB0009091390361E0992319F0813019F403C00F
:104DC000813009F460E083E00E945C118091290247
:104DD000837021F0C1E0823009F0C0E080913A0395
:104DE0006C2F811101C06D2784E00E945C110E942C
:104DF0004F16B6CD8933E9F488EE94E00E948E1DFB
:104E000010921C04F0924702E09246021092450272
:104E1000109244021092250210922602109227024C
:104E2000109228021092240288EE94E00E94961DAF
:104E3000ECCD85E694E00E94E208C82F882309F4AF
:104E400041C08091250290912602A0912702B09145
:104E50002802892B8A2B8B2B51F40E948F2260937E
:104E600025027093260280932702909328020E94C5
:104E70008F228090250290902602A0902702B09069
:104E80002802DC01CB0188199909AA09BB098837D6
:104E90009105A105B10538F080912402811103C06C
:104EA000C093240201C0C0E00E948F22DC01CB012C
:104EB00088199909AA09BB0989359240A105B1054C
:104EC00058F008C010922502109226021092270274
:104ED000109228021092240280914602909147027B
:104EE000059709F0C0C0C33409F053C00E94BB0548
:104EF00010925105109252051092530510925405CC
:104F000010925505109256051092570510925805AB
:104F10001092790510927A0510927B0510927C050B
:104F20001092690510926A0510926B0510926C053B
:104F30001092590510925A0510925B0510925C056B
:104F400010920D0510920E0510920F05109210058B
:104F5000109211051092120510921305109214056B
:104F600010923505109236051092370510923805CB
:104F700010922505109226051092270510922805FB
:104F8000109215051092160510921705109218052B
:104F90005FC0C13469F50E94BB05809151059091B5
:104FA0005205A0915305B0915405809365039093E9
:104FB0006603A0936703B093680380910D059091F9
:104FC0000E05A0910F05B091100580936103909399
:104FD0006203A0936303B093640365E673E080E12A
:104FE00090E00E94831D61E673E084E190E02EC0B2
:104FF000C234A9F50E94BB058091510590915205DC
:10500000A0915305B091540580935D0390935E0386
:10501000A0935F03B093600380910D0590910E05FE
:10502000A0910F05B09110058093590390935A03F6
:10503000A0935B03B0935C036DE573E088E190E0BF
:105040000E94831D69E573E08CE190E00E94831D5E
:105050001092470210924602D0931C0404C0C3323F
:10506000B9F3CA32A9F3809146029091470206979C
:1050700009F049C00E948F22809048029090490216
:10508000A0904A02B0904B02DC01CB01881999092B
:10509000AA09BB09853F9140A105B10550F10E94C5
:1050A0008F22609348027093490280934A02909342
:1050B0004B0260E080E00E946C20409151055091CD
:1050C0005205609153057091540588EE94E00E945A
:1050D000251060E088E00E946C2040910D05509101
:1050E0000E0560910F057091100588EE94E00E9406
:1050F0002510C33211F0CA3231F4109247021092D7
:105100004602D0931C048091460290914702039777
:1051100009F07BCC8091440290914502C13411F496
:10512000019703C0C23429F40196909345028093FD
:105130004402A0904402B0904502B7FE02C0A12CE8
:10514000B12C85E0A816B1041CF064E0A62EB12CA9
:10515000B0924502A09244020E948F2240904802E1
:105160005090490260904A0270904B02DC01CB01E2
:1051700084199509A609B709853F9140A105B10594
:1051800008F443CC0E948F22609348027093490236
:1051900080934A0290934B02AB2809F070C060E004
:1051A00080E00E946C2080914302811103C083EE55
:1051B00091E059C09FEF980F923008F050C08230B4
:1051C00019F485ED91E002C086EC91E00E94860D15
:1051D0000E94B30561E080E00E946C2040913F0294
:1051E00050914002609141027091420288EE94E039
:1051F0000E9425106FE288EE94E00E94EE1A409122
:105200003702509138026091390270913A0288EE6B
:1052100094E00E9425100E94B30561E088E00E949E
:105220006C2040913B0250913C0260913D02709194
:105230003E0288EE94E00E9425106FE288EE94E032
:105240000E94EE1A40912B0250912C0260912D0287
:1052500070912E0288EE94E00E9425100EC08330DB
:1052600071F488EB91E00E94860D0E94B30561E025
:1052700080E00E946C200E94B3050E94B3058091DB
:10528000440290914502019781F560E080E00E9420
:105290006C2085EB91E00E94860D40915105509164
:1052A0005205609153057091540588EE94E00E9478
:1052B00025100E94B3050E94B30561E080E00E94C2
:1052C0006C2082EB91E00E94860D40910D0550917B
:1052D0000E0560910F057091100588EE94E00E9414
:1052E00025100E94B3050E94B3058091440290915D
:1052F0004502029709F048C060E080E00E946C20FF
:105300008AEA91E00E94860D6091510570915205E4
:1053100080915305909154052091250330912603E7
:1053200040912703509128030E943835BA01A90102
:1053300088EE94E00E9425100E94B3050E94B305F8
:1053400061E080E00E946C2082EA91E00E94860D7C
:1053500060910D0570910E0580910F0590911005DB
:105360002091210330912203409123035091240383
:105370000E943835BA01A90188EE94E00E942510F8
:105380000E94B3050E94B3058091440290914502AA
:10539000039781F560E080E00E946C208AE991E04B
:1053A0000E94860D409165035091660360916703EA
:1053B0007091680388EE94E00E9425100E94B30566
:1053C0000E94B30561E080E00E946C2082E991E0D8
:1053D0000E94860D409161035091620360916303C6
:1053E0007091640388EE94E00E9425100E94B3053A
:1053F0000E94B3058091440290914502049709F000
:1054000004CB60E080E00E946C208AE891E00E947A
:10541000860D40915D0350915E0360915F03709132
:10542000600388EE94E00E9425100E94B3050E945C
:10543000B30561E080E00E946C2082E891E00E9468
:10544000860D4091590350915A0360915B0370910E
:105450005C0388EE94E00E9425100E94B3050E9430
:10546000B305D3CA8091240490912504909323041A
:10547000809322041092400410921E04E091430491
:10548000F0914404309709F44ECC09954CCC8091AE
:105490006A02811130C00E948F226093660270936D
:1054A00067028093680290936902D0936A026CEA63
:1054B00071E08DE693E00E9427196091510570918B
:1054C000520580915305909154050E94A61060EBFF
:1054D00071E08DE693E00E94271960910D057091AF
:1054E0000E0580910F05909110050E94A61084EB87
:1054F00091E00E9420110E948F228090660290907D
:105500006702A0906802B0906902AB01BC01481923
:1055100059096A097B098091430390914403A0E0F3
:10552000B0E0481759076A077B0708F439CC809127
:105530006A02813071F50E948F226093620270933B
:105540006302809364029093650230926A026CEB6E
:1055500071E08DE693E00E94271940913F0250913F
:10556000400260914102709142028DE693E00E94F8
:10557000251063EC71E08DE693E00E94271960919D
:105580003B0270913C0280913D0290913E020E944C
:10559000A6100E948F228090620290906302A090D9
:1055A0006402B0906502AB01BC01481959096A094F
:1055B0007B098091410390914203A0E0B0E048173D
:1055C00059076A077B0708F4EBCB80916A028230A7
:1055D00089F40E948F2260935E0270935F02809331
:1055E00060029093610283E080936A0287EC91E00D
:1055F0000E9420110E948F2280905E0290905F0294
:10560000A0906002B0906102AB01BC014819590939
:105610006A097B0980913F0390914003A0E0B0E0CC
:10562000481759076A077B0708F4BACB10926A0239
:1056300080ED91E00E9420118091490390914A03EE
:10564000A0914B03B0914C030097A105B10509F05F
:1056500081C080913F0290914002A0914102B0919F
:1056600042029C01AD012F5F3F4F4F4F5F4F209390
:105670003F02309340024093410250934202809097
:105680003B0290903C02A0903D02B0903E028FEF12
:10569000881A980AA80AB80A80923B0290923C02A3
:1056A000A0923D02B0923E02809137029091380262
:1056B000A0913902B0913A02281739074A075B07CF
:1056C000D4F083E08093430210923F021092400294
:1056D000109241021092420210923B0210923C0240
:1056E00010923D0210923E02812C912C5401412CCB
:1056F000512C3201AEC0609133027091340280911E
:105700003502909136020E94F23440906503509029
:1057100066036090670370906803460E571E681E0C
:10572000791E60912F027091300280913102909128
:105730003202A50194010E94F2348090610390909E
:105740006203A0906303B0906403860E971EA81EA8
:10575000B91EC2C0181619061A061B060CF0D7C0CF
:1057600080913F0290914002A0914102B09142028B
:105770000196A11DB11D80933F0290934002A0931A
:105780004102B09342024091370250913802609139
:10579000390270913A0284179507A607B707DCF023
:1057A00010923F0210924002109241021092420267
:1057B00080913B0290913C02A0913D02B0913E024B
:1057C0000196A11DB11D80933B0290933C02A093D2
:1057D0003D02B0933E022091330230913402409159
:1057E00035025091360260913F02709140028091E3
:1057F0004102909142020E94F234809065039090A1
:105800006603A0906703B09068032B013C01480C2D
:10581000591C6A1C7B1C20912F0230913002409150
:1058200031025091320260913B0270913C028091B2
:105830003D0290913E020E94F2348090610390906C
:105840006203A0906303B0906403860E971EA81EA7
:10585000B91E40913F025091400260914102709107
:1058600042028091370290913802A0913902B091A2
:105870003A02481759076A077B0774F140913B02C7
:1058800050913C0260913D0270913E0280912B024A
:1058900090912C02A0912D02B0912E024817590729
:1058A0006A077B07CCF083E08093430210923F02AB
:1058B00010924002109241021092420210923B025A
:1058C00010923C0210923D0210923E02812C912CCB
:1058D0005401412C512C3201A5019401C301B201A4
:1058E0000E94330869ED71E08DE693E00E9427196C
:1058F000C301B2010E94A61068EE71E08DE693E04C
:105900000E942719C501B4010E94A61049CA8091BE
:105910003B0290913C02A0913D02B0913E02019663
:10592000A11DB11D80933B0290933C02A0933D02C8
:10593000B0933E0240912B0250912C0260912D02B7
:1059400070912E0284179507A607B7070CF443CF72
:1059500010923B0210923C0210923D0210923E02C5
:1059600080913F0290914002A0914102B091420289
:105970000196A11DB11D80933F0290934002A09318
:105980004102B093420227CF8F929F92AF92BF9273
:10599000CF92DF92EF92FF920F931F93CF93DF93FB
:1059A0001092700310926F0388EE93E0A0E0B0E0D5
:1059B0008093710390937203A0937303B093740365
:1059C00024E231E030936E0320936D0325EC30E048
:1059D00030937A032093790324EC30E030937C03F6
:1059E00020937B0320EC30E030937E0320937D03F3
:1059F00021EC30E03093800320937F0322EC30E0F1
:105A0000309382032093810326EC30E030938403AB
:105A100020938303109286031092870310928803C9
:105A20001092890310920D0410920C0480930E04BE
:105A300090930F04A0931004B093110486E391E0B7
:105A400090930B0480930A0488E7A82E81E0B82E77
:105A5000B0924605A0924505C1E0C093480510925A
:105A60005105109252051092530510925405109250
:105A70005505109256051092570510925805109230
:105A8000590510925A0510925B0510925C05C12CC5
:105A9000D12C90E8E92E9FE3F92EC0925D05D092BB
:105AA0005E05E0925F05F09260051092610510922C
:105AB00062051092630510926405C0926505D0924C
:105AC0006605E0926705F0926805109269051092EC
:105AD0006A0510926B0510926C0501E010E01093BE
