:100000000C9444030C946C030C946C030C946C03DC
:100010000C946C030C946C030C946C030C946C03A4
:100020000C946C030C946C030C946C030C946C0394
:100030000C946C030C946C030C946C030C946C0384
:100040000C9476200C946C030C94041D0C94DE1C10
:100050000C946C030C946C030C946C030C946C0364
:100060000C9464100C946C03C519CB19D119D719D1
:10007000DD19E319E9191A1B211B281B2F1B361B3D
:100080004D1B3D1B4D1B441B4E414E494E4954597F
:10009000494E46CDCCCC3D0AD7233C17B7D1387753
:1000A000CC2B329595E6241FB14F0A000020410069
:1000B00000C84200401C4620BCBE4CCA1B0E5AAEB3
:1000C000C59D7400407A10F35A00A0724E180900C2
:1000D00010A5D4E80000E87648170000E40B5402AD
:1000E0000000CA9A3B000000E1F5050000809698E8
:1000F00000000040420F000000A086010000001038
:100100002700000000E80300000000640000000079
:10011000000A00000000000100000000002C76D85A
:1001200088DC674F0823DFC1DFAE59E1B1B796E540
:10013000E3E453C63AE651997696E8E6C28426EBA4
:10014000898C9B62ED407C6FFCEFBC9C9F40F2BAB7
:10015000A56FA5F490055A2AF75C936B6CF9676D4F
:10016000C11BFCE0E40D47FEF520E6B500D0ED90A4
:100170002E0300943577050080841E080000204E71
:100180000A000000C80C333333330F986E1283110A
:1001900041EF8D2114893BE65516CFFEE6DB18D1E1
:1001A000844B381BF77C1D901DA4BBE424203284B3
:1001B000725E228100C9F124ECA1E53D2753484F2E
:1001C000545B6D735D3A00504F53545B6D735D3AF1
:1001D000005052455B6D735D3A00414343454C5BB3
:1001E00073742F73325D3A0053504545445B73740A
:1001F0002F735D3A0052315B73745D3A004C315B92
:1002000073745D3A0052305B73745D3A004C305B3E
:1002100073745D3A00523A004C3A004D4F56494EC5
:100220004720444F4E45004D4F56494E47205255AA
:100230004E4E494E47004D4F56494E47205041556E
:10024000534544004D4F56494E472053544F50504C
:1002500045440000000000250028002B000000009D
:1002600000230026002900040404040404040402FA
:100270000202020202030303030303010204081043
:100280002040800102040810200102040810200010
:100290000000080002010000030407000000000045
:1002A0000000004F4B0031552032442020305020B8
:1002B000203344204155005A5B2A5D20535B435D47
:1002C00020465B445D20234553430020202020200E
:1002D00020202000454D2053544F50205245534577
:1002E0005400454D455247454E43592053544F50B5
:1002F00000024F4E2100000000000000000000003E
:1003000000014F46462100000000000000000000F0
:1003100000004155544F2100000000000000000083
:100320000011030103F1020C030321030300000089
:1003300000000000000D0348000300000000000062
:10034000000011034400030000000000000000153D
:1003500003400003000000000000000019034400F7
:100360000900000000000000002703040000010055
:100370000000000000001D03340000010000000028
:100380000000001E0330000001000000000000001B
:100390001F032C00020000000000000000200328C2
:1003A0000002000000000000000022032400020000
:1003B00000000000000000240320000300000000F3
:1003C0000000000026031C000300000000000000E5
:1003D000002A0318000300000000000000002E03A4
:1003E00014000300000000000000003203100002AF
:1003F000000000000000000036030C0002000000B6
:1004000000000000003803080002000000000000A7
:1004100000003A03380052455345542044454641B4
:10042000554C5453210002008E13524D41585B73BA
:10043000746570735D000000000001002C034C4DDA
:1004400041585B73746570735D000000000001002B
:100450003903524D494E5B73746570735D00000043
:100460000000010046034C4D494E5B737465707388
:100470005D00000000000100530353484F54204F1B
:1004800055545055540000000000010060035348CB
:100490004F5420494E56455253494F4E00000100DB
:1004A0006D0352494748542044495220494E560052
:1004B000000001007A034C4546542044495220492B
:1004C0004E560000000001008703504F5354205344
:1004D000484F5420545B6D735D00010094035348F2
:1004E0004F542054494D455B6D735D000000010081
:1004F000A1035052452053484F5420545B6D735D07
:1005000000000100AE0352315B73746570735D00CF
:100510000000000000000100BB034C315B737465F8
:1005200070735D000000000000000100C80352303D
:100530005B73746570735D000000000000000100D3
:10054000D5034C305B73746570735D000000000070
:1005500000000100E203414343454C5B73742F7379
:10056000325D000000000100EF034D415820535060
:100570004545445B73742F735D000100FC035354C5
:100580004F50535B2D5D0000000000000000010093
:1005900009047E056A05560542052E051A0506055D
:1005A000F204DE04CA04B604A2048E047A046604CB
:1005B00052043E042A041604474F544F2046494E25
:1005C000414C20504F53210002003112474F544FED
:1005D00020535441525420504F53210002004512E1
:1005E00053455454494E47532D3E0000000000002F
:1005F0000013920543414C4942524154494F4E0029
:10060000000000000200810D474F544F205A455210
:100610004F20504F53210000020027124D4F5645E6
:100620002053544F50210000000000000200CD1163
:100630004D4F5645205354415254210000000000B4
:100640000200C7114D4F56452050415553452100DA
:10065000000000000200DA11440630061C060806FD
:10066000F405E005CC05B805524F4F5400000000DA
:100670000000000000000000000858060000000014
:10068000240027002A00B52C11241FBECFEFD8E08C
:10069000DEBFCDBF25E0AAE1B2E001C01D92AD36BC
:1006A000B207E1F712E0A0E0B1E0E8E4F2E702C04F
:1006B00005900D92AA31B107D9F713E0C4E4D3E055
:1006C00004C02197FE010E94FF36C334D107C9F749
:1006D0000E94C0200C9422390C9400000F931F93A9
:1006E000CF93DF93EC01FC0170961491113009F067
:1006F00098C01093F20340E150E0BC018AE194E01D
:100700000E946D2F20E130E040E050E060E070E0BA
:100710008AE194E00E94BF1EFE0172968591949139
:10072000FC0164913996A591B491611104C08C913A
:1007300080932C046FC08FEF860F823040F48D9130
:100740009C911197909332048093310463C08DEF94
:10075000860F823070F40D911D912D913C9113976D
:1007600000932D0410932E0420932F043093300413
:1007700051C0693031F5FD013396C591D491FD0129
:1007800085919491FC018081FD013296A4919E0196
:1007900060E090E0A91761F0F90145915491FA01E8
:1007A0004491841301C0692F9F5F2E5F3F4FF2CFAA
:1007B00060932C04CE01DF91CF911F910F910C9487
:1007C0008F1F6A30D1F4FD013196C591D491FD019E
:1007D000A491888190E002C095958795AA95E2F74B
:1007E00080FF03C010932C0402C010922C04DF91F0
:1007F000CF911F910F910C94BA1F0D911D912D91C6
:100800003C911397009333041093340420933504E0
:1008100030933604CD01DF91CF911F910F910C944D
:10082000281F111134C061112EC02091F70330919F
:10083000F8038217930739F18091FB039091FC0331
:10084000892B79F08091FD039091FE03892B61F053
:100850008091FF0390910004892B79F482E090E06D
:1008600005C080E090E002C081E090E0880F991F11
:10087000FC01E550FC4F31832083D093F803C093F3
:10088000F7031092150460911504CE0114C01230C4
:10089000D9F4FC01729685919491009711F0FC01B6
:1008A00009958091F103882361F06091150480918E
:1008B000F7039091F803DF91CF911F910F910C9462
:1008C000C71E81E08093F403DF91CF911F910F91B8
:1008D00008950F931F93CF93DF938C01C0E0D0E076
:1008E000F801EC0FFD1F6491662341F08DEB94E05D
:1008F0000E94A713892B11F02196F2CFCE01DF9130
:10090000CF911F910F9108954F925F926F927F92B6
:100910008F929F92AF92BF92CF92DF92EF92FF920F
:100920000F931F93CF93DF93EC01C888D988EA888F
:10093000FB888C859D85AE85BF85C81AD90AEA0AD1
:10094000FB0A6C897D898E899F899B01AC010E947D
:10095000F8334B015C016C8D7D8D8E8D9F8D9B01DD
:10096000AC010E9421359B01AC01C501B4010E947C
:100970008D350E94FF35C114D104E104F10499F4CE
:1009800062307105810591050CF076C01CA21DA294
:100990001EA21FA21C8A1D8A1E8A1F8A1CAA1DAAAB
:1009A0001EAA1FAAEDC00CA91DA92EA93FA91C149F
:1009B0001D041E041F04FCF4101611061206130673
:1009C0004CF46C157D058E059F054CF52A8121118F
:1009D00053C025C0011511052105310509F44CC08E
:1009E0006C157D058E059F050CF046C08A81882315
:1009F00009F442C036C01016110612061306ECF4B4
:100A00000027112798010C191D092E093F096017AD
:100A10007107820793071CF42A81222369F19B0145
:100A2000AC0188279927DC01821B930BA40BB50B23
:100A30008CAB9DABAEABBFAB1FC001151105210543
:100A40003105D1F08824992454018C189D08AE08F2
:100A5000BF08681579058A059B0574F48A818111A0
:100A60000BC030952095109501951F4F2F4F3F4F8C
:100A70000CAB1DAB2EAB3FAB8CA89DA8AEA8BFA8FE
:100A800081149104A104B10489F488AD99ADAAAD93
:100A9000BBAD8CAF9DAFAEAFBFAF81E01C141D04EA
:100AA0001E041F040CF080E08A833FC0CCACDDAC98
:100AB000EEACFFACA7019601C701B6010E9421353B
:100AC0002B013C01C501B4010E94993320E030E0C4
:100AD00040E850E40E94F83320E030E040E85FE373
:100AE0000E9421359B01AC01C301B2010E948D35EA
:100AF0009B01AC01C701B6010E9420353B016C018E
:100B0000FE01E05CFF4FE080F180028113819701DC
:100B1000A8010E943536181614F473018601C70126
:100B2000D8018CAF9DAFAEAFBFAF3FEF831A930A32
:100B3000A30AB30A8CAA9DAAAEAABFAACCACDDAC0C
:100B4000EEACFFACC701B6010E9406366CA37DA3D4
:100B50008EA39FA3A701960160E074E284E799E465
:100B60000E948D356C8B7D8B8E8B9F8B2A81211102
:100B700007C0DC01CB01B0588C8B9D8BAE8BBF8B3B
:100B8000DF91CF911F910F91FF90EF90DF90CF9069
:100B9000BF90AF909F908F907F906F905F904F909D
:100BA0000895CF92DF92EF92FF92CF93DF93FC01F3
:100BB00044A155A166A177A1452B462B472B11F4E3
:100BC00080E036C0EC010E9445206B017C0188A5C5
:100BD00099A5AAA5BBA5B701A601481B590B6A0B8D
:100BE0007B0B8CA19DA1AEA1BFA1481759076A0735
:100BF0007B0730F32A818C859D85AE85BF852223B6
:100C000021F00196A11DB11D03C00197A109B109F1
:100C10008C879D87AE87BF874C855D856E857F8578
:100C2000CE010E940B1BC8A6D9A6EAA6FBA681E0AE
:100C3000DF91CF91FF90EF90DF90CF9008950F93C9
:100C40001F93CF93DF93EC010E94D105882319F005
:100C5000CE010E94840420E030E0A9016C897D89E6
:100C60008E899F890E949233811110C081E008898A
:100C700019892A893B894C855D856E857F85041796
:100C800015072607370719F480E001C081E0DF91DE
:100C9000CF911F910F910895CF92DF92EF92FF9223
:100CA0000E946A206B017C010E946A20DC01CB015A
:100CB0008C199D09AE09BF09843F9140A105B1057A
:100CC00048F48AE195E00E941F0686ED94E00E94B8
:100CD0001F06EACFFF90EF90DF90CF900895CF925C
:100CE000DF92EF92FF92CF93DF93EC016A017B01D9
:100CF00020E030E0A901C701B6010E9492338823A9
:100D000059F0B701A601CE01DF91CF91FF90EF908E
:100D1000DF90CF900C94361DDF91CF91FF90EF9034
:100D2000DF90CF900895CF92DF92EF92FF920F93D2
:100D30001F93CF93DF93EC016A017B0120E030E049
:100D4000A901C701B6010E94923387FF04C0F7FAD8
:100D5000F094F7F8F094A7019601688D798D8A8D4B
:100D60009B8D0E949233882309F446C0C88ED98E89
:100D7000EA8EFB8E8E01005C1F4FA701960160E09A
:100D800074E284E799E40E948D35F80160837183F1
:100D9000828393838CA99DA9AEA9BFA918161906B1
:100DA0001A061B064CF56C897D898E899F899B01EB
:100DB000AC010E94F8336B017C016C8D7D8D8E8DB2
:100DC0009F8D9B01AC010E9421359B01AC01C701A5
:100DD000B6010E948D350E94FF356CAB7DAB8EABAA
:100DE0009FABCE01DF91CF911F910F91FF90EF90BC
:100DF000DF90CF900C948404DF91CF911F910F91DD
:100E0000FF90EF90DF90CF9008950F931F93FC0118
:100E10000485158526853785400F511F621F731F76
:100E200000891189228933894017510762077307A6
:100E300041F0408B518B628B738B1F910F910C94FF
:100E400084041F910F9108958F929F92AF92BF9249
:100E5000CF92DF92EF92FF92CF93DF93EC018C88D9
:100E60009D88AE88BF8820E030E0A901C501B401AB
:100E70000E949233882309F43FC0A5019401C50163
:100E8000B4010E94F8336B017C016C8D7D8D8E8DD9
:100E90009F8D9B01AC010E9421359B01AC01C701D4
:100EA000B6010E948D350E94FF356B017C012FEF4A
:100EB000C21AD20AE20AF20A20E030E0A901C50112
:100EC000B4010E94353618161CF4B701A60107C0FC
:100ED00044275527BA014C195D096E097F09CE01D7
:100EE000DF91CF91FF90EF90DF90CF90BF90AF90C8
:100EF0009F908F900C940507DF91CF91FF90EF901A
:100F0000DF90CF90BF90AF909F908F900895CF9239
:100F1000DF92EF92FF920F931F93CF93DF9377FFB0
:100F20001DC06A017B01EC016DE20E94771C8C01FF
:100F300044275527BA014C195D096E097F092AE03B
:100F4000CE010E94931C800F911FDF91CF911F91C2
:100F50000F91FF90EF90DF90CF9008952AE0DF91FE
:100F6000CF911F910F91FF90EF90DF90CF900C9455
:100F7000931C61E172E082E493E00C947E1CAB016F
:100F800060E070E02AE00C94931CCF93DF93AB01F8
:100F9000BC0182E493E00E948707EC010E94B9073C
:100FA0008C0F9D1FDF91CF910895CF93DF93FC01AC
:100FB00024813581232B71F0FB01DC01CD91DC9183
:100FC00060817181CE010E940839009719F08C1B55
:100FD0009D0B02C08FEF9FEFDF91CF9108950F938C
:100FE0001F930E946A2060934A0370934B0380937F
:100FF0004C0390934D0382E493E00E94DA1897FF2C
:101000001FC00E946A2000914A0310914B03209157
:101010004C0330914D03DC01CB01801B910BA20BE3
:10102000B30B009146031091470320914803309180
:10103000490380179107A207B307E8F28FEF9FEFEC
:101040001F910F910895CF93DF93282F30E0F9017E
:10105000E157FD4F8491F901E558FD4FD491F90115
:10106000E959FD4FC491CC2391F081110E94E01FFA
:10107000EC2FF0E0EE0FFF1FE35AFD4FA591B49166
:10108000EC91ED2381E090E021F480E002C080E06B
:1010900090E0DF91CF9108951F93CF93DF93282F96
:1010A00030E0F901E157FD4F8491F901E558FD4F1A
:1010B000D491F901E959FD4FC491CC23C1F0162F09
:1010C00081110E94E01FEC2FF0E0EE0FFF1FED5AA0
:1010D000FD4FA591B4919FB7F894111104C08C9164
:1010E000D095D82302C0EC91DE2BDC939FBFDF911B
:1010F000CF911F9108952F923F924F925F926F92DE
:101100007F928F929F92AF92BF92CF92DF92EF9297
:10111000FF920F931F93CF93DF93CDB7DEB7649702
:101120000FB6F894DEBF0FBECDBF042F4296FC0170
:1011300085919491FC0114913596C590D590E590D8
:10114000F490FC0131962591359145915491298B6C
:101150003A8B4B8B5C8B643009F46DC3633008F0C1
:1011600097C2193029F5FC01399625913491F9017E
:1011700032969491319625913491EFEFE90F909149
:101180002C04613039F0911103C0E0932C040AC0A3
:10119000915006C0E91303C010922C0403C09F5F56
:1011A00090932C0460912C04C9010E948F1F4CC3A2
:1011B0001A3059F481E090912C04913009F480E0C8
:1011C00080932C040E94BA1F3FC3613019F08FEF47
:1011D0009FEF02C081E090E020912A0430912B041F
:1011E000829F5001839FB00C929FB00C1124B501D7
:1011F0000B2C000C880B990B0E949933163029F4A4
:1012000020E030E040E251E40DC0173029F420E046
:1012100030E048EC52E406C0183031F420E030E011
:101220004AE754E40E948D3549885A886B887C8847
:101230002DEF200F2230B8F4109237049B01AC013F
:101240006091330470913404809135049091360498
:101250000E942135609333047093340480933504E5
:101260009093360458C00334B9F4109233041092AA
:101270003404109235041092360410922D0410920A
:101280002E0410922F041092300410923204109207
:10129000310410922C043AC00130D9F580912C040D
:1012A000819580932C048091310490913204919522
:1012B00081959109909332048093310480912D049B
:1012C00090912E04A0912F04B0913004B095A09578
:1012D000909581959F4FAF4FBF4F80932D04909372
:1012E0002E04A0932F04B093300480913304909186
:1012F0003404A0913504B0913604B058809333047F
:1013000090933404A0933504B0933604A12CB12CEF
:10131000C8C0A12CB12C00530A3008F0C2C0809183
:101320003704823008F442C080912C04880F982F33
:10133000990F990F890F80932C04209131043091DB
:1013400032044AE0429FC001439F900D11249093C4
:1013500032048093310420912D0430912E04409169
:101360002F0450913004AAE0B0E00E94CF34609383
:101370002D0470932E0480932F049093300420E06A
:1013800030E040E251E46091330470913404809184
:101390003504909136040E94F833609333047093BF
:1013A0003404809335049093360418C08130B1F42E
:1013B00010922D0410922E0410922F0410923004DB
:1013C000109232041092310410922C0410923304C3
:1013D00010923404109235041092360480912C043B
:1013E000800F80932C048091310490913204800FFF
:1013F000911D909332048093310480912D0490913B
:101400002E04A0912F04B0913004800F911DA11DD6
:10141000B11D80932D0490932E04A0932F04B093BC
:101420003004163061F4602F000F770B880B990B96
:101430000E94993320E030E040E251E40DC01730C3
:1014400011F5602F000F770B880B990B0E949933D1
:1014500020E030E048EC52E40E948D359B01AC0165
:101460006091330470913404809135049091360476
:101470000E942135609333047093340480933504C3
:1014800090933604B9C0183061F4602F000F770BC9
:10149000880B990B0E94993320E030E04AE754E42E
:1014A000DBCF111126C080912C048A0DC114D10408
:1014B000E104F10441F4411451046104710419F48C
:1014C00080932C0413C090E0A0E0B0E048165906C9
:1014D0006A067B0644F0C816D906EA06FB0624F421
:1014E0006C017D0101C0C988C0922C048CE294E09B
:1014F000CBC0113011F0123089F5809131049091F8
:1015000032048A0D9B1DC114D104E104F10451F48D
:10151000411451046104710429F4909332048093BE
:1015200031040FC0092E000CAA0BBB0B481659063C
:101530006A067B064CF499898A89909331048093DA
:10154000320481E394E0A0C0C816D906EA06FB067F
:1015500014F46C017D019C2D8D2DEFCF133069F4B7
:10156000A501BB0C660B770B80912D0490912E0486
:10157000A0912F04B09130040EC01430E9F5C501DC
:10158000BB0CAA0BBB0B40912D0450912E04609113
:101590002F0470913004840F951FA61FB71FC1142C
:1015A000D104E104F10471F44114510461047104A3
:1015B00049F480932D0490932E04A0932F04B093AC
:1015C00030040FC0481659066A067B066CF4730196
:1015D0006201C0922D04D0922E04E0922F04F0926A
:1015E00030048DE294E050C0C816D906EA06FB0626
:1015F00084F76C017D01EDCFC114D104E104F10445
:1016000029F44114510461047104E1F12090330480
:10161000309034048090350490903604C301B201B8
:101620000E949933762EA72EB82E092F262F372FFA
:10163000482F592FB101C4010E9435361816B4F055
:10164000C701B6010E949933762EA72EB82E092F16
:10165000262F372F482F592FB101C4010E949233F2
:1016600087FD04C0722CA32CB82C092D872D9A2D30
:10167000AB2DB02F8093330490933404A0933504A2
:10168000B093360483E394E0612F0E94281FDCC0EE
:10169000633009F0D9C0FC013996A591B491193095
:1016A00099F4FD0133962591349140912C04F90170
:1016B000E40FF11DE40FF11D65917491FB0164913C
:1016C000FD01A591B4912AC01A3021F5FD01319692
:1016D00065917491FD01A49120912C04FB01B081CE
:1016E000222349F041E050E001C0440FAA95EAF7F7
:1016F0004B2B40830AC021E030E001C0220FAA95A5
:10170000EAF720952B23FB012083FB0160810E94D7
:10171000D11591C0111104C060912C046C93F7CFC6
:101720001230A9F420913104309132042D933C936E
:10173000388B2F87FC013B9685919491009709F493
:101740007AC0BE01615F7F4F0E94EA1574C01130FC
:10175000A9F420913104309132042D933C933E87BB
:101760002D87FC013B9685919491009709F463C005
:10177000BE01635F7F4F0E94EA155DC01430F1F433
:1017800040912D0450912E0460912F0470913004EB
:101790004D935D936D937C93139749875A876B871D
:1017A0007C87FC013B9685919491009709F443C096
:1017B000BE01675F7F4F0E94E7153DC01330E9F41B
:1017C00040912D0450912E0460912F0470913004AB
:1017D0004D935D936D937C9313974D835E836F83DD
:1017E0007887FC013B9685919491009721F1BE0189
:1017F0006B5F7F4F0E94E7151EC01530E0F04091EF
:1018000033045091340460913504709136044D9343
:101810005D936D937C93139749835A836B837C8389
:10182000FC013B9685919491009729F0BE016F5F72
:101830007F4F0E94E7151092F20361E08091F70359
:101840009091F8030E946E0364960FB6F894DEBF81
:101850000FBECDBFDF91CF911F910F91FF90EF9001
:10186000DF90CF90BF90AF909F908F907F906F90C0
:101870005F904F903F902F900895AF92BF92CF927C
:10188000DF92EF92FF920F931F93CF93DF937C0130
:101890006B01EA01DB011496AD90BC901597A4167C
:1018A000B50620F48D2FE501A42EB82E63E172E079
:1018B000C7010E94621CF60104811581C017D1077F
:1018C000C8F5A016B10608F48501D601ED91FC918A
:1018D0001197E00FF11FB08010826D917C916C0F19
:1018E0007D1F6115710561F0FB0101900020E9F792
:1018F0003197AF01461B570BC7010E94321C13C022
:10190000F70180819181009711F00E949D37D701E6
:1019100011961C921E9215961C921E921497139665
:101920001C921E921297F60180819181FC01E00FBA
:10193000F11FB082C701DF91CF911F910F91FF90EE
:10194000EF90DF90CF90BF90AF90089508950895E5
:101950000895E0910B0380910A03E81730F4F0E05A
:10196000E651FD4F808190E008958FEF9FEF08953D
:1019700090910B0380910A03981750F4E92FF0E03F
:10198000E651FD4F208130E09F5F90930B0302C032
:101990002FEF3FEFC901089580910A0390E0209155
:1019A0000B03821B9109089585ED8093BC00809103
:1019B000BC0084FDFCCF1092C902089540917C02C6
:1019C000262F30E0240F311D21323105DCF4209127
:1019D000C9022430C9F4FC0180E090E0861758F475
:1019E00030917C022191DC01A45ABD4FA30FB11D9F
:1019F0002C930196F3CF80917C02680F60937C0258
:101A000080E0089581E0089582E00895CF92DF920A
:101A1000EF92FF920F931F93CF93DF937C01CB0143
:101A20008A0120914103222389F0EB016B01C40E4E
:101A3000D51ECC15DD0569F06991D701ED91FC91BA
:101A40000190F081E02DC7010995F3CF642F0E942A
:101A5000DE0CC801DF91CF911F910F91FF90EF90A5
:101A6000DF90CF900895CF93DF931F92CDB7DEB76D
:101A70006983209141032223D1F020913E0320323B
:101A800040F021E030E0FC013383228380E090E0ED
:101A900015C080913F03E82FF0E0E653FD4F998198
:101AA00090838F5F80933F0380933E0305C061E086
:101AB000CE0101960E94DE0C81E090E00F90DF9154
:101AC000CF910895862F0C942308862F642F0C94B1
:101AD0004C08862F642F0C9409208DEB94E00E9413
:101AE000FD156AE971E08DEB94E00E94DC1C61E079
:101AF00080E00E94471E63E172E08DEB94E00C945D
:101B0000DC1C8DEB94E00E94F5151092F10385E04A
:101B100090E0909328028093270281E090E09093D8
:101B200026028093250210921B0210921C02109232
:101B30001D0210921E0210921A028DEB94E00E9478
:101B4000FD1560E080E00E94471E87EB92E00E9456
:101B5000690461E080E00E94471E86EA92E00C94EE
:101B60006904EF92FF920F931F93CF93DF938C0141
:101B7000D62FC42F79018DEB94E00E94F5156D2FBF
:101B80008C2F0E94471EE801CE01801B910B8E1501
:101B90009F055CF469918FED860F8E3508F060E249
:101BA0008DEB94E00E94A713EFCFDF91CF911F91AF
:101BB0000F91FF90EF9008952F923F924F925F9276
:101BC0006F927F928F929F92AF92BF92CF92DF924D
:101BD000EF92FF920F931F93CF93DF93CDB7DEB7B2
:101BE0002A970FB6F894DEBF0FBECDBF9A878987BC
:101BF0000E946A2029853A85245A3F4F3A832983D7
:101C0000D9010D911D912D913C91AB01BC01401B5F
:101C1000510B620B730BE985FA85E859FF4F808100
:101C20009181A0E0B0E084179507A607B70708F0F8
:101C30002FC110E049845A84B6E64B0E511CE9844A
:101C4000FA84E2E6EE0EF11CD2018C911817B0F086
:101C500010E029843A84B7E62B0E311CC984DA845B
:101C6000E4E6CE0ED11C812C912C5401839429855D
:101C70003A852E593F4F38872F8361C0F701A081E5
:101C8000B181A10FB11DE985FA8580819181FC01A7
:101C90002081318142E06C9189859A85F90109950D
:101CA0001F5FD2CF802F90E0AF81B8852D913C91FE
:101CB0003C01D901A60DB71D0480F581E02D6C9182
:101CC00089859A850995660C771CE985FA85E60D64
:101CD000F71D892B09F071C0808591852B813C818E
:101CE000822B932B918780870F5FD2018C91A985DE
:101CF000BA85ED91FC910817A8F2D6018D919C91BF
:101D0000DC01AE0DBF1D0280F381E02D41E06C913E
:101D100089859A850995F60180819181DC01AE0D56
:101D2000BF1DE985FA8580819181FC012081318187
:101D300040E06C9189859A85F90109951F5FD10171
:101D40008C91181708F040C0E12EF12CF601A0810B
:101D5000B181AE0DBF1DE985FA8580819181FC01BD
:101D60002081318141E06C9189859A85F90109953D
:101D7000F601A081B181AE0DBF1DE985FA85808194
:101D80009181FC012281338140E06C9189859A85A3
:101D9000F9010995D501C401012E04C0880F991FCE
:101DA000AA1FBB1F0A94D2F79C838B839C012095AA
:101DB00030953E832D8300E098CF80859185AD815D
:101DC000BE818A239B238ECFE984FA846701FCE3DA
:101DD000CF0ED11CF7018FEF9FEF278D30A1232B62
:101DE00021F4148E968F858F11A23696EC15FD0581
:101DF000A1F7912CA984BA8420E6A20EB11C86E03A
:101E0000782ED2018C91981660F5812C09851A855F
:101E1000090D111D090D111D085F1F4FF101808172
:101E20008816E8F4D8012D913C91082C02C0369513
:101E300027950A94E2F7422F4170989EC001112421
:101E4000880D911DE985FA8560E0A58DB68D8A170C
:101E50009B07E9F16F5F36966A30B9F71BC0939420
:101E6000D0CF1B82F70181A1882311F0F1E0FB8321
:101E700026E0E20EF11CCE14DF04A1F70E946A20D6
:101E8000A981BA816D937D938D939C9313972CC0F8
:101E90001B822AC020FF1FC0E985FA8560E070E040
:101EA000248D21111AC0D501ED91FC91E80FF91F85
:101EB0005081769E9001779E300D1124E985FA8538
:101EC000E20FF31F548F968F858F10A2178E89858E
:101ED0009A850E94B91D8394A1CF6F5F7F4F36967C
:101EE0006A307105E9F6F7CF8B812A960FB6F89420
:101EF000DEBF0FBECDBFDF91CF911F910F91FF903D
:101F0000EF90DF90CF90BF90AF909F908F907F9099
:101F10006F905F904F903F902F90089530913E03C7
:101F2000313208F04AC08091C9028111FCCF9091F2
:101F3000400322E02093C9026093C8022FEF209350
:101F4000C7021092C6023093C502EAECF2E0A5EA9D
:101F5000B2E020E0321721F041914D932F5FFACF8C
:101F60001092A4022091A402990F922B9093A402A4
:101F70009091A302913061F41092A3029091A40277
:101F80009093BB009091BC0093FDF8CF95EC01C0FD
:101F900095EE9093BC009091C9029230E1F390913C
:101FA000C7029F3F79F08091C702803241F0809153
:101FB000C702803331F084E005C081E003C082E0D5
:101FC00001C083E010923F0310923E031092410340
:101FD00008958091C9028111FCCF413208F040E29E
:101FE00081E08093C9028093C8029FEF9093C7025B
:101FF0001092C602940F9093C5028093A402809120
:10200000A402660F682B6093A4028091A302813022
:1020100061F41092A3028091A4028093BB0080918E
:10202000BC0083FDF8CF85EC01C085EE8093BC0039
:102030008091C9028130E1F38091C602841710F4C7
:102040004091C602A5EAB2E0EAEEF2E080E0841731
:1020500021F09D9191938F5FFACF10920B038093A3
:102060000A03089510920B0310920A0310923F0383
:1020700010923E031092C90281E08093C802109230
:10208000A30261E082E10E944C0861E083E10E94CA
:102090004C08E9EBF0E080818E7F808380818D7F2A
:1020A000808388E48093B80085E48093BC0086EA4E
:1020B0009CE09093A00280939F0287EA9CE090931B
:1020C000A2028093A10208951F920F920FB60F9261
:1020D00011242F933F934F935F936F937F938F932D
:1020E0009F93AF93BF93EF93FF938091B900887F45
:1020F000803609F49CC068F5883209F45BC090F41E
:10210000803109F454C038F4882309F4F6C08830CB
:1021100009F44DC0F6C0883109F44CC0803209F48E
:102120005DC0EFC0803409F468C048F4803309F41E
:1021300055C0883309F0E5C08093C702D8C0803508
:1021400009F44FC0883509F45DC0883409F0D9C05E
:10215000D6C0883909F4C7C0A8F4883709F467C025
:1021600038F4883609F463C0803709F460C0C9C008
:10217000883809F4B8C0803909F45FC0803809F0A4
:10218000C0C05BC0803B09F486C038F4803A09F4D3
:1021900066C0883A09F47FC0B4C0803C09F4A7C087
:1021A000883C09F4A4C0883B09F48AC0AAC0809185
:1021B000A40210C09091C6028091C502981770F5D4
:1021C000E091C60281E08E0F8093C602F0E0EB55ED
:1021D000FD4F80818093BB0085EC86C08093C70251
:1021E0008EC0E091C60281E08E0F8093C60280917E
:1021F000BB00F0E0EB55FD4F80839091C6028091CB
:10220000C5026EC0E091C60281E08E0F8093C602C7
:102210008091BB00F0E0EB55FD4F80838091C802B8
:1022200081116DC081E08093A30284EA61C083E0E4
:102230008093C90210929E02CFCF80919E0280327D
:1022400008F051C0E0919E0281E08E0F80939E02C3
:102250008091BB00F0E0E258FD4F8083BDCF85EC5C
:102260008093BC001092C90280919E02803230F4AB
:10227000E0919E02F0E0E258FD4F108260919E02D4
:1022800070E0E091A102F091A2028EE792E0099540
:1022900010929E0236C084E08093C90210927D02A3
:1022A00010927C02E0919F02F091A002099580912A
:1022B0007C02811105C081E080937C0210925C0257
:1022C000E0917D0281E08E0F80937D02F0E0E45A80
:1022D000FD4F80818093BB0090917D0280917C02B4
:1022E000981708F479CF85E88093BC000AC085EC84
:1022F0008093BC001092C90204C01092C7020E94D1
:10230000D40CFF91EF91BF91AF919F918F917F91ED
:102310006F915F914F913F912F910F900FBE0F9052
:102320001F90189544E00C941C158BEC92E00E94D1
:1023300069048AE195E00E941F0686ED94E00C9402
:102340001F06CF93C62F482F50E060E070E08DEB62
:1023500094E00E948707C11102C061E405C0C33048
:1023600010F46DE401C068E58DEB94E0CF910C941E
:10237000771C8DEB94E00E94FD1560E080E00E94E8
:10238000471E83EA92E00E9469040C944C060E9466
:10239000B91181E08093240208950E94B91110922E
:1023A0002002109221021092220210922302109217
:1023B000240208950E94B91182E0809324020895B6
:1023C000CF92DF92EF92FF920F931F9369017A01F0
:1023D00000912A0510912B0520912C0530912D0597
:1023E000601771078207930761F060932A05709365
:1023F0002B0580932C0590932D058AE195E00E9492
:1024000084048091E6049091E704A091E804B091DF
:10241000E904C816D906EA06FB0691F0C092E60464
:10242000D092E704E092E804F092E90486ED94E0AB
:102430001F910F91FF90EF90DF90CF900C94840448
:102440001F910F91FF90EF90DF90CF9008950E9421
:10245000B91120E030E0A90160E070E0CB010C94FC
:10246000E0110E94B9112091260330912703409179
:1024700028035091290360912A0370912B038091C6
:102480002C0390912D030C94E0110E94B91120911E
:102490002E0330912F03409130035091310360910E
:1024A00032037091330380913403909135030C947F
:1024B000E01180911F03EAE1F5E01086818716A6FE
:1024C00080911E03E6EDF4E01086818716A66091E8
:1024D00038037091390380E090E00E949733AB019C
:1024E000BC018AE195E00E949306609136037091E9
:1024F000370380E090E00E949733AB01BC018AE192
:1025000095E00E946F06609138037091390380E076
:1025100090E00E949733AB01BC0186ED94E00E94ED
:102520009306609136037091370380E090E00E943B
:102530009733AB01BC0186ED94E00C946F061092CA
:102540000C0380EA9FE0909339038093380384E67C
:1025500090E0909337038093360310923A031092E1
:102560003B0310923C0310923D0388EB9BE0909359
:1025700025038093240384EF91E0909323038093B9
:1025800022038CED95E0909321038093200388EE45
:1025900093E0A0E0B0E08093320390933303A093E4
:1025A0003403B093350380932E0390932F03A093AD
:1025B0003003B093310388E19CEFAFEFBFEF80931E
:1025C0002A0390932B03A0932C03B0932D038093A5
:1025D000260390932703A0932803B0932903109216
:1025E0001F0381E080931E0310921D0380EF98ED7E
:1025F000AFEFBFEF8093190390931A03A0931B03CF
:10260000B0931C038093150390931603A0931703B4
:10261000B093180380E197E2A0E0B0E0809311034B
:1026200090931203A0931303B093140380930D03AC
:1026300090930E03A0930F03B093100341E06CE05E
:1026400073E084E090E00E94AF1568E373E088E0F7
:1026500090E00E94EA1566E373E08CE090E00E944F
:10266000EA156AE373E088E390E00E94E71564E20C
:1026700073E080E290E00E94EA1562E273E084E297
:1026800090E00E94EA1560E273E088E290E00E9428
:10269000EA1562E373E080E190E00E94E7156EE2E4
:1026A00073E084E190E00E94E7156AE273E088E15C
:1026B00090E00E94E71566E273E08CE190E00E94F2
:1026C000E71541E06FE173E08CE290E00E94AF1506
:1026D00041E06EE173E080E390E00E94AF1541E0DD
:1026E0006DE173E084E390E00E94AF1569E173E06F
:1026F0008CE390E00E94E71565E173E080E490E0F0
:102700000E94E71561E173E084E490E00E94E71520
:102710006DE073E088E490E00C94E7150E949F124E
:102720000C94B911089521E001C0220F6A95EAF7CF
:10273000DC011C962C931C971A965C934E93199768
:10274000ED91FC910484F585E02D60E00994DC01B5
:10275000ED91FC910684F785E02D41E0099581E03B
:1027600090E0089508950895089580E090E0089518
:10277000EF92FF920F931F93CF93DF937C018C0115
:10278000C0E0D0E0F80186890E942308892B51F42B
:102790002696CC0FDD1FCC0FDD1FCE0DDF1D8881EF
:1027A000998108C021960C5F1F4FC530D10551F7A4
:1027B00080E090E0DF91CF911F910F91FF90EF901B
:1027C00008950F931F93CF93DF93062F0F7042301E
:1027D00019F440E0602F0EC0142FEC0170E084E08B
:1027E000759567958A95E1F7CE010E948F1E412F5E
:1027F000602FCE01DF91CF911F910F910C948F1E0E
:10280000FC0184858823A9F02185328521153105B5
:1028100019F4611106C007C02130310521F461119E
:1028200002C0858701C015866585CF010E960C9480
:102830001F1E0895CF92DF92EF92FF920F931F9386
:10284000CF93DF93EC0181E090E002C0880F991FE5
:102850006A95E2F78E0103581F4F442349F0D801CF
:102860002D913C911197822B932B8D939C9309C0B2
:1028700080959095F8012081318182239323918363
:102880008083D801CC901196DC90FE01E558FF4F73
:1028900080817E01BFE6EB0EF11C91E09093410335
:1028A0008093400310923F0310923E03D701ED91B5
:1028B000FC910190F081E02D6C2DC7010995C45861
:1028C000DF4F8881823048F0D701ED91FC91019073
:1028D000F081E02D6D2DC701099561E0C7010E94CF
:1028E0008E0FF801C082D182DF91CF911F910F919D
:1028F000FF90EF90DF90CF900895CF92DF92EF920C
:10290000FF920F931F93CF93DF9301E010E002C07B
:10291000000F111F6A95E2F77C012FE6E20EF11C11
:102920006C01ECE7CE0ED11CF601408150E03197EE
:10293000608170E0C7010E94E90FC7010E94B80CD6
:10294000EC01F6018081823040F0C7010E94B80C92
:1029500020E030E0382FC22BD32BC023D12381E0DD
:1029600090E0C017D10711F080E090E0DF91CF91A7
:102970001F910F91FF90EF90DF90CF900895CF932C
:10298000DF93EC010E94DC0D8E859F8581309105DF
:1029900089F18230910581F18430910579F10897B0
:1029A00079F18C859D858130910561F182309105A9
:1029B00059F18430910551F1089751F18A859B8531
:1029C0008130910539F18230910531F184309105E2
:1029D00029F1089729F1888599858130910511F1B0
:1029E0008230910509F18430910501F1089701F1D8
:1029F00080E01FC08AE21DC087E31BC084E319C0CA
:102A000081E317C080E315C088E313C085E311C0DC
:102A100082E30FC083E20DC089E30BC086E309C0E7
:102A200083E307C084E405C083E403C082E401C0FB
:102A300081E4DF91CF910895EF92FF920F931F935E
:102A4000CF93DF938C010D5F1F4FEB017B01E40EF1
:102A5000F11CEC16FD0639F0C8010E94B9348993C7
:102A60000F5F1F4FF6CFDF91CF911F910F91FF9016
:102A7000EF90089541E06CE073E084E090E00E9404
:102A80001C1542E068E373E088E090E00E941C15AA
:102A900042E066E373E08CE090E00E941C156AE37C
:102AA00073E088E390E00E94921142E064E273E0F8
:102AB00080E290E00E941C1542E062E273E084E252
:102AC00090E00E941C1542E060E273E088E290E032
:102AD0000E941C1562E373E080E190E00E94921175
:102AE0006EE273E084E190E00E9492116AE273E08A
:102AF00088E190E00E94921166E273E08CE190E040
:102B00000E94921141E06FE173E08CE290E00E943C
:102B10001C1541E06EE173E080E390E00E941C151B
:102B200041E06DE173E084E390E00E941C1569E1EF
:102B300073E08CE390E00E94921165E173E080E421
:102B400090E00E94921161E173E084E490E00E94C1
:102B500092116DE073E088E490E00C949211EF9292
:102B6000FF920F931F93CF93DF938C010D5F1F4F45
:102B7000EB017B01E40EF11CCE15DF0539F0699104
:102B8000C8010E94C1340F5F1F4FF6CF60E080E0A4
:102B900090E0DF91CF911F910F91FF90EF900C94F7
:102BA000C134CF93DF931F92CDB7DEB769830B9605
:102BB000FC0185919491009731F041E0BE016F5F77
:102BC0007F4F0E94AF150F90DF91CF91089544E0A1
:102BD0000C94AF1542E00C94AF15DC01ED91FC9123
:102BE0000684F785E02D40E00994DC01ED91FC912D
:102BF0000484F585E02D6FEF099461E00E94ED15E6
:102C00008BE39FE10197F1F70895CF92DF92EF9266
:102C1000FF920F931F93CF93DF93EC010E94DC0D83
:102C2000888580FF1CC08A8580FF0EC08DEB94E0F4
:102C30000E94FD1582EE92E00E9469041092280223
:102C4000109227020E944C068E8583FF08C08DEBF0
:102C500094E00E94FD1584ED92E00E946904CE018B
:102C60000E94DC0D8E859F85049731F58C859D85AE
:102C7000089711F40E94DA118A859B85089711F450
:102C80000E94C71188859985089711F40E94CD117B
:102C90008C859D85049719F481E080930C038A85C7
:102CA0009B85049719F482E080930C0388859985AD
:102CB000049711F410920C038E859F858230910544
:102CC00091F08A30910551F020912702309128022D
:102CD0002530310509F0BCC0089729F440E157E2DE
:102CE00060E070E008C08C859D85089749F440EF4E
:102CF00058ED6FEF7FEF8AE195E00E94050744C031
:102D000020E030E0A90160912E0570912F0580919F
:102D10003005909131050E949233811115C0409188
:102D20002A0550912B0560912C0570912D058091FD
:102D3000260590912705A0912805B09129054817EF
:102D400059076A077B0701F140E25CEB6EEB7CE41C
:102D50008AE195E00E94361D8AE195E00E942407F1
:102D60008AE195E00E94D1058111FACF6091360386
:102D70007091370380E090E00E949733AB01BC0173
:102D80008AE195E00E946F068A859B85089729F461
:102D900040E157E260E070E008C0888599850897B7
:102DA00049F440EF58ED6FEF7FEF86ED94E00E941D
:102DB000050744C020E030E0A9016091EA04709169
:102DC000EB048091EC049091ED040E949233811108
:102DD00015C04091E6045091E7046091E8047091B9
:102DE000E9048091E2049091E304A091E404B0919D
:102DF000E504481759076A077B0701F140E25CEBDD
:102E00006EEB7CE486ED94E00E94361D86ED94E046
:102E10000E94240786ED94E00E94D1058111FACF2B
:102E2000609136037091370380E090E00E94973301
:102E3000AB01BC0186ED94E00E946F068C859D85F8
:102E4000019721F482E080930C0302C010920C03DE
:102E5000888599858E0101581F4F892B61F48A85D9
:102E60009B85892B41F48C859D85892B21F48E854A
:102E70009F85892BA1F1F80180819181A281B38185
:102E8000892B8A2B8B2B39F40E946A20F8016083EE
:102E9000718382839383F801C080D180E280F380C4
:102EA000F4EFCF0EF1E0DF1EE11CF11C0E946A205E
:102EB0006C157D058E059F05B8F4F801C080D180A2
:102EC000E280F380F8ECCF0ED11CE11CF11C0E94D3
:102ED0006A20C616D706E806F90630F410C0F801D5
:102EE0001082118212821382CE01DF91CF911F9145
:102EF0000F91FF90EF90DF90CF900C94BF1480E083
:102F0000DF91CF911F910F91FF90EF90DF90CF90C5
:102F10000895835B9F4FFC01808191810E9405167B
:102F2000813461F0823469F0843471F0833279F055
:102F30008A3281F0082E000C990B089583E090E00E
:102F4000089584E090E0089581E090E0089582E0A3
:102F500090E0089585E090E008958F929F92AF925F
:102F6000BF92CF92DF92EF92FF920F931F93CF9376
:102F7000DF93EC01423018F08C8188608C834F83A2
:102F80006887222329F0413019F48C8184608C8376
:102F90000E9445206B017C0184E6882E912CA12C97
:102FA000B12C0E944520DC01CB018C199D09AE0992
:102FB000BF09883E9340A105B10598F321E0821A2C
:102FC0009108A108B10888EEC80E83E0D81EE11C64
:102FD000F11C81149104A104B10419F76C8164FD02
:102FE00031C0E881F9810684F785E02D42E063E095
:102FF000CE0109958BE496E40197F1F7E881F98118
:103000000684F785E02D42E063E0CE01099503E5F3
:1030100012E0C8010197F1F7E881F9810684F7858C
:10302000E02D42E063E0CE010995C8010197F1F778
:10303000E881F9810684F785E02D42E062E0CE0167
:10304000099517C06062CE010E94ED158BE496E4ED
:103050000197F1F76C816062CE010E94ED1503E5E6
:1030600012E0C8010197F1F76C816062CE010E9405
:10307000ED15C8010197F1F76C816062CE010E94E5
:10308000ED158BEE90E00197F1F784E08D836CE015
:10309000CE010E94ED15CE010E94FD1582E08E83C7
:1030A00066E0CE010E94ED15CE01DF91CF911F9118
:1030B0000F91FF90EF90DF90CF90BF90AF909F90D7
:1030C0008F900C94F515FF920F931F93CF93DF937E
:1030D000EC01162F042FF22E8B85888B8FED93E059
:1030E0000E943210888991E09093410380934003BD
:1030F00010923F0310923E0361E08FED93E00E9437
:103100008E0F91E0811190E0998B811105C08FEDB8
:1031100093E00E94B80C8E878989882339F01F8636
:103120001C8260E0CE010E960E941F1E2F2D402FA4
:10313000612FCE01DF91CF911F910F91FF900C94E1
:10314000AD17CF92DF92EF92FF920F931F93CF9321
:10315000DF936C017A018B01C0E0D0E0CE15DF0572
:1031600081F0D8016D918D01D601ED91FC91019016
:10317000F081E02DC6010995892B11F02196EECF43
:103180007E01C701DF91CF911F910F91FF90EF90CA
:10319000DF90CF900895FC01538D448D252F30E0B2
:1031A000842F90E0821B930B541710F0CF96089554
:1031B00001970895FC01918D828D981761F0828DA1
:1031C000DF01A80FB11D5D968C91928D9F5F9F735B
:1031D000928F90E008958FEF9FEF0895FC01918DFD
:1031E000828D981731F0828DE80FF11D858D90E06A
:1031F00008958FEF9FEF0895FC01918D228D892F07
:1032000090E0805C9F4F821B91098F7399270895EE
:1032100082E493E00E94FC1821E0892B09F420E06D
:10322000822F0895FC01848DDF01A80FB11DA35AE0
:10323000BF4F2C91848D90E001968F739927848FD6
:10324000A689B7892C93A089B1898C9183708064F9
:103250008C93938D848D981306C00288F389E02D9A
:1032600080818F7D80830895EF92FF920F931F934B
:10327000CF93DF93EC0181E0888F9B8D8C8D981329
:1032800005C0E889F989808185FD26C0F62E0B8D61
:1032900010E00F5F1F4F0F731127E02E8C8DE81287
:1032A0000CC00FB607FCFACFE889F989808185FF49
:1032B000F5CFCE010E941219F1CF8B8DFE01E80FE0
:1032C000F11DE35AFF4FF0829FB7F8940B8FEA8904
:1032D000FB89808180620AC09FB7F894EE89FF89DC
:1032E0006083E889F98980818370806480839FBFCF
:1032F00081E090E0DF91CF911F910F91FF90EF90CF
:103300000895CF93DF93EC01888D8823C9F0EA8973
:10331000FB89808185FD05C0A889B9898C9186FDCE
:103320000FC00FB607FCF5CF808185FFF2CFA889CB
:10333000B9898C9185FFEDCFCE010E941219E7CF9C
:10334000DF91CF91089580E090E0892B29F00E94D1
:10335000081981110C9400000895CF93DF934770F2
:10336000552766277727FA013197EC01A881B981A3
:10337000E730F10520F4EC5CFF4F0C94FF36149617
:10338000ED91FC91159761E029C01496ED91FC91A7
:10339000159765E023C01496ED91FC91159764E0B4
:1033A0001DC01496ED91FC91159766E017C0149618
:1033B000ED91FC91159762E011C01496ED91FC918E
:1033C00015976AE00BC01496ED91FC91159768E093
:1033D00005C01496ED91FC91159769E0DF91CF91AE
:1033E0000994CF93DF93EC01CB01BA0126E030E0E2
:1033F00040E050E00E94E0366230710581059105A1
:1034000059F18CF46115710581059105F1F0613078
:10341000710581059105C1F5E881F9810480F58187
:10342000E02D65E02DC0643071058105910511F135
:10343000D4F0653071058105910531F5E881F98198
:103440000480F581E02D66E01BC0E881F9810480ED
:10345000F581E02D64E014C0E881F9810480F581F4
:10346000E02D61E00DC0E881F9810480F581E02D57
:1034700063E006C0E881F9810480F581E02D62E017
:10348000CE01DF91CF910994DF91CF9108954370E0
:10349000552766277727DC01ED91FC910480F581A3
:1034A000E02D423051056105710571F04330510541
:1034B0006105710559F0413051056105710511F043
:1034C00065E005C066E003C06AE001C069E00994F8
:1034D000CF93DF93EC01CB01BA0123E030E040E071
:1034E00050E00E94E036613071058105910581F060
:1034F000623071058105910591F0672B682B692B6E
:10350000C1F4E881F9810480F581E02D64E00DC00B
:10351000E881F9810480F581E02D61E006C0E88151
:10352000F9810480F581E02D62E0CE01DF91CF9139
:103530000994DF91CF910895437055276627772727
:10354000DC01ED91FC910480F581E02D42305105C4
:103550006105710571F0433051056105710559F040
:10356000413051056105710511F062E005C063E06D
:1035700003C061E001C060E00994CF93DF93EC01E8
:10358000E881F9810480F581E02D8A81811102C0F2
:1035900060E001C062E0CE010995E881F981048014
:1035A000F581E02D8A81811102C061E001C063E0F4
:1035B000CE0109958CA59DA58230910538F0880F24
:1035C000991F880F991F05970197F1F7E881F981F5
:1035D0000480F581E02D8A81811102C060E001C084
:1035E00062E0CE01DF91CF910994CF93DF93EC019C
:1035F00020E030E0A9016C897D898E899F890E9435
:10360000353618161CF4E8A9F9A902C0EAA9FBA9E5
:10361000DF91CF9109940F931F93DC011396EC91E6
:103620000E2F10E009301105C0F5F801E55CFF4FE1
:103630000C94FF36DC01ED91FC910084F185E02DC6
:1036400029C0DC01ED91FC910284F385E02D22C0BC
:10365000DC01ED91FC910484F585E02D1BC0DC01BB
:10366000ED91FC910684F785E02D14C0DC01ED910D
:10367000FC910088F189E02D0DC0DC01ED91FC91F9
:103680000288F389E02D06C0DC01ED91FC910488ED
:10369000F589E02D1F910F9109941F910F910895C5
:1036A000DC0126E0629FA00DB11D112490965C9371
:1036B0004E935F9721E091962C939197FC01E459EA
:1036C000FF4F208131960190F081E02D222331F0CF
:1036D000309749F0611107C0DC0102C0309719F042
:1036E0005C968C91099408950E94EC38CF92DF92F9
:1036F000EF92FF920F931F93CF93DF93EC019B8187
:10370000943041F0983031F0933031F0963021F020
:1037100012E003C014E001C013E02496E12CF12C68
:10372000C62ED12C01E0C6010E2C02C095958795BE
:103730000A94E2F76C8180FD602789910E944C0811
:103740008FEFE81AF80AE11670F3DF91CF911F911D
:103750000F91FF90EF90DF90CF900895CF93DF937C
:10376000FC012381222359F1EC0161E084810E9454
:10377000092061E08D810E9409208B81843011F045
:10378000883039F461E08E810E94092061E08F81E8
:1037900006C0833011F0863021F461E08E810E94F2
:1037A00009208FA58F3F59F061E00E9409206EA586
:1037B00081E068278FA5DF91CF910C944C08DF91B1
:1037C000CF910895CF93DF93FC0123812223A9F0A9
:1037D000EC010190F081E02D0480F581E02D60E0A6
:1037E00009958FA58F3F49F061E00E9409206EA5E1
:1037F0008FA5DF91CF910C944C08DF91CF91089564
:10380000FC0180819181009711F00C94462F60E0BB
:1038100070E0CB0108950F931F93CF93DF93EC01DA
:1038200088819981009729F02A813B8126173707E3
:1038300088F48B016F5F7F4F0E942638009761F0FC
:10384000998388831B830A832C813D81232B11F468
:10385000FC01108281E001C080E0DF91CF911F91D7
:103860000F910895EF92FF920F931F93CF93DF93E1
:10387000EC017B018A01BA010E940B1C288139816D
:1038800081110DC02115310519F0C9010E949D3724
:10389000198218821D821C821B821A8206C01D8317
:1038A0000C83B701C9010E940139CE01DF91CF918C
:1038B0001F910F91FF90EF900895FC0180819181FD
:1038C0000C949D37FC0111821082138212821582A2
:1038D00014826115710551F0FB0101900020E9F798
:1038E0003197AF01461B570B0C94321C0895DC0135
:1038F000ED91FC910190F081E02D09946115710525
:1039000079F0FB0101900020E9F73197AF01461BE8
:10391000570BDC01ED91FC910280F381E02D0994BD
:1039200080E090E008958F929F92AF92BF92EF92C5
:10393000FF920F931F93CF93DF93CDB7DEB7A1977D
:103940000FB6F894DEBF0FBECDBF7C01FA01CB01EC
:1039500019A2223008F42AE08E010F5D1F4F822E3B
:10396000912CA12CB12CBF01A50194010E94BE365F
:10397000F901CA01015011096A3014F4605D01C0F7
:10398000695CD8016C93232B242B252B61F7B8019C
:10399000C7010E947E1CA1960FB6F894DEBF0FBE31
:1039A000CDBFDF91CF911F910F91FF90EF90BF900E
:1039B000AF909F908F9008950C947E1C1F920F9251
:1039C0000FB60F9211242F933F934F935F936F93F2
:1039D0007F938F939F93AF93BF93EF93FF9382E473
:1039E00093E00E941219FF91EF91BF91AF919F91C7
:1039F0008F917F916F915F914F913F912F910F9098
:103A00000FBE0F901F9018951F920F920FB60F9236
:103A100011242F938F939F93EF93FF93E091520381
:103A2000F09153038081E0915803F091590382FD96
:103A300012C0908180915B038F5F8F7320915C0334
:103A4000821751F0E0915B03F0E0EE5BFC4F958F45
:103A500080935B0301C08081FF91EF919F918F91D3
:103A60002F910F900FBE0F901F9018954F925F925D
:103A70006F927F928F929F92AF92BF92CF92DF927E
:103A8000EF92FF92CF93DF93EC016A017B0120E07C
:103A900030E0A901C701B6010E94923387FF04C03C
:103AA000F7FAF094F7F8F0948C8C9D8CAE8CBF8C68
:103AB000A7019601C501B4010E949233882309F43D
:103AC00049C06CA97DA98EA99FA90E9499332B0199
:103AD0003C01A7019601C501B4010E948D359B01EF
:103AE000AC01C301B2010E94F8330E94FF356CABF8
:103AF0007DAB8EAB9FABA701960160E070E080E0EC
:103B000090E40E948D350E94403626E53EE04DE26D
:103B10005FE30E94F83320E034E244E759E40E9476
:103B2000F83368AF79AF8AAF9BAFCC8EDD8EEE8E67
:103B3000FF8ECE01DF91CF91FF90EF90DF90CF907D
:103B4000BF90AF909F908F907F906F905F904F90BD
:103B50000C948404DF91CF91FF90EF90DF90CF9091
:103B6000BF90AF909F908F907F906F905F904F909D
:103B70000895CF92DF92EF92FF920F931F93CF930E
:103B8000DF93EC01162F042FFC0186E0689FE00D07
:103B9000F11D112411A2878D90A181309105D1F0E2
:103BA00048F08230910591F1039709F03FC040E061
:103BB00050E030C04423D1F141E050E0CE010E94FA
:103BC000501B0E946A20C85ADF4F688379838A831A
:103BD0009B832CC00E946A20FE01E85AFF4FC080E0
:103BE000D180E280F380AB01BC014C195D096E0904
:103BF0007F09729680819181A0E0B0E084179507DB
:103C0000A607B70718F442E050E004C001110EC047
:103C100043E050E0612FCE01DF91CF911F910F91D2
:103C2000FF90EF90DF90CF900C94501BDF91CF91DD
:103C30001F910F91FF90EF90DF90CF900895FC01BE
:103C400083818823D9F0962F6181609569236083F1
:103C5000828191E0909341038093400310923F034F
:103C600010923E038FED93E00E94330D61E08FEDE3
:103C700093E00E948E0F282F30E002C020E030E059
:103C800081E090E0232B11F080E090E008950F9305
:103C90001F93CF93DF93CDB7DEB728970FB6F89475
:103CA000DEBF0FBECDBF00911E0110911F012091FC
:103CB0002001309121010D831E832F8338870091CD
:103CC00022011091230120912401309125010983C3
:103CD0001A832B833C839091C404691710F06FEF13
:103CE000690F4091C504262F30E0FE01E20FF31F5B
:103CF000403121F4943011F4618101C06581680F75
:103D000060688DEB94E028960FB6F894DEBF0FBE86
:103D1000CDBFDF91CF911F910F910C94ED15EF92D4
:103D2000FF920F931F93CF938C01FC0184E0C0E0BE
:103D300060FF02C09589C92B66958150319681112B
:103D4000F7CF413011F4F8014489F8018585C82B7B
:103D5000C42B7801FEE0EF0EF11CF80162896C2B98
:103D6000C7010E941F1EF801628960956C23C7017C
:103D7000CF911F910F91FF90EF900C941F1EE09137
:103D80001604F0911704309709F009940895CF9222
:103D9000DF92EF92FF920F931F93CF93DF93FC017B
:103DA0007196C491C1503196C590D490E62EF12CF5
:103DB000F701EE0FFF1FEC0DFD1D8591949190937F
:103DC000F6038093F50300E010E0D0E040E150E01E
:103DD00060E270E08AE194E00E94FA3821E030E08D
:103DE00040E050E0011105C060E070E084E192E045
:103DF00004C061E070E087EB91E00E94BF1EF70114
:103E0000E00FF11FCE17DF0764F0EE0FFF1FEC0D80
:103E1000FD1D6591749140E150E08AE194E00E94BB
:103E20006D2F20E130E041E050E0B8018AE194E0FC
:103E30000E94BF1E0F5F1F4F0230110539F6DF9140
:103E4000CF911F910F91FF90EF90DF90CF90089549
:103E50000F931F93CF938C01C62F40E150E060E297
:103E600070E08AE194E00E94FA38C730D9F1C83096
:103E7000D9F1C11107C0F80180814AE06AE174E01C
:103E800090E013C0C13049F44AE06AE174E0F801FF
:103E9000808191810E94762F35C0C23049F44AE07A
:103EA0006AE174E0F801808191810E94C72F2AC0E5
:103EB000C33059F4F80160817181828193812AE0D5
:103EC0004AE154E00E94812F1DC0C43079F4F8010A
:103ED00060817181828193812AE04AE154E00E94ED
:103EE000A52F10C022E003C023E001C021E042E082
:103EF000420FF80160817181828193810AE114E0AF
:103F00000E94222F20E130E040E050E061E070E0CC
:103F10008AE194E0CF911F910F910C94BF1E1F93E3
:103F2000CF93DF93182FD92FC62F40E150E060E2E6
:103F300070E08AE194E00E94FA38E12FFD2FEC0F47
:103F4000F11DEC0FF11D659174916F5F7F4F4FE094
:103F500050E08AE194E00E946D2F20E130E040E0E3
:103F600050E061E070E08AE194E0DF91CF911F9131
:103F70000C94BF1E40E150E060E270E08AE194E002
:103F80000E94FA3880912C04813039F48FE49EE647
:103F900090931B0480931A0409C083E0E6E1F2E0E9
:103FA000AAE1B4E001900D928A95E1F720E130E0BA
:103FB00040E050E061E070E08AE194E00C94BF1EC4
:103FC000833081F028F4813099F08230A1F0089597
:103FD0008730A9F08830B9F08430D1F48091800026
:103FE0008F7D03C0809180008F778093800008953B
:103FF00084B58F7702C084B58F7D84BD089580918C
:10400000B0008F7703C08091B0008F7D8093B000A7
:104010000895CF93DF9390E0FC01E558FD4F249184
:10402000FC01E959FD4F8491882361F190E0880FEC
:10403000991FFC01E458F94FC591D491FC01ED5A48
:10404000FD4FA591B491611109C09FB7F894888183
:10405000209582238883EC912E230BC0623061F47B
:104060009FB7F8948881322F309583238883EC9111
:104070002E2B2C939FBF06C08FB7F894E8812E2B70
:1040800028838FBFDF91CF9108953FB7F894809137
:10409000630590916405A0916505B091660526B50C
:1040A000A89B05C02F3F19F00196A11DB11D3FBF70
:1040B000BA2FA92F982F8827820F911DA11DB11DFE
:1040C000BC01CD0142E0660F771F881F991F4A95FA
:1040D000D1F708952FB7F89460915F05709160054E
:1040E00080916105909162052FBF08951F920F92F4
:1040F0000FB60F9211242F933F938F939F93AF93FB
:10410000BF9380915F0590916005A0916105B0918A
:10411000620530915E0523E0230F2D3720F40196D0
:10412000A11DB11D05C026E8230F0296A11DB11DDA
:1041300020935E0580935F0590936005A0936105D1
:10414000B09362058091630590916405A091650527
:10415000B09166050196A11DB11D809363059093F2
:104160006405A0936505B0936605BF91AF919F91DB
:104170008F913F912F910F900FBE0F901F90189528
:10418000CF93DF93CDB7DEB764970FB6F894DEBF59
:104190000FBECDBF789484B5826084BD84B5816044
:1041A00084BD85B5826085BD85B5816085BD809102
:1041B0006E00816080936E0010928100809181007A
:1041C0008260809381008091810081608093810072
:1041D000809180008160809380008091B100846034
:1041E0008093B1008091B00081608093B000809195
:1041F0007A00846080937A0080917A008260809354
:104200007A0080917A00816080937A0080917A00B0
:10421000806880937A001092C10060E08DE00E9477
:104220004C0861E08DE00E94092080E090E00E944F
:10423000B934811103C00E943A1502C00E949F1236
:1042400060911D0381E068278DE00E944C08E09199
:104250005203F091530382E08083E0915203F09186
:1042600053031082E0914E03F0914F031082E091CE
:104270005003F091510380E1808310925A03E09142
:104280005603F091570386E08083E0915403F09148
:104290005503808180618083E0915403F091550340
:1042A000808188608083E0915403F0915503808180
:1042B00080688083E0915403F091550380818F7D65
:1042C000808384E190E0A0E0B0E080934603909387
:1042D0004703A0934803B09349036AE971E082E47D
:1042E00093E00E947E1C0E94B90763E172E082E4C1
:1042F00093E00E947E1C0E94B9078FED93E00E941C
:10430000321088E091E090939B0480939A0489EAAC
:1043100094E00E9432104091B60450E06091B504E0
:1043200070E089EA94E00E94E90F89EA94E00E9433
:10433000B80C9093B8048093B7048091B60482308F
:1043400088F089EA94E00E94B80C20E030E0382F31
:104350008091B7049091B804282B392B3093B8047E
:104360002093B70420E042E060E18DEB94E00E94EE
:1043700063186AE971E08DEB94E00E94DC1C61E057
:1043800080E00E94471E63E172E08DEB94E00E94A2
:10439000DC1C81EB9DE090931704809316048DE65E
:1043A0009DE0909319048093180481E08093F103B9
:1043B00061E086E00E94092061E08DE00E94092012
:1043C0000E94591211E022242394312C8091260559
:1043D00090912705A0912805B091290540911103DE
:1043E0005091120360911303709114038417950781
:1043F000A607B7076CF44091190350911A03609116
:104400001B0370911C03481759076A077B0704F1C7
:1044100040E25CEB6EEB7CE48AE195E00E94361DA5
:104420008AE195E00E9424078AE195E00E94D10587
:104430008111FACF609136037091370380E090E0EC
:104440000E949733AB01BC018AE195E00E946F06A0
:104450008091E2049091E304A091E404B091E5041A
:1044600040910D0350910E0360910F037091100362
:1044700084179507A607B7076CF440911503509170
:104480001603609117037091180384179507A60708
:10449000B70704F140E25CEB6EEB7CE486ED94E060
:1044A0000E94361D86ED94E00E94240786ED94E07C
:1044B0000E94D1058111FACF6091360370913703C4
:1044C00080E090E00E949733AB01BC0186ED94E060
:1044D0000E946F068AE195E00E941F0686ED94E037
:1044E0000E941F060E946A20C0905802D090590274
:1044F000E0905A02F0905B02DC01CB018C199D091F
:10450000AE09BF09893E9340A105B105D0F00E94D4
:104510006A20609358027093590280935A029093D4
:104520005B02809157028F5F809357028091560201
:10453000882319F01092560202C0109356020E946E
:1045400059128AE394E00E9405169091F303833296
:1045500079F41092280210922702109226021092EB
:1045600025021093F10391110EC00E946D0D0BC036
:10457000992321F09091F103911105C0883309F03E
:10458000ECC30E94810D8091330281110CC00E9406
:104590006A2060932F0270933002809331029093CF
:1045A0003202109333028091F403882371F08091DA
:1045B000F103882351F01092F40360911504809167
:1045C000F7039091F8030E94C71E8091ED038111BB
:1045D00050C08091EE038E3008F08E50877080645A
:1045E00080937C0080917A00806480937A0080912F
:1045F0007A0086FDFCCF209178008091790030E030
:10460000382B6091EF037091F00380912902909113
:104610002A02821B930B97FF03C091958195910904
:10462000681779072CF430932A022093290227C0B7
:10463000EBEEF3E080E090E046895789DA01A61BB3
:10464000B70BA217B3077CF4460F571F2417350783
:1046500054F4880F991F880F991FFC01ED5FFB4FE1
:10466000C080D1800EC0019634968530910521F727
:1046700006C08BEE93E00E9489176C0102C0C12C2A
:10468000D12C00912E02E02EF12CEC14FD04B9F097
:10469000C0922E0210922D020E946A2060932F0277
:1046A00070933002809331029093320210922C0268
:1046B00010922B0230922B0420922A04F3C00E9405
:1046C0006A2080902F0290903002A0903102B0902A
:1046D0003202DC01CB0188199909AA09BB09893783
:1046E0009105A105B10508F4DDC00E946A20609320
:1046F0002F02709330028093310290933202C114E2
:10470000D10421F08091F10381110BC010922C0291
:1047100010922B0230922B0420922A0410922D0228
:10472000C1C0B5E0CB16D10411F41093F30380910E
:10473000F303882309F4B6C080912D0290E0E816B7
:10474000F906C9F480912B0290912C020196909366
:104750002C0280932B026AE070E00E94AA36892B1B
:1047600081F080912A0490912B04029690932B045F
:1047700080932A0406C000932D0230922B042092CD
:104780002A042091F2030530B9F48091F503909149
:10479000F603222329F045E063E00E947B0809C06C
:1047A00060E0009721F48091F9039091FA030E9450
:1047B0006E031092370476C0033031F0043031F0CC
:1047C000023031F060E005C061E003C062E001C08A
:1047D00064E0222369F0809137048F5F809337046F
:1047E000402F8091F5039091F6030E947B085AC0F8
:1047F0008FEF860F823018F0643009F053C020919B
:10480000F7033091F803F9017196E491E1506430B7
:1048100081F51092F6031092F5038091FF039091B9
:104820000004009781F48091FD039091FE030097AE
:1048300069F48091FB039091FC03009709F4A2C5F1
:1048400020E030E005C022E030E002C021E030E0AE
:10485000220F331FF901E550FC4F11821082909313
:10486000F8038093F7031092150461E00E946E0331
:1048700019C080911504613011F49FEF01C091E0DF
:10488000682F690FE61730F481E06F3F09F080E090
:10489000682F61956F3F09F46E2F60931504C9016D
:1048A0000E94C71E80912402813059F58091200218
:1048B00090912102A0912202B0912302892B8A2B90
:1048C0008B2B91F420912E0330912F0340913003D4
:1048D000509131036091320370913303809134031E
:1048E000909135030E94E0118AE195E00E941F0635
:1048F00081110BC086ED94E00E941F06811105C056
:1049000056C51092550210925402209154023091D3
:10491000550280910C03837061E021F4223031054F
:1049200019F403C0823009F060E06093470280917F
:104930001D03811101C061278DE00E944C0863E1D5
:1049400072E0CE0107960E94621C82E493E00E940E
:10495000FC18181619060CF055C063E172E0CE0180
:1049600001960E94621C0E94EF0797FD1CC08D8774
:104970001E86ED80FE803FEFE31AF30AB701CE01F9
:1049800001960E940B1C882371F329813A818D8145
:104990009E81BE01635F7F4F820F931F0E9401398A
:1049A000FE82ED82E0CF8F8198850097A9F0698122
:1049B0007A816115710571F049855A852D813E8195
:1049C0004217530738F00E9401398D819E819C87E0
:1049D0008B8712C00E949D3789819A8198878F8327
:1049E0008B819C819A8789878D819E819C878B870B
:1049F0001A8219821C821B821E821D82CE010196A0
:104A00000E945D1C8F819885892B09F49FC16CE001
:104A100072E0CE0101960E94621CBE016F5F7F4F63
:104A2000CE0107960E94D5077C01CE0101960E9417
:104A30005D1CF7FC28C0A7014C5F5F4FBE01695F9A
:104A40007F4FCE0101960E943D0CCE0101960E943F
:104A5000001CDC01CB0142E0BE01635F7F4F0E947E
:104A60001C154D855E85052E000C660B770B82E4C8
:104A700093E00E9487070E94B9070E94B907CE0100
:104A800001960E945D1C64EE71E0CE0101960E94C9
:104A9000621CBE016F5F7F4FCE0107960E94D50753
:104AA0007C01CE0101960E945D1CF7FE27C665EFD2
:104AB00071E0CE0101960E94621CBE016F5F7F4FC4
:104AC000CE0107960E94D5077C01CE0101960E9477
:104AD0005D1CF7FC2EC0A7014C5F5F4FBE01695FF4
:104AE0007F4FCE0101960E943D0CCE0101960E949F
:104AF000001C4B015C01CE0101960E945D1CA701C8
:104B0000475F5F4FBE01695F7F4FCE0101960E94F4
:104B10003D0CCE0101960E94001C7E876D87CE0160
:104B200001960E945D1CBE01635F7F4FC4010E941D
:104B3000EA156AEF71E0CE0101960E94621CBE0187
:104B40006F5F7F4FCE0107960E94D5077C01CE0193
:104B500001960E945D1CF7FE9DC66FEF71E0CE01CD
:104B600001960E94621CBE016F5F7F4FCE010796C7
:104B70000E94D5077C01CE0101960E945D1CF7FEC4
:104B80000E943A1564E072E0CE0101960E94621C18
:104B9000BE016F5F7F4FCE0107960E94D5077C0153
:104BA000CE0101960E945D1CF7FC1AC0A7014F5F61
:104BB0005F4FBE01695F7F4FCE0101960E943D0CA1
:104BC000CE0101960E94001C609343027093440240
:104BD0008093450290934602CE0101960E945D1C8F
:104BE00066E072E0CE0101960E94621CBE016F5F1A
:104BF0007F4FCE0107960E94D5077C01CE0101961A
:104C00000E945D1CF7FC1AC0A7014F5F5F4FBE01F9
:104C1000695F7F4FCE0101960E943D0CCE01019647
:104C20000E94001C60933F027093400280934102F7
:104C300090934202CE0101960E945D1C65EA71E0EC
:104C4000CE0101960E94621CBE016F5F7F4FCE01B4
:104C500007960E94D5077C01CE0101960E945D1C3B
:104C6000F7FC1AC0A7014F5F5F4FBE01695F7F4F1E
:104C7000CE0101960E943D0CCE0101960E94001CBF
:104C800060933B0270933C0280933D0290933E02FE
:104C9000CE0101960E945D1C68E072E0CE01019693
:104CA0000E94621CBE016F5F7F4FCE0107960E947B
:104CB000D5077C01CE0101960E945D1CF7FC30C037
:104CC0008091430280930C03C0903B02D0903C0241
:104CD000E0903D02F0903E0260913F0270914002F0
:104CE0008091410290914202A70196010E94E01139
:104CF000C701B6010E94C50760913F027091400252
:104D000080914102909142020E94C5076091430246
:104D10007091440280914502909146020E94C5071D
:104D20006AE072E0CE0101960E94621CBE016F5FD4
:104D30007F4FCE0107960E94D5077C01CE010196D8
:104D40000E945D1CEF20E09409F0DBC5CE010796C0
:104D50000E945D1C0E94A31939CB8933F9F48DEBB5
:104D600094E00E94F5151092F10343E050E0509357
:104D700028024093270210922602109225021092D8
:104D80001B0210921C0210921D0210921E02109221
:104D90001A028DEB94E00E94FD15F5CB8AE394E0B6
:104DA0000E94BF14082F882309F442C080911B027F
:104DB00090911C02A0911D02B0911E02892B8A2B9A
:104DC0008B2B51F40E946A2060931B0270931C028B
:104DD00080931D0290931E02C0901B02D0901C0273
:104DE000E0901D02F0901E020E946A2046015701C9
:104DF00058E7850E911CA11CB11C681579058A0520
:104E00009B0538F080911A02811103C000931A02A9
:104E100001C000E00E946A20A8E5CA0EA2E0DA1EE6
:104E2000E11CF11CC616D706E806F90658F408C0BE
:104E300010921B0210921C0210921D0210921E0270
:104E400010921A028091270290912802059709F08A
:104E5000BCC00A3209F053C00E94B9111092260555
:104E600010922705109228051092290510922A0504
:104E700010922B0510922C0510922D0510924E05C4
:104E800010924F05109250051092510510923E0558
:104E900010923F05109240051092410510922E0588
:104EA00010922F0510923005109231051092E204F5
:104EB0001092E3041092E4041092E5041092E604C8
:104EC0001092E7041092E8041092E90410920A0587
:104ED00010920B0510920C0510920D051092FA0419
:104EE0001092FB041092FC041092FD041092EA044C
:104EF0001092EB041092EC041092ED0460C00334A5
:104F000069F50E94B9118091260590912705A0911D
:104F10002805B09129058093320390933303A09321
:104F20003403B09335038091E2049091E304A0919F
:104F3000E404B091E50480932E0390932F03A09393
:104F40003003B093310362E373E080E190E00E94AC
:104F5000E7156EE273E084E190E02FC0043409F0BD
:104F600012CB0E94B9118091260590912705A0913E
:104F70002805B091290580932A0390932B03A093D1
:104F80002C03B0932D038091E2049091E304A0914F
:104F9000E404B091E5048093260390932703A09343
:104FA0002803B09329036AE273E088E190E00E944D
:104FB000E71566E273E08CE190E00E94E71510923D
:104FC0002802109227021093F103809127029091FA
:104FD0002802039709F0D7CA8091250290912602F2
:104FE000013411F4019703C0023429F4019690931F
:104FF000260280932502809125029091260297FF38
:1050000002C080E090E08830910514F087E090E0E5
:105010009093260280932502892B09F050C060E00E
:1050200080E00E94471E80912402811103C084E425
:1050300092E039C09FEF980F923088F5823019F4D2
:1050400086E392E002C087E292E00E9469040E9437
:10505000951161E080E00E94471E4091200250912E
:10506000210260912202709123028DEB94E00E9454
:1050700087076FE28DEB94E00E94771C40913A0322
:1050800050913B0360913C0370913D034E5F5F4F35
:105090006F4F7F4F8DEB94E00E9487070CC08330E9
:1050A00071F48BE192E00E9469040E94951161E025
:1050B00080E00E94471E0E9495110E9495118091E8
:1050C000250290912602019781F560E080E00E9420
:1050D000471E88E192E00E946904409126055091A4
:1050E000270560912805709129058DEB94E00E94B9
:1050F00087070E9495110E94951161E080E00E944F
:10510000471E85E192E00E9469044091E2045091BB
:10511000E3046091E4047091E5048DEB94E00E9457
:1051200087070E9495110E94951180912502909108
:105130002602029709F044C08DEB94E00E94F51519
:1051400060E080E00E94471E67EA71E08DEB94E02A
:105150000E94DC1C60910C03809147020E94A11107
:105160000E9495110E94951161E080E00E94471E07
:105170006CEA71E08DEB94E00E94DC1C60E080E062
:105180000E94A11161E072E08DEB94E00E94DC1CB2
:1051900060E080E00E94A1116FEA71E08DEB94E085
:1051A0000E94DC1C60E080E00E94A11162EB71E0D3
:1051B0008DEB94E00E94DC1C60E080E00E94A11175
:1051C0008091250290912602039781F560E080E0AE
:1051D0000E94471E8DE092E00E94690440913203D4
:1051E0005091330360913403709135038DEB94E05B
:1051F0000E9487070E9495110E94951161E080E04E
:105200000E94471E85E092E00E94690440912E03AF
:1052100050912F0360913003709131038DEB94E036
:105220000E9487070E9495110E9495118091250286
:1052300090912602049781F560E080E00E94471E6D
:105240008DEF91E00E94690440912A0350912B0355
:1052500060912C0370912D038DEB94E00E948707E1
:105260000E9495110E94951161E080E00E94471E06
:1052700085EF91E00E946904409126035091270335
:1052800060912803709129038DEB94E00E948707B9
:105290000E9495110E9495118091250290912602FD
:1052A000059721F560E080E00E94471E88EE91E0BE
:1052B0000E94690460913803709139038DEB94E08A
:1052C0000E94BF070E94951161E080E00E94471E86
:1052D0008AED91E00E946904609136037091370372
:1052E0008DEB94E00E94BF070E94951180912502EA
:1052F00090912602069721F560E080E00E94471E0B
:1053000081ED91E00E94690460912403709125036E
:105310008DEB94E00E94BF070E94951161E080E050
:105320000E94471E87EC91E00E946904609120036F
:10533000709121038DEB94E00E94BF070E949511AC
:105340008091250290912602079709F01CC960E020
:1053500080E00E94471E8DEB91E00E9469046091FD
:105360002203709123038DEB94E00E94BF070E94FB
:10537000951161E080E00E94471E0E9495110E94F5
:10538000951101C98091F9039091FA039093F80364
:105390008093F703109215041092F303E091180420
:1053A000F0911904309709F47DCA09957BCA809160
:1053B000540290915502892BF1F50E946A20609366
:1053C0005002709351028093520290935302309294
:1053D00055022092540265EB71E082E493E00E9452
:1053E000DC1C60912605709127058091280590911D
:1053F00029050E94C50769EB71E082E493E00E94F1
:10540000DC1C6091E2047091E3048091E4049091CB
:10541000E5040E94C5076DEB71E082E493E00E9411
:10542000DC1C6091200270912102809122029091F7
:1054300023020E94C5070E946A20C0905002D090AB
:105440005102E0905202F0905302AB01BC014C19A2
:105450005D096E097F098091240390912503A0E0E6
:10546000B0E0481759076A077B0708F44ECA8091D5
:10547000540290915502019701F50E946A206093B1
:105480004C0270934D0280934E0290934F0222E0A3
:1054900030E0309355022093540267EC71E082E4CF
:1054A00093E00E94DC1C60912002709121028091A7
:1054B0002202909123020E94C5070E946A20C09098
:1054C0004C02D0904D02E0904E02F0904F02AB01A2
:1054D000BC014C195D096E097F09809122039091EE
:1054E0002303A0E0B0E0481759076A077B0708F4D8
:1054F0000CCA8091540290915502029701F50E94C6
:105500006A20609348027093490280934A02909304
:105510004B0243E050E050935502409354026EEC2E
:1055200071E082E493E00E94DC1C609120027091A3
:10553000210280912202909123020E94C5070E94BD
:105540006A20C0904802D0904902E0904A02F09050
:105550004B02AB01BC014C195D096E097F098091BA
:10556000200390912103A0E0B0E0481759076A0793
:105570007B0708F4CAC91092550210925402809118
:10558000200290912102A0912202B0912302019663
:10559000A11DB11D8093200290932102A0932202AD
:1055A000B093230269ED71E082E493E00E94DC1C79
:1055B0006091200270912102809122029091230239
:1055C0000E94C507C0903A03D0903B03E0903C0393
:1055D000F0903D031C141D041E041F040CF061C058
:1055E0008091320390913303A0913403B09135033D
:1055F000898B9A8BAB8BBC8B9FEFC91AD90AE90AAE
:10560000F90A40902002509021026090220270908E
:10561000230280902E0390902F03A0903003B0902F
:1056200031038091260390912703A0912803B09124
:105630002903BC01CD01681979098A099B09A701D1
:1056400096010E94E036C301B2010E949A36860E8E
:10565000971EA81EB91E80912A0390912B03A0913A
:105660002C03B0912D03BC01CD0129893A894B89C6
:105670005C89621B730B840B950BA70196010E943A
:10568000E036C301B2010E949A3629893A894B89D2
:105690005C89620F731F841F951FA50194010E94EE
:1056A000E01180913A0390913B03A0913C03B091AB
:1056B0003D030196A11DB11D409120025091210290
:1056C000609122027091230284179507A607B707FD
:1056D0000CF01BC983E080932402109220021092E8
:1056E0002102109222021092230220E030E0A90150
:1056F00060E070E0CB010E94E01107C9A7014C5F98
:105700005F4FBE01695F7F4FCE0101960E943D0C45
:1057100089819A81009719F00E94422F03C060E0AE
:1057200070E0CB010E94FF35DC01CB01BE01635F5D
:105730007F4F0E949211CD84DE84EF84F888A70108
:105740009601C701B6010E948036882319F069EEE0
:1057500071E01AC046015701E894B7F82FEF3FEF08
:105760004FE75FE7C501B4010E948036811111C087
:105770002FEF3FEF4FE75FE7C501B4010E9492337F
:1057800018163CF46DEE71E082E493E00E947E1CFA
:1057900076C02FEF3FEF4FE75FE4C701B6010E94ED
:1057A000353618161CF461EF71E0EECF2FEF3FEFA6
:1057B0004FE75FECC701B6010E94923387FDF3CF3C
:1057C00020E030E0A901C701B6010E94923387FFB3
:1057D00009C06DE282E493E00E94771CF7FAF0942E
:1057E000F7F8F0942AE037ED43EA5BE3C701B6012E
:1057F0000E9421354B015C010E9406366B017C0141
:105800000E9497339B01AC01C501B4010E94203571
:105810004B015C012AE0B701A60182E493E00E94FB
:10582000931C6EE282E493E00E94771C20E030E05B
:1058300040E251E4C501B4010E94F8334B015C0120
:105840000E9406366B017C0182E493E00E94BF0750
:10585000B60180E090E00E9497339B01AC01C50146
:10586000B4010E94203520E030E040E251E40E9483
:10587000F8330E94063682E493E00E94BF070E943C
:10588000B9070E94B9070E94B907CE0101960E948C
:105890005D1C0DC9A7014C5F5F4FBE01695F7F4F63
:1058A000CE0101960E943D0CCE0101960E94001C83
:1058B0004B015C01CE0101960E945D1CA701475F70
:1058C0005F4FBE01695F7F4FCE0101960E943D0C84
:1058D00089819A81009719F00E94422F03C060E0ED
:1058E00070E0CB016D877E878F87988BCE01019604
:1058F0000E945D1CBE01635F7F4FC4010E94E715DB
:105900002CC98091E6049091E704A091E804B0913D
:10591000E9048090E2049090E304A090E404B09045
:10592000E504C0902A05D0902B05E0902C05F0905E
:105930002D05409026055090270560902805709011
:105940002905C418D508E608F708BC01CD01681977
:1059500079098A099B096C157D058E059F0514F44C
:10596000C701B6010E94C507F1C97F928F929F922D
:10597000AF92BF92CF92DF92EF92FF920F931F935D
:10598000CF93DF93109245031092440388EE93E087
:10599000A0E0B0E08093460390934703A0934803B0
:1059A000B09349032AE231E030934303209342034A
:1059B00025EC30E030934F0320934E0324EC30E08D
:1059C000309351032093500320EC30E03093530385
:1059D0002093520321EC30E030935503209354037D
:1059E00022EC30E0309357032093560326EC30E04E
:1059F000309359032093580310925B0310925C0379
:105A000010925D0310925E031092E2031092E10384
:105A10008093E3039093E403A093E503B093E6033C
:105A20008CE391E09093E0038093DF038EE7A82E50
:105A300081E0B82EB0921B05A0921A05D1E0D09358
:105A40001D05109226051092270510922805109228
:105A5000290510922A0510922B0510922C05109200
:105A60002D0510922E0510922F05109230051092E0
:105A70003105C12CD12C90E8E92E9FE3F92EC0927C
:105A80003205D0923305E0923405F092350510923C
:105A90003605109237051092380510923905C092DC
:105AA0003A05D0923B05E0923C05F0923D051092FC
:105AB0003E0510923F05109240051092410501E00D
:105AC00010E0109347050093460599249A9490920C
:105AD0004905109242051092430510924405109218
